{
  "_format": "hh-sol-artifact-1",
  "contractName": "NFTMarketplace",
  "sourceName": "contracts/NFTMarketplace.sol",
  "abi": [
    {
      "anonymous": false,
      "inputs": [
        {
          "indexed": true,
          "internalType": "address",
          "name": "owner",
          "type": "address"
        },
        {
          "indexed": true,
          "internalType": "address",
          "name": "approved",
          "type": "address"
        },
        {
          "indexed": true,
          "internalType": "uint256",
          "name": "tokenId",
          "type": "uint256"
        }
      ],
      "name": "Approval",
      "type": "event"
    },
    {
      "anonymous": false,
      "inputs": [
        {
          "indexed": true,
          "internalType": "address",
          "name": "owner",
          "type": "address"
        },
        {
          "indexed": true,
          "internalType": "address",
          "name": "operator",
          "type": "address"
        },
        {
          "indexed": false,
          "internalType": "bool",
          "name": "approved",
          "type": "bool"
        }
      ],
      "name": "ApprovalForAll",
      "type": "event"
    },
    {
      "anonymous": false,
      "inputs": [
        {
          "indexed": false,
          "internalType": "uint256",
          "name": "_fromTokenId",
          "type": "uint256"
        },
        {
          "indexed": false,
          "internalType": "uint256",
          "name": "_toTokenId",
          "type": "uint256"
        }
      ],
      "name": "BatchMetadataUpdate",
      "type": "event"
    },
    {
      "anonymous": false,
      "inputs": [
        {
          "indexed": false,
          "internalType": "uint8",
          "name": "version",
          "type": "uint8"
        }
      ],
      "name": "Initialized",
      "type": "event"
    },
    {
      "anonymous": false,
      "inputs": [
        {
          "indexed": false,
          "internalType": "uint256",
          "name": "_tokenId",
          "type": "uint256"
        }
      ],
      "name": "MetadataUpdate",
      "type": "event"
    },
    {
      "anonymous": false,
      "inputs": [
        {
          "indexed": true,
          "internalType": "address",
          "name": "previousOwner",
          "type": "address"
        },
        {
          "indexed": true,
          "internalType": "address",
          "name": "newOwner",
          "type": "address"
        }
      ],
      "name": "OwnershipTransferred",
      "type": "event"
    },
    {
      "anonymous": false,
      "inputs": [
        {
          "indexed": true,
          "internalType": "address",
          "name": "from",
          "type": "address"
        },
        {
          "indexed": true,
          "internalType": "address",
          "name": "to",
          "type": "address"
        },
        {
          "indexed": true,
          "internalType": "uint256",
          "name": "tokenId",
          "type": "uint256"
        }
      ],
      "name": "Transfer",
      "type": "event"
    },
    {
      "inputs": [
        {
          "internalType": "address",
          "name": "to",
          "type": "address"
        },
        {
          "internalType": "uint256",
          "name": "tokenId",
          "type": "uint256"
        }
      ],
      "name": "approve",
      "outputs": [],
      "stateMutability": "nonpayable",
      "type": "function"
    },
    {
      "inputs": [
        {
          "internalType": "address",
          "name": "owner",
          "type": "address"
        }
      ],
      "name": "balanceOf",
      "outputs": [
        {
          "internalType": "uint256",
          "name": "",
          "type": "uint256"
        }
      ],
      "stateMutability": "view",
      "type": "function"
    },
    {
      "inputs": [
        {
          "internalType": "uint256",
          "name": "tokenId",
          "type": "uint256"
        },
        {
          "internalType": "uint256",
          "name": "price",
          "type": "uint256"
        },
        {
          "internalType": "enum NFTMarketplace.State",
          "name": "state",
          "type": "uint8"
        }
      ],
      "name": "changeItemStateAndPrice",
      "outputs": [],
      "stateMutability": "payable",
      "type": "function"
    },
    {
      "inputs": [
        {
          "internalType": "uint256",
          "name": "tokenId",
          "type": "uint256"
        }
      ],
      "name": "checkOwner",
      "outputs": [
        {
          "internalType": "address",
          "name": "",
          "type": "address"
        }
      ],
      "stateMutability": "view",
      "type": "function"
    },
    {
      "inputs": [
        {
          "internalType": "string",
          "name": "_tokenURI",
          "type": "string"
        },
        {
          "internalType": "uint256",
          "name": "_price",
          "type": "uint256"
        }
      ],
      "name": "createToken",
      "outputs": [],
      "stateMutability": "payable",
      "type": "function"
    },
    {
      "inputs": [
        {
          "internalType": "uint256",
          "name": "tokenId",
          "type": "uint256"
        }
      ],
      "name": "getActiveMarketItem",
      "outputs": [
        {
          "components": [
            {
              "internalType": "uint256",
              "name": "tokenId",
              "type": "uint256"
            },
            {
              "internalType": "string",
              "name": "tokenURI",
              "type": "string"
            },
            {
              "internalType": "address payable",
              "name": "seller",
              "type": "address"
            },
            {
              "internalType": "address payable",
              "name": "owner",
              "type": "address"
            },
            {
              "internalType": "uint256",
              "name": "price",
              "type": "uint256"
            },
            {
              "internalType": "enum NFTMarketplace.State",
              "name": "state",
              "type": "uint8"
            },
            {
              "internalType": "bool",
              "name": "sold",
              "type": "bool"
            }
          ],
          "internalType": "struct NFTMarketplace.MarketItem",
          "name": "",
          "type": "tuple"
        }
      ],
      "stateMutability": "view",
      "type": "function"
    },
    {
      "inputs": [],
      "name": "getActiveMarketItems",
      "outputs": [
        {
          "components": [
            {
              "internalType": "uint256",
              "name": "tokenId",
              "type": "uint256"
            },
            {
              "internalType": "string",
              "name": "tokenURI",
              "type": "string"
            },
            {
              "internalType": "address payable",
              "name": "seller",
              "type": "address"
            },
            {
              "internalType": "address payable",
              "name": "owner",
              "type": "address"
            },
            {
              "internalType": "uint256",
              "name": "price",
              "type": "uint256"
            },
            {
              "internalType": "enum NFTMarketplace.State",
              "name": "state",
              "type": "uint8"
            },
            {
              "internalType": "bool",
              "name": "sold",
              "type": "bool"
            }
          ],
          "internalType": "struct NFTMarketplace.MarketItem[]",
          "name": "",
          "type": "tuple[]"
        }
      ],
      "stateMutability": "view",
      "type": "function"
    },
    {
      "inputs": [
        {
          "internalType": "uint256",
          "name": "tokenId",
          "type": "uint256"
        }
      ],
      "name": "getApproved",
      "outputs": [
        {
          "internalType": "address",
          "name": "",
          "type": "address"
        }
      ],
      "stateMutability": "view",
      "type": "function"
    },
    {
      "inputs": [
        {
          "internalType": "address",
          "name": "seller",
          "type": "address"
        }
      ],
      "name": "getMarketItemsBySeller",
      "outputs": [
        {
          "components": [
            {
              "internalType": "uint256",
              "name": "tokenId",
              "type": "uint256"
            },
            {
              "internalType": "string",
              "name": "tokenURI",
              "type": "string"
            },
            {
              "internalType": "address payable",
              "name": "seller",
              "type": "address"
            },
            {
              "internalType": "address payable",
              "name": "owner",
              "type": "address"
            },
            {
              "internalType": "uint256",
              "name": "price",
              "type": "uint256"
            },
            {
              "internalType": "enum NFTMarketplace.State",
              "name": "state",
              "type": "uint8"
            },
            {
              "internalType": "bool",
              "name": "sold",
              "type": "bool"
            }
          ],
          "internalType": "struct NFTMarketplace.MarketItem[]",
          "name": "",
          "type": "tuple[]"
        }
      ],
      "stateMutability": "view",
      "type": "function"
    },
    {
      "inputs": [],
      "name": "initialize",
      "outputs": [],
      "stateMutability": "nonpayable",
      "type": "function"
    },
    {
      "inputs": [
        {
          "internalType": "address",
          "name": "owner",
          "type": "address"
        },
        {
          "internalType": "address",
          "name": "operator",
          "type": "address"
        }
      ],
      "name": "isApprovedForAll",
      "outputs": [
        {
          "internalType": "bool",
          "name": "",
          "type": "bool"
        }
      ],
      "stateMutability": "view",
      "type": "function"
    },
    {
      "inputs": [],
      "name": "name",
      "outputs": [
        {
          "internalType": "string",
          "name": "",
          "type": "string"
        }
      ],
      "stateMutability": "view",
      "type": "function"
    },
    {
      "inputs": [],
      "name": "owner",
      "outputs": [
        {
          "internalType": "address",
          "name": "",
          "type": "address"
        }
      ],
      "stateMutability": "view",
      "type": "function"
    },
    {
      "inputs": [
        {
          "internalType": "uint256",
          "name": "tokenId",
          "type": "uint256"
        }
      ],
      "name": "ownerOf",
      "outputs": [
        {
          "internalType": "address",
          "name": "",
          "type": "address"
        }
      ],
      "stateMutability": "view",
      "type": "function"
    },
    {
      "inputs": [
        {
          "internalType": "uint256",
          "name": "tokenId",
          "type": "uint256"
        }
      ],
      "name": "purchaseMarketItem",
      "outputs": [],
      "stateMutability": "payable",
      "type": "function"
    },
    {
      "inputs": [],
      "name": "renounceOwnership",
      "outputs": [],
      "stateMutability": "nonpayable",
      "type": "function"
    },
    {
      "inputs": [
        {
          "internalType": "address",
          "name": "from",
          "type": "address"
        },
        {
          "internalType": "address",
          "name": "to",
          "type": "address"
        },
        {
          "internalType": "uint256",
          "name": "tokenId",
          "type": "uint256"
        }
      ],
      "name": "safeTransferFrom",
      "outputs": [],
      "stateMutability": "nonpayable",
      "type": "function"
    },
    {
      "inputs": [
        {
          "internalType": "address",
          "name": "from",
          "type": "address"
        },
        {
          "internalType": "address",
          "name": "to",
          "type": "address"
        },
        {
          "internalType": "uint256",
          "name": "tokenId",
          "type": "uint256"
        },
        {
          "internalType": "bytes",
          "name": "data",
          "type": "bytes"
        }
      ],
      "name": "safeTransferFrom",
      "outputs": [],
      "stateMutability": "nonpayable",
      "type": "function"
    },
    {
      "inputs": [
        {
          "internalType": "address",
          "name": "operator",
          "type": "address"
        },
        {
          "internalType": "bool",
          "name": "approved",
          "type": "bool"
        }
      ],
      "name": "setApprovalForAll",
      "outputs": [],
      "stateMutability": "nonpayable",
      "type": "function"
    },
    {
      "inputs": [
        {
          "internalType": "bytes4",
          "name": "interfaceId",
          "type": "bytes4"
        }
      ],
      "name": "supportsInterface",
      "outputs": [
        {
          "internalType": "bool",
          "name": "",
          "type": "bool"
        }
      ],
      "stateMutability": "view",
      "type": "function"
    },
    {
      "inputs": [],
      "name": "symbol",
      "outputs": [
        {
          "internalType": "string",
          "name": "",
          "type": "string"
        }
      ],
      "stateMutability": "view",
      "type": "function"
    },
    {
      "inputs": [
        {
          "internalType": "uint256",
          "name": "tokenId",
          "type": "uint256"
        }
      ],
      "name": "tokenURI",
      "outputs": [
        {
          "internalType": "string",
          "name": "",
          "type": "string"
        }
      ],
      "stateMutability": "view",
      "type": "function"
    },
    {
      "inputs": [
        {
          "internalType": "address",
          "name": "from",
          "type": "address"
        },
        {
          "internalType": "address",
          "name": "to",
          "type": "address"
        },
        {
          "internalType": "uint256",
          "name": "tokenId",
          "type": "uint256"
        }
      ],
      "name": "transferFrom",
      "outputs": [],
      "stateMutability": "nonpayable",
      "type": "function"
    },
    {
      "inputs": [
        {
          "internalType": "address",
          "name": "newOwner",
          "type": "address"
        }
      ],
      "name": "transferOwnership",
      "outputs": [],
      "stateMutability": "nonpayable",
      "type": "function"
    }
  ],
  "bytecode": "0x608060405234801561001057600080fd5b506151a8806100206000396000f3fe60806040526004361061014b5760003560e01c80638129fc1c116100b6578063a22cb4651161006f578063a22cb46514610488578063b88d4fde146104b1578063c87b56dd146104da578063e985e9c514610517578063f2fde38b14610554578063fdc16a3e1461057d5761014b565b80638129fc1c14610397578063880ba06d146103ae5780638c77b5b7146103d95780638da5cb5b146103f557806395d89b41146104205780639870dce01461044b5761014b565b806342842e0e1161010857806342842e0e146102845780635d3e8b08146102ad5780636352211e146102ea57806370a0823114610327578063715018a61461036457806372b3b6201461037b5761014b565b806301ffc9a714610150578063023d20b01461018d57806306fdde03146101ca578063081812fc146101f5578063095ea7b31461023257806323b872dd1461025b575b600080fd5b34801561015c57600080fd5b5061017760048036038101906101729190613604565b610599565b604051610184919061364c565b60405180910390f35b34801561019957600080fd5b506101b460048036038101906101af91906136c5565b6105fa565b6040516101c191906139a0565b60405180910390f35b3480156101d657600080fd5b506101df610982565b6040516101ec9190613a0c565b60405180910390f35b34801561020157600080fd5b5061021c60048036038101906102179190613a5a565b610a14565b6040516102299190613a96565b60405180910390f35b34801561023e57600080fd5b5061025960048036038101906102549190613ab1565b610a5a565b005b34801561026757600080fd5b50610282600480360381019061027d9190613af1565b610b71565b005b34801561029057600080fd5b506102ab60048036038101906102a69190613af1565b610c8a565b005b3480156102b957600080fd5b506102d460048036038101906102cf9190613a5a565b610caa565b6040516102e19190613be0565b60405180910390f35b3480156102f657600080fd5b50610311600480360381019061030c9190613a5a565b610f0b565b60405161031e9190613a96565b60405180910390f35b34801561033357600080fd5b5061034e600480360381019061034991906136c5565b610f91565b60405161035b9190613c11565b60405180910390f35b34801561037057600080fd5b50610379611048565b005b61039560048036038101906103909190613d61565b61105c565b005b3480156103a357600080fd5b506103ac6110a1565b005b3480156103ba57600080fd5b506103c36111e7565b6040516103d091906139a0565b60405180910390f35b6103f360048036038101906103ee9190613a5a565b611617565b005b34801561040157600080fd5b5061040a611a53565b6040516104179190613a96565b60405180910390f35b34801561042c57600080fd5b50610435611a7d565b6040516104429190613a0c565b60405180910390f35b34801561045757600080fd5b50610472600480360381019061046d9190613a5a565b611b0f565b60405161047f9190613a96565b60405180910390f35b34801561049457600080fd5b506104af60048036038101906104aa9190613de9565b611b21565b005b3480156104bd57600080fd5b506104d860048036038101906104d39190613eca565b611b37565b005b3480156104e657600080fd5b5061050160048036038101906104fc9190613a5a565b611b99565b60405161050e9190613a0c565b60405180910390f35b34801561052357600080fd5b5061053e60048036038101906105399190613f4d565b611cab565b60405161054b919061364c565b60405180910390f35b34801561056057600080fd5b5061057b600480360381019061057691906136c5565b611d3f565b005b61059760048036038101906105929190613fb2565b611dc2565b005b6000634906490660e01b7bffffffffffffffffffffffffffffffffffffffffffffffffffffffff1916827bffffffffffffffffffffffffffffffffffffffffffffffffffffffff191614806105f357506105f28261210c565b5b9050919050565b6060600080600190505b61012d54811161069a578373ffffffffffffffffffffffffffffffffffffffff1661012e600083815260200190815260200160002060020160009054906101000a900473ffffffffffffffffffffffffffffffffffffffff1673ffffffffffffffffffffffffffffffffffffffff160361068757818061068390614034565b9250505b808061069290614034565b915050610604565b5060008167ffffffffffffffff8111156106b7576106b6613c36565b5b6040519080825280602002602001820160405280156106f057816020015b6106dd61351b565b8152602001906001900390816106d55790505b509050600080600190505b61012d548111610976578573ffffffffffffffffffffffffffffffffffffffff1661012e600083815260200190815260200160002060020160009054906101000a900473ffffffffffffffffffffffffffffffffffffffff1673ffffffffffffffffffffffffffffffffffffffff16036109635761012e60008281526020019081526020016000206040518060e0016040529081600082015481526020016001820180546107a8906140ab565b80601f01602080910402602001604051908101604052809291908181526020018280546107d4906140ab565b80156108215780601f106107f657610100808354040283529160200191610821565b820191906000526020600020905b81548152906001019060200180831161080457829003601f168201915b505050505081526020016002820160009054906101000a900473ffffffffffffffffffffffffffffffffffffffff1673ffffffffffffffffffffffffffffffffffffffff1673ffffffffffffffffffffffffffffffffffffffff1681526020016003820160009054906101000a900473ffffffffffffffffffffffffffffffffffffffff1673ffffffffffffffffffffffffffffffffffffffff1673ffffffffffffffffffffffffffffffffffffffff168152602001600482015481526020016005820160009054906101000a900460ff166001811115610905576109046137e8565b5b6001811115610917576109166137e8565b5b81526020016005820160019054906101000a900460ff161515151581525050838381518110610949576109486140dc565b5b6020026020010181905250818061095f90614034565b9250505b808061096e90614034565b9150506106fb565b50819350505050919050565b606060c98054610991906140ab565b80601f01602080910402602001604051908101604052809291908181526020018280546109bd906140ab565b8015610a0a5780601f106109df57610100808354040283529160200191610a0a565b820191906000526020600020905b8154815290600101906020018083116109ed57829003601f168201915b5050505050905090565b6000610a1f826121ee565b60cd600083815260200190815260200160002060009054906101000a900473ffffffffffffffffffffffffffffffffffffffff169050919050565b6000610a6582610f0b565b90508073ffffffffffffffffffffffffffffffffffffffff168373ffffffffffffffffffffffffffffffffffffffff1603610ad5576040517f08c379a0000000000000000000000000000000000000000000000000000000008152600401610acc9061417d565b60405180910390fd5b8073ffffffffffffffffffffffffffffffffffffffff16610af4612239565b73ffffffffffffffffffffffffffffffffffffffff161480610b235750610b2281610b1d612239565b611cab565b5b610b62576040517f08c379a0000000000000000000000000000000000000000000000000000000008152600401610b599061420f565b60405180910390fd5b610b6c8383612241565b505050565b610b7c838383610c8a565b8161012e600083815260200190815260200160002060030160006101000a81548173ffffffffffffffffffffffffffffffffffffffff021916908373ffffffffffffffffffffffffffffffffffffffff1602179055508161012e600083815260200190815260200160002060020160006101000a81548173ffffffffffffffffffffffffffffffffffffffff021916908373ffffffffffffffffffffffffffffffffffffffff160217905550600161012e600083815260200190815260200160002060050160006101000a81548160ff02191690836001811115610c6357610c626137e8565b5b0217905550600061012e600083815260200190815260200160002060040181905550505050565b610ca583838360405180602001604052806000815250611b37565b505050565b610cb261351b565b60006001811115610cc657610cc56137e8565b5b61012e600084815260200190815260200160002060050160009054906101000a900460ff166001811115610cfd57610cfc6137e8565b5b14610d3d576040517f08c379a0000000000000000000000000000000000000000000000000000000008152600401610d349061427b565b60405180910390fd5b61012e60008381526020019081526020016000206040518060e001604052908160008201548152602001600182018054610d76906140ab565b80601f0160208091040260200160405190810160405280929190818152602001828054610da2906140ab565b8015610def5780601f10610dc457610100808354040283529160200191610def565b820191906000526020600020905b815481529060010190602001808311610dd257829003601f168201915b505050505081526020016002820160009054906101000a900473ffffffffffffffffffffffffffffffffffffffff1673ffffffffffffffffffffffffffffffffffffffff1673ffffffffffffffffffffffffffffffffffffffff1681526020016003820160009054906101000a900473ffffffffffffffffffffffffffffffffffffffff1673ffffffffffffffffffffffffffffffffffffffff1673ffffffffffffffffffffffffffffffffffffffff168152602001600482015481526020016005820160009054906101000a900460ff166001811115610ed357610ed26137e8565b5b6001811115610ee557610ee46137e8565b5b81526020016005820160019054906101000a900460ff1615151515815250509050919050565b600080610f17836122fa565b9050600073ffffffffffffffffffffffffffffffffffffffff168173ffffffffffffffffffffffffffffffffffffffff1603610f88576040517f08c379a0000000000000000000000000000000000000000000000000000000008152600401610f7f906142e7565b60405180910390fd5b80915050919050565b60008073ffffffffffffffffffffffffffffffffffffffff168273ffffffffffffffffffffffffffffffffffffffff1603611001576040517f08c379a0000000000000000000000000000000000000000000000000000000008152600401610ff890614379565b60405180910390fd5b60cc60008373ffffffffffffffffffffffffffffffffffffffff1673ffffffffffffffffffffffffffffffffffffffff168152602001908152602001600020549050919050565b611050612337565b61105a60006123b5565b565b61012d600081548092919061107090614034565b9190505550600061012d549050611087338261247b565b6110918184612499565b61109c81838561253d565b505050565b60008060019054906101000a900460ff161590508080156110d25750600160008054906101000a900460ff1660ff16105b806110ff57506110e1306126e0565b1580156110fe5750600160008054906101000a900460ff1660ff16145b5b61113e576040517f08c379a00000000000000000000000000000000000000000000000000000000081526004016111359061440b565b60405180910390fd5b60016000806101000a81548160ff021916908360ff160217905550801561117b576001600060016101000a81548160ff0219169083151502179055505b611183612703565b61118b61275c565b80156111e45760008060016101000a81548160ff0219169083151502179055507f7f26b83ff96e1f2b6a682f133852f6798a09c465da95921460cefb384740249860016040516111db919061447d565b60405180910390a15b50565b6060600080600190505b61012d5481116112dc573073ffffffffffffffffffffffffffffffffffffffff1661012e600083815260200190815260200160002060030160009054906101000a900473ffffffffffffffffffffffffffffffffffffffff1673ffffffffffffffffffffffffffffffffffffffff161480156112b557506000600181111561127c5761127b6137e8565b5b61012e600083815260200190815260200160002060050160009054906101000a900460ff1660018111156112b3576112b26137e8565b5b145b156112c95781806112c590614034565b9250505b80806112d490614034565b9150506111f1565b5060008167ffffffffffffffff8111156112f9576112f8613c36565b5b60405190808252806020026020018201604052801561133257816020015b61131f61351b565b8152602001906001900390816113175790505b509050600080600190505b61012d54811161160d573073ffffffffffffffffffffffffffffffffffffffff1661012e600083815260200190815260200160002060030160009054906101000a900473ffffffffffffffffffffffffffffffffffffffff1673ffffffffffffffffffffffffffffffffffffffff161480156114015750600060018111156113c8576113c76137e8565b5b61012e600083815260200190815260200160002060050160009054906101000a900460ff1660018111156113ff576113fe6137e8565b5b145b156115fa5761012e60008281526020019081526020016000206040518060e00160405290816000820154815260200160018201805461143f906140ab565b80601f016020809104026020016040519081016040528092919081815260200182805461146b906140ab565b80156114b85780601f1061148d576101008083540402835291602001916114b8565b820191906000526020600020905b81548152906001019060200180831161149b57829003601f168201915b505050505081526020016002820160009054906101000a900473ffffffffffffffffffffffffffffffffffffffff1673ffffffffffffffffffffffffffffffffffffffff1673ffffffffffffffffffffffffffffffffffffffff1681526020016003820160009054906101000a900473ffffffffffffffffffffffffffffffffffffffff1673ffffffffffffffffffffffffffffffffffffffff1673ffffffffffffffffffffffffffffffffffffffff168152602001600482015481526020016005820160009054906101000a900460ff16600181111561159c5761159b6137e8565b5b60018111156115ae576115ad6137e8565b5b81526020016005820160019054906101000a900460ff1615151515815250508383815181106115e0576115df6140dc565b5b602002602001018190525081806115f690614034565b9250505b808061160590614034565b91505061133d565b5081935050505090565b600061012e600083815260200190815260200160002060040154905060006001811115611647576116466137e8565b5b61012e600084815260200190815260200160002060050160009054906101000a900460ff16600181111561167e5761167d6137e8565b5b146116be576040517f08c379a00000000000000000000000000000000000000000000000000000000081526004016116b59061427b565b60405180910390fd5b60008111611701576040517f08c379a00000000000000000000000000000000000000000000000000000000081526004016116f89061427b565b60405180910390fd5b803414611743576040517f08c379a000000000000000000000000000000000000000000000000000000000815260040161173a9061450a565b60405180910390fd5b3373ffffffffffffffffffffffffffffffffffffffff1661012e600084815260200190815260200160002060030160009054906101000a900473ffffffffffffffffffffffffffffffffffffffff1673ffffffffffffffffffffffffffffffffffffffff16036117e8576040517f08c379a00000000000000000000000000000000000000000000000000000000081526004016117df9061459c565b60405180910390fd5b3373ffffffffffffffffffffffffffffffffffffffff1661012e600084815260200190815260200160002060020160009054906101000a900473ffffffffffffffffffffffffffffffffffffffff1673ffffffffffffffffffffffffffffffffffffffff160361188d576040517f08c379a00000000000000000000000000000000000000000000000000000000081526004016118849061462e565b60405180910390fd5b3361012e600084815260200190815260200160002060030160006101000a81548173ffffffffffffffffffffffffffffffffffffffff021916908373ffffffffffffffffffffffffffffffffffffffff1602179055503361012e600084815260200190815260200160002060020160006101000a81548173ffffffffffffffffffffffffffffffffffffffff021916908373ffffffffffffffffffffffffffffffffffffffff160217905550600161012e600084815260200190815260200160002060050160006101000a81548160ff02191690836001811115611974576119736137e8565b5b0217905550600061012e600084815260200190815260200160002060040181905550600161012e600084815260200190815260200160002060050160016101000a81548160ff0219169083151502179055506119d13033846127b5565b61012e600083815260200190815260200160002060020160009054906101000a900473ffffffffffffffffffffffffffffffffffffffff1673ffffffffffffffffffffffffffffffffffffffff166108fc349081150290604051600060405180830381858888f19350505050158015611a4e573d6000803e3d6000fd5b505050565b6000603360009054906101000a900473ffffffffffffffffffffffffffffffffffffffff16905090565b606060ca8054611a8c906140ab565b80601f0160208091040260200160405190810160405280929190818152602001828054611ab8906140ab565b8015611b055780601f10611ada57610100808354040283529160200191611b05565b820191906000526020600020905b815481529060010190602001808311611ae857829003601f168201915b5050505050905090565b6000611b1a82610f0b565b9050919050565b611b33611b2c612239565b8383612aae565b5050565b611b48611b42612239565b83612c1a565b611b87576040517f08c379a0000000000000000000000000000000000000000000000000000000008152600401611b7e906146c0565b60405180910390fd5b611b9384848484612caf565b50505050565b6060611ba4826121ee565b600060fb60008481526020019081526020016000208054611bc4906140ab565b80601f0160208091040260200160405190810160405280929190818152602001828054611bf0906140ab565b8015611c3d5780601f10611c1257610100808354040283529160200191611c3d565b820191906000526020600020905b815481529060010190602001808311611c2057829003601f168201915b505050505090506000611c4e612d0b565b90506000815103611c63578192505050611ca6565b600082511115611c98578082604051602001611c8092919061471c565b60405160208183030381529060405292505050611ca6565b611ca184612d22565b925050505b919050565b600060ce60008473ffffffffffffffffffffffffffffffffffffffff1673ffffffffffffffffffffffffffffffffffffffff16815260200190815260200160002060008373ffffffffffffffffffffffffffffffffffffffff1673ffffffffffffffffffffffffffffffffffffffff16815260200190815260200160002060009054906101000a900460ff16905092915050565b611d47612337565b600073ffffffffffffffffffffffffffffffffffffffff168173ffffffffffffffffffffffffffffffffffffffff1603611db6576040517f08c379a0000000000000000000000000000000000000000000000000000000008152600401611dad906147b2565b60405180910390fd5b611dbf816123b5565b50565b3373ffffffffffffffffffffffffffffffffffffffff1661012e600085815260200190815260200160002060020160009054906101000a900473ffffffffffffffffffffffffffffffffffffffff1673ffffffffffffffffffffffffffffffffffffffff1614611e67576040517f08c379a0000000000000000000000000000000000000000000000000000000008152600401611e5e90614844565b60405180910390fd5b806001811115611e7a57611e796137e8565b5b61012e600085815260200190815260200160002060050160009054906101000a900460ff166001811115611eb157611eb06137e8565b5b03611ef1576040517f08c379a0000000000000000000000000000000000000000000000000000000008152600401611ee8906148d6565b60405180910390fd5b60006001811115611f0557611f046137e8565b5b816001811115611f1857611f176137e8565b5b0361201e5760008211611f60576040517f08c379a0000000000000000000000000000000000000000000000000000000008152600401611f5790614942565b60405180910390fd5b8161012e6000858152602001908152602001600020600401819055503061012e600085815260200190815260200160002060030160006101000a81548173ffffffffffffffffffffffffffffffffffffffff021916908373ffffffffffffffffffffffffffffffffffffffff1602179055503073ffffffffffffffffffffffffffffffffffffffff16611ff284611b0f565b73ffffffffffffffffffffffffffffffffffffffff1614612019576120183330856127b5565b5b6120c8565b600061012e60008581526020019081526020016000206004018190555061012e600084815260200190815260200160002060050160019054906101000a900460ff16156120c7576120703033856127b5565b3361012e600085815260200190815260200160002060030160006101000a81548173ffffffffffffffffffffffffffffffffffffffff021916908373ffffffffffffffffffffffffffffffffffffffff1602179055505b5b8061012e600085815260200190815260200160002060050160006101000a81548160ff02191690836001811115612102576121016137e8565b5b0217905550505050565b60007f80ac58cd000000000000000000000000000000000000000000000000000000007bffffffffffffffffffffffffffffffffffffffffffffffffffffffff1916827bffffffffffffffffffffffffffffffffffffffffffffffffffffffff191614806121d757507f5b5e139f000000000000000000000000000000000000000000000000000000007bffffffffffffffffffffffffffffffffffffffffffffffffffffffff1916827bffffffffffffffffffffffffffffffffffffffffffffffffffffffff1916145b806121e757506121e682612d8a565b5b9050919050565b6121f781612df4565b612236576040517f08c379a000000000000000000000000000000000000000000000000000000000815260040161222d906142e7565b60405180910390fd5b50565b600033905090565b8160cd600083815260200190815260200160002060006101000a81548173ffffffffffffffffffffffffffffffffffffffff021916908373ffffffffffffffffffffffffffffffffffffffff160217905550808273ffffffffffffffffffffffffffffffffffffffff166122b483610f0b565b73ffffffffffffffffffffffffffffffffffffffff167f8c5be1e5ebec7d5bd14f71427d1e84f3dd0314c0f7b2291e5b200ac8c7c3b92560405160405180910390a45050565b600060cb600083815260200190815260200160002060009054906101000a900473ffffffffffffffffffffffffffffffffffffffff169050919050565b61233f612239565b73ffffffffffffffffffffffffffffffffffffffff1661235d611a53565b73ffffffffffffffffffffffffffffffffffffffff16146123b3576040517f08c379a00000000000000000000000000000000000000000000000000000000081526004016123aa906149ae565b60405180910390fd5b565b6000603360009054906101000a900473ffffffffffffffffffffffffffffffffffffffff16905081603360006101000a81548173ffffffffffffffffffffffffffffffffffffffff021916908373ffffffffffffffffffffffffffffffffffffffff1602179055508173ffffffffffffffffffffffffffffffffffffffff168173ffffffffffffffffffffffffffffffffffffffff167f8be0079c531659141344cd1fd0a4f28419497f9722a3daafe3b4186f6b6457e060405160405180910390a35050565b612495828260405180602001604052806000815250612e35565b5050565b6124a282612df4565b6124e1576040517f08c379a00000000000000000000000000000000000000000000000000000000081526004016124d890614a40565b60405180910390fd5b8060fb600084815260200190815260200160002090816125019190614c02565b507ff8e1a15aba9398e019f0b49df1a4fde98ee17ae345cb5f6b5e2c27f5033e8ce7826040516125319190613c11565b60405180910390a15050565b6040518060e001604052808481526020018281526020013373ffffffffffffffffffffffffffffffffffffffff1681526020013073ffffffffffffffffffffffffffffffffffffffff1681526020018381526020016001808111156125a5576125a46137e8565b5b81526020016000151581525061012e60008581526020019081526020016000206000820151816000015560208201518160010190816125e49190614c02565b5060408201518160020160006101000a81548173ffffffffffffffffffffffffffffffffffffffff021916908373ffffffffffffffffffffffffffffffffffffffff16021790555060608201518160030160006101000a81548173ffffffffffffffffffffffffffffffffffffffff021916908373ffffffffffffffffffffffffffffffffffffffff1602179055506080820151816004015560a08201518160050160006101000a81548160ff021916908360018111156126a8576126a76137e8565b5b021790555060c08201518160050160016101000a81548160ff0219169083151502179055509050506126db3330856127b5565b505050565b6000808273ffffffffffffffffffffffffffffffffffffffff163b119050919050565b600060019054906101000a900460ff16612752576040517f08c379a000000000000000000000000000000000000000000000000000000000815260040161274990614d46565b60405180910390fd5b61275a612e90565b565b600060019054906101000a900460ff166127ab576040517f08c379a00000000000000000000000000000000000000000000000000000000081526004016127a290614d46565b60405180910390fd5b6127b3612ef1565b565b8273ffffffffffffffffffffffffffffffffffffffff166127d582610f0b565b73ffffffffffffffffffffffffffffffffffffffff161461282b576040517f08c379a000000000000000000000000000000000000000000000000000000000815260040161282290614dd8565b60405180910390fd5b600073ffffffffffffffffffffffffffffffffffffffff168273ffffffffffffffffffffffffffffffffffffffff160361289a576040517f08c379a000000000000000000000000000000000000000000000000000000000815260040161289190614e6a565b60405180910390fd5b6128a78383836001612f4a565b8273ffffffffffffffffffffffffffffffffffffffff166128c782610f0b565b73ffffffffffffffffffffffffffffffffffffffff161461291d576040517f08c379a000000000000000000000000000000000000000000000000000000000815260040161291490614dd8565b60405180910390fd5b60cd600082815260200190815260200160002060006101000a81549073ffffffffffffffffffffffffffffffffffffffff0219169055600160cc60008573ffffffffffffffffffffffffffffffffffffffff1673ffffffffffffffffffffffffffffffffffffffff16815260200190815260200160002060008282540392505081905550600160cc60008473ffffffffffffffffffffffffffffffffffffffff1673ffffffffffffffffffffffffffffffffffffffff168152602001908152602001600020600082825401925050819055508160cb600083815260200190815260200160002060006101000a81548173ffffffffffffffffffffffffffffffffffffffff021916908373ffffffffffffffffffffffffffffffffffffffff160217905550808273ffffffffffffffffffffffffffffffffffffffff168473ffffffffffffffffffffffffffffffffffffffff167fddf252ad1be2c89b69c2b068fc378daa952ba7f163c4a11628f55a4df523b3ef60405160405180910390a4612aa98383836001612f50565b505050565b8173ffffffffffffffffffffffffffffffffffffffff168373ffffffffffffffffffffffffffffffffffffffff1603612b1c576040517f08c379a0000000000000000000000000000000000000000000000000000000008152600401612b1390614ed6565b60405180910390fd5b8060ce60008573ffffffffffffffffffffffffffffffffffffffff1673ffffffffffffffffffffffffffffffffffffffff16815260200190815260200160002060008473ffffffffffffffffffffffffffffffffffffffff1673ffffffffffffffffffffffffffffffffffffffff16815260200190815260200160002060006101000a81548160ff0219169083151502179055508173ffffffffffffffffffffffffffffffffffffffff168373ffffffffffffffffffffffffffffffffffffffff167f17307eab39ab6107e8899845ad3d59bd9653f200f220920489ca2b5937696c3183604051612c0d919061364c565b60405180910390a3505050565b600080612c2683610f0b565b90508073ffffffffffffffffffffffffffffffffffffffff168473ffffffffffffffffffffffffffffffffffffffff161480612c685750612c678185611cab565b5b80612ca657508373ffffffffffffffffffffffffffffffffffffffff16612c8e84610a14565b73ffffffffffffffffffffffffffffffffffffffff16145b91505092915050565b612cba8484846127b5565b612cc684848484612f56565b612d05576040517f08c379a0000000000000000000000000000000000000000000000000000000008152600401612cfc90614f68565b60405180910390fd5b50505050565b606060405180602001604052806000815250905090565b6060612d2d826121ee565b6000612d37612d0b565b90506000815111612d575760405180602001604052806000815250612d82565b80612d61846130dd565b604051602001612d7292919061471c565b6040516020818303038152906040525b915050919050565b60007f01ffc9a7000000000000000000000000000000000000000000000000000000007bffffffffffffffffffffffffffffffffffffffffffffffffffffffff1916827bffffffffffffffffffffffffffffffffffffffffffffffffffffffff1916149050919050565b60008073ffffffffffffffffffffffffffffffffffffffff16612e16836122fa565b73ffffffffffffffffffffffffffffffffffffffff1614159050919050565b612e3f83836131ab565b612e4c6000848484612f56565b612e8b576040517f08c379a0000000000000000000000000000000000000000000000000000000008152600401612e8290614f68565b60405180910390fd5b505050565b600060019054906101000a900460ff16612edf576040517f08c379a0000000000000000000000000000000000000000000000000000000008152600401612ed690614d46565b60405180910390fd5b612eef612eea612239565b6123b5565b565b600060019054906101000a900460ff16612f40576040517f08c379a0000000000000000000000000000000000000000000000000000000008152600401612f3790614d46565b60405180910390fd5b6001606581905550565b50505050565b50505050565b6000612f778473ffffffffffffffffffffffffffffffffffffffff166126e0565b156130d0578373ffffffffffffffffffffffffffffffffffffffff1663150b7a02612fa0612239565b8786866040518563ffffffff1660e01b8152600401612fc29493929190614fdd565b6020604051808303816000875af1925050508015612ffe57506040513d601f19601f82011682018060405250810190612ffb919061503e565b60015b613080573d806000811461302e576040519150601f19603f3d011682016040523d82523d6000602084013e613033565b606091505b506000815103613078576040517f08c379a000000000000000000000000000000000000000000000000000000000815260040161306f90614f68565b60405180910390fd5b805181602001fd5b63150b7a0260e01b7bffffffffffffffffffffffffffffffffffffffffffffffffffffffff1916817bffffffffffffffffffffffffffffffffffffffffffffffffffffffff1916149150506130d5565b600190505b949350505050565b6060600060016130ec846133c8565b01905060008167ffffffffffffffff81111561310b5761310a613c36565b5b6040519080825280601f01601f19166020018201604052801561313d5781602001600182028036833780820191505090505b509050600082602001820190505b6001156131a0578080600190039150507f3031323334353637383961626364656600000000000000000000000000000000600a86061a8153600a85816131945761319361506b565b5b0494506000850361314b575b819350505050919050565b600073ffffffffffffffffffffffffffffffffffffffff168273ffffffffffffffffffffffffffffffffffffffff160361321a576040517f08c379a0000000000000000000000000000000000000000000000000000000008152600401613211906150e6565b60405180910390fd5b61322381612df4565b15613263576040517f08c379a000000000000000000000000000000000000000000000000000000000815260040161325a90615152565b60405180910390fd5b613271600083836001612f4a565b61327a81612df4565b156132ba576040517f08c379a00000000000000000000000000000000000000000000000000000000081526004016132b190615152565b60405180910390fd5b600160cc60008473ffffffffffffffffffffffffffffffffffffffff1673ffffffffffffffffffffffffffffffffffffffff168152602001908152602001600020600082825401925050819055508160cb600083815260200190815260200160002060006101000a81548173ffffffffffffffffffffffffffffffffffffffff021916908373ffffffffffffffffffffffffffffffffffffffff160217905550808273ffffffffffffffffffffffffffffffffffffffff16600073ffffffffffffffffffffffffffffffffffffffff167fddf252ad1be2c89b69c2b068fc378daa952ba7f163c4a11628f55a4df523b3ef60405160405180910390a46133c4600083836001612f50565b5050565b600080600090507a184f03e93ff9f4daa797ed6e38ed64bf6a1f0100000000000000008310613426577a184f03e93ff9f4daa797ed6e38ed64bf6a1f010000000000000000838161341c5761341b61506b565b5b0492506040810190505b6d04ee2d6d415b85acef81000000008310613463576d04ee2d6d415b85acef810000000083816134595761345861506b565b5b0492506020810190505b662386f26fc10000831061349257662386f26fc1000083816134885761348761506b565b5b0492506010810190505b6305f5e10083106134bb576305f5e10083816134b1576134b061506b565b5b0492506008810190505b61271083106134e05761271083816134d6576134d561506b565b5b0492506004810190505b6064831061350357606483816134f9576134f861506b565b5b0492506002810190505b600a8310613512576001810190505b80915050919050565b6040518060e001604052806000815260200160608152602001600073ffffffffffffffffffffffffffffffffffffffff168152602001600073ffffffffffffffffffffffffffffffffffffffff1681526020016000815260200160006001811115613589576135886137e8565b5b81526020016000151581525090565b6000604051905090565b600080fd5b600080fd5b60007fffffffff0000000000000000000000000000000000000000000000000000000082169050919050565b6135e1816135ac565b81146135ec57600080fd5b50565b6000813590506135fe816135d8565b92915050565b60006020828403121561361a576136196135a2565b5b6000613628848285016135ef565b91505092915050565b60008115159050919050565b61364681613631565b82525050565b6000602082019050613661600083018461363d565b92915050565b600073ffffffffffffffffffffffffffffffffffffffff82169050919050565b600061369282613667565b9050919050565b6136a281613687565b81146136ad57600080fd5b50565b6000813590506136bf81613699565b92915050565b6000602082840312156136db576136da6135a2565b5b60006136e9848285016136b0565b91505092915050565b600081519050919050565b600082825260208201905092915050565b6000819050602082019050919050565b6000819050919050565b6137318161371e565b82525050565b600081519050919050565b600082825260208201905092915050565b60005b83811015613771578082015181840152602081019050613756565b60008484015250505050565b6000601f19601f8301169050919050565b600061379982613737565b6137a38185613742565b93506137b3818560208601613753565b6137bc8161377d565b840191505092915050565b60006137d282613667565b9050919050565b6137e2816137c7565b82525050565b7f4e487b7100000000000000000000000000000000000000000000000000000000600052602160045260246000fd5b60028110613828576138276137e8565b5b50565b600081905061383982613817565b919050565b60006138498261382b565b9050919050565b6138598161383e565b82525050565b61386881613631565b82525050565b600060e0830160008301516138866000860182613728565b506020830151848203602086015261389e828261378e565b91505060408301516138b360408601826137d9565b5060608301516138c660608601826137d9565b5060808301516138d96080860182613728565b5060a08301516138ec60a0860182613850565b5060c08301516138ff60c086018261385f565b508091505092915050565b6000613916838361386e565b905092915050565b6000602082019050919050565b6000613936826136f2565b61394081856136fd565b9350836020820285016139528561370e565b8060005b8581101561398e578484038952815161396f858261390a565b945061397a8361391e565b925060208a01995050600181019050613956565b50829750879550505050505092915050565b600060208201905081810360008301526139ba818461392b565b905092915050565b600082825260208201905092915050565b60006139de82613737565b6139e881856139c2565b93506139f8818560208601613753565b613a018161377d565b840191505092915050565b60006020820190508181036000830152613a2681846139d3565b905092915050565b613a378161371e565b8114613a4257600080fd5b50565b600081359050613a5481613a2e565b92915050565b600060208284031215613a7057613a6f6135a2565b5b6000613a7e84828501613a45565b91505092915050565b613a9081613687565b82525050565b6000602082019050613aab6000830184613a87565b92915050565b60008060408385031215613ac857613ac76135a2565b5b6000613ad6858286016136b0565b9250506020613ae785828601613a45565b9150509250929050565b600080600060608486031215613b0a57613b096135a2565b5b6000613b18868287016136b0565b9350506020613b29868287016136b0565b9250506040613b3a86828701613a45565b9150509250925092565b600060e083016000830151613b5c6000860182613728565b5060208301518482036020860152613b74828261378e565b9150506040830151613b8960408601826137d9565b506060830151613b9c60608601826137d9565b506080830151613baf6080860182613728565b5060a0830151613bc260a0860182613850565b5060c0830151613bd560c086018261385f565b508091505092915050565b60006020820190508181036000830152613bfa8184613b44565b905092915050565b613c0b8161371e565b82525050565b6000602082019050613c266000830184613c02565b92915050565b600080fd5b600080fd5b7f4e487b7100000000000000000000000000000000000000000000000000000000600052604160045260246000fd5b613c6e8261377d565b810181811067ffffffffffffffff82111715613c8d57613c8c613c36565b5b80604052505050565b6000613ca0613598565b9050613cac8282613c65565b919050565b600067ffffffffffffffff821115613ccc57613ccb613c36565b5b613cd58261377d565b9050602081019050919050565b82818337600083830152505050565b6000613d04613cff84613cb1565b613c96565b905082815260208101848484011115613d2057613d1f613c31565b5b613d2b848285613ce2565b509392505050565b600082601f830112613d4857613d47613c2c565b5b8135613d58848260208601613cf1565b91505092915050565b60008060408385031215613d7857613d776135a2565b5b600083013567ffffffffffffffff811115613d9657613d956135a7565b5b613da285828601613d33565b9250506020613db385828601613a45565b9150509250929050565b613dc681613631565b8114613dd157600080fd5b50565b600081359050613de381613dbd565b92915050565b60008060408385031215613e0057613dff6135a2565b5b6000613e0e858286016136b0565b9250506020613e1f85828601613dd4565b9150509250929050565b600067ffffffffffffffff821115613e4457613e43613c36565b5b613e4d8261377d565b9050602081019050919050565b6000613e6d613e6884613e29565b613c96565b905082815260208101848484011115613e8957613e88613c31565b5b613e94848285613ce2565b509392505050565b600082601f830112613eb157613eb0613c2c565b5b8135613ec1848260208601613e5a565b91505092915050565b60008060008060808587031215613ee457613ee36135a2565b5b6000613ef2878288016136b0565b9450506020613f03878288016136b0565b9350506040613f1487828801613a45565b925050606085013567ffffffffffffffff811115613f3557613f346135a7565b5b613f4187828801613e9c565b91505092959194509250565b60008060408385031215613f6457613f636135a2565b5b6000613f72858286016136b0565b9250506020613f83858286016136b0565b9150509250929050565b60028110613f9a57600080fd5b50565b600081359050613fac81613f8d565b92915050565b600080600060608486031215613fcb57613fca6135a2565b5b6000613fd986828701613a45565b9350506020613fea86828701613a45565b9250506040613ffb86828701613f9d565b9150509250925092565b7f4e487b7100000000000000000000000000000000000000000000000000000000600052601160045260246000fd5b600061403f8261371e565b91507fffffffffffffffffffffffffffffffffffffffffffffffffffffffffffffffff820361407157614070614005565b5b600182019050919050565b7f4e487b7100000000000000000000000000000000000000000000000000000000600052602260045260246000fd5b600060028204905060018216806140c357607f821691505b6020821081036140d6576140d561407c565b5b50919050565b7f4e487b7100000000000000000000000000000000000000000000000000000000600052603260045260246000fd5b7f4552433732313a20617070726f76616c20746f2063757272656e74206f776e6560008201527f7200000000000000000000000000000000000000000000000000000000000000602082015250565b60006141676021836139c2565b91506141728261410b565b604082019050919050565b600060208201905081810360008301526141968161415a565b9050919050565b7f4552433732313a20617070726f76652063616c6c6572206973206e6f7420746f60008201527f6b656e206f776e6572206f7220617070726f76656420666f7220616c6c000000602082015250565b60006141f9603d836139c2565b91506142048261419d565b604082019050919050565b60006020820190508181036000830152614228816141ec565b9050919050565b7f54686973206974656d206973206e6f7420666f722073616c6500000000000000600082015250565b60006142656019836139c2565b91506142708261422f565b602082019050919050565b6000602082019050818103600083015261429481614258565b9050919050565b7f4552433732313a20696e76616c696420746f6b656e2049440000000000000000600082015250565b60006142d16018836139c2565b91506142dc8261429b565b602082019050919050565b60006020820190508181036000830152614300816142c4565b9050919050565b7f4552433732313a2061646472657373207a65726f206973206e6f74206120766160008201527f6c6964206f776e65720000000000000000000000000000000000000000000000602082015250565b60006143636029836139c2565b915061436e82614307565b604082019050919050565b6000602082019050818103600083015261439281614356565b9050919050565b7f496e697469616c697a61626c653a20636f6e747261637420697320616c72656160008201527f647920696e697469616c697a6564000000000000000000000000000000000000602082015250565b60006143f5602e836139c2565b915061440082614399565b604082019050919050565b60006020820190508181036000830152614424816143e8565b9050919050565b6000819050919050565b600060ff82169050919050565b6000819050919050565b600061446761446261445d8461442b565b614442565b614435565b9050919050565b6144778161444c565b82525050565b6000602082019050614492600083018461446e565b92915050565b7f506c65617365207375626d6974207468652061736b696e67207072696365206960008201527f6e206f7264657220746f20636f6d706c65746520746865207075726368617365602082015250565b60006144f46040836139c2565b91506144ff82614498565b604082019050919050565b60006020820190508181036000830152614523816144e7565b9050919050565b7f596f752061726520746865206f776e6572206f662074686973206974656d206160008201527f6c72656164790000000000000000000000000000000000000000000000000000602082015250565b60006145866026836139c2565b91506145918261452a565b604082019050919050565b600060208201905081810360008301526145b581614579565b9050919050565b7f596f7520617265207468652073656c6c6572206f662074686973206974656d2060008201527f616c726561647900000000000000000000000000000000000000000000000000602082015250565b60006146186027836139c2565b9150614623826145bc565b604082019050919050565b600060208201905081810360008301526146478161460b565b9050919050565b7f4552433732313a2063616c6c6572206973206e6f7420746f6b656e206f776e6560008201527f72206f7220617070726f76656400000000000000000000000000000000000000602082015250565b60006146aa602d836139c2565b91506146b58261464e565b604082019050919050565b600060208201905081810360008301526146d98161469d565b9050919050565b600081905092915050565b60006146f682613737565b61470081856146e0565b9350614710818560208601613753565b80840191505092915050565b600061472882856146eb565b915061473482846146eb565b91508190509392505050565b7f4f776e61626c653a206e6577206f776e657220697320746865207a65726f206160008201527f6464726573730000000000000000000000000000000000000000000000000000602082015250565b600061479c6026836139c2565b91506147a782614740565b604082019050919050565b600060208201905081810360008301526147cb8161478f565b9050919050565b7f43616c6c6572206973206e6f74207468652073656c6c6572206f66207468652060008201527f6974656d00000000000000000000000000000000000000000000000000000000602082015250565b600061482e6024836139c2565b9150614839826147d2565b604082019050919050565b6000602082019050818103600083015261485d81614821565b9050919050565b7f4974656d20697320616c72656164792073657420746f2074686973207374617460008201527f6500000000000000000000000000000000000000000000000000000000000000602082015250565b60006148c06021836139c2565b91506148cb82614864565b604082019050919050565b600060208201905081810360008301526148ef816148b3565b9050919050565b7f5072696365206d757374206265206174206c6561737420312077656900000000600082015250565b600061492c601c836139c2565b9150614937826148f6565b602082019050919050565b6000602082019050818103600083015261495b8161491f565b9050919050565b7f4f776e61626c653a2063616c6c6572206973206e6f7420746865206f776e6572600082015250565b60006149986020836139c2565b91506149a382614962565b602082019050919050565b600060208201905081810360008301526149c78161498b565b9050919050565b7f45524337323155524953746f726167653a2055524920736574206f66206e6f6e60008201527f6578697374656e7420746f6b656e000000000000000000000000000000000000602082015250565b6000614a2a602e836139c2565b9150614a35826149ce565b604082019050919050565b60006020820190508181036000830152614a5981614a1d565b9050919050565b60008190508160005260206000209050919050565b60006020601f8301049050919050565b600082821b905092915050565b600060088302614ac27fffffffffffffffffffffffffffffffffffffffffffffffffffffffffffffffff82614a85565b614acc8683614a85565b95508019841693508086168417925050509392505050565b6000614aff614afa614af58461371e565b614442565b61371e565b9050919050565b6000819050919050565b614b1983614ae4565b614b2d614b2582614b06565b848454614a92565b825550505050565b600090565b614b42614b35565b614b4d818484614b10565b505050565b5b81811015614b7157614b66600082614b3a565b600181019050614b53565b5050565b601f821115614bb657614b8781614a60565b614b9084614a75565b81016020851015614b9f578190505b614bb3614bab85614a75565b830182614b52565b50505b505050565b600082821c905092915050565b6000614bd960001984600802614bbb565b1980831691505092915050565b6000614bf28383614bc8565b9150826002028217905092915050565b614c0b82613737565b67ffffffffffffffff811115614c2457614c23613c36565b5b614c2e82546140ab565b614c39828285614b75565b600060209050601f831160018114614c6c5760008415614c5a578287015190505b614c648582614be6565b865550614ccc565b601f198416614c7a86614a60565b60005b82811015614ca257848901518255600182019150602085019450602081019050614c7d565b86831015614cbf5784890151614cbb601f891682614bc8565b8355505b6001600288020188555050505b505050505050565b7f496e697469616c697a61626c653a20636f6e7472616374206973206e6f74206960008201527f6e697469616c697a696e67000000000000000000000000000000000000000000602082015250565b6000614d30602b836139c2565b9150614d3b82614cd4565b604082019050919050565b60006020820190508181036000830152614d5f81614d23565b9050919050565b7f4552433732313a207472616e736665722066726f6d20696e636f72726563742060008201527f6f776e6572000000000000000000000000000000000000000000000000000000602082015250565b6000614dc26025836139c2565b9150614dcd82614d66565b604082019050919050565b60006020820190508181036000830152614df181614db5565b9050919050565b7f4552433732313a207472616e7366657220746f20746865207a65726f2061646460008201527f7265737300000000000000000000000000000000000000000000000000000000602082015250565b6000614e546024836139c2565b9150614e5f82614df8565b604082019050919050565b60006020820190508181036000830152614e8381614e47565b9050919050565b7f4552433732313a20617070726f766520746f2063616c6c657200000000000000600082015250565b6000614ec06019836139c2565b9150614ecb82614e8a565b602082019050919050565b60006020820190508181036000830152614eef81614eb3565b9050919050565b7f4552433732313a207472616e7366657220746f206e6f6e20455243373231526560008201527f63656976657220696d706c656d656e7465720000000000000000000000000000602082015250565b6000614f526032836139c2565b9150614f5d82614ef6565b604082019050919050565b60006020820190508181036000830152614f8181614f45565b9050919050565b600081519050919050565b600082825260208201905092915050565b6000614faf82614f88565b614fb98185614f93565b9350614fc9818560208601613753565b614fd28161377d565b840191505092915050565b6000608082019050614ff26000830187613a87565b614fff6020830186613a87565b61500c6040830185613c02565b818103606083015261501e8184614fa4565b905095945050505050565b600081519050615038816135d8565b92915050565b600060208284031215615054576150536135a2565b5b600061506284828501615029565b91505092915050565b7f4e487b7100000000000000000000000000000000000000000000000000000000600052601260045260246000fd5b7f4552433732313a206d696e7420746f20746865207a65726f2061646472657373600082015250565b60006150d06020836139c2565b91506150db8261509a565b602082019050919050565b600060208201905081810360008301526150ff816150c3565b9050919050565b7f4552433732313a20746f6b656e20616c7265616479206d696e74656400000000600082015250565b600061513c601c836139c2565b915061514782615106565b602082019050919050565b6000602082019050818103600083015261516b8161512f565b905091905056fea26469706673582212200b78fa3a26971b335f58c4cec7612aaecc70dcb05361b209c3727d0fe972008464736f6c63430008120033",
  "linkReferences": {},
  "deployedLinkReferences": {}
}