{
	"data": {
		"bytecode": {
			"linkReferences": {},
			"object": "6080604052348015600e575f80fd5b50615b8d8061001c5f395ff3fe6080604052600436106100fd575f3560e01c80638c77b5b711610094578063b9a2de3a11610063578063b9a2de3a146102e5578063c7be7a491461030d578063e2413c0e14610349578063f2fde38b14610371578063fe4b84df14610399576100fd565b80638c77b5b71461023b5780638da5cb5b14610257578063a48216e314610281578063a7b19424146102bd576100fd565b8063704dd580116100d0578063704dd58014610197578063715018a6146101c157806373413564146101d75780637fb770cb14610213576100fd565b8063023d20b01461010157806321d027531461013d5780633ccfd60b14610165578063454a2ab31461017b575b5f80fd5b34801561010c575f80fd5b5061012760048036038101906101229190613bbf565b6103c1565b6040516101349190613fe8565b60405180910390f35b348015610148575f80fd5b50610163600480360381019061015e9190614032565b610937565b005b348015610170575f80fd5b50610179610b7a565b005b61019560048036038101906101909190614032565b610c16565b005b3480156101a2575f80fd5b506101ab610fb0565b6040516101b89190613fe8565b60405180910390f35b3480156101cc575f80fd5b506101d56113c3565b005b3480156101e2575f80fd5b506101fd60048036038101906101f8919061419d565b6113d6565b60405161020a9190614206565b60405180910390f35b34801561021e575f80fd5b5061023960048036038101906102349190614032565b611810565b005b61025560048036038101906102509190614032565b611977565b005b348015610262575f80fd5b5061026b611c77565b604051610278919061422e565b60405180910390f35b34801561028c575f80fd5b506102a760048036038101906102a29190614321565b611cac565b6040516102b49190614206565b60405180910390f35b3480156102c8575f80fd5b506102e360048036038101906102de91906143f6565b612192565b005b3480156102f0575f80fd5b5061030b60048036038101906103069190614032565b6123a4565b005b348015610318575f80fd5b50610333600480360381019061032e9190614032565b612732565b6040516103409190614543565b60405180910390f35b348015610354575f80fd5b5061036f600480360381019061036a9190614563565b612a72565b005b34801561037c575f80fd5b5061039760048036038101906103929190613bbf565b612c1e565b005b3480156103a4575f80fd5b506103bf60048036038101906103ba9190614032565b612ca2565b005b60605f80600190505b603280549050811015610476578373ffffffffffffffffffffffffffffffffffffffff1660355f60328481548110610405576104046145eb565b5b905f5260205f20015481526020019081526020015f206005015f9054906101000a900473ffffffffffffffffffffffffffffffffffffffff1673ffffffffffffffffffffffffffffffffffffffff1603610469576001826104669190614645565b91505b80806001019150506103ca565b505f81036104b9576040517f08c379a00000000000000000000000000000000000000000000000000000000081526004016104b0906146d2565b60405180910390fd5b5f8167ffffffffffffffff8111156104d4576104d3614061565b5b60405190808252806020026020018201604052801561050d57816020015b6104fa613999565b8152602001906001900390816104f25790505b5090505f80600190505b60328054905081101561092b578573ffffffffffffffffffffffffffffffffffffffff1660355f60328481548110610552576105516145eb565b5b905f5260205f20015481526020019081526020015f206005015f9054906101000a900473ffffffffffffffffffffffffffffffffffffffff1673ffffffffffffffffffffffffffffffffffffffff160361091e5760355f603283815481106105bd576105bc6145eb565b5b905f5260205f20015481526020019081526020015f20604051806101800160405290815f82015f9054906101000a900460ff1615151515815260200160018201548152602001600282015f9054906101000a900473ffffffffffffffffffffffffffffffffffffffff1673ffffffffffffffffffffffffffffffffffffffff1673ffffffffffffffffffffffffffffffffffffffff168152602001600382018054806020026020016040519081016040528092919081815260200182805480156106a457602002820191905f5260205f20905b815481526020019060010190808311610690575b5050505050815260200160048201805480602002602001604051908101604052809291908181526020015f905b82821015610779578382905f5260205f200180546106ee9061471d565b80601f016020809104026020016040519081016040528092919081815260200182805461071a9061471d565b80156107655780601f1061073c57610100808354040283529160200191610765565b820191905f5260205f20905b81548152906001019060200180831161074857829003601f168201915b5050505050815260200190600101906106d1565b505050508152602001600582015f9054906101000a900473ffffffffffffffffffffffffffffffffffffffff1673ffffffffffffffffffffffffffffffffffffffff1673ffffffffffffffffffffffffffffffffffffffff168152602001600682015f9054906101000a900473ffffffffffffffffffffffffffffffffffffffff1673ffffffffffffffffffffffffffffffffffffffff1673ffffffffffffffffffffffffffffffffffffffff168152602001600782015481526020016008820180546108459061471d565b80601f01602080910402602001604051908101604052809291908181526020018280546108719061471d565b80156108bc5780601f10610893576101008083540402835291602001916108bc565b820191905f5260205f20905b81548152906001019060200180831161089f57829003601f168201915b50505050508152602001600982015f9054906101000a900460ff16151515158152602001600a8201548152602001600b820154815250508383806108ff9061474d565b945081518110610912576109116145eb565b5b60200260200101819052505b8080600101915050610517565b50819350505050919050565b803373ffffffffffffffffffffffffffffffffffffffff1660355f8381526020019081526020015f206005015f9054906101000a900473ffffffffffffffffffffffffffffffffffffffff1673ffffffffffffffffffffffffffffffffffffffff16146109d9576040517f08c379a00000000000000000000000000000000000000000000000000000000081526004016109d090614804565b60405180910390fd5b8160355f8281526020019081526020015f205f015f9054906101000a900460ff16610a39576040517f08c379a0000000000000000000000000000000000000000000000000000000008152600401610a309061486c565b60405180910390fd5b610a41612e62565b5f73ffffffffffffffffffffffffffffffffffffffff1660355f8581526020019081526020015f206006015f9054906101000a900473ffffffffffffffffffffffffffffffffffffffff1673ffffffffffffffffffffffffffffffffffffffff1614610ae2576040517f08c379a0000000000000000000000000000000000000000000000000000000008152600401610ad9906148d4565b60405180910390fd5b5f60355f8581526020019081526020015f206009015f9054906101000a900460ff169050801560355f8681526020019081526020015f206009015f6101000a81548160ff0219169083151502179055507f0a213c37322060016e7d43cf428d26cb39195f34af43cd5428e0c5ace641cbdb848215604051610b64929190614901565b60405180910390a150610b75612eaf565b505050565b610b82612eb8565b5f4790505f8111610bc8576040517f08c379a0000000000000000000000000000000000000000000000000000000008152600401610bbf90614972565b60405180910390fd5b610bd0611c77565b73ffffffffffffffffffffffffffffffffffffffff166108fc8290811502906040515f60405180830381858888f19350505050158015610c12573d5f803e3d5ffd5b5050565b8060355f8281526020019081526020015f205f015f9054906101000a900460ff16610c76576040517f08c379a0000000000000000000000000000000000000000000000000000000008152600401610c6d9061486c565b60405180910390fd5b610c7e612e62565b5f60355f8481526020019081526020015f209050806009015f9054906101000a900460ff16610ce2576040517f08c379a0000000000000000000000000000000000000000000000000000000008152600401610cd9906149da565b60405180910390fd5b80600b0154421115610d29576040517f08c379a0000000000000000000000000000000000000000000000000000000008152600401610d2090614a42565b60405180910390fd5b80600a0154421015610d70576040517f08c379a0000000000000000000000000000000000000000000000000000000008152600401610d6790614aaa565b60405180910390fd5b80600701543411610db6576040517f08c379a0000000000000000000000000000000000000000000000000000000008152600401610dad90614b38565b60405180910390fd5b806005015f9054906101000a900473ffffffffffffffffffffffffffffffffffffffff1673ffffffffffffffffffffffffffffffffffffffff163373ffffffffffffffffffffffffffffffffffffffff1603610e47576040517f08c379a0000000000000000000000000000000000000000000000000000000008152600401610e3e90614ba0565b60405180910390fd5b5f73ffffffffffffffffffffffffffffffffffffffff16816006015f9054906101000a900473ffffffffffffffffffffffffffffffffffffffff1673ffffffffffffffffffffffffffffffffffffffff1614610f0957806006015f9054906101000a900473ffffffffffffffffffffffffffffffffffffffff1673ffffffffffffffffffffffffffffffffffffffff166108fc826007015490811502906040515f60405180830381858888f19350505050158015610f07573d5f803e3d5ffd5b505b34816007018190555033816006015f6101000a81548173ffffffffffffffffffffffffffffffffffffffff021916908373ffffffffffffffffffffffffffffffffffffffff1602179055503373ffffffffffffffffffffffffffffffffffffffff16837f0e54eff26401bf69b81b26f60bd85ef47f5d85275c1d268d84f68d6897431c4734604051610f9b9190614206565b60405180910390a350610fac612eaf565b5050565b60605f6001603280549050610fc59190614bbe565b90505f8167ffffffffffffffff811115610fe257610fe1614061565b5b60405190808252806020026020018201604052801561101b57816020015b611008613999565b8152602001906001900390816110005790505b5090505f600190505b8281116113ba575f603282815481106110405761103f6145eb565b5b905f5260205f200154905060355f8281526020019081526020015f20604051806101800160405290815f82015f9054906101000a900460ff1615151515815260200160018201548152602001600282015f9054906101000a900473ffffffffffffffffffffffffffffffffffffffff1673ffffffffffffffffffffffffffffffffffffffff1673ffffffffffffffffffffffffffffffffffffffff1681526020016003820180548060200260200160405190810160405280929190818152602001828054801561112d57602002820191905f5260205f20905b815481526020019060010190808311611119575b5050505050815260200160048201805480602002602001604051908101604052809291908181526020015f905b82821015611202578382905f5260205f200180546111779061471d565b80601f01602080910402602001604051908101604052809291908181526020018280546111a39061471d565b80156111ee5780601f106111c5576101008083540402835291602001916111ee565b820191905f5260205f20905b8154815290600101906020018083116111d157829003601f168201915b50505050508152602001906001019061115a565b505050508152602001600582015f9054906101000a900473ffffffffffffffffffffffffffffffffffffffff1673ffffffffffffffffffffffffffffffffffffffff1673ffffffffffffffffffffffffffffffffffffffff168152602001600682015f9054906101000a900473ffffffffffffffffffffffffffffffffffffffff1673ffffffffffffffffffffffffffffffffffffffff1673ffffffffffffffffffffffffffffffffffffffff168152602001600782015481526020016008820180546112ce9061471d565b80601f01602080910402602001604051908101604052809291908181526020018280546112fa9061471d565b80156113455780601f1061131c57610100808354040283529160200191611345565b820191905f5260205f20905b81548152906001019060200180831161132857829003601f168201915b50505050508152602001600982015f9054906101000a900460ff16151515158152602001600a8201548152602001600b820154815250508360018461138a9190614bbe565b8151811061139b5761139a6145eb565b5b60200260200101819052505080806113b29061474d565b915050611024565b50809250505090565b6113cb612eb8565b6113d45f612f3f565b565b5f8082511161141a576040517f08c379a000000000000000000000000000000000000000000000000000000000815260040161141190614c3b565b60405180910390fd5b5f60328054905090505f600190505b81811015611804575f60355f60328481548110611449576114486145eb565b5b905f5260205f20015481526020019081526020015f20604051806101800160405290815f82015f9054906101000a900460ff1615151515815260200160018201548152602001600282015f9054906101000a900473ffffffffffffffffffffffffffffffffffffffff1673ffffffffffffffffffffffffffffffffffffffff1673ffffffffffffffffffffffffffffffffffffffff1681526020016003820180548060200260200160405190810160405280929190818152602001828054801561153057602002820191905f5260205f20905b81548152602001906001019080831161151c575b5050505050815260200160048201805480602002602001604051908101604052809291908181526020015f905b82821015611605578382905f5260205f2001805461157a9061471d565b80601f01602080910402602001604051908101604052809291908181526020018280546115a69061471d565b80156115f15780601f106115c8576101008083540402835291602001916115f1565b820191905f5260205f20905b8154815290600101906020018083116115d457829003601f168201915b50505050508152602001906001019061155d565b505050508152602001600582015f9054906101000a900473ffffffffffffffffffffffffffffffffffffffff1673ffffffffffffffffffffffffffffffffffffffff1673ffffffffffffffffffffffffffffffffffffffff168152602001600682015f9054906101000a900473ffffffffffffffffffffffffffffffffffffffff1673ffffffffffffffffffffffffffffffffffffffff1673ffffffffffffffffffffffffffffffffffffffff168152602001600782015481526020016008820180546116d19061471d565b80601f01602080910402602001604051908101604052809291908181526020018280546116fd9061471d565b80156117485780601f1061171f57610100808354040283529160200191611748565b820191905f5260205f20905b81548152906001019060200180831161172b57829003601f168201915b50505050508152602001600982015f9054906101000a900460ff16151515158152602001600a8201548152602001600b8201548152505090508573ffffffffffffffffffffffffffffffffffffffff16816040015173ffffffffffffffffffffffffffffffffffffffff161480156117ca57506117c9816060015186613010565b5b156117f657603282815481106117e3576117e26145eb565b5b905f5260205f200154935050505061180a565b508080600101915050611429565b505f9150505b92915050565b803373ffffffffffffffffffffffffffffffffffffffff1660355f8381526020019081526020015f206005015f9054906101000a900473ffffffffffffffffffffffffffffffffffffffff1673ffffffffffffffffffffffffffffffffffffffff16146118b2576040517f08c379a00000000000000000000000000000000000000000000000000000000081526004016118a990614804565b60405180910390fd5b8160355f8281526020019081526020015f205f015f9054906101000a900460ff16611912576040517f08c379a00000000000000000000000000000000000000000000000000000000081526004016119099061486c565b60405180910390fd5b5f60355f8581526020019081526020015f205f015f6101000a81548160ff021916908315150217905550611945836130bd565b827fd371e668750cb458fa9a55e99ade07ce913d63ab733d6e30fe303723e106cf9660405160405180910390a2505050565b8060355f8281526020019081526020015f205f015f9054906101000a900460ff166119d7576040517f08c379a00000000000000000000000000000000000000000000000000000000081526004016119ce9061486c565b60405180910390fd5b6119df612e62565b5f60355f8481526020019081526020015f209050806009015f9054906101000a900460ff1615611a44576040517f08c379a0000000000000000000000000000000000000000000000000000000008152600401611a3b90614ca3565b60405180910390fd5b8060070154341015611a8b576040517f08c379a0000000000000000000000000000000000000000000000000000000008152600401611a8290614d31565b60405180910390fd5b80600b0154421115611ad2576040517f08c379a0000000000000000000000000000000000000000000000000000000008152600401611ac990614d99565b60405180910390fd5b5f816005015f9054906101000a900473ffffffffffffffffffffffffffffffffffffffff1690508073ffffffffffffffffffffffffffffffffffffffff166108fc60646034546064611b249190614bbe565b8560070154611b339190614db7565b611b3d9190614e25565b90811502906040515f60405180830381858888f19350505050158015611b65573d5f803e3d5ffd5b50611c08826002015f9054906101000a900473ffffffffffffffffffffffffffffffffffffffff1683600301805480602002602001604051908101604052809291908181526020018280548015611bd957602002820191905f5260205f20905b815481526020019060010190808311611bc5575b5050505050846005015f9054906101000a900473ffffffffffffffffffffffffffffffffffffffff163361317c565b5f825f015f6101000a81548160ff021916908315150217905550611c2b846130bd565b837fb481b742304411974d9797ac9e3c74cbf8c9e4b6b1965c5afb6c0708822cab34338460070154604051611c61929190614e55565b60405180910390a25050611c73612eaf565b5050565b5f80611c8161343f565b9050805f015f9054906101000a900473ffffffffffffffffffffffffffffffffffffffff1691505090565b5f808611611cef576040517f08c379a0000000000000000000000000000000000000000000000000000000008152600401611ce690614ec6565b60405180910390fd5b611cfa888833613466565b611d39576040517f08c379a0000000000000000000000000000000000000000000000000000000008152600401611d3090614f54565b60405180910390fd5b5f611d4489896113d6565b90505f8103611d9a57611d5561373f565b90505f8103611d99576040517f08c379a0000000000000000000000000000000000000000000000000000000008152600401611d9090614fbc565b60405180910390fd5b5b5f885167ffffffffffffffff811115611db657611db5614061565b5b604051908082528060200260200182016040528015611de957816020015b6060815260200190600190039081611dd45790505b5090505f5b8951811015611eb7578a73ffffffffffffffffffffffffffffffffffffffff1663c87b56dd8b8381518110611e2657611e256145eb565b5b60200260200101516040518263ffffffff1660e01b8152600401611e4a9190614206565b5f60405180830381865afa158015611e64573d5f803e3d5ffd5b505050506040513d5f823e3d601f19601f82011682018060405250810190611e8c9190615048565b828281518110611e9f57611e9e6145eb565b5b60200260200101819052508080600101915050611dee565b506040518061018001604052806001151581526020018381526020018b73ffffffffffffffffffffffffffffffffffffffff1681526020018a81526020018281526020013373ffffffffffffffffffffffffffffffffffffffff1681526020015f73ffffffffffffffffffffffffffffffffffffffff16815260200189815260200188815260200187151581526020018681526020018581525060355f8481526020019081526020015f205f820151815f015f6101000a81548160ff021916908315150217905550602082015181600101556040820151816002015f6101000a81548173ffffffffffffffffffffffffffffffffffffffff021916908373ffffffffffffffffffffffffffffffffffffffff1602179055506060820151816003019080519060200190611feb929190613a37565b506080820151816004019080519060200190612008929190613a82565b5060a0820151816005015f6101000a81548173ffffffffffffffffffffffffffffffffffffffff021916908373ffffffffffffffffffffffffffffffffffffffff16021790555060c0820151816006015f6101000a81548173ffffffffffffffffffffffffffffffffffffffff021916908373ffffffffffffffffffffffffffffffffffffffff16021790555060e082015181600701556101008201518160080190816120b5919061522c565b50610120820151816009015f6101000a81548160ff02191690831515021790555061014082015181600a015561016082015181600b0155905050603282908060018154018082558091505060019003905f5260205f20015f9091909190915055886040516121239190615387565b60405180910390208a73ffffffffffffffffffffffffffffffffffffffff16837fbee0becaac8d2a6cbdf6dd7f342fac7f0c67ecf84a6b19b9b1c7add2b57b4441338c8b8b8b60405161217a95949392919061539d565b60405180910390a48192505050979650505050505050565b813373ffffffffffffffffffffffffffffffffffffffff1660355f8381526020019081526020015f206005015f9054906101000a900473ffffffffffffffffffffffffffffffffffffffff1673ffffffffffffffffffffffffffffffffffffffff1614612234576040517f08c379a000000000000000000000000000000000000000000000000000000000815260040161222b90614804565b60405180910390fd5b8260355f8281526020019081526020015f205f015f9054906101000a900460ff16612294576040517f08c379a000000000000000000000000000000000000000000000000000000000815260040161228b9061486c565b60405180910390fd5b5f60355f8681526020019081526020015f209050806009015f9054906101000a900460ff16158061231357505f73ffffffffffffffffffffffffffffffffffffffff16816006015f9054906101000a900473ffffffffffffffffffffffffffffffffffffffff1673ffffffffffffffffffffffffffffffffffffffff16145b612352576040517f08c379a00000000000000000000000000000000000000000000000000000000081526004016123499061545e565b60405180910390fd5b5f8411612394576040517f08c379a000000000000000000000000000000000000000000000000000000000815260040161238b90614ec6565b60405180910390fd5b8381600701819055505050505050565b8060355f8281526020019081526020015f205f015f9054906101000a900460ff16612404576040517f08c379a00000000000000000000000000000000000000000000000000000000081526004016123fb9061486c565b60405180910390fd5b61240c612e62565b5f60355f8481526020019081526020015f209050806009015f9054906101000a900460ff16612470576040517f08c379a0000000000000000000000000000000000000000000000000000000008152600401612467906154c6565b60405180910390fd5b80600b015442116124b6576040517f08c379a00000000000000000000000000000000000000000000000000000000081526004016124ad9061552e565b60405180910390fd5b5f73ffffffffffffffffffffffffffffffffffffffff16816006015f9054906101000a900473ffffffffffffffffffffffffffffffffffffffff1673ffffffffffffffffffffffffffffffffffffffff16146126c757806005015f9054906101000a900473ffffffffffffffffffffffffffffffffffffffff1673ffffffffffffffffffffffffffffffffffffffff166108fc6064603454606461255a9190614bbe565b84600701546125699190614db7565b6125739190614e25565b90811502906040515f60405180830381858888f1935050505015801561259b573d5f803e3d5ffd5b50612661816002015f9054906101000a900473ffffffffffffffffffffffffffffffffffffffff168260030180548060200260200160405190810160405280929190818152602001828054801561260f57602002820191905f5260205f20905b8154815260200190600101908083116125fb575b5050505050836005015f9054906101000a900473ffffffffffffffffffffffffffffffffffffffff16846006015f9054906101000a900473ffffffffffffffffffffffffffffffffffffffff1661317c565b827fd2aa34a4fdbbc6dff6a3e56f46e0f3ae2a31d7785ff3487aa5c95c642acea501826006015f9054906101000a900473ffffffffffffffffffffffffffffffffffffffff1683600701546040516126ba92919061559e565b60405180910390a2612702565b827fd2aa34a4fdbbc6dff6a3e56f46e0f3ae2a31d7785ff3487aa5c95c642acea5015f806040516126f99291906155fe565b60405180910390a25b5f815f015f6101000a81548160ff021916908315150217905550612725836130bd565b5061272e612eaf565b5050565b61273a613999565b60355f8381526020019081526020015f20604051806101800160405290815f82015f9054906101000a900460ff1615151515815260200160018201548152602001600282015f9054906101000a900473ffffffffffffffffffffffffffffffffffffffff1673ffffffffffffffffffffffffffffffffffffffff1673ffffffffffffffffffffffffffffffffffffffff1681526020016003820180548060200260200160405190810160405280929190818152602001828054801561281c57602002820191905f5260205f20905b815481526020019060010190808311612808575b5050505050815260200160048201805480602002602001604051908101604052809291908181526020015f905b828210156128f1578382905f5260205f200180546128669061471d565b80601f01602080910402602001604051908101604052809291908181526020018280546128929061471d565b80156128dd5780601f106128b4576101008083540402835291602001916128dd565b820191905f5260205f20905b8154815290600101906020018083116128c057829003601f168201915b505050505081526020019060010190612849565b505050508152602001600582015f9054906101000a900473ffffffffffffffffffffffffffffffffffffffff1673ffffffffffffffffffffffffffffffffffffffff1673ffffffffffffffffffffffffffffffffffffffff168152602001600682015f9054906101000a900473ffffffffffffffffffffffffffffffffffffffff1673ffffffffffffffffffffffffffffffffffffffff1673ffffffffffffffffffffffffffffffffffffffff168152602001600782015481526020016008820180546129bd9061471d565b80601f01602080910402602001604051908101604052809291908181526020018280546129e99061471d565b8015612a345780601f10612a0b57610100808354040283529160200191612a34565b820191905f5260205f20905b815481529060010190602001808311612a1757829003601f168201915b50505050508152602001600982015f9054906101000a900460ff16151515158152602001600a8201548152602001600b820154815250509050919050565b612a7a612eb8565b5f73ffffffffffffffffffffffffffffffffffffffff168373ffffffffffffffffffffffffffffffffffffffff1603612ae8576040517f08c379a0000000000000000000000000000000000000000000000000000000008152600401612adf9061566f565b60405180910390fd5b5f8282604051602401612afb91906156c5565b60405160208183030381529060405290604051612b18919061571f565b60405180910390207bffffffffffffffffffffffffffffffffffffffffffffffffffffffff19166020820180517bffffffffffffffffffffffffffffffffffffffffffffffffffffffff838183161783525050505090505f8473ffffffffffffffffffffffffffffffffffffffff1682604051612b959190615779565b5f604051808303815f865af19150503d805f8114612bce576040519150601f19603f3d011682016040523d82523d5f602084013e612bd3565b606091505b5050905080612c17576040517f08c379a0000000000000000000000000000000000000000000000000000000008152600401612c0e906157d9565b60405180910390fd5b5050505050565b612c26612eb8565b5f73ffffffffffffffffffffffffffffffffffffffff168173ffffffffffffffffffffffffffffffffffffffff1603612c96575f6040517f1e4fbdf7000000000000000000000000000000000000000000000000000000008152600401612c8d919061422e565b60405180910390fd5b612c9f81612f3f565b50565b5f612cab613852565b90505f815f0160089054906101000a900460ff161590505f825f015f9054906101000a900467ffffffffffffffff1690505f808267ffffffffffffffff16148015612cf35750825b90505f60018367ffffffffffffffff16148015612d2657505f3073ffffffffffffffffffffffffffffffffffffffff163b145b905081158015612d34575080155b15612d6b576040517ff92ee8a900000000000000000000000000000000000000000000000000000000815260040160405180910390fd5b6001855f015f6101000a81548167ffffffffffffffff021916908367ffffffffffffffff1602179055508315612db8576001855f0160086101000a81548160ff0219169083151502179055505b612dc133613879565b612dc961388d565b60325f908060018154018082558091505060019003905f5260205f20015f9091909190915055620186a0603381905550856034819055508315612e5a575f855f0160086101000a81548160ff0219169083151502179055507fc7f505b2f371ae2175ee4913f4499e1f2633a7b5936321eed1cdaeb6115181d26001604051612e519190615843565b60405180910390a15b505050505050565b60025f5403612ea6576040517f08c379a0000000000000000000000000000000000000000000000000000000008152600401612e9d906158a6565b60405180910390fd5b60025f81905550565b60015f81905550565b612ec061389f565b73ffffffffffffffffffffffffffffffffffffffff16612ede611c77565b73ffffffffffffffffffffffffffffffffffffffff1614612f3d57612f0161389f565b6040517f118cdaa7000000000000000000000000000000000000000000000000000000008152600401612f34919061422e565b60405180910390fd5b565b5f612f4861343f565b90505f815f015f9054906101000a900473ffffffffffffffffffffffffffffffffffffffff16905082825f015f6101000a81548173ffffffffffffffffffffffffffffffffffffffff021916908373ffffffffffffffffffffffffffffffffffffffff1602179055508273ffffffffffffffffffffffffffffffffffffffff168173ffffffffffffffffffffffffffffffffffffffff167f8be0079c531659141344cd1fd0a4f28419497f9722a3daafe3b4186f6b6457e060405160405180910390a3505050565b5f8151835114613022575f90506130b7565b5f805b84518110156130b0575f91505f5b845181101561308d5784818151811061304f5761304e6145eb565b5b602002602001015186838151811061306a576130696145eb565b5b602002602001015103613080576001925061308d565b8080600101915050613033565b505f1515821515036130a3575f925050506130b7565b8080600101915050613025565b5060019150505b92915050565b5f60328054905090505f600190505b818110156131775782603282815481106130e9576130e86145eb565b5b905f5260205f2001540361316a5760326001836131069190614bbe565b81548110613117576131166145eb565b5b905f5260205f20015460328281548110613134576131336145eb565b5b905f5260205f2001819055506032805480613152576131516158c4565b5b600190038181905f5260205f20015f90559055613177565b80806001019150506130cc565b505050565b8373ffffffffffffffffffffffffffffffffffffffff166301ffc9a77f80ac58cd000000000000000000000000000000000000000000000000000000006040518263ffffffff1660e01b81526004016131d5919061592b565b602060405180830381865afa1580156131f0573d5f803e3d5ffd5b505050506040513d601f19601f820116820180604052508101906132149190615958565b156132bb575f5b83518110156132b5578473ffffffffffffffffffffffffffffffffffffffff166342842e0e8484878581518110613255576132546145eb565b5b60200260200101516040518463ffffffff1660e01b815260040161327b93929190615983565b5f604051808303815f87803b158015613292575f80fd5b505af11580156132a4573d5f803e3d5ffd5b50505050808060010191505061321b565b50613439565b8373ffffffffffffffffffffffffffffffffffffffff166301ffc9a77fd9b67a26000000000000000000000000000000000000000000000000000000006040518263ffffffff1660e01b8152600401613314919061592b565b602060405180830381865afa15801561332f573d5f803e3d5ffd5b505050506040513d601f19601f820116820180604052508101906133539190615958565b156133fd575f5b83518110156133f7578473ffffffffffffffffffffffffffffffffffffffff1663f242432a8484878581518110613394576133936145eb565b5b602002602001015160016040518563ffffffff1660e01b81526004016133bd9493929190615a1b565b5f604051808303815f87803b1580156133d4575f80fd5b505af11580156133e6573d5f803e3d5ffd5b50505050808060010191505061335a565b50613438565b6040517f08c379a000000000000000000000000000000000000000000000000000000000815260040161342f90615abb565b60405180910390fd5b5b50505050565b5f7f9016d09d72d40fdae2fd8ceac6b6234c7706214fd39c1cd1e609a0528c199300905090565b5f805f90505b8351811015613732578473ffffffffffffffffffffffffffffffffffffffff166301ffc9a77f80ac58cd000000000000000000000000000000000000000000000000000000006040518263ffffffff1660e01b81526004016134ce919061592b565b602060405180830381865afa1580156134e9573d5f803e3d5ffd5b505050506040513d601f19601f8201168201806040525081019061350d9190615958565b156135e4578273ffffffffffffffffffffffffffffffffffffffff168573ffffffffffffffffffffffffffffffffffffffff16636352211e868481518110613558576135576145eb565b5b60200260200101516040518263ffffffff1660e01b815260040161357c9190614206565b602060405180830381865afa158015613597573d5f803e3d5ffd5b505050506040513d601f19601f820116820180604052508101906135bb9190615aed565b73ffffffffffffffffffffffffffffffffffffffff16146135df575f915050613738565b613725565b8473ffffffffffffffffffffffffffffffffffffffff166301ffc9a77fd9b67a26000000000000000000000000000000000000000000000000000000006040518263ffffffff1660e01b815260040161363d919061592b565b602060405180830381865afa158015613658573d5f803e3d5ffd5b505050506040513d601f19601f8201168201806040525081019061367c9190615958565b15613724575f8573ffffffffffffffffffffffffffffffffffffffff1662fdd58e858785815181106136b1576136b06145eb565b5b60200260200101516040518363ffffffff1660e01b81526004016136d6929190614e55565b602060405180830381865afa1580156136f1573d5f803e3d5ffd5b505050506040513d601f19601f820116820180604052508101906137159190615b2c565b03613723575f915050613738565b5b5b808060010191505061346c565b50600190505b9392505050565b5f8060016033546137509190614645565b67ffffffffffffffff81111561376957613768614061565b5b6040519080825280602002602001820160405280156137975781602001602082028036833780820191505090505b5090505f600190505b6032805490508110156137fd57600182603283815481106137c4576137c36145eb565b5b905f5260205f200154815181106137de576137dd6145eb565b5b60200260200101901515908115158152505080806001019150506137a0565b505f600190505b6033548111613849578181815181106138205761381f6145eb565b5b602002602001015161383657809250505061384f565b80806138419061474d565b915050613804565b505f9150505b90565b5f7ff0c57e16840df040f15088dc2f81fe391c3923bec73e23a9662efc9c229c6a00905090565b6138816138a6565b61388a816138e6565b50565b6138956138a6565b61389d61396a565b565b5f33905090565b6138ae61397b565b6138e4576040517fd7e6bcf800000000000000000000000000000000000000000000000000000000815260040160405180910390fd5b565b6138ee6138a6565b5f73ffffffffffffffffffffffffffffffffffffffff168173ffffffffffffffffffffffffffffffffffffffff160361395e575f6040517f1e4fbdf7000000000000000000000000000000000000000000000000000000008152600401613955919061422e565b60405180910390fd5b61396781612f3f565b50565b6139726138a6565b60015f81905550565b5f613984613852565b5f0160089054906101000a900460ff16905090565b6040518061018001604052805f151581526020015f81526020015f73ffffffffffffffffffffffffffffffffffffffff16815260200160608152602001606081526020015f73ffffffffffffffffffffffffffffffffffffffff1681526020015f73ffffffffffffffffffffffffffffffffffffffff1681526020015f8152602001606081526020015f151581526020015f81526020015f81525090565b828054828255905f5260205f20908101928215613a71579160200282015b82811115613a70578251825591602001919060010190613a55565b5b509050613a7e9190613ad9565b5090565b828054828255905f5260205f20908101928215613ac8579160200282015b82811115613ac7578251829081613ab7919061522c565b5091602001919060010190613aa0565b5b509050613ad59190613af4565b5090565b5b80821115613af0575f815f905550600101613ada565b5090565b5b80821115613b13575f8181613b0a9190613b17565b50600101613af5565b5090565b508054613b239061471d565b5f825580601f10613b345750613b51565b601f0160209004905f5260205f2090810190613b509190613ad9565b5b50565b5f604051905090565b5f80fd5b5f80fd5b5f73ffffffffffffffffffffffffffffffffffffffff82169050919050565b5f613b8e82613b65565b9050919050565b613b9e81613b84565b8114613ba8575f80fd5b50565b5f81359050613bb981613b95565b92915050565b5f60208284031215613bd457613bd3613b5d565b5b5f613be184828501613bab565b91505092915050565b5f81519050919050565b5f82825260208201905092915050565b5f819050602082019050919050565b5f8115159050919050565b613c2781613c13565b82525050565b5f819050919050565b613c3f81613c2d565b82525050565b613c4e81613b84565b82525050565b5f81519050919050565b5f82825260208201905092915050565b5f819050602082019050919050565b5f613c888383613c36565b60208301905092915050565b5f602082019050919050565b5f613caa82613c54565b613cb48185613c5e565b9350613cbf83613c6e565b805f5b83811015613cef578151613cd68882613c7d565b9750613ce183613c94565b925050600181019050613cc2565b5085935050505092915050565b5f81519050919050565b5f82825260208201905092915050565b5f819050602082019050919050565b5f81519050919050565b5f82825260208201905092915050565b8281835e5f83830152505050565b5f601f19601f8301169050919050565b5f613d6782613d25565b613d718185613d2f565b9350613d81818560208601613d3f565b613d8a81613d4d565b840191505092915050565b5f613da08383613d5d565b905092915050565b5f602082019050919050565b5f613dbe82613cfc565b613dc88185613d06565b935083602082028501613dda85613d16565b805f5b85811015613e155784840389528151613df68582613d95565b9450613e0183613da8565b925060208a01995050600181019050613ddd565b50829750879550505050505092915050565b5f613e3182613b65565b9050919050565b613e4181613e27565b82525050565b5f61018083015f830151613e5d5f860182613c1e565b506020830151613e706020860182613c36565b506040830151613e836040860182613c45565b5060608301518482036060860152613e9b8282613ca0565b91505060808301518482036080860152613eb58282613db4565b91505060a0830151613eca60a0860182613e38565b5060c0830151613edd60c0860182613e38565b5060e0830151613ef060e0860182613c36565b50610100830151848203610100860152613f0a8282613d5d565b915050610120830151613f21610120860182613c1e565b50610140830151613f36610140860182613c36565b50610160830151613f4b610160860182613c36565b508091505092915050565b5f613f618383613e47565b905092915050565b5f602082019050919050565b5f613f7f82613bea565b613f898185613bf4565b935083602082028501613f9b85613c04565b805f5b85811015613fd65784840389528151613fb78582613f56565b9450613fc283613f69565b925060208a01995050600181019050613f9e565b50829750879550505050505092915050565b5f6020820190508181035f8301526140008184613f75565b905092915050565b61401181613c2d565b811461401b575f80fd5b50565b5f8135905061402c81614008565b92915050565b5f6020828403121561404757614046613b5d565b5b5f6140548482850161401e565b91505092915050565b5f80fd5b7f4e487b71000000000000000000000000000000000000000000000000000000005f52604160045260245ffd5b61409782613d4d565b810181811067ffffffffffffffff821117156140b6576140b5614061565b5b80604052505050565b5f6140c8613b54565b90506140d4828261408e565b919050565b5f67ffffffffffffffff8211156140f3576140f2614061565b5b602082029050602081019050919050565b5f80fd5b5f61411a614115846140d9565b6140bf565b9050808382526020820190506020840283018581111561413d5761413c614104565b5b835b818110156141665780614152888261401e565b84526020840193505060208101905061413f565b5050509392505050565b5f82601f8301126141845761418361405d565b5b8135614194848260208601614108565b91505092915050565b5f80604083850312156141b3576141b2613b5d565b5b5f6141c085828601613bab565b925050602083013567ffffffffffffffff8111156141e1576141e0613b61565b5b6141ed85828601614170565b9150509250929050565b61420081613c2d565b82525050565b5f6020820190506142195f8301846141f7565b92915050565b61422881613b84565b82525050565b5f6020820190506142415f83018461421f565b92915050565b5f80fd5b5f67ffffffffffffffff82111561426557614264614061565b5b61426e82613d4d565b9050602081019050919050565b828183375f83830152505050565b5f61429b6142968461424b565b6140bf565b9050828152602081018484840111156142b7576142b6614247565b5b6142c284828561427b565b509392505050565b5f82601f8301126142de576142dd61405d565b5b81356142ee848260208601614289565b91505092915050565b61430081613c13565b811461430a575f80fd5b50565b5f8135905061431b816142f7565b92915050565b5f805f805f805f60e0888a03121561433c5761433b613b5d565b5b5f6143498a828b01613bab565b975050602088013567ffffffffffffffff81111561436a57614369613b61565b5b6143768a828b01614170565b96505060406143878a828b0161401e565b955050606088013567ffffffffffffffff8111156143a8576143a7613b61565b5b6143b48a828b016142ca565b94505060806143c58a828b0161430d565b93505060a06143d68a828b0161401e565b92505060c06143e78a828b0161401e565b91505092959891949750929550565b5f806040838503121561440c5761440b613b5d565b5b5f6144198582860161401e565b925050602061442a8582860161401e565b9150509250929050565b5f61018083015f83015161444a5f860182613c1e565b50602083015161445d6020860182613c36565b5060408301516144706040860182613c45565b50606083015184820360608601526144888282613ca0565b915050608083015184820360808601526144a28282613db4565b91505060a08301516144b760a0860182613e38565b5060c08301516144ca60c0860182613e38565b5060e08301516144dd60e0860182613c36565b506101008301518482036101008601526144f78282613d5d565b91505061012083015161450e610120860182613c1e565b50610140830151614523610140860182613c36565b50610160830151614538610160860182613c36565b508091505092915050565b5f6020820190508181035f83015261455b8184614434565b905092915050565b5f805f6060848603121561457a57614579613b5d565b5b5f61458786828701613bab565b935050602084013567ffffffffffffffff8111156145a8576145a7613b61565b5b6145b4868287016142ca565b925050604084013567ffffffffffffffff8111156145d5576145d4613b61565b5b6145e1868287016142ca565b9150509250925092565b7f4e487b71000000000000000000000000000000000000000000000000000000005f52603260045260245ffd5b7f4e487b71000000000000000000000000000000000000000000000000000000005f52601160045260245ffd5b5f61464f82613c2d565b915061465a83613c2d565b925082820190508082111561467257614671614618565b5b92915050565b5f82825260208201905092915050565b7f4e6f2076616c6964206974656d20666f722073656c6c657200000000000000005f82015250565b5f6146bc601883614678565b91506146c782614688565b602082019050919050565b5f6020820190508181035f8301526146e9816146b0565b9050919050565b7f4e487b71000000000000000000000000000000000000000000000000000000005f52602260045260245ffd5b5f600282049050600182168061473457607f821691505b602082108103614747576147466146f0565b5b50919050565b5f61475782613c2d565b91507fffffffffffffffffffffffffffffffffffffffffffffffffffffffffffffffff820361478957614788614618565b5b600182019050919050565b7f4f6e6c79206974656d206f776e65722063616e20706572666f726d20746869735f8201527f20616374696f6e00000000000000000000000000000000000000000000000000602082015250565b5f6147ee602783614678565b91506147f982614794565b604082019050919050565b5f6020820190508181035f83015261481b816147e2565b9050919050565b7f4d61726b6574206974656d20646f6573206e6f742065786973740000000000005f82015250565b5f614856601a83614678565b915061486182614822565b602082019050919050565b5f6020820190508181035f8301526148838161484a565b9050919050565b7f7472616e73616374696f6e20697320616c72656164792070656e64696e6700005f82015250565b5f6148be601e83614678565b91506148c98261488a565b602082019050919050565b5f6020820190508181035f8301526148eb816148b2565b9050919050565b6148fb81613c13565b82525050565b5f6040820190506149145f8301856141f7565b61492160208301846148f2565b9392505050565b7f4e6f2062616c616e636520746f207769746864726177000000000000000000005f82015250565b5f61495c601683614678565b915061496782614928565b602082019050919050565b5f6020820190508181035f83015261498981614950565b9050919050565b7f4974656d206973206e6f74206f6e2061756374696f6e000000000000000000005f82015250565b5f6149c4601683614678565b91506149cf82614990565b602082019050919050565b5f6020820190508181035f8301526149f1816149b8565b9050919050565b7f41756374696f6e2068617320656e6465640000000000000000000000000000005f82015250565b5f614a2c601183614678565b9150614a37826149f8565b602082019050919050565b5f6020820190508181035f830152614a5981614a20565b9050919050565b7f41756374696f6e206e6f742073746172746564000000000000000000000000005f82015250565b5f614a94601383614678565b9150614a9f82614a60565b602082019050919050565b5f6020820190508181035f830152614ac181614a88565b9050919050565b7f42696420616d6f756e74206d75737420626520686967686572207468616e20745f8201527f68652063757272656e7420707269636500000000000000000000000000000000602082015250565b5f614b22603083614678565b9150614b2d82614ac8565b604082019050919050565b5f6020820190508181035f830152614b4f81614b16565b9050919050565b7f53656c6c65722063616e6e6f7420706c616365206120626964000000000000005f82015250565b5f614b8a601983614678565b9150614b9582614b56565b602082019050919050565b5f6020820190508181035f830152614bb781614b7e565b9050919050565b5f614bc882613c2d565b9150614bd383613c2d565b9250828203905081811115614beb57614bea614618565b5b92915050565b7f6e6f20746f6b656e4964000000000000000000000000000000000000000000005f82015250565b5f614c25600a83614678565b9150614c3082614bf1565b602082019050919050565b5f6020820190508181035f830152614c5281614c19565b9050919050565b7f4974656d20697320666f722061756374696f6e000000000000000000000000005f82015250565b5f614c8d601383614678565b9150614c9882614c59565b602082019050919050565b5f6020820190508181035f830152614cba81614c81565b9050919050565b7f5061796d656e742076616c756520697320736d616c6c6572207468616e206f6e5f8201527f73616c6520707269636500000000000000000000000000000000000000000000602082015250565b5f614d1b602a83614678565b9150614d2682614cc1565b604082019050919050565b5f6020820190508181035f830152614d4881614d0f565b9050919050565b7f4974656d2073616c652068617320656e646564000000000000000000000000005f82015250565b5f614d83601383614678565b9150614d8e82614d4f565b602082019050919050565b5f6020820190508181035f830152614db081614d77565b9050919050565b5f614dc182613c2d565b9150614dcc83613c2d565b9250828202614dda81613c2d565b91508282048414831517614df157614df0614618565b5b5092915050565b7f4e487b71000000000000000000000000000000000000000000000000000000005f52601260045260245ffd5b5f614e2f82613c2d565b9150614e3a83613c2d565b925082614e4a57614e49614df8565b5b828204905092915050565b5f604082019050614e685f83018561421f565b614e7560208301846141f7565b9392505050565b7f5072696365206d7573742062652067726561746572207468616e207a65726f005f82015250565b5f614eb0601f83614678565b9150614ebb82614e7c565b602082019050919050565b5f6020820190508181035f830152614edd81614ea4565b9050919050565b7f43616c6c6572206973206e6f7420746865206f776e6572206f6620746865204e5f8201527f4654730000000000000000000000000000000000000000000000000000000000602082015250565b5f614f3e602383614678565b9150614f4982614ee4565b604082019050919050565b5f6020820190508181035f830152614f6b81614f32565b9050919050565b7f4e6f20617661696c61626c65206974656d2049440000000000000000000000005f82015250565b5f614fa6601483614678565b9150614fb182614f72565b602082019050919050565b5f6020820190508181035f830152614fd381614f9a565b9050919050565b5f614fec614fe78461424b565b6140bf565b90508281526020810184848401111561500857615007614247565b5b615013848285613d3f565b509392505050565b5f82601f83011261502f5761502e61405d565b5b815161503f848260208601614fda565b91505092915050565b5f6020828403121561505d5761505c613b5d565b5b5f82015167ffffffffffffffff81111561507a57615079613b61565b5b6150868482850161501b565b91505092915050565b5f819050815f5260205f209050919050565b5f6020601f8301049050919050565b5f82821b905092915050565b5f600883026150eb7fffffffffffffffffffffffffffffffffffffffffffffffffffffffffffffffff826150b0565b6150f586836150b0565b95508019841693508086168417925050509392505050565b5f819050919050565b5f61513061512b61512684613c2d565b61510d565b613c2d565b9050919050565b5f819050919050565b61514983615116565b61515d61515582615137565b8484546150bc565b825550505050565b5f90565b615171615165565b61517c818484615140565b505050565b5b8181101561519f576151945f82615169565b600181019050615182565b5050565b601f8211156151e4576151b58161508f565b6151be846150a1565b810160208510156151cd578190505b6151e16151d9856150a1565b830182615181565b50505b505050565b5f82821c905092915050565b5f6152045f19846008026151e9565b1980831691505092915050565b5f61521c83836151f5565b9150826002028217905092915050565b61523582613d25565b67ffffffffffffffff81111561524e5761524d614061565b5b615258825461471d565b6152638282856151a3565b5f60209050601f831160018114615294575f8415615282578287015190505b61528c8582615211565b8655506152f3565b601f1984166152a28661508f565b5f5b828110156152c9578489015182556001820191506020850194506020810190506152a4565b868310156152e657848901516152e2601f8916826151f5565b8355505b6001600288020188555050505b505050505050565b5f81905092915050565b61530e81613c2d565b82525050565b5f61531f8383615305565b60208301905092915050565b5f61533582613c54565b61533f81856152fb565b935061534a83613c6e565b805f5b8381101561537a5781516153618882615314565b975061536c83613c94565b92505060018101905061534d565b5085935050505092915050565b5f615392828461532b565b915081905092915050565b5f60a0820190506153b05f83018861421f565b6153bd60208301876141f7565b6153ca60408301866148f2565b6153d760608301856141f7565b6153e460808301846141f7565b9695505050505050565b7f43616e6e6f74206368616e676520707269636520647572696e672061756374695f8201527f6f6e207769746820616374697665206269647300000000000000000000000000602082015250565b5f615448603383614678565b9150615453826153ee565b604082019050919050565b5f6020820190508181035f8301526154758161543c565b9050919050565b7f4974656d206973206e6f7420666f722061756374696f6e0000000000000000005f82015250565b5f6154b0601783614678565b91506154bb8261547c565b602082019050919050565b5f6020820190508181035f8301526154dd816154a4565b9050919050565b7f41756374696f6e206973207374696c6c206f6e676f696e6700000000000000005f82015250565b5f615518601883614678565b9150615523826154e4565b602082019050919050565b5f6020820190508181035f8301526155458161550c565b9050919050565b5f61556661556161555c84613b65565b61510d565b613b65565b9050919050565b5f6155778261554c565b9050919050565b5f6155888261556d565b9050919050565b6155988161557e565b82525050565b5f6040820190506155b15f83018561558f565b6155be60208301846141f7565b9392505050565b5f819050919050565b5f6155e86155e36155de846155c5565b61510d565b613c2d565b9050919050565b6155f8816155ce565b82525050565b5f6040820190506156115f83018561421f565b61561e60208301846155ef565b9392505050565b7f496e76616c696420636f6e7472616374206164647265737300000000000000005f82015250565b5f615659601883614678565b915061566482615625565b602082019050919050565b5f6020820190508181035f8301526156868161564d565b9050919050565b5f61569782613d25565b6156a18185614678565b93506156b1818560208601613d3f565b6156ba81613d4d565b840191505092915050565b5f6020820190508181035f8301526156dd818461568d565b905092915050565b5f81905092915050565b5f6156f982613d25565b61570381856156e5565b9350615713818560208601613d3f565b80840191505092915050565b5f61572a82846156ef565b915081905092915050565b5f81519050919050565b5f81905092915050565b5f61575382615735565b61575d818561573f565b935061576d818560208601613d3f565b80840191505092915050565b5f6157848284615749565b915081905092915050565b7f4661696c656420746f2063616c6c20736d61727420636f6e74726163740000005f82015250565b5f6157c3601d83614678565b91506157ce8261578f565b602082019050919050565b5f6020820190508181035f8301526157f0816157b7565b9050919050565b5f819050919050565b5f67ffffffffffffffff82169050919050565b5f61582d615828615823846157f7565b61510d565b615800565b9050919050565b61583d81615813565b82525050565b5f6020820190506158565f830184615834565b92915050565b7f5265656e7472616e637947756172643a207265656e7472616e742063616c6c005f82015250565b5f615890601f83614678565b915061589b8261585c565b602082019050919050565b5f6020820190508181035f8301526158bd81615884565b9050919050565b7f4e487b71000000000000000000000000000000000000000000000000000000005f52603160045260245ffd5b5f7fffffffff0000000000000000000000000000000000000000000000000000000082169050919050565b615925816158f1565b82525050565b5f60208201905061593e5f83018461591c565b92915050565b5f81519050615952816142f7565b92915050565b5f6020828403121561596d5761596c613b5d565b5b5f61597a84828501615944565b91505092915050565b5f6060820190506159965f83018661421f565b6159a3602083018561421f565b6159b060408301846141f7565b949350505050565b5f6159d26159cd6159c8846157f7565b61510d565b613c2d565b9050919050565b6159e2816159b8565b82525050565b5f82825260208201905092915050565b50565b5f615a065f836159e8565b9150615a11826159f8565b5f82019050919050565b5f60a082019050615a2e5f83018761421f565b615a3b602083018661421f565b615a4860408301856141f7565b615a5560608301846159d9565b8181036080830152615a66816159fb565b905095945050505050565b7f556e737570706f72746564204e4654207374616e6461726400000000000000005f82015250565b5f615aa5601883614678565b9150615ab082615a71565b602082019050919050565b5f6020820190508181035f830152615ad281615a99565b9050919050565b5f81519050615ae781613b95565b92915050565b5f60208284031215615b0257615b01613b5d565b5b5f615b0f84828501615ad9565b91505092915050565b5f81519050615b2681614008565b92915050565b5f60208284031215615b4157615b40613b5d565b5b5f615b4e84828501615b18565b9150509291505056fea26469706673582212203e86988a32c783b439aedeb68641a111447c404996bc203413ab69e369c4fcc164736f6c63430008190033",
			"opcodes": "PUSH1 0x80 PUSH1 0x40 MSTORE CALLVALUE DUP1 ISZERO PUSH1 0xE JUMPI PUSH0 DUP1 REVERT JUMPDEST POP PUSH2 0x5B8D DUP1 PUSH2 0x1C PUSH0 CODECOPY PUSH0 RETURN INVALID PUSH1 0x80 PUSH1 0x40 MSTORE PUSH1 0x4 CALLDATASIZE LT PUSH2 0xFD JUMPI PUSH0 CALLDATALOAD PUSH1 0xE0 SHR DUP1 PUSH4 0x8C77B5B7 GT PUSH2 0x94 JUMPI DUP1 PUSH4 0xB9A2DE3A GT PUSH2 0x63 JUMPI DUP1 PUSH4 0xB9A2DE3A EQ PUSH2 0x2E5 JUMPI DUP1 PUSH4 0xC7BE7A49 EQ PUSH2 0x30D JUMPI DUP1 PUSH4 0xE2413C0E EQ PUSH2 0x349 JUMPI DUP1 PUSH4 0xF2FDE38B EQ PUSH2 0x371 JUMPI DUP1 PUSH4 0xFE4B84DF EQ PUSH2 0x399 JUMPI PUSH2 0xFD JUMP JUMPDEST DUP1 PUSH4 0x8C77B5B7 EQ PUSH2 0x23B JUMPI DUP1 PUSH4 0x8DA5CB5B EQ PUSH2 0x257 JUMPI DUP1 PUSH4 0xA48216E3 EQ PUSH2 0x281 JUMPI DUP1 PUSH4 0xA7B19424 EQ PUSH2 0x2BD JUMPI PUSH2 0xFD JUMP JUMPDEST DUP1 PUSH4 0x704DD580 GT PUSH2 0xD0 JUMPI DUP1 PUSH4 0x704DD580 EQ PUSH2 0x197 JUMPI DUP1 PUSH4 0x715018A6 EQ PUSH2 0x1C1 JUMPI DUP1 PUSH4 0x73413564 EQ PUSH2 0x1D7 JUMPI DUP1 PUSH4 0x7FB770CB EQ PUSH2 0x213 JUMPI PUSH2 0xFD JUMP JUMPDEST DUP1 PUSH4 0x23D20B0 EQ PUSH2 0x101 JUMPI DUP1 PUSH4 0x21D02753 EQ PUSH2 0x13D JUMPI DUP1 PUSH4 0x3CCFD60B EQ PUSH2 0x165 JUMPI DUP1 PUSH4 0x454A2AB3 EQ PUSH2 0x17B JUMPI JUMPDEST PUSH0 DUP1 REVERT JUMPDEST CALLVALUE DUP1 ISZERO PUSH2 0x10C JUMPI PUSH0 DUP1 REVERT JUMPDEST POP PUSH2 0x127 PUSH1 0x4 DUP1 CALLDATASIZE SUB DUP2 ADD SWAP1 PUSH2 0x122 SWAP2 SWAP1 PUSH2 0x3BBF JUMP JUMPDEST PUSH2 0x3C1 JUMP JUMPDEST PUSH1 0x40 MLOAD PUSH2 0x134 SWAP2 SWAP1 PUSH2 0x3FE8 JUMP JUMPDEST PUSH1 0x40 MLOAD DUP1 SWAP2 SUB SWAP1 RETURN JUMPDEST CALLVALUE DUP1 ISZERO PUSH2 0x148 JUMPI PUSH0 DUP1 REVERT JUMPDEST POP PUSH2 0x163 PUSH1 0x4 DUP1 CALLDATASIZE SUB DUP2 ADD SWAP1 PUSH2 0x15E SWAP2 SWAP1 PUSH2 0x4032 JUMP JUMPDEST PUSH2 0x937 JUMP JUMPDEST STOP JUMPDEST CALLVALUE DUP1 ISZERO PUSH2 0x170 JUMPI PUSH0 DUP1 REVERT JUMPDEST POP PUSH2 0x179 PUSH2 0xB7A JUMP JUMPDEST STOP JUMPDEST PUSH2 0x195 PUSH1 0x4 DUP1 CALLDATASIZE SUB DUP2 ADD SWAP1 PUSH2 0x190 SWAP2 SWAP1 PUSH2 0x4032 JUMP JUMPDEST PUSH2 0xC16 JUMP JUMPDEST STOP JUMPDEST CALLVALUE DUP1 ISZERO PUSH2 0x1A2 JUMPI PUSH0 DUP1 REVERT JUMPDEST POP PUSH2 0x1AB PUSH2 0xFB0 JUMP JUMPDEST PUSH1 0x40 MLOAD PUSH2 0x1B8 SWAP2 SWAP1 PUSH2 0x3FE8 JUMP JUMPDEST PUSH1 0x40 MLOAD DUP1 SWAP2 SUB SWAP1 RETURN JUMPDEST CALLVALUE DUP1 ISZERO PUSH2 0x1CC JUMPI PUSH0 DUP1 REVERT JUMPDEST POP PUSH2 0x1D5 PUSH2 0x13C3 JUMP JUMPDEST STOP JUMPDEST CALLVALUE DUP1 ISZERO PUSH2 0x1E2 JUMPI PUSH0 DUP1 REVERT JUMPDEST POP PUSH2 0x1FD PUSH1 0x4 DUP1 CALLDATASIZE SUB DUP2 ADD SWAP1 PUSH2 0x1F8 SWAP2 SWAP1 PUSH2 0x419D JUMP JUMPDEST PUSH2 0x13D6 JUMP JUMPDEST PUSH1 0x40 MLOAD PUSH2 0x20A SWAP2 SWAP1 PUSH2 0x4206 JUMP JUMPDEST PUSH1 0x40 MLOAD DUP1 SWAP2 SUB SWAP1 RETURN JUMPDEST CALLVALUE DUP1 ISZERO PUSH2 0x21E JUMPI PUSH0 DUP1 REVERT JUMPDEST POP PUSH2 0x239 PUSH1 0x4 DUP1 CALLDATASIZE SUB DUP2 ADD SWAP1 PUSH2 0x234 SWAP2 SWAP1 PUSH2 0x4032 JUMP JUMPDEST PUSH2 0x1810 JUMP JUMPDEST STOP JUMPDEST PUSH2 0x255 PUSH1 0x4 DUP1 CALLDATASIZE SUB DUP2 ADD SWAP1 PUSH2 0x250 SWAP2 SWAP1 PUSH2 0x4032 JUMP JUMPDEST PUSH2 0x1977 JUMP JUMPDEST STOP JUMPDEST CALLVALUE DUP1 ISZERO PUSH2 0x262 JUMPI PUSH0 DUP1 REVERT JUMPDEST POP PUSH2 0x26B PUSH2 0x1C77 JUMP JUMPDEST PUSH1 0x40 MLOAD PUSH2 0x278 SWAP2 SWAP1 PUSH2 0x422E JUMP JUMPDEST PUSH1 0x40 MLOAD DUP1 SWAP2 SUB SWAP1 RETURN JUMPDEST CALLVALUE DUP1 ISZERO PUSH2 0x28C JUMPI PUSH0 DUP1 REVERT JUMPDEST POP PUSH2 0x2A7 PUSH1 0x4 DUP1 CALLDATASIZE SUB DUP2 ADD SWAP1 PUSH2 0x2A2 SWAP2 SWAP1 PUSH2 0x4321 JUMP JUMPDEST PUSH2 0x1CAC JUMP JUMPDEST PUSH1 0x40 MLOAD PUSH2 0x2B4 SWAP2 SWAP1 PUSH2 0x4206 JUMP JUMPDEST PUSH1 0x40 MLOAD DUP1 SWAP2 SUB SWAP1 RETURN JUMPDEST CALLVALUE DUP1 ISZERO PUSH2 0x2C8 JUMPI PUSH0 DUP1 REVERT JUMPDEST POP PUSH2 0x2E3 PUSH1 0x4 DUP1 CALLDATASIZE SUB DUP2 ADD SWAP1 PUSH2 0x2DE SWAP2 SWAP1 PUSH2 0x43F6 JUMP JUMPDEST PUSH2 0x2192 JUMP JUMPDEST STOP JUMPDEST CALLVALUE DUP1 ISZERO PUSH2 0x2F0 JUMPI PUSH0 DUP1 REVERT JUMPDEST POP PUSH2 0x30B PUSH1 0x4 DUP1 CALLDATASIZE SUB DUP2 ADD SWAP1 PUSH2 0x306 SWAP2 SWAP1 PUSH2 0x4032 JUMP JUMPDEST PUSH2 0x23A4 JUMP JUMPDEST STOP JUMPDEST CALLVALUE DUP1 ISZERO PUSH2 0x318 JUMPI PUSH0 DUP1 REVERT JUMPDEST POP PUSH2 0x333 PUSH1 0x4 DUP1 CALLDATASIZE SUB DUP2 ADD SWAP1 PUSH2 0x32E SWAP2 SWAP1 PUSH2 0x4032 JUMP JUMPDEST PUSH2 0x2732 JUMP JUMPDEST PUSH1 0x40 MLOAD PUSH2 0x340 SWAP2 SWAP1 PUSH2 0x4543 JUMP JUMPDEST PUSH1 0x40 MLOAD DUP1 SWAP2 SUB SWAP1 RETURN JUMPDEST CALLVALUE DUP1 ISZERO PUSH2 0x354 JUMPI PUSH0 DUP1 REVERT JUMPDEST POP PUSH2 0x36F PUSH1 0x4 DUP1 CALLDATASIZE SUB DUP2 ADD SWAP1 PUSH2 0x36A SWAP2 SWAP1 PUSH2 0x4563 JUMP JUMPDEST PUSH2 0x2A72 JUMP JUMPDEST STOP JUMPDEST CALLVALUE DUP1 ISZERO PUSH2 0x37C JUMPI PUSH0 DUP1 REVERT JUMPDEST POP PUSH2 0x397 PUSH1 0x4 DUP1 CALLDATASIZE SUB DUP2 ADD SWAP1 PUSH2 0x392 SWAP2 SWAP1 PUSH2 0x3BBF JUMP JUMPDEST PUSH2 0x2C1E JUMP JUMPDEST STOP JUMPDEST CALLVALUE DUP1 ISZERO PUSH2 0x3A4 JUMPI PUSH0 DUP1 REVERT JUMPDEST POP PUSH2 0x3BF PUSH1 0x4 DUP1 CALLDATASIZE SUB DUP2 ADD SWAP1 PUSH2 0x3BA SWAP2 SWAP1 PUSH2 0x4032 JUMP JUMPDEST PUSH2 0x2CA2 JUMP JUMPDEST STOP JUMPDEST PUSH1 0x60 PUSH0 DUP1 PUSH1 0x1 SWAP1 POP JUMPDEST PUSH1 0x32 DUP1 SLOAD SWAP1 POP DUP2 LT ISZERO PUSH2 0x476 JUMPI DUP4 PUSH20 0xFFFFFFFFFFFFFFFFFFFFFFFFFFFFFFFFFFFFFFFF AND PUSH1 0x35 PUSH0 PUSH1 0x32 DUP5 DUP2 SLOAD DUP2 LT PUSH2 0x405 JUMPI PUSH2 0x404 PUSH2 0x45EB JUMP JUMPDEST JUMPDEST SWAP1 PUSH0 MSTORE PUSH1 0x20 PUSH0 KECCAK256 ADD SLOAD DUP2 MSTORE PUSH1 0x20 ADD SWAP1 DUP2 MSTORE PUSH1 0x20 ADD PUSH0 KECCAK256 PUSH1 0x5 ADD PUSH0 SWAP1 SLOAD SWAP1 PUSH2 0x100 EXP SWAP1 DIV PUSH20 0xFFFFFFFFFFFFFFFFFFFFFFFFFFFFFFFFFFFFFFFF AND PUSH20 0xFFFFFFFFFFFFFFFFFFFFFFFFFFFFFFFFFFFFFFFF AND SUB PUSH2 0x469 JUMPI PUSH1 0x1 DUP3 PUSH2 0x466 SWAP2 SWAP1 PUSH2 0x4645 JUMP JUMPDEST SWAP2 POP JUMPDEST DUP1 DUP1 PUSH1 0x1 ADD SWAP2 POP POP PUSH2 0x3CA JUMP JUMPDEST POP PUSH0 DUP2 SUB PUSH2 0x4B9 JUMPI PUSH1 0x40 MLOAD PUSH32 0x8C379A000000000000000000000000000000000000000000000000000000000 DUP2 MSTORE PUSH1 0x4 ADD PUSH2 0x4B0 SWAP1 PUSH2 0x46D2 JUMP JUMPDEST PUSH1 0x40 MLOAD DUP1 SWAP2 SUB SWAP1 REVERT JUMPDEST PUSH0 DUP2 PUSH8 0xFFFFFFFFFFFFFFFF DUP2 GT ISZERO PUSH2 0x4D4 JUMPI PUSH2 0x4D3 PUSH2 0x4061 JUMP JUMPDEST JUMPDEST PUSH1 0x40 MLOAD SWAP1 DUP1 DUP3 MSTORE DUP1 PUSH1 0x20 MUL PUSH1 0x20 ADD DUP3 ADD PUSH1 0x40 MSTORE DUP1 ISZERO PUSH2 0x50D JUMPI DUP2 PUSH1 0x20 ADD JUMPDEST PUSH2 0x4FA PUSH2 0x3999 JUMP JUMPDEST DUP2 MSTORE PUSH1 0x20 ADD SWAP1 PUSH1 0x1 SWAP1 SUB SWAP1 DUP2 PUSH2 0x4F2 JUMPI SWAP1 POP JUMPDEST POP SWAP1 POP PUSH0 DUP1 PUSH1 0x1 SWAP1 POP JUMPDEST PUSH1 0x32 DUP1 SLOAD SWAP1 POP DUP2 LT ISZERO PUSH2 0x92B JUMPI DUP6 PUSH20 0xFFFFFFFFFFFFFFFFFFFFFFFFFFFFFFFFFFFFFFFF AND PUSH1 0x35 PUSH0 PUSH1 0x32 DUP5 DUP2 SLOAD DUP2 LT PUSH2 0x552 JUMPI PUSH2 0x551 PUSH2 0x45EB JUMP JUMPDEST JUMPDEST SWAP1 PUSH0 MSTORE PUSH1 0x20 PUSH0 KECCAK256 ADD SLOAD DUP2 MSTORE PUSH1 0x20 ADD SWAP1 DUP2 MSTORE PUSH1 0x20 ADD PUSH0 KECCAK256 PUSH1 0x5 ADD PUSH0 SWAP1 SLOAD SWAP1 PUSH2 0x100 EXP SWAP1 DIV PUSH20 0xFFFFFFFFFFFFFFFFFFFFFFFFFFFFFFFFFFFFFFFF AND PUSH20 0xFFFFFFFFFFFFFFFFFFFFFFFFFFFFFFFFFFFFFFFF AND SUB PUSH2 0x91E JUMPI PUSH1 0x35 PUSH0 PUSH1 0x32 DUP4 DUP2 SLOAD DUP2 LT PUSH2 0x5BD JUMPI PUSH2 0x5BC PUSH2 0x45EB JUMP JUMPDEST JUMPDEST SWAP1 PUSH0 MSTORE PUSH1 0x20 PUSH0 KECCAK256 ADD SLOAD DUP2 MSTORE PUSH1 0x20 ADD SWAP1 DUP2 MSTORE PUSH1 0x20 ADD PUSH0 KECCAK256 PUSH1 0x40 MLOAD DUP1 PUSH2 0x180 ADD PUSH1 0x40 MSTORE SWAP1 DUP2 PUSH0 DUP3 ADD PUSH0 SWAP1 SLOAD SWAP1 PUSH2 0x100 EXP SWAP1 DIV PUSH1 0xFF AND ISZERO ISZERO ISZERO ISZERO DUP2 MSTORE PUSH1 0x20 ADD PUSH1 0x1 DUP3 ADD SLOAD DUP2 MSTORE PUSH1 0x20 ADD PUSH1 0x2 DUP3 ADD PUSH0 SWAP1 SLOAD SWAP1 PUSH2 0x100 EXP SWAP1 DIV PUSH20 0xFFFFFFFFFFFFFFFFFFFFFFFFFFFFFFFFFFFFFFFF AND PUSH20 0xFFFFFFFFFFFFFFFFFFFFFFFFFFFFFFFFFFFFFFFF AND PUSH20 0xFFFFFFFFFFFFFFFFFFFFFFFFFFFFFFFFFFFFFFFF AND DUP2 MSTORE PUSH1 0x20 ADD PUSH1 0x3 DUP3 ADD DUP1 SLOAD DUP1 PUSH1 0x20 MUL PUSH1 0x20 ADD PUSH1 0x40 MLOAD SWAP1 DUP2 ADD PUSH1 0x40 MSTORE DUP1 SWAP3 SWAP2 SWAP1 DUP2 DUP2 MSTORE PUSH1 0x20 ADD DUP3 DUP1 SLOAD DUP1 ISZERO PUSH2 0x6A4 JUMPI PUSH1 0x20 MUL DUP3 ADD SWAP2 SWAP1 PUSH0 MSTORE PUSH1 0x20 PUSH0 KECCAK256 SWAP1 JUMPDEST DUP2 SLOAD DUP2 MSTORE PUSH1 0x20 ADD SWAP1 PUSH1 0x1 ADD SWAP1 DUP1 DUP4 GT PUSH2 0x690 JUMPI JUMPDEST POP POP POP POP POP DUP2 MSTORE PUSH1 0x20 ADD PUSH1 0x4 DUP3 ADD DUP1 SLOAD DUP1 PUSH1 0x20 MUL PUSH1 0x20 ADD PUSH1 0x40 MLOAD SWAP1 DUP2 ADD PUSH1 0x40 MSTORE DUP1 SWAP3 SWAP2 SWAP1 DUP2 DUP2 MSTORE PUSH1 0x20 ADD PUSH0 SWAP1 JUMPDEST DUP3 DUP3 LT ISZERO PUSH2 0x779 JUMPI DUP4 DUP3 SWAP1 PUSH0 MSTORE PUSH1 0x20 PUSH0 KECCAK256 ADD DUP1 SLOAD PUSH2 0x6EE SWAP1 PUSH2 0x471D JUMP JUMPDEST DUP1 PUSH1 0x1F ADD PUSH1 0x20 DUP1 SWAP2 DIV MUL PUSH1 0x20 ADD PUSH1 0x40 MLOAD SWAP1 DUP2 ADD PUSH1 0x40 MSTORE DUP1 SWAP3 SWAP2 SWAP1 DUP2 DUP2 MSTORE PUSH1 0x20 ADD DUP3 DUP1 SLOAD PUSH2 0x71A SWAP1 PUSH2 0x471D JUMP JUMPDEST DUP1 ISZERO PUSH2 0x765 JUMPI DUP1 PUSH1 0x1F LT PUSH2 0x73C JUMPI PUSH2 0x100 DUP1 DUP4 SLOAD DIV MUL DUP4 MSTORE SWAP2 PUSH1 0x20 ADD SWAP2 PUSH2 0x765 JUMP JUMPDEST DUP3 ADD SWAP2 SWAP1 PUSH0 MSTORE PUSH1 0x20 PUSH0 KECCAK256 SWAP1 JUMPDEST DUP2 SLOAD DUP2 MSTORE SWAP1 PUSH1 0x1 ADD SWAP1 PUSH1 0x20 ADD DUP1 DUP4 GT PUSH2 0x748 JUMPI DUP3 SWAP1 SUB PUSH1 0x1F AND DUP3 ADD SWAP2 JUMPDEST POP POP POP POP POP DUP2 MSTORE PUSH1 0x20 ADD SWAP1 PUSH1 0x1 ADD SWAP1 PUSH2 0x6D1 JUMP JUMPDEST POP POP POP POP DUP2 MSTORE PUSH1 0x20 ADD PUSH1 0x5 DUP3 ADD PUSH0 SWAP1 SLOAD SWAP1 PUSH2 0x100 EXP SWAP1 DIV PUSH20 0xFFFFFFFFFFFFFFFFFFFFFFFFFFFFFFFFFFFFFFFF AND PUSH20 0xFFFFFFFFFFFFFFFFFFFFFFFFFFFFFFFFFFFFFFFF AND PUSH20 0xFFFFFFFFFFFFFFFFFFFFFFFFFFFFFFFFFFFFFFFF AND DUP2 MSTORE PUSH1 0x20 ADD PUSH1 0x6 DUP3 ADD PUSH0 SWAP1 SLOAD SWAP1 PUSH2 0x100 EXP SWAP1 DIV PUSH20 0xFFFFFFFFFFFFFFFFFFFFFFFFFFFFFFFFFFFFFFFF AND PUSH20 0xFFFFFFFFFFFFFFFFFFFFFFFFFFFFFFFFFFFFFFFF AND PUSH20 0xFFFFFFFFFFFFFFFFFFFFFFFFFFFFFFFFFFFFFFFF AND DUP2 MSTORE PUSH1 0x20 ADD PUSH1 0x7 DUP3 ADD SLOAD DUP2 MSTORE PUSH1 0x20 ADD PUSH1 0x8 DUP3 ADD DUP1 SLOAD PUSH2 0x845 SWAP1 PUSH2 0x471D JUMP JUMPDEST DUP1 PUSH1 0x1F ADD PUSH1 0x20 DUP1 SWAP2 DIV MUL PUSH1 0x20 ADD PUSH1 0x40 MLOAD SWAP1 DUP2 ADD PUSH1 0x40 MSTORE DUP1 SWAP3 SWAP2 SWAP1 DUP2 DUP2 MSTORE PUSH1 0x20 ADD DUP3 DUP1 SLOAD PUSH2 0x871 SWAP1 PUSH2 0x471D JUMP JUMPDEST DUP1 ISZERO PUSH2 0x8BC JUMPI DUP1 PUSH1 0x1F LT PUSH2 0x893 JUMPI PUSH2 0x100 DUP1 DUP4 SLOAD DIV MUL DUP4 MSTORE SWAP2 PUSH1 0x20 ADD SWAP2 PUSH2 0x8BC JUMP JUMPDEST DUP3 ADD SWAP2 SWAP1 PUSH0 MSTORE PUSH1 0x20 PUSH0 KECCAK256 SWAP1 JUMPDEST DUP2 SLOAD DUP2 MSTORE SWAP1 PUSH1 0x1 ADD SWAP1 PUSH1 0x20 ADD DUP1 DUP4 GT PUSH2 0x89F JUMPI DUP3 SWAP1 SUB PUSH1 0x1F AND DUP3 ADD SWAP2 JUMPDEST POP POP POP POP POP DUP2 MSTORE PUSH1 0x20 ADD PUSH1 0x9 DUP3 ADD PUSH0 SWAP1 SLOAD SWAP1 PUSH2 0x100 EXP SWAP1 DIV PUSH1 0xFF AND ISZERO ISZERO ISZERO ISZERO DUP2 MSTORE PUSH1 0x20 ADD PUSH1 0xA DUP3 ADD SLOAD DUP2 MSTORE PUSH1 0x20 ADD PUSH1 0xB DUP3 ADD SLOAD DUP2 MSTORE POP POP DUP4 DUP4 DUP1 PUSH2 0x8FF SWAP1 PUSH2 0x474D JUMP JUMPDEST SWAP5 POP DUP2 MLOAD DUP2 LT PUSH2 0x912 JUMPI PUSH2 0x911 PUSH2 0x45EB JUMP JUMPDEST JUMPDEST PUSH1 0x20 MUL PUSH1 0x20 ADD ADD DUP2 SWAP1 MSTORE POP JUMPDEST DUP1 DUP1 PUSH1 0x1 ADD SWAP2 POP POP PUSH2 0x517 JUMP JUMPDEST POP DUP2 SWAP4 POP POP POP POP SWAP2 SWAP1 POP JUMP JUMPDEST DUP1 CALLER PUSH20 0xFFFFFFFFFFFFFFFFFFFFFFFFFFFFFFFFFFFFFFFF AND PUSH1 0x35 PUSH0 DUP4 DUP2 MSTORE PUSH1 0x20 ADD SWAP1 DUP2 MSTORE PUSH1 0x20 ADD PUSH0 KECCAK256 PUSH1 0x5 ADD PUSH0 SWAP1 SLOAD SWAP1 PUSH2 0x100 EXP SWAP1 DIV PUSH20 0xFFFFFFFFFFFFFFFFFFFFFFFFFFFFFFFFFFFFFFFF AND PUSH20 0xFFFFFFFFFFFFFFFFFFFFFFFFFFFFFFFFFFFFFFFF AND EQ PUSH2 0x9D9 JUMPI PUSH1 0x40 MLOAD PUSH32 0x8C379A000000000000000000000000000000000000000000000000000000000 DUP2 MSTORE PUSH1 0x4 ADD PUSH2 0x9D0 SWAP1 PUSH2 0x4804 JUMP JUMPDEST PUSH1 0x40 MLOAD DUP1 SWAP2 SUB SWAP1 REVERT JUMPDEST DUP2 PUSH1 0x35 PUSH0 DUP3 DUP2 MSTORE PUSH1 0x20 ADD SWAP1 DUP2 MSTORE PUSH1 0x20 ADD PUSH0 KECCAK256 PUSH0 ADD PUSH0 SWAP1 SLOAD SWAP1 PUSH2 0x100 EXP SWAP1 DIV PUSH1 0xFF AND PUSH2 0xA39 JUMPI PUSH1 0x40 MLOAD PUSH32 0x8C379A000000000000000000000000000000000000000000000000000000000 DUP2 MSTORE PUSH1 0x4 ADD PUSH2 0xA30 SWAP1 PUSH2 0x486C JUMP JUMPDEST PUSH1 0x40 MLOAD DUP1 SWAP2 SUB SWAP1 REVERT JUMPDEST PUSH2 0xA41 PUSH2 0x2E62 JUMP JUMPDEST PUSH0 PUSH20 0xFFFFFFFFFFFFFFFFFFFFFFFFFFFFFFFFFFFFFFFF AND PUSH1 0x35 PUSH0 DUP6 DUP2 MSTORE PUSH1 0x20 ADD SWAP1 DUP2 MSTORE PUSH1 0x20 ADD PUSH0 KECCAK256 PUSH1 0x6 ADD PUSH0 SWAP1 SLOAD SWAP1 PUSH2 0x100 EXP SWAP1 DIV PUSH20 0xFFFFFFFFFFFFFFFFFFFFFFFFFFFFFFFFFFFFFFFF AND PUSH20 0xFFFFFFFFFFFFFFFFFFFFFFFFFFFFFFFFFFFFFFFF AND EQ PUSH2 0xAE2 JUMPI PUSH1 0x40 MLOAD PUSH32 0x8C379A000000000000000000000000000000000000000000000000000000000 DUP2 MSTORE PUSH1 0x4 ADD PUSH2 0xAD9 SWAP1 PUSH2 0x48D4 JUMP JUMPDEST PUSH1 0x40 MLOAD DUP1 SWAP2 SUB SWAP1 REVERT JUMPDEST PUSH0 PUSH1 0x35 PUSH0 DUP6 DUP2 MSTORE PUSH1 0x20 ADD SWAP1 DUP2 MSTORE PUSH1 0x20 ADD PUSH0 KECCAK256 PUSH1 0x9 ADD PUSH0 SWAP1 SLOAD SWAP1 PUSH2 0x100 EXP SWAP1 DIV PUSH1 0xFF AND SWAP1 POP DUP1 ISZERO PUSH1 0x35 PUSH0 DUP7 DUP2 MSTORE PUSH1 0x20 ADD SWAP1 DUP2 MSTORE PUSH1 0x20 ADD PUSH0 KECCAK256 PUSH1 0x9 ADD PUSH0 PUSH2 0x100 EXP DUP2 SLOAD DUP2 PUSH1 0xFF MUL NOT AND SWAP1 DUP4 ISZERO ISZERO MUL OR SWAP1 SSTORE POP PUSH32 0xA213C37322060016E7D43CF428D26CB39195F34AF43CD5428E0C5ACE641CBDB DUP5 DUP3 ISZERO PUSH1 0x40 MLOAD PUSH2 0xB64 SWAP3 SWAP2 SWAP1 PUSH2 0x4901 JUMP JUMPDEST PUSH1 0x40 MLOAD DUP1 SWAP2 SUB SWAP1 LOG1 POP PUSH2 0xB75 PUSH2 0x2EAF JUMP JUMPDEST POP POP POP JUMP JUMPDEST PUSH2 0xB82 PUSH2 0x2EB8 JUMP JUMPDEST PUSH0 SELFBALANCE SWAP1 POP PUSH0 DUP2 GT PUSH2 0xBC8 JUMPI PUSH1 0x40 MLOAD PUSH32 0x8C379A000000000000000000000000000000000000000000000000000000000 DUP2 MSTORE PUSH1 0x4 ADD PUSH2 0xBBF SWAP1 PUSH2 0x4972 JUMP JUMPDEST PUSH1 0x40 MLOAD DUP1 SWAP2 SUB SWAP1 REVERT JUMPDEST PUSH2 0xBD0 PUSH2 0x1C77 JUMP JUMPDEST PUSH20 0xFFFFFFFFFFFFFFFFFFFFFFFFFFFFFFFFFFFFFFFF AND PUSH2 0x8FC DUP3 SWAP1 DUP2 ISZERO MUL SWAP1 PUSH1 0x40 MLOAD PUSH0 PUSH1 0x40 MLOAD DUP1 DUP4 SUB DUP2 DUP6 DUP9 DUP9 CALL SWAP4 POP POP POP POP ISZERO DUP1 ISZERO PUSH2 0xC12 JUMPI RETURNDATASIZE PUSH0 DUP1 RETURNDATACOPY RETURNDATASIZE PUSH0 REVERT JUMPDEST POP POP JUMP JUMPDEST DUP1 PUSH1 0x35 PUSH0 DUP3 DUP2 MSTORE PUSH1 0x20 ADD SWAP1 DUP2 MSTORE PUSH1 0x20 ADD PUSH0 KECCAK256 PUSH0 ADD PUSH0 SWAP1 SLOAD SWAP1 PUSH2 0x100 EXP SWAP1 DIV PUSH1 0xFF AND PUSH2 0xC76 JUMPI PUSH1 0x40 MLOAD PUSH32 0x8C379A000000000000000000000000000000000000000000000000000000000 DUP2 MSTORE PUSH1 0x4 ADD PUSH2 0xC6D SWAP1 PUSH2 0x486C JUMP JUMPDEST PUSH1 0x40 MLOAD DUP1 SWAP2 SUB SWAP1 REVERT JUMPDEST PUSH2 0xC7E PUSH2 0x2E62 JUMP JUMPDEST PUSH0 PUSH1 0x35 PUSH0 DUP5 DUP2 MSTORE PUSH1 0x20 ADD SWAP1 DUP2 MSTORE PUSH1 0x20 ADD PUSH0 KECCAK256 SWAP1 POP DUP1 PUSH1 0x9 ADD PUSH0 SWAP1 SLOAD SWAP1 PUSH2 0x100 EXP SWAP1 DIV PUSH1 0xFF AND PUSH2 0xCE2 JUMPI PUSH1 0x40 MLOAD PUSH32 0x8C379A000000000000000000000000000000000000000000000000000000000 DUP2 MSTORE PUSH1 0x4 ADD PUSH2 0xCD9 SWAP1 PUSH2 0x49DA JUMP JUMPDEST PUSH1 0x40 MLOAD DUP1 SWAP2 SUB SWAP1 REVERT JUMPDEST DUP1 PUSH1 0xB ADD SLOAD TIMESTAMP GT ISZERO PUSH2 0xD29 JUMPI PUSH1 0x40 MLOAD PUSH32 0x8C379A000000000000000000000000000000000000000000000000000000000 DUP2 MSTORE PUSH1 0x4 ADD PUSH2 0xD20 SWAP1 PUSH2 0x4A42 JUMP JUMPDEST PUSH1 0x40 MLOAD DUP1 SWAP2 SUB SWAP1 REVERT JUMPDEST DUP1 PUSH1 0xA ADD SLOAD TIMESTAMP LT ISZERO PUSH2 0xD70 JUMPI PUSH1 0x40 MLOAD PUSH32 0x8C379A000000000000000000000000000000000000000000000000000000000 DUP2 MSTORE PUSH1 0x4 ADD PUSH2 0xD67 SWAP1 PUSH2 0x4AAA JUMP JUMPDEST PUSH1 0x40 MLOAD DUP1 SWAP2 SUB SWAP1 REVERT JUMPDEST DUP1 PUSH1 0x7 ADD SLOAD CALLVALUE GT PUSH2 0xDB6 JUMPI PUSH1 0x40 MLOAD PUSH32 0x8C379A000000000000000000000000000000000000000000000000000000000 DUP2 MSTORE PUSH1 0x4 ADD PUSH2 0xDAD SWAP1 PUSH2 0x4B38 JUMP JUMPDEST PUSH1 0x40 MLOAD DUP1 SWAP2 SUB SWAP1 REVERT JUMPDEST DUP1 PUSH1 0x5 ADD PUSH0 SWAP1 SLOAD SWAP1 PUSH2 0x100 EXP SWAP1 DIV PUSH20 0xFFFFFFFFFFFFFFFFFFFFFFFFFFFFFFFFFFFFFFFF AND PUSH20 0xFFFFFFFFFFFFFFFFFFFFFFFFFFFFFFFFFFFFFFFF AND CALLER PUSH20 0xFFFFFFFFFFFFFFFFFFFFFFFFFFFFFFFFFFFFFFFF AND SUB PUSH2 0xE47 JUMPI PUSH1 0x40 MLOAD PUSH32 0x8C379A000000000000000000000000000000000000000000000000000000000 DUP2 MSTORE PUSH1 0x4 ADD PUSH2 0xE3E SWAP1 PUSH2 0x4BA0 JUMP JUMPDEST PUSH1 0x40 MLOAD DUP1 SWAP2 SUB SWAP1 REVERT JUMPDEST PUSH0 PUSH20 0xFFFFFFFFFFFFFFFFFFFFFFFFFFFFFFFFFFFFFFFF AND DUP2 PUSH1 0x6 ADD PUSH0 SWAP1 SLOAD SWAP1 PUSH2 0x100 EXP SWAP1 DIV PUSH20 0xFFFFFFFFFFFFFFFFFFFFFFFFFFFFFFFFFFFFFFFF AND PUSH20 0xFFFFFFFFFFFFFFFFFFFFFFFFFFFFFFFFFFFFFFFF AND EQ PUSH2 0xF09 JUMPI DUP1 PUSH1 0x6 ADD PUSH0 SWAP1 SLOAD SWAP1 PUSH2 0x100 EXP SWAP1 DIV PUSH20 0xFFFFFFFFFFFFFFFFFFFFFFFFFFFFFFFFFFFFFFFF AND PUSH20 0xFFFFFFFFFFFFFFFFFFFFFFFFFFFFFFFFFFFFFFFF AND PUSH2 0x8FC DUP3 PUSH1 0x7 ADD SLOAD SWAP1 DUP2 ISZERO MUL SWAP1 PUSH1 0x40 MLOAD PUSH0 PUSH1 0x40 MLOAD DUP1 DUP4 SUB DUP2 DUP6 DUP9 DUP9 CALL SWAP4 POP POP POP POP ISZERO DUP1 ISZERO PUSH2 0xF07 JUMPI RETURNDATASIZE PUSH0 DUP1 RETURNDATACOPY RETURNDATASIZE PUSH0 REVERT JUMPDEST POP JUMPDEST CALLVALUE DUP2 PUSH1 0x7 ADD DUP2 SWAP1 SSTORE POP CALLER DUP2 PUSH1 0x6 ADD PUSH0 PUSH2 0x100 EXP DUP2 SLOAD DUP2 PUSH20 0xFFFFFFFFFFFFFFFFFFFFFFFFFFFFFFFFFFFFFFFF MUL NOT AND SWAP1 DUP4 PUSH20 0xFFFFFFFFFFFFFFFFFFFFFFFFFFFFFFFFFFFFFFFF AND MUL OR SWAP1 SSTORE POP CALLER PUSH20 0xFFFFFFFFFFFFFFFFFFFFFFFFFFFFFFFFFFFFFFFF AND DUP4 PUSH32 0xE54EFF26401BF69B81B26F60BD85EF47F5D85275C1D268D84F68D6897431C47 CALLVALUE PUSH1 0x40 MLOAD PUSH2 0xF9B SWAP2 SWAP1 PUSH2 0x4206 JUMP JUMPDEST PUSH1 0x40 MLOAD DUP1 SWAP2 SUB SWAP1 LOG3 POP PUSH2 0xFAC PUSH2 0x2EAF JUMP JUMPDEST POP POP JUMP JUMPDEST PUSH1 0x60 PUSH0 PUSH1 0x1 PUSH1 0x32 DUP1 SLOAD SWAP1 POP PUSH2 0xFC5 SWAP2 SWAP1 PUSH2 0x4BBE JUMP JUMPDEST SWAP1 POP PUSH0 DUP2 PUSH8 0xFFFFFFFFFFFFFFFF DUP2 GT ISZERO PUSH2 0xFE2 JUMPI PUSH2 0xFE1 PUSH2 0x4061 JUMP JUMPDEST JUMPDEST PUSH1 0x40 MLOAD SWAP1 DUP1 DUP3 MSTORE DUP1 PUSH1 0x20 MUL PUSH1 0x20 ADD DUP3 ADD PUSH1 0x40 MSTORE DUP1 ISZERO PUSH2 0x101B JUMPI DUP2 PUSH1 0x20 ADD JUMPDEST PUSH2 0x1008 PUSH2 0x3999 JUMP JUMPDEST DUP2 MSTORE PUSH1 0x20 ADD SWAP1 PUSH1 0x1 SWAP1 SUB SWAP1 DUP2 PUSH2 0x1000 JUMPI SWAP1 POP JUMPDEST POP SWAP1 POP PUSH0 PUSH1 0x1 SWAP1 POP JUMPDEST DUP3 DUP2 GT PUSH2 0x13BA JUMPI PUSH0 PUSH1 0x32 DUP3 DUP2 SLOAD DUP2 LT PUSH2 0x1040 JUMPI PUSH2 0x103F PUSH2 0x45EB JUMP JUMPDEST JUMPDEST SWAP1 PUSH0 MSTORE PUSH1 0x20 PUSH0 KECCAK256 ADD SLOAD SWAP1 POP PUSH1 0x35 PUSH0 DUP3 DUP2 MSTORE PUSH1 0x20 ADD SWAP1 DUP2 MSTORE PUSH1 0x20 ADD PUSH0 KECCAK256 PUSH1 0x40 MLOAD DUP1 PUSH2 0x180 ADD PUSH1 0x40 MSTORE SWAP1 DUP2 PUSH0 DUP3 ADD PUSH0 SWAP1 SLOAD SWAP1 PUSH2 0x100 EXP SWAP1 DIV PUSH1 0xFF AND ISZERO ISZERO ISZERO ISZERO DUP2 MSTORE PUSH1 0x20 ADD PUSH1 0x1 DUP3 ADD SLOAD DUP2 MSTORE PUSH1 0x20 ADD PUSH1 0x2 DUP3 ADD PUSH0 SWAP1 SLOAD SWAP1 PUSH2 0x100 EXP SWAP1 DIV PUSH20 0xFFFFFFFFFFFFFFFFFFFFFFFFFFFFFFFFFFFFFFFF AND PUSH20 0xFFFFFFFFFFFFFFFFFFFFFFFFFFFFFFFFFFFFFFFF AND PUSH20 0xFFFFFFFFFFFFFFFFFFFFFFFFFFFFFFFFFFFFFFFF AND DUP2 MSTORE PUSH1 0x20 ADD PUSH1 0x3 DUP3 ADD DUP1 SLOAD DUP1 PUSH1 0x20 MUL PUSH1 0x20 ADD PUSH1 0x40 MLOAD SWAP1 DUP2 ADD PUSH1 0x40 MSTORE DUP1 SWAP3 SWAP2 SWAP1 DUP2 DUP2 MSTORE PUSH1 0x20 ADD DUP3 DUP1 SLOAD DUP1 ISZERO PUSH2 0x112D JUMPI PUSH1 0x20 MUL DUP3 ADD SWAP2 SWAP1 PUSH0 MSTORE PUSH1 0x20 PUSH0 KECCAK256 SWAP1 JUMPDEST DUP2 SLOAD DUP2 MSTORE PUSH1 0x20 ADD SWAP1 PUSH1 0x1 ADD SWAP1 DUP1 DUP4 GT PUSH2 0x1119 JUMPI JUMPDEST POP POP POP POP POP DUP2 MSTORE PUSH1 0x20 ADD PUSH1 0x4 DUP3 ADD DUP1 SLOAD DUP1 PUSH1 0x20 MUL PUSH1 0x20 ADD PUSH1 0x40 MLOAD SWAP1 DUP2 ADD PUSH1 0x40 MSTORE DUP1 SWAP3 SWAP2 SWAP1 DUP2 DUP2 MSTORE PUSH1 0x20 ADD PUSH0 SWAP1 JUMPDEST DUP3 DUP3 LT ISZERO PUSH2 0x1202 JUMPI DUP4 DUP3 SWAP1 PUSH0 MSTORE PUSH1 0x20 PUSH0 KECCAK256 ADD DUP1 SLOAD PUSH2 0x1177 SWAP1 PUSH2 0x471D JUMP JUMPDEST DUP1 PUSH1 0x1F ADD PUSH1 0x20 DUP1 SWAP2 DIV MUL PUSH1 0x20 ADD PUSH1 0x40 MLOAD SWAP1 DUP2 ADD PUSH1 0x40 MSTORE DUP1 SWAP3 SWAP2 SWAP1 DUP2 DUP2 MSTORE PUSH1 0x20 ADD DUP3 DUP1 SLOAD PUSH2 0x11A3 SWAP1 PUSH2 0x471D JUMP JUMPDEST DUP1 ISZERO PUSH2 0x11EE JUMPI DUP1 PUSH1 0x1F LT PUSH2 0x11C5 JUMPI PUSH2 0x100 DUP1 DUP4 SLOAD DIV MUL DUP4 MSTORE SWAP2 PUSH1 0x20 ADD SWAP2 PUSH2 0x11EE JUMP JUMPDEST DUP3 ADD SWAP2 SWAP1 PUSH0 MSTORE PUSH1 0x20 PUSH0 KECCAK256 SWAP1 JUMPDEST DUP2 SLOAD DUP2 MSTORE SWAP1 PUSH1 0x1 ADD SWAP1 PUSH1 0x20 ADD DUP1 DUP4 GT PUSH2 0x11D1 JUMPI DUP3 SWAP1 SUB PUSH1 0x1F AND DUP3 ADD SWAP2 JUMPDEST POP POP POP POP POP DUP2 MSTORE PUSH1 0x20 ADD SWAP1 PUSH1 0x1 ADD SWAP1 PUSH2 0x115A JUMP JUMPDEST POP POP POP POP DUP2 MSTORE PUSH1 0x20 ADD PUSH1 0x5 DUP3 ADD PUSH0 SWAP1 SLOAD SWAP1 PUSH2 0x100 EXP SWAP1 DIV PUSH20 0xFFFFFFFFFFFFFFFFFFFFFFFFFFFFFFFFFFFFFFFF AND PUSH20 0xFFFFFFFFFFFFFFFFFFFFFFFFFFFFFFFFFFFFFFFF AND PUSH20 0xFFFFFFFFFFFFFFFFFFFFFFFFFFFFFFFFFFFFFFFF AND DUP2 MSTORE PUSH1 0x20 ADD PUSH1 0x6 DUP3 ADD PUSH0 SWAP1 SLOAD SWAP1 PUSH2 0x100 EXP SWAP1 DIV PUSH20 0xFFFFFFFFFFFFFFFFFFFFFFFFFFFFFFFFFFFFFFFF AND PUSH20 0xFFFFFFFFFFFFFFFFFFFFFFFFFFFFFFFFFFFFFFFF AND PUSH20 0xFFFFFFFFFFFFFFFFFFFFFFFFFFFFFFFFFFFFFFFF AND DUP2 MSTORE PUSH1 0x20 ADD PUSH1 0x7 DUP3 ADD SLOAD DUP2 MSTORE PUSH1 0x20 ADD PUSH1 0x8 DUP3 ADD DUP1 SLOAD PUSH2 0x12CE SWAP1 PUSH2 0x471D JUMP JUMPDEST DUP1 PUSH1 0x1F ADD PUSH1 0x20 DUP1 SWAP2 DIV MUL PUSH1 0x20 ADD PUSH1 0x40 MLOAD SWAP1 DUP2 ADD PUSH1 0x40 MSTORE DUP1 SWAP3 SWAP2 SWAP1 DUP2 DUP2 MSTORE PUSH1 0x20 ADD DUP3 DUP1 SLOAD PUSH2 0x12FA SWAP1 PUSH2 0x471D JUMP JUMPDEST DUP1 ISZERO PUSH2 0x1345 JUMPI DUP1 PUSH1 0x1F LT PUSH2 0x131C JUMPI PUSH2 0x100 DUP1 DUP4 SLOAD DIV MUL DUP4 MSTORE SWAP2 PUSH1 0x20 ADD SWAP2 PUSH2 0x1345 JUMP JUMPDEST DUP3 ADD SWAP2 SWAP1 PUSH0 MSTORE PUSH1 0x20 PUSH0 KECCAK256 SWAP1 JUMPDEST DUP2 SLOAD DUP2 MSTORE SWAP1 PUSH1 0x1 ADD SWAP1 PUSH1 0x20 ADD DUP1 DUP4 GT PUSH2 0x1328 JUMPI DUP3 SWAP1 SUB PUSH1 0x1F AND DUP3 ADD SWAP2 JUMPDEST POP POP POP POP POP DUP2 MSTORE PUSH1 0x20 ADD PUSH1 0x9 DUP3 ADD PUSH0 SWAP1 SLOAD SWAP1 PUSH2 0x100 EXP SWAP1 DIV PUSH1 0xFF AND ISZERO ISZERO ISZERO ISZERO DUP2 MSTORE PUSH1 0x20 ADD PUSH1 0xA DUP3 ADD SLOAD DUP2 MSTORE PUSH1 0x20 ADD PUSH1 0xB DUP3 ADD SLOAD DUP2 MSTORE POP POP DUP4 PUSH1 0x1 DUP5 PUSH2 0x138A SWAP2 SWAP1 PUSH2 0x4BBE JUMP JUMPDEST DUP2 MLOAD DUP2 LT PUSH2 0x139B JUMPI PUSH2 0x139A PUSH2 0x45EB JUMP JUMPDEST JUMPDEST PUSH1 0x20 MUL PUSH1 0x20 ADD ADD DUP2 SWAP1 MSTORE POP POP DUP1 DUP1 PUSH2 0x13B2 SWAP1 PUSH2 0x474D JUMP JUMPDEST SWAP2 POP POP PUSH2 0x1024 JUMP JUMPDEST POP DUP1 SWAP3 POP POP POP SWAP1 JUMP JUMPDEST PUSH2 0x13CB PUSH2 0x2EB8 JUMP JUMPDEST PUSH2 0x13D4 PUSH0 PUSH2 0x2F3F JUMP JUMPDEST JUMP JUMPDEST PUSH0 DUP1 DUP3 MLOAD GT PUSH2 0x141A JUMPI PUSH1 0x40 MLOAD PUSH32 0x8C379A000000000000000000000000000000000000000000000000000000000 DUP2 MSTORE PUSH1 0x4 ADD PUSH2 0x1411 SWAP1 PUSH2 0x4C3B JUMP JUMPDEST PUSH1 0x40 MLOAD DUP1 SWAP2 SUB SWAP1 REVERT JUMPDEST PUSH0 PUSH1 0x32 DUP1 SLOAD SWAP1 POP SWAP1 POP PUSH0 PUSH1 0x1 SWAP1 POP JUMPDEST DUP2 DUP2 LT ISZERO PUSH2 0x1804 JUMPI PUSH0 PUSH1 0x35 PUSH0 PUSH1 0x32 DUP5 DUP2 SLOAD DUP2 LT PUSH2 0x1449 JUMPI PUSH2 0x1448 PUSH2 0x45EB JUMP JUMPDEST JUMPDEST SWAP1 PUSH0 MSTORE PUSH1 0x20 PUSH0 KECCAK256 ADD SLOAD DUP2 MSTORE PUSH1 0x20 ADD SWAP1 DUP2 MSTORE PUSH1 0x20 ADD PUSH0 KECCAK256 PUSH1 0x40 MLOAD DUP1 PUSH2 0x180 ADD PUSH1 0x40 MSTORE SWAP1 DUP2 PUSH0 DUP3 ADD PUSH0 SWAP1 SLOAD SWAP1 PUSH2 0x100 EXP SWAP1 DIV PUSH1 0xFF AND ISZERO ISZERO ISZERO ISZERO DUP2 MSTORE PUSH1 0x20 ADD PUSH1 0x1 DUP3 ADD SLOAD DUP2 MSTORE PUSH1 0x20 ADD PUSH1 0x2 DUP3 ADD PUSH0 SWAP1 SLOAD SWAP1 PUSH2 0x100 EXP SWAP1 DIV PUSH20 0xFFFFFFFFFFFFFFFFFFFFFFFFFFFFFFFFFFFFFFFF AND PUSH20 0xFFFFFFFFFFFFFFFFFFFFFFFFFFFFFFFFFFFFFFFF AND PUSH20 0xFFFFFFFFFFFFFFFFFFFFFFFFFFFFFFFFFFFFFFFF AND DUP2 MSTORE PUSH1 0x20 ADD PUSH1 0x3 DUP3 ADD DUP1 SLOAD DUP1 PUSH1 0x20 MUL PUSH1 0x20 ADD PUSH1 0x40 MLOAD SWAP1 DUP2 ADD PUSH1 0x40 MSTORE DUP1 SWAP3 SWAP2 SWAP1 DUP2 DUP2 MSTORE PUSH1 0x20 ADD DUP3 DUP1 SLOAD DUP1 ISZERO PUSH2 0x1530 JUMPI PUSH1 0x20 MUL DUP3 ADD SWAP2 SWAP1 PUSH0 MSTORE PUSH1 0x20 PUSH0 KECCAK256 SWAP1 JUMPDEST DUP2 SLOAD DUP2 MSTORE PUSH1 0x20 ADD SWAP1 PUSH1 0x1 ADD SWAP1 DUP1 DUP4 GT PUSH2 0x151C JUMPI JUMPDEST POP POP POP POP POP DUP2 MSTORE PUSH1 0x20 ADD PUSH1 0x4 DUP3 ADD DUP1 SLOAD DUP1 PUSH1 0x20 MUL PUSH1 0x20 ADD PUSH1 0x40 MLOAD SWAP1 DUP2 ADD PUSH1 0x40 MSTORE DUP1 SWAP3 SWAP2 SWAP1 DUP2 DUP2 MSTORE PUSH1 0x20 ADD PUSH0 SWAP1 JUMPDEST DUP3 DUP3 LT ISZERO PUSH2 0x1605 JUMPI DUP4 DUP3 SWAP1 PUSH0 MSTORE PUSH1 0x20 PUSH0 KECCAK256 ADD DUP1 SLOAD PUSH2 0x157A SWAP1 PUSH2 0x471D JUMP JUMPDEST DUP1 PUSH1 0x1F ADD PUSH1 0x20 DUP1 SWAP2 DIV MUL PUSH1 0x20 ADD PUSH1 0x40 MLOAD SWAP1 DUP2 ADD PUSH1 0x40 MSTORE DUP1 SWAP3 SWAP2 SWAP1 DUP2 DUP2 MSTORE PUSH1 0x20 ADD DUP3 DUP1 SLOAD PUSH2 0x15A6 SWAP1 PUSH2 0x471D JUMP JUMPDEST DUP1 ISZERO PUSH2 0x15F1 JUMPI DUP1 PUSH1 0x1F LT PUSH2 0x15C8 JUMPI PUSH2 0x100 DUP1 DUP4 SLOAD DIV MUL DUP4 MSTORE SWAP2 PUSH1 0x20 ADD SWAP2 PUSH2 0x15F1 JUMP JUMPDEST DUP3 ADD SWAP2 SWAP1 PUSH0 MSTORE PUSH1 0x20 PUSH0 KECCAK256 SWAP1 JUMPDEST DUP2 SLOAD DUP2 MSTORE SWAP1 PUSH1 0x1 ADD SWAP1 PUSH1 0x20 ADD DUP1 DUP4 GT PUSH2 0x15D4 JUMPI DUP3 SWAP1 SUB PUSH1 0x1F AND DUP3 ADD SWAP2 JUMPDEST POP POP POP POP POP DUP2 MSTORE PUSH1 0x20 ADD SWAP1 PUSH1 0x1 ADD SWAP1 PUSH2 0x155D JUMP JUMPDEST POP POP POP POP DUP2 MSTORE PUSH1 0x20 ADD PUSH1 0x5 DUP3 ADD PUSH0 SWAP1 SLOAD SWAP1 PUSH2 0x100 EXP SWAP1 DIV PUSH20 0xFFFFFFFFFFFFFFFFFFFFFFFFFFFFFFFFFFFFFFFF AND PUSH20 0xFFFFFFFFFFFFFFFFFFFFFFFFFFFFFFFFFFFFFFFF AND PUSH20 0xFFFFFFFFFFFFFFFFFFFFFFFFFFFFFFFFFFFFFFFF AND DUP2 MSTORE PUSH1 0x20 ADD PUSH1 0x6 DUP3 ADD PUSH0 SWAP1 SLOAD SWAP1 PUSH2 0x100 EXP SWAP1 DIV PUSH20 0xFFFFFFFFFFFFFFFFFFFFFFFFFFFFFFFFFFFFFFFF AND PUSH20 0xFFFFFFFFFFFFFFFFFFFFFFFFFFFFFFFFFFFFFFFF AND PUSH20 0xFFFFFFFFFFFFFFFFFFFFFFFFFFFFFFFFFFFFFFFF AND DUP2 MSTORE PUSH1 0x20 ADD PUSH1 0x7 DUP3 ADD SLOAD DUP2 MSTORE PUSH1 0x20 ADD PUSH1 0x8 DUP3 ADD DUP1 SLOAD PUSH2 0x16D1 SWAP1 PUSH2 0x471D JUMP JUMPDEST DUP1 PUSH1 0x1F ADD PUSH1 0x20 DUP1 SWAP2 DIV MUL PUSH1 0x20 ADD PUSH1 0x40 MLOAD SWAP1 DUP2 ADD PUSH1 0x40 MSTORE DUP1 SWAP3 SWAP2 SWAP1 DUP2 DUP2 MSTORE PUSH1 0x20 ADD DUP3 DUP1 SLOAD PUSH2 0x16FD SWAP1 PUSH2 0x471D JUMP JUMPDEST DUP1 ISZERO PUSH2 0x1748 JUMPI DUP1 PUSH1 0x1F LT PUSH2 0x171F JUMPI PUSH2 0x100 DUP1 DUP4 SLOAD DIV MUL DUP4 MSTORE SWAP2 PUSH1 0x20 ADD SWAP2 PUSH2 0x1748 JUMP JUMPDEST DUP3 ADD SWAP2 SWAP1 PUSH0 MSTORE PUSH1 0x20 PUSH0 KECCAK256 SWAP1 JUMPDEST DUP2 SLOAD DUP2 MSTORE SWAP1 PUSH1 0x1 ADD SWAP1 PUSH1 0x20 ADD DUP1 DUP4 GT PUSH2 0x172B JUMPI DUP3 SWAP1 SUB PUSH1 0x1F AND DUP3 ADD SWAP2 JUMPDEST POP POP POP POP POP DUP2 MSTORE PUSH1 0x20 ADD PUSH1 0x9 DUP3 ADD PUSH0 SWAP1 SLOAD SWAP1 PUSH2 0x100 EXP SWAP1 DIV PUSH1 0xFF AND ISZERO ISZERO ISZERO ISZERO DUP2 MSTORE PUSH1 0x20 ADD PUSH1 0xA DUP3 ADD SLOAD DUP2 MSTORE PUSH1 0x20 ADD PUSH1 0xB DUP3 ADD SLOAD DUP2 MSTORE POP POP SWAP1 POP DUP6 PUSH20 0xFFFFFFFFFFFFFFFFFFFFFFFFFFFFFFFFFFFFFFFF AND DUP2 PUSH1 0x40 ADD MLOAD PUSH20 0xFFFFFFFFFFFFFFFFFFFFFFFFFFFFFFFFFFFFFFFF AND EQ DUP1 ISZERO PUSH2 0x17CA JUMPI POP PUSH2 0x17C9 DUP2 PUSH1 0x60 ADD MLOAD DUP7 PUSH2 0x3010 JUMP JUMPDEST JUMPDEST ISZERO PUSH2 0x17F6 JUMPI PUSH1 0x32 DUP3 DUP2 SLOAD DUP2 LT PUSH2 0x17E3 JUMPI PUSH2 0x17E2 PUSH2 0x45EB JUMP JUMPDEST JUMPDEST SWAP1 PUSH0 MSTORE PUSH1 0x20 PUSH0 KECCAK256 ADD SLOAD SWAP4 POP POP POP POP PUSH2 0x180A JUMP JUMPDEST POP DUP1 DUP1 PUSH1 0x1 ADD SWAP2 POP POP PUSH2 0x1429 JUMP JUMPDEST POP PUSH0 SWAP2 POP POP JUMPDEST SWAP3 SWAP2 POP POP JUMP JUMPDEST DUP1 CALLER PUSH20 0xFFFFFFFFFFFFFFFFFFFFFFFFFFFFFFFFFFFFFFFF AND PUSH1 0x35 PUSH0 DUP4 DUP2 MSTORE PUSH1 0x20 ADD SWAP1 DUP2 MSTORE PUSH1 0x20 ADD PUSH0 KECCAK256 PUSH1 0x5 ADD PUSH0 SWAP1 SLOAD SWAP1 PUSH2 0x100 EXP SWAP1 DIV PUSH20 0xFFFFFFFFFFFFFFFFFFFFFFFFFFFFFFFFFFFFFFFF AND PUSH20 0xFFFFFFFFFFFFFFFFFFFFFFFFFFFFFFFFFFFFFFFF AND EQ PUSH2 0x18B2 JUMPI PUSH1 0x40 MLOAD PUSH32 0x8C379A000000000000000000000000000000000000000000000000000000000 DUP2 MSTORE PUSH1 0x4 ADD PUSH2 0x18A9 SWAP1 PUSH2 0x4804 JUMP JUMPDEST PUSH1 0x40 MLOAD DUP1 SWAP2 SUB SWAP1 REVERT JUMPDEST DUP2 PUSH1 0x35 PUSH0 DUP3 DUP2 MSTORE PUSH1 0x20 ADD SWAP1 DUP2 MSTORE PUSH1 0x20 ADD PUSH0 KECCAK256 PUSH0 ADD PUSH0 SWAP1 SLOAD SWAP1 PUSH2 0x100 EXP SWAP1 DIV PUSH1 0xFF AND PUSH2 0x1912 JUMPI PUSH1 0x40 MLOAD PUSH32 0x8C379A000000000000000000000000000000000000000000000000000000000 DUP2 MSTORE PUSH1 0x4 ADD PUSH2 0x1909 SWAP1 PUSH2 0x486C JUMP JUMPDEST PUSH1 0x40 MLOAD DUP1 SWAP2 SUB SWAP1 REVERT JUMPDEST PUSH0 PUSH1 0x35 PUSH0 DUP6 DUP2 MSTORE PUSH1 0x20 ADD SWAP1 DUP2 MSTORE PUSH1 0x20 ADD PUSH0 KECCAK256 PUSH0 ADD PUSH0 PUSH2 0x100 EXP DUP2 SLOAD DUP2 PUSH1 0xFF MUL NOT AND SWAP1 DUP4 ISZERO ISZERO MUL OR SWAP1 SSTORE POP PUSH2 0x1945 DUP4 PUSH2 0x30BD JUMP JUMPDEST DUP3 PUSH32 0xD371E668750CB458FA9A55E99ADE07CE913D63AB733D6E30FE303723E106CF96 PUSH1 0x40 MLOAD PUSH1 0x40 MLOAD DUP1 SWAP2 SUB SWAP1 LOG2 POP POP POP JUMP JUMPDEST DUP1 PUSH1 0x35 PUSH0 DUP3 DUP2 MSTORE PUSH1 0x20 ADD SWAP1 DUP2 MSTORE PUSH1 0x20 ADD PUSH0 KECCAK256 PUSH0 ADD PUSH0 SWAP1 SLOAD SWAP1 PUSH2 0x100 EXP SWAP1 DIV PUSH1 0xFF AND PUSH2 0x19D7 JUMPI PUSH1 0x40 MLOAD PUSH32 0x8C379A000000000000000000000000000000000000000000000000000000000 DUP2 MSTORE PUSH1 0x4 ADD PUSH2 0x19CE SWAP1 PUSH2 0x486C JUMP JUMPDEST PUSH1 0x40 MLOAD DUP1 SWAP2 SUB SWAP1 REVERT JUMPDEST PUSH2 0x19DF PUSH2 0x2E62 JUMP JUMPDEST PUSH0 PUSH1 0x35 PUSH0 DUP5 DUP2 MSTORE PUSH1 0x20 ADD SWAP1 DUP2 MSTORE PUSH1 0x20 ADD PUSH0 KECCAK256 SWAP1 POP DUP1 PUSH1 0x9 ADD PUSH0 SWAP1 SLOAD SWAP1 PUSH2 0x100 EXP SWAP1 DIV PUSH1 0xFF AND ISZERO PUSH2 0x1A44 JUMPI PUSH1 0x40 MLOAD PUSH32 0x8C379A000000000000000000000000000000000000000000000000000000000 DUP2 MSTORE PUSH1 0x4 ADD PUSH2 0x1A3B SWAP1 PUSH2 0x4CA3 JUMP JUMPDEST PUSH1 0x40 MLOAD DUP1 SWAP2 SUB SWAP1 REVERT JUMPDEST DUP1 PUSH1 0x7 ADD SLOAD CALLVALUE LT ISZERO PUSH2 0x1A8B JUMPI PUSH1 0x40 MLOAD PUSH32 0x8C379A000000000000000000000000000000000000000000000000000000000 DUP2 MSTORE PUSH1 0x4 ADD PUSH2 0x1A82 SWAP1 PUSH2 0x4D31 JUMP JUMPDEST PUSH1 0x40 MLOAD DUP1 SWAP2 SUB SWAP1 REVERT JUMPDEST DUP1 PUSH1 0xB ADD SLOAD TIMESTAMP GT ISZERO PUSH2 0x1AD2 JUMPI PUSH1 0x40 MLOAD PUSH32 0x8C379A000000000000000000000000000000000000000000000000000000000 DUP2 MSTORE PUSH1 0x4 ADD PUSH2 0x1AC9 SWAP1 PUSH2 0x4D99 JUMP JUMPDEST PUSH1 0x40 MLOAD DUP1 SWAP2 SUB SWAP1 REVERT JUMPDEST PUSH0 DUP2 PUSH1 0x5 ADD PUSH0 SWAP1 SLOAD SWAP1 PUSH2 0x100 EXP SWAP1 DIV PUSH20 0xFFFFFFFFFFFFFFFFFFFFFFFFFFFFFFFFFFFFFFFF AND SWAP1 POP DUP1 PUSH20 0xFFFFFFFFFFFFFFFFFFFFFFFFFFFFFFFFFFFFFFFF AND PUSH2 0x8FC PUSH1 0x64 PUSH1 0x34 SLOAD PUSH1 0x64 PUSH2 0x1B24 SWAP2 SWAP1 PUSH2 0x4BBE JUMP JUMPDEST DUP6 PUSH1 0x7 ADD SLOAD PUSH2 0x1B33 SWAP2 SWAP1 PUSH2 0x4DB7 JUMP JUMPDEST PUSH2 0x1B3D SWAP2 SWAP1 PUSH2 0x4E25 JUMP JUMPDEST SWAP1 DUP2 ISZERO MUL SWAP1 PUSH1 0x40 MLOAD PUSH0 PUSH1 0x40 MLOAD DUP1 DUP4 SUB DUP2 DUP6 DUP9 DUP9 CALL SWAP4 POP POP POP POP ISZERO DUP1 ISZERO PUSH2 0x1B65 JUMPI RETURNDATASIZE PUSH0 DUP1 RETURNDATACOPY RETURNDATASIZE PUSH0 REVERT JUMPDEST POP PUSH2 0x1C08 DUP3 PUSH1 0x2 ADD PUSH0 SWAP1 SLOAD SWAP1 PUSH2 0x100 EXP SWAP1 DIV PUSH20 0xFFFFFFFFFFFFFFFFFFFFFFFFFFFFFFFFFFFFFFFF AND DUP4 PUSH1 0x3 ADD DUP1 SLOAD DUP1 PUSH1 0x20 MUL PUSH1 0x20 ADD PUSH1 0x40 MLOAD SWAP1 DUP2 ADD PUSH1 0x40 MSTORE DUP1 SWAP3 SWAP2 SWAP1 DUP2 DUP2 MSTORE PUSH1 0x20 ADD DUP3 DUP1 SLOAD DUP1 ISZERO PUSH2 0x1BD9 JUMPI PUSH1 0x20 MUL DUP3 ADD SWAP2 SWAP1 PUSH0 MSTORE PUSH1 0x20 PUSH0 KECCAK256 SWAP1 JUMPDEST DUP2 SLOAD DUP2 MSTORE PUSH1 0x20 ADD SWAP1 PUSH1 0x1 ADD SWAP1 DUP1 DUP4 GT PUSH2 0x1BC5 JUMPI JUMPDEST POP POP POP POP POP DUP5 PUSH1 0x5 ADD PUSH0 SWAP1 SLOAD SWAP1 PUSH2 0x100 EXP SWAP1 DIV PUSH20 0xFFFFFFFFFFFFFFFFFFFFFFFFFFFFFFFFFFFFFFFF AND CALLER PUSH2 0x317C JUMP JUMPDEST PUSH0 DUP3 PUSH0 ADD PUSH0 PUSH2 0x100 EXP DUP2 SLOAD DUP2 PUSH1 0xFF MUL NOT AND SWAP1 DUP4 ISZERO ISZERO MUL OR SWAP1 SSTORE POP PUSH2 0x1C2B DUP5 PUSH2 0x30BD JUMP JUMPDEST DUP4 PUSH32 0xB481B742304411974D9797AC9E3C74CBF8C9E4B6B1965C5AFB6C0708822CAB34 CALLER DUP5 PUSH1 0x7 ADD SLOAD PUSH1 0x40 MLOAD PUSH2 0x1C61 SWAP3 SWAP2 SWAP1 PUSH2 0x4E55 JUMP JUMPDEST PUSH1 0x40 MLOAD DUP1 SWAP2 SUB SWAP1 LOG2 POP POP PUSH2 0x1C73 PUSH2 0x2EAF JUMP JUMPDEST POP POP JUMP JUMPDEST PUSH0 DUP1 PUSH2 0x1C81 PUSH2 0x343F JUMP JUMPDEST SWAP1 POP DUP1 PUSH0 ADD PUSH0 SWAP1 SLOAD SWAP1 PUSH2 0x100 EXP SWAP1 DIV PUSH20 0xFFFFFFFFFFFFFFFFFFFFFFFFFFFFFFFFFFFFFFFF AND SWAP2 POP POP SWAP1 JUMP JUMPDEST PUSH0 DUP1 DUP7 GT PUSH2 0x1CEF JUMPI PUSH1 0x40 MLOAD PUSH32 0x8C379A000000000000000000000000000000000000000000000000000000000 DUP2 MSTORE PUSH1 0x4 ADD PUSH2 0x1CE6 SWAP1 PUSH2 0x4EC6 JUMP JUMPDEST PUSH1 0x40 MLOAD DUP1 SWAP2 SUB SWAP1 REVERT JUMPDEST PUSH2 0x1CFA DUP9 DUP9 CALLER PUSH2 0x3466 JUMP JUMPDEST PUSH2 0x1D39 JUMPI PUSH1 0x40 MLOAD PUSH32 0x8C379A000000000000000000000000000000000000000000000000000000000 DUP2 MSTORE PUSH1 0x4 ADD PUSH2 0x1D30 SWAP1 PUSH2 0x4F54 JUMP JUMPDEST PUSH1 0x40 MLOAD DUP1 SWAP2 SUB SWAP1 REVERT JUMPDEST PUSH0 PUSH2 0x1D44 DUP10 DUP10 PUSH2 0x13D6 JUMP JUMPDEST SWAP1 POP PUSH0 DUP2 SUB PUSH2 0x1D9A JUMPI PUSH2 0x1D55 PUSH2 0x373F JUMP JUMPDEST SWAP1 POP PUSH0 DUP2 SUB PUSH2 0x1D99 JUMPI PUSH1 0x40 MLOAD PUSH32 0x8C379A000000000000000000000000000000000000000000000000000000000 DUP2 MSTORE PUSH1 0x4 ADD PUSH2 0x1D90 SWAP1 PUSH2 0x4FBC JUMP JUMPDEST PUSH1 0x40 MLOAD DUP1 SWAP2 SUB SWAP1 REVERT JUMPDEST JUMPDEST PUSH0 DUP9 MLOAD PUSH8 0xFFFFFFFFFFFFFFFF DUP2 GT ISZERO PUSH2 0x1DB6 JUMPI PUSH2 0x1DB5 PUSH2 0x4061 JUMP JUMPDEST JUMPDEST PUSH1 0x40 MLOAD SWAP1 DUP1 DUP3 MSTORE DUP1 PUSH1 0x20 MUL PUSH1 0x20 ADD DUP3 ADD PUSH1 0x40 MSTORE DUP1 ISZERO PUSH2 0x1DE9 JUMPI DUP2 PUSH1 0x20 ADD JUMPDEST PUSH1 0x60 DUP2 MSTORE PUSH1 0x20 ADD SWAP1 PUSH1 0x1 SWAP1 SUB SWAP1 DUP2 PUSH2 0x1DD4 JUMPI SWAP1 POP JUMPDEST POP SWAP1 POP PUSH0 JUMPDEST DUP10 MLOAD DUP2 LT ISZERO PUSH2 0x1EB7 JUMPI DUP11 PUSH20 0xFFFFFFFFFFFFFFFFFFFFFFFFFFFFFFFFFFFFFFFF AND PUSH4 0xC87B56DD DUP12 DUP4 DUP2 MLOAD DUP2 LT PUSH2 0x1E26 JUMPI PUSH2 0x1E25 PUSH2 0x45EB JUMP JUMPDEST JUMPDEST PUSH1 0x20 MUL PUSH1 0x20 ADD ADD MLOAD PUSH1 0x40 MLOAD DUP3 PUSH4 0xFFFFFFFF AND PUSH1 0xE0 SHL DUP2 MSTORE PUSH1 0x4 ADD PUSH2 0x1E4A SWAP2 SWAP1 PUSH2 0x4206 JUMP JUMPDEST PUSH0 PUSH1 0x40 MLOAD DUP1 DUP4 SUB DUP2 DUP7 GAS STATICCALL ISZERO DUP1 ISZERO PUSH2 0x1E64 JUMPI RETURNDATASIZE PUSH0 DUP1 RETURNDATACOPY RETURNDATASIZE PUSH0 REVERT JUMPDEST POP POP POP POP PUSH1 0x40 MLOAD RETURNDATASIZE PUSH0 DUP3 RETURNDATACOPY RETURNDATASIZE PUSH1 0x1F NOT PUSH1 0x1F DUP3 ADD AND DUP3 ADD DUP1 PUSH1 0x40 MSTORE POP DUP2 ADD SWAP1 PUSH2 0x1E8C SWAP2 SWAP1 PUSH2 0x5048 JUMP JUMPDEST DUP3 DUP3 DUP2 MLOAD DUP2 LT PUSH2 0x1E9F JUMPI PUSH2 0x1E9E PUSH2 0x45EB JUMP JUMPDEST JUMPDEST PUSH1 0x20 MUL PUSH1 0x20 ADD ADD DUP2 SWAP1 MSTORE POP DUP1 DUP1 PUSH1 0x1 ADD SWAP2 POP POP PUSH2 0x1DEE JUMP JUMPDEST POP PUSH1 0x40 MLOAD DUP1 PUSH2 0x180 ADD PUSH1 0x40 MSTORE DUP1 PUSH1 0x1 ISZERO ISZERO DUP2 MSTORE PUSH1 0x20 ADD DUP4 DUP2 MSTORE PUSH1 0x20 ADD DUP12 PUSH20 0xFFFFFFFFFFFFFFFFFFFFFFFFFFFFFFFFFFFFFFFF AND DUP2 MSTORE PUSH1 0x20 ADD DUP11 DUP2 MSTORE PUSH1 0x20 ADD DUP3 DUP2 MSTORE PUSH1 0x20 ADD CALLER PUSH20 0xFFFFFFFFFFFFFFFFFFFFFFFFFFFFFFFFFFFFFFFF AND DUP2 MSTORE PUSH1 0x20 ADD PUSH0 PUSH20 0xFFFFFFFFFFFFFFFFFFFFFFFFFFFFFFFFFFFFFFFF AND DUP2 MSTORE PUSH1 0x20 ADD DUP10 DUP2 MSTORE PUSH1 0x20 ADD DUP9 DUP2 MSTORE PUSH1 0x20 ADD DUP8 ISZERO ISZERO DUP2 MSTORE PUSH1 0x20 ADD DUP7 DUP2 MSTORE PUSH1 0x20 ADD DUP6 DUP2 MSTORE POP PUSH1 0x35 PUSH0 DUP5 DUP2 MSTORE PUSH1 0x20 ADD SWAP1 DUP2 MSTORE PUSH1 0x20 ADD PUSH0 KECCAK256 PUSH0 DUP3 ADD MLOAD DUP2 PUSH0 ADD PUSH0 PUSH2 0x100 EXP DUP2 SLOAD DUP2 PUSH1 0xFF MUL NOT AND SWAP1 DUP4 ISZERO ISZERO MUL OR SWAP1 SSTORE POP PUSH1 0x20 DUP3 ADD MLOAD DUP2 PUSH1 0x1 ADD SSTORE PUSH1 0x40 DUP3 ADD MLOAD DUP2 PUSH1 0x2 ADD PUSH0 PUSH2 0x100 EXP DUP2 SLOAD DUP2 PUSH20 0xFFFFFFFFFFFFFFFFFFFFFFFFFFFFFFFFFFFFFFFF MUL NOT AND SWAP1 DUP4 PUSH20 0xFFFFFFFFFFFFFFFFFFFFFFFFFFFFFFFFFFFFFFFF AND MUL OR SWAP1 SSTORE POP PUSH1 0x60 DUP3 ADD MLOAD DUP2 PUSH1 0x3 ADD SWAP1 DUP1 MLOAD SWAP1 PUSH1 0x20 ADD SWAP1 PUSH2 0x1FEB SWAP3 SWAP2 SWAP1 PUSH2 0x3A37 JUMP JUMPDEST POP PUSH1 0x80 DUP3 ADD MLOAD DUP2 PUSH1 0x4 ADD SWAP1 DUP1 MLOAD SWAP1 PUSH1 0x20 ADD SWAP1 PUSH2 0x2008 SWAP3 SWAP2 SWAP1 PUSH2 0x3A82 JUMP JUMPDEST POP PUSH1 0xA0 DUP3 ADD MLOAD DUP2 PUSH1 0x5 ADD PUSH0 PUSH2 0x100 EXP DUP2 SLOAD DUP2 PUSH20 0xFFFFFFFFFFFFFFFFFFFFFFFFFFFFFFFFFFFFFFFF MUL NOT AND SWAP1 DUP4 PUSH20 0xFFFFFFFFFFFFFFFFFFFFFFFFFFFFFFFFFFFFFFFF AND MUL OR SWAP1 SSTORE POP PUSH1 0xC0 DUP3 ADD MLOAD DUP2 PUSH1 0x6 ADD PUSH0 PUSH2 0x100 EXP DUP2 SLOAD DUP2 PUSH20 0xFFFFFFFFFFFFFFFFFFFFFFFFFFFFFFFFFFFFFFFF MUL NOT AND SWAP1 DUP4 PUSH20 0xFFFFFFFFFFFFFFFFFFFFFFFFFFFFFFFFFFFFFFFF AND MUL OR SWAP1 SSTORE POP PUSH1 0xE0 DUP3 ADD MLOAD DUP2 PUSH1 0x7 ADD SSTORE PUSH2 0x100 DUP3 ADD MLOAD DUP2 PUSH1 0x8 ADD SWAP1 DUP2 PUSH2 0x20B5 SWAP2 SWAP1 PUSH2 0x522C JUMP JUMPDEST POP PUSH2 0x120 DUP3 ADD MLOAD DUP2 PUSH1 0x9 ADD PUSH0 PUSH2 0x100 EXP DUP2 SLOAD DUP2 PUSH1 0xFF MUL NOT AND SWAP1 DUP4 ISZERO ISZERO MUL OR SWAP1 SSTORE POP PUSH2 0x140 DUP3 ADD MLOAD DUP2 PUSH1 0xA ADD SSTORE PUSH2 0x160 DUP3 ADD MLOAD DUP2 PUSH1 0xB ADD SSTORE SWAP1 POP POP PUSH1 0x32 DUP3 SWAP1 DUP1 PUSH1 0x1 DUP2 SLOAD ADD DUP1 DUP3 SSTORE DUP1 SWAP2 POP POP PUSH1 0x1 SWAP1 SUB SWAP1 PUSH0 MSTORE PUSH1 0x20 PUSH0 KECCAK256 ADD PUSH0 SWAP1 SWAP2 SWAP1 SWAP2 SWAP1 SWAP2 POP SSTORE DUP9 PUSH1 0x40 MLOAD PUSH2 0x2123 SWAP2 SWAP1 PUSH2 0x5387 JUMP JUMPDEST PUSH1 0x40 MLOAD DUP1 SWAP2 SUB SWAP1 KECCAK256 DUP11 PUSH20 0xFFFFFFFFFFFFFFFFFFFFFFFFFFFFFFFFFFFFFFFF AND DUP4 PUSH32 0xBEE0BECAAC8D2A6CBDF6DD7F342FAC7F0C67ECF84A6B19B9B1C7ADD2B57B4441 CALLER DUP13 DUP12 DUP12 DUP12 PUSH1 0x40 MLOAD PUSH2 0x217A SWAP6 SWAP5 SWAP4 SWAP3 SWAP2 SWAP1 PUSH2 0x539D JUMP JUMPDEST PUSH1 0x40 MLOAD DUP1 SWAP2 SUB SWAP1 LOG4 DUP2 SWAP3 POP POP POP SWAP8 SWAP7 POP POP POP POP POP POP POP JUMP JUMPDEST DUP2 CALLER PUSH20 0xFFFFFFFFFFFFFFFFFFFFFFFFFFFFFFFFFFFFFFFF AND PUSH1 0x35 PUSH0 DUP4 DUP2 MSTORE PUSH1 0x20 ADD SWAP1 DUP2 MSTORE PUSH1 0x20 ADD PUSH0 KECCAK256 PUSH1 0x5 ADD PUSH0 SWAP1 SLOAD SWAP1 PUSH2 0x100 EXP SWAP1 DIV PUSH20 0xFFFFFFFFFFFFFFFFFFFFFFFFFFFFFFFFFFFFFFFF AND PUSH20 0xFFFFFFFFFFFFFFFFFFFFFFFFFFFFFFFFFFFFFFFF AND EQ PUSH2 0x2234 JUMPI PUSH1 0x40 MLOAD PUSH32 0x8C379A000000000000000000000000000000000000000000000000000000000 DUP2 MSTORE PUSH1 0x4 ADD PUSH2 0x222B SWAP1 PUSH2 0x4804 JUMP JUMPDEST PUSH1 0x40 MLOAD DUP1 SWAP2 SUB SWAP1 REVERT JUMPDEST DUP3 PUSH1 0x35 PUSH0 DUP3 DUP2 MSTORE PUSH1 0x20 ADD SWAP1 DUP2 MSTORE PUSH1 0x20 ADD PUSH0 KECCAK256 PUSH0 ADD PUSH0 SWAP1 SLOAD SWAP1 PUSH2 0x100 EXP SWAP1 DIV PUSH1 0xFF AND PUSH2 0x2294 JUMPI PUSH1 0x40 MLOAD PUSH32 0x8C379A000000000000000000000000000000000000000000000000000000000 DUP2 MSTORE PUSH1 0x4 ADD PUSH2 0x228B SWAP1 PUSH2 0x486C JUMP JUMPDEST PUSH1 0x40 MLOAD DUP1 SWAP2 SUB SWAP1 REVERT JUMPDEST PUSH0 PUSH1 0x35 PUSH0 DUP7 DUP2 MSTORE PUSH1 0x20 ADD SWAP1 DUP2 MSTORE PUSH1 0x20 ADD PUSH0 KECCAK256 SWAP1 POP DUP1 PUSH1 0x9 ADD PUSH0 SWAP1 SLOAD SWAP1 PUSH2 0x100 EXP SWAP1 DIV PUSH1 0xFF AND ISZERO DUP1 PUSH2 0x2313 JUMPI POP PUSH0 PUSH20 0xFFFFFFFFFFFFFFFFFFFFFFFFFFFFFFFFFFFFFFFF AND DUP2 PUSH1 0x6 ADD PUSH0 SWAP1 SLOAD SWAP1 PUSH2 0x100 EXP SWAP1 DIV PUSH20 0xFFFFFFFFFFFFFFFFFFFFFFFFFFFFFFFFFFFFFFFF AND PUSH20 0xFFFFFFFFFFFFFFFFFFFFFFFFFFFFFFFFFFFFFFFF AND EQ JUMPDEST PUSH2 0x2352 JUMPI PUSH1 0x40 MLOAD PUSH32 0x8C379A000000000000000000000000000000000000000000000000000000000 DUP2 MSTORE PUSH1 0x4 ADD PUSH2 0x2349 SWAP1 PUSH2 0x545E JUMP JUMPDEST PUSH1 0x40 MLOAD DUP1 SWAP2 SUB SWAP1 REVERT JUMPDEST PUSH0 DUP5 GT PUSH2 0x2394 JUMPI PUSH1 0x40 MLOAD PUSH32 0x8C379A000000000000000000000000000000000000000000000000000000000 DUP2 MSTORE PUSH1 0x4 ADD PUSH2 0x238B SWAP1 PUSH2 0x4EC6 JUMP JUMPDEST PUSH1 0x40 MLOAD DUP1 SWAP2 SUB SWAP1 REVERT JUMPDEST DUP4 DUP2 PUSH1 0x7 ADD DUP2 SWAP1 SSTORE POP POP POP POP POP POP JUMP JUMPDEST DUP1 PUSH1 0x35 PUSH0 DUP3 DUP2 MSTORE PUSH1 0x20 ADD SWAP1 DUP2 MSTORE PUSH1 0x20 ADD PUSH0 KECCAK256 PUSH0 ADD PUSH0 SWAP1 SLOAD SWAP1 PUSH2 0x100 EXP SWAP1 DIV PUSH1 0xFF AND PUSH2 0x2404 JUMPI PUSH1 0x40 MLOAD PUSH32 0x8C379A000000000000000000000000000000000000000000000000000000000 DUP2 MSTORE PUSH1 0x4 ADD PUSH2 0x23FB SWAP1 PUSH2 0x486C JUMP JUMPDEST PUSH1 0x40 MLOAD DUP1 SWAP2 SUB SWAP1 REVERT JUMPDEST PUSH2 0x240C PUSH2 0x2E62 JUMP JUMPDEST PUSH0 PUSH1 0x35 PUSH0 DUP5 DUP2 MSTORE PUSH1 0x20 ADD SWAP1 DUP2 MSTORE PUSH1 0x20 ADD PUSH0 KECCAK256 SWAP1 POP DUP1 PUSH1 0x9 ADD PUSH0 SWAP1 SLOAD SWAP1 PUSH2 0x100 EXP SWAP1 DIV PUSH1 0xFF AND PUSH2 0x2470 JUMPI PUSH1 0x40 MLOAD PUSH32 0x8C379A000000000000000000000000000000000000000000000000000000000 DUP2 MSTORE PUSH1 0x4 ADD PUSH2 0x2467 SWAP1 PUSH2 0x54C6 JUMP JUMPDEST PUSH1 0x40 MLOAD DUP1 SWAP2 SUB SWAP1 REVERT JUMPDEST DUP1 PUSH1 0xB ADD SLOAD TIMESTAMP GT PUSH2 0x24B6 JUMPI PUSH1 0x40 MLOAD PUSH32 0x8C379A000000000000000000000000000000000000000000000000000000000 DUP2 MSTORE PUSH1 0x4 ADD PUSH2 0x24AD SWAP1 PUSH2 0x552E JUMP JUMPDEST PUSH1 0x40 MLOAD DUP1 SWAP2 SUB SWAP1 REVERT JUMPDEST PUSH0 PUSH20 0xFFFFFFFFFFFFFFFFFFFFFFFFFFFFFFFFFFFFFFFF AND DUP2 PUSH1 0x6 ADD PUSH0 SWAP1 SLOAD SWAP1 PUSH2 0x100 EXP SWAP1 DIV PUSH20 0xFFFFFFFFFFFFFFFFFFFFFFFFFFFFFFFFFFFFFFFF AND PUSH20 0xFFFFFFFFFFFFFFFFFFFFFFFFFFFFFFFFFFFFFFFF AND EQ PUSH2 0x26C7 JUMPI DUP1 PUSH1 0x5 ADD PUSH0 SWAP1 SLOAD SWAP1 PUSH2 0x100 EXP SWAP1 DIV PUSH20 0xFFFFFFFFFFFFFFFFFFFFFFFFFFFFFFFFFFFFFFFF AND PUSH20 0xFFFFFFFFFFFFFFFFFFFFFFFFFFFFFFFFFFFFFFFF AND PUSH2 0x8FC PUSH1 0x64 PUSH1 0x34 SLOAD PUSH1 0x64 PUSH2 0x255A SWAP2 SWAP1 PUSH2 0x4BBE JUMP JUMPDEST DUP5 PUSH1 0x7 ADD SLOAD PUSH2 0x2569 SWAP2 SWAP1 PUSH2 0x4DB7 JUMP JUMPDEST PUSH2 0x2573 SWAP2 SWAP1 PUSH2 0x4E25 JUMP JUMPDEST SWAP1 DUP2 ISZERO MUL SWAP1 PUSH1 0x40 MLOAD PUSH0 PUSH1 0x40 MLOAD DUP1 DUP4 SUB DUP2 DUP6 DUP9 DUP9 CALL SWAP4 POP POP POP POP ISZERO DUP1 ISZERO PUSH2 0x259B JUMPI RETURNDATASIZE PUSH0 DUP1 RETURNDATACOPY RETURNDATASIZE PUSH0 REVERT JUMPDEST POP PUSH2 0x2661 DUP2 PUSH1 0x2 ADD PUSH0 SWAP1 SLOAD SWAP1 PUSH2 0x100 EXP SWAP1 DIV PUSH20 0xFFFFFFFFFFFFFFFFFFFFFFFFFFFFFFFFFFFFFFFF AND DUP3 PUSH1 0x3 ADD DUP1 SLOAD DUP1 PUSH1 0x20 MUL PUSH1 0x20 ADD PUSH1 0x40 MLOAD SWAP1 DUP2 ADD PUSH1 0x40 MSTORE DUP1 SWAP3 SWAP2 SWAP1 DUP2 DUP2 MSTORE PUSH1 0x20 ADD DUP3 DUP1 SLOAD DUP1 ISZERO PUSH2 0x260F JUMPI PUSH1 0x20 MUL DUP3 ADD SWAP2 SWAP1 PUSH0 MSTORE PUSH1 0x20 PUSH0 KECCAK256 SWAP1 JUMPDEST DUP2 SLOAD DUP2 MSTORE PUSH1 0x20 ADD SWAP1 PUSH1 0x1 ADD SWAP1 DUP1 DUP4 GT PUSH2 0x25FB JUMPI JUMPDEST POP POP POP POP POP DUP4 PUSH1 0x5 ADD PUSH0 SWAP1 SLOAD SWAP1 PUSH2 0x100 EXP SWAP1 DIV PUSH20 0xFFFFFFFFFFFFFFFFFFFFFFFFFFFFFFFFFFFFFFFF AND DUP5 PUSH1 0x6 ADD PUSH0 SWAP1 SLOAD SWAP1 PUSH2 0x100 EXP SWAP1 DIV PUSH20 0xFFFFFFFFFFFFFFFFFFFFFFFFFFFFFFFFFFFFFFFF AND PUSH2 0x317C JUMP JUMPDEST DUP3 PUSH32 0xD2AA34A4FDBBC6DFF6A3E56F46E0F3AE2A31D7785FF3487AA5C95C642ACEA501 DUP3 PUSH1 0x6 ADD PUSH0 SWAP1 SLOAD SWAP1 PUSH2 0x100 EXP SWAP1 DIV PUSH20 0xFFFFFFFFFFFFFFFFFFFFFFFFFFFFFFFFFFFFFFFF AND DUP4 PUSH1 0x7 ADD SLOAD PUSH1 0x40 MLOAD PUSH2 0x26BA SWAP3 SWAP2 SWAP1 PUSH2 0x559E JUMP JUMPDEST PUSH1 0x40 MLOAD DUP1 SWAP2 SUB SWAP1 LOG2 PUSH2 0x2702 JUMP JUMPDEST DUP3 PUSH32 0xD2AA34A4FDBBC6DFF6A3E56F46E0F3AE2A31D7785FF3487AA5C95C642ACEA501 PUSH0 DUP1 PUSH1 0x40 MLOAD PUSH2 0x26F9 SWAP3 SWAP2 SWAP1 PUSH2 0x55FE JUMP JUMPDEST PUSH1 0x40 MLOAD DUP1 SWAP2 SUB SWAP1 LOG2 JUMPDEST PUSH0 DUP2 PUSH0 ADD PUSH0 PUSH2 0x100 EXP DUP2 SLOAD DUP2 PUSH1 0xFF MUL NOT AND SWAP1 DUP4 ISZERO ISZERO MUL OR SWAP1 SSTORE POP PUSH2 0x2725 DUP4 PUSH2 0x30BD JUMP JUMPDEST POP PUSH2 0x272E PUSH2 0x2EAF JUMP JUMPDEST POP POP JUMP JUMPDEST PUSH2 0x273A PUSH2 0x3999 JUMP JUMPDEST PUSH1 0x35 PUSH0 DUP4 DUP2 MSTORE PUSH1 0x20 ADD SWAP1 DUP2 MSTORE PUSH1 0x20 ADD PUSH0 KECCAK256 PUSH1 0x40 MLOAD DUP1 PUSH2 0x180 ADD PUSH1 0x40 MSTORE SWAP1 DUP2 PUSH0 DUP3 ADD PUSH0 SWAP1 SLOAD SWAP1 PUSH2 0x100 EXP SWAP1 DIV PUSH1 0xFF AND ISZERO ISZERO ISZERO ISZERO DUP2 MSTORE PUSH1 0x20 ADD PUSH1 0x1 DUP3 ADD SLOAD DUP2 MSTORE PUSH1 0x20 ADD PUSH1 0x2 DUP3 ADD PUSH0 SWAP1 SLOAD SWAP1 PUSH2 0x100 EXP SWAP1 DIV PUSH20 0xFFFFFFFFFFFFFFFFFFFFFFFFFFFFFFFFFFFFFFFF AND PUSH20 0xFFFFFFFFFFFFFFFFFFFFFFFFFFFFFFFFFFFFFFFF AND PUSH20 0xFFFFFFFFFFFFFFFFFFFFFFFFFFFFFFFFFFFFFFFF AND DUP2 MSTORE PUSH1 0x20 ADD PUSH1 0x3 DUP3 ADD DUP1 SLOAD DUP1 PUSH1 0x20 MUL PUSH1 0x20 ADD PUSH1 0x40 MLOAD SWAP1 DUP2 ADD PUSH1 0x40 MSTORE DUP1 SWAP3 SWAP2 SWAP1 DUP2 DUP2 MSTORE PUSH1 0x20 ADD DUP3 DUP1 SLOAD DUP1 ISZERO PUSH2 0x281C JUMPI PUSH1 0x20 MUL DUP3 ADD SWAP2 SWAP1 PUSH0 MSTORE PUSH1 0x20 PUSH0 KECCAK256 SWAP1 JUMPDEST DUP2 SLOAD DUP2 MSTORE PUSH1 0x20 ADD SWAP1 PUSH1 0x1 ADD SWAP1 DUP1 DUP4 GT PUSH2 0x2808 JUMPI JUMPDEST POP POP POP POP POP DUP2 MSTORE PUSH1 0x20 ADD PUSH1 0x4 DUP3 ADD DUP1 SLOAD DUP1 PUSH1 0x20 MUL PUSH1 0x20 ADD PUSH1 0x40 MLOAD SWAP1 DUP2 ADD PUSH1 0x40 MSTORE DUP1 SWAP3 SWAP2 SWAP1 DUP2 DUP2 MSTORE PUSH1 0x20 ADD PUSH0 SWAP1 JUMPDEST DUP3 DUP3 LT ISZERO PUSH2 0x28F1 JUMPI DUP4 DUP3 SWAP1 PUSH0 MSTORE PUSH1 0x20 PUSH0 KECCAK256 ADD DUP1 SLOAD PUSH2 0x2866 SWAP1 PUSH2 0x471D JUMP JUMPDEST DUP1 PUSH1 0x1F ADD PUSH1 0x20 DUP1 SWAP2 DIV MUL PUSH1 0x20 ADD PUSH1 0x40 MLOAD SWAP1 DUP2 ADD PUSH1 0x40 MSTORE DUP1 SWAP3 SWAP2 SWAP1 DUP2 DUP2 MSTORE PUSH1 0x20 ADD DUP3 DUP1 SLOAD PUSH2 0x2892 SWAP1 PUSH2 0x471D JUMP JUMPDEST DUP1 ISZERO PUSH2 0x28DD JUMPI DUP1 PUSH1 0x1F LT PUSH2 0x28B4 JUMPI PUSH2 0x100 DUP1 DUP4 SLOAD DIV MUL DUP4 MSTORE SWAP2 PUSH1 0x20 ADD SWAP2 PUSH2 0x28DD JUMP JUMPDEST DUP3 ADD SWAP2 SWAP1 PUSH0 MSTORE PUSH1 0x20 PUSH0 KECCAK256 SWAP1 JUMPDEST DUP2 SLOAD DUP2 MSTORE SWAP1 PUSH1 0x1 ADD SWAP1 PUSH1 0x20 ADD DUP1 DUP4 GT PUSH2 0x28C0 JUMPI DUP3 SWAP1 SUB PUSH1 0x1F AND DUP3 ADD SWAP2 JUMPDEST POP POP POP POP POP DUP2 MSTORE PUSH1 0x20 ADD SWAP1 PUSH1 0x1 ADD SWAP1 PUSH2 0x2849 JUMP JUMPDEST POP POP POP POP DUP2 MSTORE PUSH1 0x20 ADD PUSH1 0x5 DUP3 ADD PUSH0 SWAP1 SLOAD SWAP1 PUSH2 0x100 EXP SWAP1 DIV PUSH20 0xFFFFFFFFFFFFFFFFFFFFFFFFFFFFFFFFFFFFFFFF AND PUSH20 0xFFFFFFFFFFFFFFFFFFFFFFFFFFFFFFFFFFFFFFFF AND PUSH20 0xFFFFFFFFFFFFFFFFFFFFFFFFFFFFFFFFFFFFFFFF AND DUP2 MSTORE PUSH1 0x20 ADD PUSH1 0x6 DUP3 ADD PUSH0 SWAP1 SLOAD SWAP1 PUSH2 0x100 EXP SWAP1 DIV PUSH20 0xFFFFFFFFFFFFFFFFFFFFFFFFFFFFFFFFFFFFFFFF AND PUSH20 0xFFFFFFFFFFFFFFFFFFFFFFFFFFFFFFFFFFFFFFFF AND PUSH20 0xFFFFFFFFFFFFFFFFFFFFFFFFFFFFFFFFFFFFFFFF AND DUP2 MSTORE PUSH1 0x20 ADD PUSH1 0x7 DUP3 ADD SLOAD DUP2 MSTORE PUSH1 0x20 ADD PUSH1 0x8 DUP3 ADD DUP1 SLOAD PUSH2 0x29BD SWAP1 PUSH2 0x471D JUMP JUMPDEST DUP1 PUSH1 0x1F ADD PUSH1 0x20 DUP1 SWAP2 DIV MUL PUSH1 0x20 ADD PUSH1 0x40 MLOAD SWAP1 DUP2 ADD PUSH1 0x40 MSTORE DUP1 SWAP3 SWAP2 SWAP1 DUP2 DUP2 MSTORE PUSH1 0x20 ADD DUP3 DUP1 SLOAD PUSH2 0x29E9 SWAP1 PUSH2 0x471D JUMP JUMPDEST DUP1 ISZERO PUSH2 0x2A34 JUMPI DUP1 PUSH1 0x1F LT PUSH2 0x2A0B JUMPI PUSH2 0x100 DUP1 DUP4 SLOAD DIV MUL DUP4 MSTORE SWAP2 PUSH1 0x20 ADD SWAP2 PUSH2 0x2A34 JUMP JUMPDEST DUP3 ADD SWAP2 SWAP1 PUSH0 MSTORE PUSH1 0x20 PUSH0 KECCAK256 SWAP1 JUMPDEST DUP2 SLOAD DUP2 MSTORE SWAP1 PUSH1 0x1 ADD SWAP1 PUSH1 0x20 ADD DUP1 DUP4 GT PUSH2 0x2A17 JUMPI DUP3 SWAP1 SUB PUSH1 0x1F AND DUP3 ADD SWAP2 JUMPDEST POP POP POP POP POP DUP2 MSTORE PUSH1 0x20 ADD PUSH1 0x9 DUP3 ADD PUSH0 SWAP1 SLOAD SWAP1 PUSH2 0x100 EXP SWAP1 DIV PUSH1 0xFF AND ISZERO ISZERO ISZERO ISZERO DUP2 MSTORE PUSH1 0x20 ADD PUSH1 0xA DUP3 ADD SLOAD DUP2 MSTORE PUSH1 0x20 ADD PUSH1 0xB DUP3 ADD SLOAD DUP2 MSTORE POP POP SWAP1 POP SWAP2 SWAP1 POP JUMP JUMPDEST PUSH2 0x2A7A PUSH2 0x2EB8 JUMP JUMPDEST PUSH0 PUSH20 0xFFFFFFFFFFFFFFFFFFFFFFFFFFFFFFFFFFFFFFFF AND DUP4 PUSH20 0xFFFFFFFFFFFFFFFFFFFFFFFFFFFFFFFFFFFFFFFF AND SUB PUSH2 0x2AE8 JUMPI PUSH1 0x40 MLOAD PUSH32 0x8C379A000000000000000000000000000000000000000000000000000000000 DUP2 MSTORE PUSH1 0x4 ADD PUSH2 0x2ADF SWAP1 PUSH2 0x566F JUMP JUMPDEST PUSH1 0x40 MLOAD DUP1 SWAP2 SUB SWAP1 REVERT JUMPDEST PUSH0 DUP3 DUP3 PUSH1 0x40 MLOAD PUSH1 0x24 ADD PUSH2 0x2AFB SWAP2 SWAP1 PUSH2 0x56C5 JUMP JUMPDEST PUSH1 0x40 MLOAD PUSH1 0x20 DUP2 DUP4 SUB SUB DUP2 MSTORE SWAP1 PUSH1 0x40 MSTORE SWAP1 PUSH1 0x40 MLOAD PUSH2 0x2B18 SWAP2 SWAP1 PUSH2 0x571F JUMP JUMPDEST PUSH1 0x40 MLOAD DUP1 SWAP2 SUB SWAP1 KECCAK256 PUSH28 0xFFFFFFFFFFFFFFFFFFFFFFFFFFFFFFFFFFFFFFFFFFFFFFFFFFFFFFFF NOT AND PUSH1 0x20 DUP3 ADD DUP1 MLOAD PUSH28 0xFFFFFFFFFFFFFFFFFFFFFFFFFFFFFFFFFFFFFFFFFFFFFFFFFFFFFFFF DUP4 DUP2 DUP4 AND OR DUP4 MSTORE POP POP POP POP SWAP1 POP PUSH0 DUP5 PUSH20 0xFFFFFFFFFFFFFFFFFFFFFFFFFFFFFFFFFFFFFFFF AND DUP3 PUSH1 0x40 MLOAD PUSH2 0x2B95 SWAP2 SWAP1 PUSH2 0x5779 JUMP JUMPDEST PUSH0 PUSH1 0x40 MLOAD DUP1 DUP4 SUB DUP2 PUSH0 DUP7 GAS CALL SWAP2 POP POP RETURNDATASIZE DUP1 PUSH0 DUP2 EQ PUSH2 0x2BCE JUMPI PUSH1 0x40 MLOAD SWAP2 POP PUSH1 0x1F NOT PUSH1 0x3F RETURNDATASIZE ADD AND DUP3 ADD PUSH1 0x40 MSTORE RETURNDATASIZE DUP3 MSTORE RETURNDATASIZE PUSH0 PUSH1 0x20 DUP5 ADD RETURNDATACOPY PUSH2 0x2BD3 JUMP JUMPDEST PUSH1 0x60 SWAP2 POP JUMPDEST POP POP SWAP1 POP DUP1 PUSH2 0x2C17 JUMPI PUSH1 0x40 MLOAD PUSH32 0x8C379A000000000000000000000000000000000000000000000000000000000 DUP2 MSTORE PUSH1 0x4 ADD PUSH2 0x2C0E SWAP1 PUSH2 0x57D9 JUMP JUMPDEST PUSH1 0x40 MLOAD DUP1 SWAP2 SUB SWAP1 REVERT JUMPDEST POP POP POP POP POP JUMP JUMPDEST PUSH2 0x2C26 PUSH2 0x2EB8 JUMP JUMPDEST PUSH0 PUSH20 0xFFFFFFFFFFFFFFFFFFFFFFFFFFFFFFFFFFFFFFFF AND DUP2 PUSH20 0xFFFFFFFFFFFFFFFFFFFFFFFFFFFFFFFFFFFFFFFF AND SUB PUSH2 0x2C96 JUMPI PUSH0 PUSH1 0x40 MLOAD PUSH32 0x1E4FBDF700000000000000000000000000000000000000000000000000000000 DUP2 MSTORE PUSH1 0x4 ADD PUSH2 0x2C8D SWAP2 SWAP1 PUSH2 0x422E JUMP JUMPDEST PUSH1 0x40 MLOAD DUP1 SWAP2 SUB SWAP1 REVERT JUMPDEST PUSH2 0x2C9F DUP2 PUSH2 0x2F3F JUMP JUMPDEST POP JUMP JUMPDEST PUSH0 PUSH2 0x2CAB PUSH2 0x3852 JUMP JUMPDEST SWAP1 POP PUSH0 DUP2 PUSH0 ADD PUSH1 0x8 SWAP1 SLOAD SWAP1 PUSH2 0x100 EXP SWAP1 DIV PUSH1 0xFF AND ISZERO SWAP1 POP PUSH0 DUP3 PUSH0 ADD PUSH0 SWAP1 SLOAD SWAP1 PUSH2 0x100 EXP SWAP1 DIV PUSH8 0xFFFFFFFFFFFFFFFF AND SWAP1 POP PUSH0 DUP1 DUP3 PUSH8 0xFFFFFFFFFFFFFFFF AND EQ DUP1 ISZERO PUSH2 0x2CF3 JUMPI POP DUP3 JUMPDEST SWAP1 POP PUSH0 PUSH1 0x1 DUP4 PUSH8 0xFFFFFFFFFFFFFFFF AND EQ DUP1 ISZERO PUSH2 0x2D26 JUMPI POP PUSH0 ADDRESS PUSH20 0xFFFFFFFFFFFFFFFFFFFFFFFFFFFFFFFFFFFFFFFF AND EXTCODESIZE EQ JUMPDEST SWAP1 POP DUP2 ISZERO DUP1 ISZERO PUSH2 0x2D34 JUMPI POP DUP1 ISZERO JUMPDEST ISZERO PUSH2 0x2D6B JUMPI PUSH1 0x40 MLOAD PUSH32 0xF92EE8A900000000000000000000000000000000000000000000000000000000 DUP2 MSTORE PUSH1 0x4 ADD PUSH1 0x40 MLOAD DUP1 SWAP2 SUB SWAP1 REVERT JUMPDEST PUSH1 0x1 DUP6 PUSH0 ADD PUSH0 PUSH2 0x100 EXP DUP2 SLOAD DUP2 PUSH8 0xFFFFFFFFFFFFFFFF MUL NOT AND SWAP1 DUP4 PUSH8 0xFFFFFFFFFFFFFFFF AND MUL OR SWAP1 SSTORE POP DUP4 ISZERO PUSH2 0x2DB8 JUMPI PUSH1 0x1 DUP6 PUSH0 ADD PUSH1 0x8 PUSH2 0x100 EXP DUP2 SLOAD DUP2 PUSH1 0xFF MUL NOT AND SWAP1 DUP4 ISZERO ISZERO MUL OR SWAP1 SSTORE POP JUMPDEST PUSH2 0x2DC1 CALLER PUSH2 0x3879 JUMP JUMPDEST PUSH2 0x2DC9 PUSH2 0x388D JUMP JUMPDEST PUSH1 0x32 PUSH0 SWAP1 DUP1 PUSH1 0x1 DUP2 SLOAD ADD DUP1 DUP3 SSTORE DUP1 SWAP2 POP POP PUSH1 0x1 SWAP1 SUB SWAP1 PUSH0 MSTORE PUSH1 0x20 PUSH0 KECCAK256 ADD PUSH0 SWAP1 SWAP2 SWAP1 SWAP2 SWAP1 SWAP2 POP SSTORE PUSH3 0x186A0 PUSH1 0x33 DUP2 SWAP1 SSTORE POP DUP6 PUSH1 0x34 DUP2 SWAP1 SSTORE POP DUP4 ISZERO PUSH2 0x2E5A JUMPI PUSH0 DUP6 PUSH0 ADD PUSH1 0x8 PUSH2 0x100 EXP DUP2 SLOAD DUP2 PUSH1 0xFF MUL NOT AND SWAP1 DUP4 ISZERO ISZERO MUL OR SWAP1 SSTORE POP PUSH32 0xC7F505B2F371AE2175EE4913F4499E1F2633A7B5936321EED1CDAEB6115181D2 PUSH1 0x1 PUSH1 0x40 MLOAD PUSH2 0x2E51 SWAP2 SWAP1 PUSH2 0x5843 JUMP JUMPDEST PUSH1 0x40 MLOAD DUP1 SWAP2 SUB SWAP1 LOG1 JUMPDEST POP POP POP POP POP POP JUMP JUMPDEST PUSH1 0x2 PUSH0 SLOAD SUB PUSH2 0x2EA6 JUMPI PUSH1 0x40 MLOAD PUSH32 0x8C379A000000000000000000000000000000000000000000000000000000000 DUP2 MSTORE PUSH1 0x4 ADD PUSH2 0x2E9D SWAP1 PUSH2 0x58A6 JUMP JUMPDEST PUSH1 0x40 MLOAD DUP1 SWAP2 SUB SWAP1 REVERT JUMPDEST PUSH1 0x2 PUSH0 DUP2 SWAP1 SSTORE POP JUMP JUMPDEST PUSH1 0x1 PUSH0 DUP2 SWAP1 SSTORE POP JUMP JUMPDEST PUSH2 0x2EC0 PUSH2 0x389F JUMP JUMPDEST PUSH20 0xFFFFFFFFFFFFFFFFFFFFFFFFFFFFFFFFFFFFFFFF AND PUSH2 0x2EDE PUSH2 0x1C77 JUMP JUMPDEST PUSH20 0xFFFFFFFFFFFFFFFFFFFFFFFFFFFFFFFFFFFFFFFF AND EQ PUSH2 0x2F3D JUMPI PUSH2 0x2F01 PUSH2 0x389F JUMP JUMPDEST PUSH1 0x40 MLOAD PUSH32 0x118CDAA700000000000000000000000000000000000000000000000000000000 DUP2 MSTORE PUSH1 0x4 ADD PUSH2 0x2F34 SWAP2 SWAP1 PUSH2 0x422E JUMP JUMPDEST PUSH1 0x40 MLOAD DUP1 SWAP2 SUB SWAP1 REVERT JUMPDEST JUMP JUMPDEST PUSH0 PUSH2 0x2F48 PUSH2 0x343F JUMP JUMPDEST SWAP1 POP PUSH0 DUP2 PUSH0 ADD PUSH0 SWAP1 SLOAD SWAP1 PUSH2 0x100 EXP SWAP1 DIV PUSH20 0xFFFFFFFFFFFFFFFFFFFFFFFFFFFFFFFFFFFFFFFF AND SWAP1 POP DUP3 DUP3 PUSH0 ADD PUSH0 PUSH2 0x100 EXP DUP2 SLOAD DUP2 PUSH20 0xFFFFFFFFFFFFFFFFFFFFFFFFFFFFFFFFFFFFFFFF MUL NOT AND SWAP1 DUP4 PUSH20 0xFFFFFFFFFFFFFFFFFFFFFFFFFFFFFFFFFFFFFFFF AND MUL OR SWAP1 SSTORE POP DUP3 PUSH20 0xFFFFFFFFFFFFFFFFFFFFFFFFFFFFFFFFFFFFFFFF AND DUP2 PUSH20 0xFFFFFFFFFFFFFFFFFFFFFFFFFFFFFFFFFFFFFFFF AND PUSH32 0x8BE0079C531659141344CD1FD0A4F28419497F9722A3DAAFE3B4186F6B6457E0 PUSH1 0x40 MLOAD PUSH1 0x40 MLOAD DUP1 SWAP2 SUB SWAP1 LOG3 POP POP POP JUMP JUMPDEST PUSH0 DUP2 MLOAD DUP4 MLOAD EQ PUSH2 0x3022 JUMPI PUSH0 SWAP1 POP PUSH2 0x30B7 JUMP JUMPDEST PUSH0 DUP1 JUMPDEST DUP5 MLOAD DUP2 LT ISZERO PUSH2 0x30B0 JUMPI PUSH0 SWAP2 POP PUSH0 JUMPDEST DUP5 MLOAD DUP2 LT ISZERO PUSH2 0x308D JUMPI DUP5 DUP2 DUP2 MLOAD DUP2 LT PUSH2 0x304F JUMPI PUSH2 0x304E PUSH2 0x45EB JUMP JUMPDEST JUMPDEST PUSH1 0x20 MUL PUSH1 0x20 ADD ADD MLOAD DUP7 DUP4 DUP2 MLOAD DUP2 LT PUSH2 0x306A JUMPI PUSH2 0x3069 PUSH2 0x45EB JUMP JUMPDEST JUMPDEST PUSH1 0x20 MUL PUSH1 0x20 ADD ADD MLOAD SUB PUSH2 0x3080 JUMPI PUSH1 0x1 SWAP3 POP PUSH2 0x308D JUMP JUMPDEST DUP1 DUP1 PUSH1 0x1 ADD SWAP2 POP POP PUSH2 0x3033 JUMP JUMPDEST POP PUSH0 ISZERO ISZERO DUP3 ISZERO ISZERO SUB PUSH2 0x30A3 JUMPI PUSH0 SWAP3 POP POP POP PUSH2 0x30B7 JUMP JUMPDEST DUP1 DUP1 PUSH1 0x1 ADD SWAP2 POP POP PUSH2 0x3025 JUMP JUMPDEST POP PUSH1 0x1 SWAP2 POP POP JUMPDEST SWAP3 SWAP2 POP POP JUMP JUMPDEST PUSH0 PUSH1 0x32 DUP1 SLOAD SWAP1 POP SWAP1 POP PUSH0 PUSH1 0x1 SWAP1 POP JUMPDEST DUP2 DUP2 LT ISZERO PUSH2 0x3177 JUMPI DUP3 PUSH1 0x32 DUP3 DUP2 SLOAD DUP2 LT PUSH2 0x30E9 JUMPI PUSH2 0x30E8 PUSH2 0x45EB JUMP JUMPDEST JUMPDEST SWAP1 PUSH0 MSTORE PUSH1 0x20 PUSH0 KECCAK256 ADD SLOAD SUB PUSH2 0x316A JUMPI PUSH1 0x32 PUSH1 0x1 DUP4 PUSH2 0x3106 SWAP2 SWAP1 PUSH2 0x4BBE JUMP JUMPDEST DUP2 SLOAD DUP2 LT PUSH2 0x3117 JUMPI PUSH2 0x3116 PUSH2 0x45EB JUMP JUMPDEST JUMPDEST SWAP1 PUSH0 MSTORE PUSH1 0x20 PUSH0 KECCAK256 ADD SLOAD PUSH1 0x32 DUP3 DUP2 SLOAD DUP2 LT PUSH2 0x3134 JUMPI PUSH2 0x3133 PUSH2 0x45EB JUMP JUMPDEST JUMPDEST SWAP1 PUSH0 MSTORE PUSH1 0x20 PUSH0 KECCAK256 ADD DUP2 SWAP1 SSTORE POP PUSH1 0x32 DUP1 SLOAD DUP1 PUSH2 0x3152 JUMPI PUSH2 0x3151 PUSH2 0x58C4 JUMP JUMPDEST JUMPDEST PUSH1 0x1 SWAP1 SUB DUP2 DUP2 SWAP1 PUSH0 MSTORE PUSH1 0x20 PUSH0 KECCAK256 ADD PUSH0 SWAP1 SSTORE SWAP1 SSTORE PUSH2 0x3177 JUMP JUMPDEST DUP1 DUP1 PUSH1 0x1 ADD SWAP2 POP POP PUSH2 0x30CC JUMP JUMPDEST POP POP POP JUMP JUMPDEST DUP4 PUSH20 0xFFFFFFFFFFFFFFFFFFFFFFFFFFFFFFFFFFFFFFFF AND PUSH4 0x1FFC9A7 PUSH32 0x80AC58CD00000000000000000000000000000000000000000000000000000000 PUSH1 0x40 MLOAD DUP3 PUSH4 0xFFFFFFFF AND PUSH1 0xE0 SHL DUP2 MSTORE PUSH1 0x4 ADD PUSH2 0x31D5 SWAP2 SWAP1 PUSH2 0x592B JUMP JUMPDEST PUSH1 0x20 PUSH1 0x40 MLOAD DUP1 DUP4 SUB DUP2 DUP7 GAS STATICCALL ISZERO DUP1 ISZERO PUSH2 0x31F0 JUMPI RETURNDATASIZE PUSH0 DUP1 RETURNDATACOPY RETURNDATASIZE PUSH0 REVERT JUMPDEST POP POP POP POP PUSH1 0x40 MLOAD RETURNDATASIZE PUSH1 0x1F NOT PUSH1 0x1F DUP3 ADD AND DUP3 ADD DUP1 PUSH1 0x40 MSTORE POP DUP2 ADD SWAP1 PUSH2 0x3214 SWAP2 SWAP1 PUSH2 0x5958 JUMP JUMPDEST ISZERO PUSH2 0x32BB JUMPI PUSH0 JUMPDEST DUP4 MLOAD DUP2 LT ISZERO PUSH2 0x32B5 JUMPI DUP5 PUSH20 0xFFFFFFFFFFFFFFFFFFFFFFFFFFFFFFFFFFFFFFFF AND PUSH4 0x42842E0E DUP5 DUP5 DUP8 DUP6 DUP2 MLOAD DUP2 LT PUSH2 0x3255 JUMPI PUSH2 0x3254 PUSH2 0x45EB JUMP JUMPDEST JUMPDEST PUSH1 0x20 MUL PUSH1 0x20 ADD ADD MLOAD PUSH1 0x40 MLOAD DUP5 PUSH4 0xFFFFFFFF AND PUSH1 0xE0 SHL DUP2 MSTORE PUSH1 0x4 ADD PUSH2 0x327B SWAP4 SWAP3 SWAP2 SWAP1 PUSH2 0x5983 JUMP JUMPDEST PUSH0 PUSH1 0x40 MLOAD DUP1 DUP4 SUB DUP2 PUSH0 DUP8 DUP1 EXTCODESIZE ISZERO DUP1 ISZERO PUSH2 0x3292 JUMPI PUSH0 DUP1 REVERT JUMPDEST POP GAS CALL ISZERO DUP1 ISZERO PUSH2 0x32A4 JUMPI RETURNDATASIZE PUSH0 DUP1 RETURNDATACOPY RETURNDATASIZE PUSH0 REVERT JUMPDEST POP POP POP POP DUP1 DUP1 PUSH1 0x1 ADD SWAP2 POP POP PUSH2 0x321B JUMP JUMPDEST POP PUSH2 0x3439 JUMP JUMPDEST DUP4 PUSH20 0xFFFFFFFFFFFFFFFFFFFFFFFFFFFFFFFFFFFFFFFF AND PUSH4 0x1FFC9A7 PUSH32 0xD9B67A2600000000000000000000000000000000000000000000000000000000 PUSH1 0x40 MLOAD DUP3 PUSH4 0xFFFFFFFF AND PUSH1 0xE0 SHL DUP2 MSTORE PUSH1 0x4 ADD PUSH2 0x3314 SWAP2 SWAP1 PUSH2 0x592B JUMP JUMPDEST PUSH1 0x20 PUSH1 0x40 MLOAD DUP1 DUP4 SUB DUP2 DUP7 GAS STATICCALL ISZERO DUP1 ISZERO PUSH2 0x332F JUMPI RETURNDATASIZE PUSH0 DUP1 RETURNDATACOPY RETURNDATASIZE PUSH0 REVERT JUMPDEST POP POP POP POP PUSH1 0x40 MLOAD RETURNDATASIZE PUSH1 0x1F NOT PUSH1 0x1F DUP3 ADD AND DUP3 ADD DUP1 PUSH1 0x40 MSTORE POP DUP2 ADD SWAP1 PUSH2 0x3353 SWAP2 SWAP1 PUSH2 0x5958 JUMP JUMPDEST ISZERO PUSH2 0x33FD JUMPI PUSH0 JUMPDEST DUP4 MLOAD DUP2 LT ISZERO PUSH2 0x33F7 JUMPI DUP5 PUSH20 0xFFFFFFFFFFFFFFFFFFFFFFFFFFFFFFFFFFFFFFFF AND PUSH4 0xF242432A DUP5 DUP5 DUP8 DUP6 DUP2 MLOAD DUP2 LT PUSH2 0x3394 JUMPI PUSH2 0x3393 PUSH2 0x45EB JUMP JUMPDEST JUMPDEST PUSH1 0x20 MUL PUSH1 0x20 ADD ADD MLOAD PUSH1 0x1 PUSH1 0x40 MLOAD DUP6 PUSH4 0xFFFFFFFF AND PUSH1 0xE0 SHL DUP2 MSTORE PUSH1 0x4 ADD PUSH2 0x33BD SWAP5 SWAP4 SWAP3 SWAP2 SWAP1 PUSH2 0x5A1B JUMP JUMPDEST PUSH0 PUSH1 0x40 MLOAD DUP1 DUP4 SUB DUP2 PUSH0 DUP8 DUP1 EXTCODESIZE ISZERO DUP1 ISZERO PUSH2 0x33D4 JUMPI PUSH0 DUP1 REVERT JUMPDEST POP GAS CALL ISZERO DUP1 ISZERO PUSH2 0x33E6 JUMPI RETURNDATASIZE PUSH0 DUP1 RETURNDATACOPY RETURNDATASIZE PUSH0 REVERT JUMPDEST POP POP POP POP DUP1 DUP1 PUSH1 0x1 ADD SWAP2 POP POP PUSH2 0x335A JUMP JUMPDEST POP PUSH2 0x3438 JUMP JUMPDEST PUSH1 0x40 MLOAD PUSH32 0x8C379A000000000000000000000000000000000000000000000000000000000 DUP2 MSTORE PUSH1 0x4 ADD PUSH2 0x342F SWAP1 PUSH2 0x5ABB JUMP JUMPDEST PUSH1 0x40 MLOAD DUP1 SWAP2 SUB SWAP1 REVERT JUMPDEST JUMPDEST POP POP POP POP JUMP JUMPDEST PUSH0 PUSH32 0x9016D09D72D40FDAE2FD8CEAC6B6234C7706214FD39C1CD1E609A0528C199300 SWAP1 POP SWAP1 JUMP JUMPDEST PUSH0 DUP1 PUSH0 SWAP1 POP JUMPDEST DUP4 MLOAD DUP2 LT ISZERO PUSH2 0x3732 JUMPI DUP5 PUSH20 0xFFFFFFFFFFFFFFFFFFFFFFFFFFFFFFFFFFFFFFFF AND PUSH4 0x1FFC9A7 PUSH32 0x80AC58CD00000000000000000000000000000000000000000000000000000000 PUSH1 0x40 MLOAD DUP3 PUSH4 0xFFFFFFFF AND PUSH1 0xE0 SHL DUP2 MSTORE PUSH1 0x4 ADD PUSH2 0x34CE SWAP2 SWAP1 PUSH2 0x592B JUMP JUMPDEST PUSH1 0x20 PUSH1 0x40 MLOAD DUP1 DUP4 SUB DUP2 DUP7 GAS STATICCALL ISZERO DUP1 ISZERO PUSH2 0x34E9 JUMPI RETURNDATASIZE PUSH0 DUP1 RETURNDATACOPY RETURNDATASIZE PUSH0 REVERT JUMPDEST POP POP POP POP PUSH1 0x40 MLOAD RETURNDATASIZE PUSH1 0x1F NOT PUSH1 0x1F DUP3 ADD AND DUP3 ADD DUP1 PUSH1 0x40 MSTORE POP DUP2 ADD SWAP1 PUSH2 0x350D SWAP2 SWAP1 PUSH2 0x5958 JUMP JUMPDEST ISZERO PUSH2 0x35E4 JUMPI DUP3 PUSH20 0xFFFFFFFFFFFFFFFFFFFFFFFFFFFFFFFFFFFFFFFF AND DUP6 PUSH20 0xFFFFFFFFFFFFFFFFFFFFFFFFFFFFFFFFFFFFFFFF AND PUSH4 0x6352211E DUP7 DUP5 DUP2 MLOAD DUP2 LT PUSH2 0x3558 JUMPI PUSH2 0x3557 PUSH2 0x45EB JUMP JUMPDEST JUMPDEST PUSH1 0x20 MUL PUSH1 0x20 ADD ADD MLOAD PUSH1 0x40 MLOAD DUP3 PUSH4 0xFFFFFFFF AND PUSH1 0xE0 SHL DUP2 MSTORE PUSH1 0x4 ADD PUSH2 0x357C SWAP2 SWAP1 PUSH2 0x4206 JUMP JUMPDEST PUSH1 0x20 PUSH1 0x40 MLOAD DUP1 DUP4 SUB DUP2 DUP7 GAS STATICCALL ISZERO DUP1 ISZERO PUSH2 0x3597 JUMPI RETURNDATASIZE PUSH0 DUP1 RETURNDATACOPY RETURNDATASIZE PUSH0 REVERT JUMPDEST POP POP POP POP PUSH1 0x40 MLOAD RETURNDATASIZE PUSH1 0x1F NOT PUSH1 0x1F DUP3 ADD AND DUP3 ADD DUP1 PUSH1 0x40 MSTORE POP DUP2 ADD SWAP1 PUSH2 0x35BB SWAP2 SWAP1 PUSH2 0x5AED JUMP JUMPDEST PUSH20 0xFFFFFFFFFFFFFFFFFFFFFFFFFFFFFFFFFFFFFFFF AND EQ PUSH2 0x35DF JUMPI PUSH0 SWAP2 POP POP PUSH2 0x3738 JUMP JUMPDEST PUSH2 0x3725 JUMP JUMPDEST DUP5 PUSH20 0xFFFFFFFFFFFFFFFFFFFFFFFFFFFFFFFFFFFFFFFF AND PUSH4 0x1FFC9A7 PUSH32 0xD9B67A2600000000000000000000000000000000000000000000000000000000 PUSH1 0x40 MLOAD DUP3 PUSH4 0xFFFFFFFF AND PUSH1 0xE0 SHL DUP2 MSTORE PUSH1 0x4 ADD PUSH2 0x363D SWAP2 SWAP1 PUSH2 0x592B JUMP JUMPDEST PUSH1 0x20 PUSH1 0x40 MLOAD DUP1 DUP4 SUB DUP2 DUP7 GAS STATICCALL ISZERO DUP1 ISZERO PUSH2 0x3658 JUMPI RETURNDATASIZE PUSH0 DUP1 RETURNDATACOPY RETURNDATASIZE PUSH0 REVERT JUMPDEST POP POP POP POP PUSH1 0x40 MLOAD RETURNDATASIZE PUSH1 0x1F NOT PUSH1 0x1F DUP3 ADD AND DUP3 ADD DUP1 PUSH1 0x40 MSTORE POP DUP2 ADD SWAP1 PUSH2 0x367C SWAP2 SWAP1 PUSH2 0x5958 JUMP JUMPDEST ISZERO PUSH2 0x3724 JUMPI PUSH0 DUP6 PUSH20 0xFFFFFFFFFFFFFFFFFFFFFFFFFFFFFFFFFFFFFFFF AND PUSH3 0xFDD58E DUP6 DUP8 DUP6 DUP2 MLOAD DUP2 LT PUSH2 0x36B1 JUMPI PUSH2 0x36B0 PUSH2 0x45EB JUMP JUMPDEST JUMPDEST PUSH1 0x20 MUL PUSH1 0x20 ADD ADD MLOAD PUSH1 0x40 MLOAD DUP4 PUSH4 0xFFFFFFFF AND PUSH1 0xE0 SHL DUP2 MSTORE PUSH1 0x4 ADD PUSH2 0x36D6 SWAP3 SWAP2 SWAP1 PUSH2 0x4E55 JUMP JUMPDEST PUSH1 0x20 PUSH1 0x40 MLOAD DUP1 DUP4 SUB DUP2 DUP7 GAS STATICCALL ISZERO DUP1 ISZERO PUSH2 0x36F1 JUMPI RETURNDATASIZE PUSH0 DUP1 RETURNDATACOPY RETURNDATASIZE PUSH0 REVERT JUMPDEST POP POP POP POP PUSH1 0x40 MLOAD RETURNDATASIZE PUSH1 0x1F NOT PUSH1 0x1F DUP3 ADD AND DUP3 ADD DUP1 PUSH1 0x40 MSTORE POP DUP2 ADD SWAP1 PUSH2 0x3715 SWAP2 SWAP1 PUSH2 0x5B2C JUMP JUMPDEST SUB PUSH2 0x3723 JUMPI PUSH0 SWAP2 POP POP PUSH2 0x3738 JUMP JUMPDEST JUMPDEST JUMPDEST DUP1 DUP1 PUSH1 0x1 ADD SWAP2 POP POP PUSH2 0x346C JUMP JUMPDEST POP PUSH1 0x1 SWAP1 POP JUMPDEST SWAP4 SWAP3 POP POP POP JUMP JUMPDEST PUSH0 DUP1 PUSH1 0x1 PUSH1 0x33 SLOAD PUSH2 0x3750 SWAP2 SWAP1 PUSH2 0x4645 JUMP JUMPDEST PUSH8 0xFFFFFFFFFFFFFFFF DUP2 GT ISZERO PUSH2 0x3769 JUMPI PUSH2 0x3768 PUSH2 0x4061 JUMP JUMPDEST JUMPDEST PUSH1 0x40 MLOAD SWAP1 DUP1 DUP3 MSTORE DUP1 PUSH1 0x20 MUL PUSH1 0x20 ADD DUP3 ADD PUSH1 0x40 MSTORE DUP1 ISZERO PUSH2 0x3797 JUMPI DUP2 PUSH1 0x20 ADD PUSH1 0x20 DUP3 MUL DUP1 CALLDATASIZE DUP4 CALLDATACOPY DUP1 DUP3 ADD SWAP2 POP POP SWAP1 POP JUMPDEST POP SWAP1 POP PUSH0 PUSH1 0x1 SWAP1 POP JUMPDEST PUSH1 0x32 DUP1 SLOAD SWAP1 POP DUP2 LT ISZERO PUSH2 0x37FD JUMPI PUSH1 0x1 DUP3 PUSH1 0x32 DUP4 DUP2 SLOAD DUP2 LT PUSH2 0x37C4 JUMPI PUSH2 0x37C3 PUSH2 0x45EB JUMP JUMPDEST JUMPDEST SWAP1 PUSH0 MSTORE PUSH1 0x20 PUSH0 KECCAK256 ADD SLOAD DUP2 MLOAD DUP2 LT PUSH2 0x37DE JUMPI PUSH2 0x37DD PUSH2 0x45EB JUMP JUMPDEST JUMPDEST PUSH1 0x20 MUL PUSH1 0x20 ADD ADD SWAP1 ISZERO ISZERO SWAP1 DUP2 ISZERO ISZERO DUP2 MSTORE POP POP DUP1 DUP1 PUSH1 0x1 ADD SWAP2 POP POP PUSH2 0x37A0 JUMP JUMPDEST POP PUSH0 PUSH1 0x1 SWAP1 POP JUMPDEST PUSH1 0x33 SLOAD DUP2 GT PUSH2 0x3849 JUMPI DUP2 DUP2 DUP2 MLOAD DUP2 LT PUSH2 0x3820 JUMPI PUSH2 0x381F PUSH2 0x45EB JUMP JUMPDEST JUMPDEST PUSH1 0x20 MUL PUSH1 0x20 ADD ADD MLOAD PUSH2 0x3836 JUMPI DUP1 SWAP3 POP POP POP PUSH2 0x384F JUMP JUMPDEST DUP1 DUP1 PUSH2 0x3841 SWAP1 PUSH2 0x474D JUMP JUMPDEST SWAP2 POP POP PUSH2 0x3804 JUMP JUMPDEST POP PUSH0 SWAP2 POP POP JUMPDEST SWAP1 JUMP JUMPDEST PUSH0 PUSH32 0xF0C57E16840DF040F15088DC2F81FE391C3923BEC73E23A9662EFC9C229C6A00 SWAP1 POP SWAP1 JUMP JUMPDEST PUSH2 0x3881 PUSH2 0x38A6 JUMP JUMPDEST PUSH2 0x388A DUP2 PUSH2 0x38E6 JUMP JUMPDEST POP JUMP JUMPDEST PUSH2 0x3895 PUSH2 0x38A6 JUMP JUMPDEST PUSH2 0x389D PUSH2 0x396A JUMP JUMPDEST JUMP JUMPDEST PUSH0 CALLER SWAP1 POP SWAP1 JUMP JUMPDEST PUSH2 0x38AE PUSH2 0x397B JUMP JUMPDEST PUSH2 0x38E4 JUMPI PUSH1 0x40 MLOAD PUSH32 0xD7E6BCF800000000000000000000000000000000000000000000000000000000 DUP2 MSTORE PUSH1 0x4 ADD PUSH1 0x40 MLOAD DUP1 SWAP2 SUB SWAP1 REVERT JUMPDEST JUMP JUMPDEST PUSH2 0x38EE PUSH2 0x38A6 JUMP JUMPDEST PUSH0 PUSH20 0xFFFFFFFFFFFFFFFFFFFFFFFFFFFFFFFFFFFFFFFF AND DUP2 PUSH20 0xFFFFFFFFFFFFFFFFFFFFFFFFFFFFFFFFFFFFFFFF AND SUB PUSH2 0x395E JUMPI PUSH0 PUSH1 0x40 MLOAD PUSH32 0x1E4FBDF700000000000000000000000000000000000000000000000000000000 DUP2 MSTORE PUSH1 0x4 ADD PUSH2 0x3955 SWAP2 SWAP1 PUSH2 0x422E JUMP JUMPDEST PUSH1 0x40 MLOAD DUP1 SWAP2 SUB SWAP1 REVERT JUMPDEST PUSH2 0x3967 DUP2 PUSH2 0x2F3F JUMP JUMPDEST POP JUMP JUMPDEST PUSH2 0x3972 PUSH2 0x38A6 JUMP JUMPDEST PUSH1 0x1 PUSH0 DUP2 SWAP1 SSTORE POP JUMP JUMPDEST PUSH0 PUSH2 0x3984 PUSH2 0x3852 JUMP JUMPDEST PUSH0 ADD PUSH1 0x8 SWAP1 SLOAD SWAP1 PUSH2 0x100 EXP SWAP1 DIV PUSH1 0xFF AND SWAP1 POP SWAP1 JUMP JUMPDEST PUSH1 0x40 MLOAD DUP1 PUSH2 0x180 ADD PUSH1 0x40 MSTORE DUP1 PUSH0 ISZERO ISZERO DUP2 MSTORE PUSH1 0x20 ADD PUSH0 DUP2 MSTORE PUSH1 0x20 ADD PUSH0 PUSH20 0xFFFFFFFFFFFFFFFFFFFFFFFFFFFFFFFFFFFFFFFF AND DUP2 MSTORE PUSH1 0x20 ADD PUSH1 0x60 DUP2 MSTORE PUSH1 0x20 ADD PUSH1 0x60 DUP2 MSTORE PUSH1 0x20 ADD PUSH0 PUSH20 0xFFFFFFFFFFFFFFFFFFFFFFFFFFFFFFFFFFFFFFFF AND DUP2 MSTORE PUSH1 0x20 ADD PUSH0 PUSH20 0xFFFFFFFFFFFFFFFFFFFFFFFFFFFFFFFFFFFFFFFF AND DUP2 MSTORE PUSH1 0x20 ADD PUSH0 DUP2 MSTORE PUSH1 0x20 ADD PUSH1 0x60 DUP2 MSTORE PUSH1 0x20 ADD PUSH0 ISZERO ISZERO DUP2 MSTORE PUSH1 0x20 ADD PUSH0 DUP2 MSTORE PUSH1 0x20 ADD PUSH0 DUP2 MSTORE POP SWAP1 JUMP JUMPDEST DUP3 DUP1 SLOAD DUP3 DUP3 SSTORE SWAP1 PUSH0 MSTORE PUSH1 0x20 PUSH0 KECCAK256 SWAP1 DUP2 ADD SWAP3 DUP3 ISZERO PUSH2 0x3A71 JUMPI SWAP2 PUSH1 0x20 MUL DUP3 ADD JUMPDEST DUP3 DUP2 GT ISZERO PUSH2 0x3A70 JUMPI DUP3 MLOAD DUP3 SSTORE SWAP2 PUSH1 0x20 ADD SWAP2 SWAP1 PUSH1 0x1 ADD SWAP1 PUSH2 0x3A55 JUMP JUMPDEST JUMPDEST POP SWAP1 POP PUSH2 0x3A7E SWAP2 SWAP1 PUSH2 0x3AD9 JUMP JUMPDEST POP SWAP1 JUMP JUMPDEST DUP3 DUP1 SLOAD DUP3 DUP3 SSTORE SWAP1 PUSH0 MSTORE PUSH1 0x20 PUSH0 KECCAK256 SWAP1 DUP2 ADD SWAP3 DUP3 ISZERO PUSH2 0x3AC8 JUMPI SWAP2 PUSH1 0x20 MUL DUP3 ADD JUMPDEST DUP3 DUP2 GT ISZERO PUSH2 0x3AC7 JUMPI DUP3 MLOAD DUP3 SWAP1 DUP2 PUSH2 0x3AB7 SWAP2 SWAP1 PUSH2 0x522C JUMP JUMPDEST POP SWAP2 PUSH1 0x20 ADD SWAP2 SWAP1 PUSH1 0x1 ADD SWAP1 PUSH2 0x3AA0 JUMP JUMPDEST JUMPDEST POP SWAP1 POP PUSH2 0x3AD5 SWAP2 SWAP1 PUSH2 0x3AF4 JUMP JUMPDEST POP SWAP1 JUMP JUMPDEST JUMPDEST DUP1 DUP3 GT ISZERO PUSH2 0x3AF0 JUMPI PUSH0 DUP2 PUSH0 SWAP1 SSTORE POP PUSH1 0x1 ADD PUSH2 0x3ADA JUMP JUMPDEST POP SWAP1 JUMP JUMPDEST JUMPDEST DUP1 DUP3 GT ISZERO PUSH2 0x3B13 JUMPI PUSH0 DUP2 DUP2 PUSH2 0x3B0A SWAP2 SWAP1 PUSH2 0x3B17 JUMP JUMPDEST POP PUSH1 0x1 ADD PUSH2 0x3AF5 JUMP JUMPDEST POP SWAP1 JUMP JUMPDEST POP DUP1 SLOAD PUSH2 0x3B23 SWAP1 PUSH2 0x471D JUMP JUMPDEST PUSH0 DUP3 SSTORE DUP1 PUSH1 0x1F LT PUSH2 0x3B34 JUMPI POP PUSH2 0x3B51 JUMP JUMPDEST PUSH1 0x1F ADD PUSH1 0x20 SWAP1 DIV SWAP1 PUSH0 MSTORE PUSH1 0x20 PUSH0 KECCAK256 SWAP1 DUP2 ADD SWAP1 PUSH2 0x3B50 SWAP2 SWAP1 PUSH2 0x3AD9 JUMP JUMPDEST JUMPDEST POP JUMP JUMPDEST PUSH0 PUSH1 0x40 MLOAD SWAP1 POP SWAP1 JUMP JUMPDEST PUSH0 DUP1 REVERT JUMPDEST PUSH0 DUP1 REVERT JUMPDEST PUSH0 PUSH20 0xFFFFFFFFFFFFFFFFFFFFFFFFFFFFFFFFFFFFFFFF DUP3 AND SWAP1 POP SWAP2 SWAP1 POP JUMP JUMPDEST PUSH0 PUSH2 0x3B8E DUP3 PUSH2 0x3B65 JUMP JUMPDEST SWAP1 POP SWAP2 SWAP1 POP JUMP JUMPDEST PUSH2 0x3B9E DUP2 PUSH2 0x3B84 JUMP JUMPDEST DUP2 EQ PUSH2 0x3BA8 JUMPI PUSH0 DUP1 REVERT JUMPDEST POP JUMP JUMPDEST PUSH0 DUP2 CALLDATALOAD SWAP1 POP PUSH2 0x3BB9 DUP2 PUSH2 0x3B95 JUMP JUMPDEST SWAP3 SWAP2 POP POP JUMP JUMPDEST PUSH0 PUSH1 0x20 DUP3 DUP5 SUB SLT ISZERO PUSH2 0x3BD4 JUMPI PUSH2 0x3BD3 PUSH2 0x3B5D JUMP JUMPDEST JUMPDEST PUSH0 PUSH2 0x3BE1 DUP5 DUP3 DUP6 ADD PUSH2 0x3BAB JUMP JUMPDEST SWAP2 POP POP SWAP3 SWAP2 POP POP JUMP JUMPDEST PUSH0 DUP2 MLOAD SWAP1 POP SWAP2 SWAP1 POP JUMP JUMPDEST PUSH0 DUP3 DUP3 MSTORE PUSH1 0x20 DUP3 ADD SWAP1 POP SWAP3 SWAP2 POP POP JUMP JUMPDEST PUSH0 DUP2 SWAP1 POP PUSH1 0x20 DUP3 ADD SWAP1 POP SWAP2 SWAP1 POP JUMP JUMPDEST PUSH0 DUP2 ISZERO ISZERO SWAP1 POP SWAP2 SWAP1 POP JUMP JUMPDEST PUSH2 0x3C27 DUP2 PUSH2 0x3C13 JUMP JUMPDEST DUP3 MSTORE POP POP JUMP JUMPDEST PUSH0 DUP2 SWAP1 POP SWAP2 SWAP1 POP JUMP JUMPDEST PUSH2 0x3C3F DUP2 PUSH2 0x3C2D JUMP JUMPDEST DUP3 MSTORE POP POP JUMP JUMPDEST PUSH2 0x3C4E DUP2 PUSH2 0x3B84 JUMP JUMPDEST DUP3 MSTORE POP POP JUMP JUMPDEST PUSH0 DUP2 MLOAD SWAP1 POP SWAP2 SWAP1 POP JUMP JUMPDEST PUSH0 DUP3 DUP3 MSTORE PUSH1 0x20 DUP3 ADD SWAP1 POP SWAP3 SWAP2 POP POP JUMP JUMPDEST PUSH0 DUP2 SWAP1 POP PUSH1 0x20 DUP3 ADD SWAP1 POP SWAP2 SWAP1 POP JUMP JUMPDEST PUSH0 PUSH2 0x3C88 DUP4 DUP4 PUSH2 0x3C36 JUMP JUMPDEST PUSH1 0x20 DUP4 ADD SWAP1 POP SWAP3 SWAP2 POP POP JUMP JUMPDEST PUSH0 PUSH1 0x20 DUP3 ADD SWAP1 POP SWAP2 SWAP1 POP JUMP JUMPDEST PUSH0 PUSH2 0x3CAA DUP3 PUSH2 0x3C54 JUMP JUMPDEST PUSH2 0x3CB4 DUP2 DUP6 PUSH2 0x3C5E JUMP JUMPDEST SWAP4 POP PUSH2 0x3CBF DUP4 PUSH2 0x3C6E JUMP JUMPDEST DUP1 PUSH0 JUMPDEST DUP4 DUP2 LT ISZERO PUSH2 0x3CEF JUMPI DUP2 MLOAD PUSH2 0x3CD6 DUP9 DUP3 PUSH2 0x3C7D JUMP JUMPDEST SWAP8 POP PUSH2 0x3CE1 DUP4 PUSH2 0x3C94 JUMP JUMPDEST SWAP3 POP POP PUSH1 0x1 DUP2 ADD SWAP1 POP PUSH2 0x3CC2 JUMP JUMPDEST POP DUP6 SWAP4 POP POP POP POP SWAP3 SWAP2 POP POP JUMP JUMPDEST PUSH0 DUP2 MLOAD SWAP1 POP SWAP2 SWAP1 POP JUMP JUMPDEST PUSH0 DUP3 DUP3 MSTORE PUSH1 0x20 DUP3 ADD SWAP1 POP SWAP3 SWAP2 POP POP JUMP JUMPDEST PUSH0 DUP2 SWAP1 POP PUSH1 0x20 DUP3 ADD SWAP1 POP SWAP2 SWAP1 POP JUMP JUMPDEST PUSH0 DUP2 MLOAD SWAP1 POP SWAP2 SWAP1 POP JUMP JUMPDEST PUSH0 DUP3 DUP3 MSTORE PUSH1 0x20 DUP3 ADD SWAP1 POP SWAP3 SWAP2 POP POP JUMP JUMPDEST DUP3 DUP2 DUP4 MCOPY PUSH0 DUP4 DUP4 ADD MSTORE POP POP POP JUMP JUMPDEST PUSH0 PUSH1 0x1F NOT PUSH1 0x1F DUP4 ADD AND SWAP1 POP SWAP2 SWAP1 POP JUMP JUMPDEST PUSH0 PUSH2 0x3D67 DUP3 PUSH2 0x3D25 JUMP JUMPDEST PUSH2 0x3D71 DUP2 DUP6 PUSH2 0x3D2F JUMP JUMPDEST SWAP4 POP PUSH2 0x3D81 DUP2 DUP6 PUSH1 0x20 DUP7 ADD PUSH2 0x3D3F JUMP JUMPDEST PUSH2 0x3D8A DUP2 PUSH2 0x3D4D JUMP JUMPDEST DUP5 ADD SWAP2 POP POP SWAP3 SWAP2 POP POP JUMP JUMPDEST PUSH0 PUSH2 0x3DA0 DUP4 DUP4 PUSH2 0x3D5D JUMP JUMPDEST SWAP1 POP SWAP3 SWAP2 POP POP JUMP JUMPDEST PUSH0 PUSH1 0x20 DUP3 ADD SWAP1 POP SWAP2 SWAP1 POP JUMP JUMPDEST PUSH0 PUSH2 0x3DBE DUP3 PUSH2 0x3CFC JUMP JUMPDEST PUSH2 0x3DC8 DUP2 DUP6 PUSH2 0x3D06 JUMP JUMPDEST SWAP4 POP DUP4 PUSH1 0x20 DUP3 MUL DUP6 ADD PUSH2 0x3DDA DUP6 PUSH2 0x3D16 JUMP JUMPDEST DUP1 PUSH0 JUMPDEST DUP6 DUP2 LT ISZERO PUSH2 0x3E15 JUMPI DUP5 DUP5 SUB DUP10 MSTORE DUP2 MLOAD PUSH2 0x3DF6 DUP6 DUP3 PUSH2 0x3D95 JUMP JUMPDEST SWAP5 POP PUSH2 0x3E01 DUP4 PUSH2 0x3DA8 JUMP JUMPDEST SWAP3 POP PUSH1 0x20 DUP11 ADD SWAP10 POP POP PUSH1 0x1 DUP2 ADD SWAP1 POP PUSH2 0x3DDD JUMP JUMPDEST POP DUP3 SWAP8 POP DUP8 SWAP6 POP POP POP POP POP POP SWAP3 SWAP2 POP POP JUMP JUMPDEST PUSH0 PUSH2 0x3E31 DUP3 PUSH2 0x3B65 JUMP JUMPDEST SWAP1 POP SWAP2 SWAP1 POP JUMP JUMPDEST PUSH2 0x3E41 DUP2 PUSH2 0x3E27 JUMP JUMPDEST DUP3 MSTORE POP POP JUMP JUMPDEST PUSH0 PUSH2 0x180 DUP4 ADD PUSH0 DUP4 ADD MLOAD PUSH2 0x3E5D PUSH0 DUP7 ADD DUP3 PUSH2 0x3C1E JUMP JUMPDEST POP PUSH1 0x20 DUP4 ADD MLOAD PUSH2 0x3E70 PUSH1 0x20 DUP7 ADD DUP3 PUSH2 0x3C36 JUMP JUMPDEST POP PUSH1 0x40 DUP4 ADD MLOAD PUSH2 0x3E83 PUSH1 0x40 DUP7 ADD DUP3 PUSH2 0x3C45 JUMP JUMPDEST POP PUSH1 0x60 DUP4 ADD MLOAD DUP5 DUP3 SUB PUSH1 0x60 DUP7 ADD MSTORE PUSH2 0x3E9B DUP3 DUP3 PUSH2 0x3CA0 JUMP JUMPDEST SWAP2 POP POP PUSH1 0x80 DUP4 ADD MLOAD DUP5 DUP3 SUB PUSH1 0x80 DUP7 ADD MSTORE PUSH2 0x3EB5 DUP3 DUP3 PUSH2 0x3DB4 JUMP JUMPDEST SWAP2 POP POP PUSH1 0xA0 DUP4 ADD MLOAD PUSH2 0x3ECA PUSH1 0xA0 DUP7 ADD DUP3 PUSH2 0x3E38 JUMP JUMPDEST POP PUSH1 0xC0 DUP4 ADD MLOAD PUSH2 0x3EDD PUSH1 0xC0 DUP7 ADD DUP3 PUSH2 0x3E38 JUMP JUMPDEST POP PUSH1 0xE0 DUP4 ADD MLOAD PUSH2 0x3EF0 PUSH1 0xE0 DUP7 ADD DUP3 PUSH2 0x3C36 JUMP JUMPDEST POP PUSH2 0x100 DUP4 ADD MLOAD DUP5 DUP3 SUB PUSH2 0x100 DUP7 ADD MSTORE PUSH2 0x3F0A DUP3 DUP3 PUSH2 0x3D5D JUMP JUMPDEST SWAP2 POP POP PUSH2 0x120 DUP4 ADD MLOAD PUSH2 0x3F21 PUSH2 0x120 DUP7 ADD DUP3 PUSH2 0x3C1E JUMP JUMPDEST POP PUSH2 0x140 DUP4 ADD MLOAD PUSH2 0x3F36 PUSH2 0x140 DUP7 ADD DUP3 PUSH2 0x3C36 JUMP JUMPDEST POP PUSH2 0x160 DUP4 ADD MLOAD PUSH2 0x3F4B PUSH2 0x160 DUP7 ADD DUP3 PUSH2 0x3C36 JUMP JUMPDEST POP DUP1 SWAP2 POP POP SWAP3 SWAP2 POP POP JUMP JUMPDEST PUSH0 PUSH2 0x3F61 DUP4 DUP4 PUSH2 0x3E47 JUMP JUMPDEST SWAP1 POP SWAP3 SWAP2 POP POP JUMP JUMPDEST PUSH0 PUSH1 0x20 DUP3 ADD SWAP1 POP SWAP2 SWAP1 POP JUMP JUMPDEST PUSH0 PUSH2 0x3F7F DUP3 PUSH2 0x3BEA JUMP JUMPDEST PUSH2 0x3F89 DUP2 DUP6 PUSH2 0x3BF4 JUMP JUMPDEST SWAP4 POP DUP4 PUSH1 0x20 DUP3 MUL DUP6 ADD PUSH2 0x3F9B DUP6 PUSH2 0x3C04 JUMP JUMPDEST DUP1 PUSH0 JUMPDEST DUP6 DUP2 LT ISZERO PUSH2 0x3FD6 JUMPI DUP5 DUP5 SUB DUP10 MSTORE DUP2 MLOAD PUSH2 0x3FB7 DUP6 DUP3 PUSH2 0x3F56 JUMP JUMPDEST SWAP5 POP PUSH2 0x3FC2 DUP4 PUSH2 0x3F69 JUMP JUMPDEST SWAP3 POP PUSH1 0x20 DUP11 ADD SWAP10 POP POP PUSH1 0x1 DUP2 ADD SWAP1 POP PUSH2 0x3F9E JUMP JUMPDEST POP DUP3 SWAP8 POP DUP8 SWAP6 POP POP POP POP POP POP SWAP3 SWAP2 POP POP JUMP JUMPDEST PUSH0 PUSH1 0x20 DUP3 ADD SWAP1 POP DUP2 DUP2 SUB PUSH0 DUP4 ADD MSTORE PUSH2 0x4000 DUP2 DUP5 PUSH2 0x3F75 JUMP JUMPDEST SWAP1 POP SWAP3 SWAP2 POP POP JUMP JUMPDEST PUSH2 0x4011 DUP2 PUSH2 0x3C2D JUMP JUMPDEST DUP2 EQ PUSH2 0x401B JUMPI PUSH0 DUP1 REVERT JUMPDEST POP JUMP JUMPDEST PUSH0 DUP2 CALLDATALOAD SWAP1 POP PUSH2 0x402C DUP2 PUSH2 0x4008 JUMP JUMPDEST SWAP3 SWAP2 POP POP JUMP JUMPDEST PUSH0 PUSH1 0x20 DUP3 DUP5 SUB SLT ISZERO PUSH2 0x4047 JUMPI PUSH2 0x4046 PUSH2 0x3B5D JUMP JUMPDEST JUMPDEST PUSH0 PUSH2 0x4054 DUP5 DUP3 DUP6 ADD PUSH2 0x401E JUMP JUMPDEST SWAP2 POP POP SWAP3 SWAP2 POP POP JUMP JUMPDEST PUSH0 DUP1 REVERT JUMPDEST PUSH32 0x4E487B7100000000000000000000000000000000000000000000000000000000 PUSH0 MSTORE PUSH1 0x41 PUSH1 0x4 MSTORE PUSH1 0x24 PUSH0 REVERT JUMPDEST PUSH2 0x4097 DUP3 PUSH2 0x3D4D JUMP JUMPDEST DUP2 ADD DUP2 DUP2 LT PUSH8 0xFFFFFFFFFFFFFFFF DUP3 GT OR ISZERO PUSH2 0x40B6 JUMPI PUSH2 0x40B5 PUSH2 0x4061 JUMP JUMPDEST JUMPDEST DUP1 PUSH1 0x40 MSTORE POP POP POP JUMP JUMPDEST PUSH0 PUSH2 0x40C8 PUSH2 0x3B54 JUMP JUMPDEST SWAP1 POP PUSH2 0x40D4 DUP3 DUP3 PUSH2 0x408E JUMP JUMPDEST SWAP2 SWAP1 POP JUMP JUMPDEST PUSH0 PUSH8 0xFFFFFFFFFFFFFFFF DUP3 GT ISZERO PUSH2 0x40F3 JUMPI PUSH2 0x40F2 PUSH2 0x4061 JUMP JUMPDEST JUMPDEST PUSH1 0x20 DUP3 MUL SWAP1 POP PUSH1 0x20 DUP2 ADD SWAP1 POP SWAP2 SWAP1 POP JUMP JUMPDEST PUSH0 DUP1 REVERT JUMPDEST PUSH0 PUSH2 0x411A PUSH2 0x4115 DUP5 PUSH2 0x40D9 JUMP JUMPDEST PUSH2 0x40BF JUMP JUMPDEST SWAP1 POP DUP1 DUP4 DUP3 MSTORE PUSH1 0x20 DUP3 ADD SWAP1 POP PUSH1 0x20 DUP5 MUL DUP4 ADD DUP6 DUP2 GT ISZERO PUSH2 0x413D JUMPI PUSH2 0x413C PUSH2 0x4104 JUMP JUMPDEST JUMPDEST DUP4 JUMPDEST DUP2 DUP2 LT ISZERO PUSH2 0x4166 JUMPI DUP1 PUSH2 0x4152 DUP9 DUP3 PUSH2 0x401E JUMP JUMPDEST DUP5 MSTORE PUSH1 0x20 DUP5 ADD SWAP4 POP POP PUSH1 0x20 DUP2 ADD SWAP1 POP PUSH2 0x413F JUMP JUMPDEST POP POP POP SWAP4 SWAP3 POP POP POP JUMP JUMPDEST PUSH0 DUP3 PUSH1 0x1F DUP4 ADD SLT PUSH2 0x4184 JUMPI PUSH2 0x4183 PUSH2 0x405D JUMP JUMPDEST JUMPDEST DUP2 CALLDATALOAD PUSH2 0x4194 DUP5 DUP3 PUSH1 0x20 DUP7 ADD PUSH2 0x4108 JUMP JUMPDEST SWAP2 POP POP SWAP3 SWAP2 POP POP JUMP JUMPDEST PUSH0 DUP1 PUSH1 0x40 DUP4 DUP6 SUB SLT ISZERO PUSH2 0x41B3 JUMPI PUSH2 0x41B2 PUSH2 0x3B5D JUMP JUMPDEST JUMPDEST PUSH0 PUSH2 0x41C0 DUP6 DUP3 DUP7 ADD PUSH2 0x3BAB JUMP JUMPDEST SWAP3 POP POP PUSH1 0x20 DUP4 ADD CALLDATALOAD PUSH8 0xFFFFFFFFFFFFFFFF DUP2 GT ISZERO PUSH2 0x41E1 JUMPI PUSH2 0x41E0 PUSH2 0x3B61 JUMP JUMPDEST JUMPDEST PUSH2 0x41ED DUP6 DUP3 DUP7 ADD PUSH2 0x4170 JUMP JUMPDEST SWAP2 POP POP SWAP3 POP SWAP3 SWAP1 POP JUMP JUMPDEST PUSH2 0x4200 DUP2 PUSH2 0x3C2D JUMP JUMPDEST DUP3 MSTORE POP POP JUMP JUMPDEST PUSH0 PUSH1 0x20 DUP3 ADD SWAP1 POP PUSH2 0x4219 PUSH0 DUP4 ADD DUP5 PUSH2 0x41F7 JUMP JUMPDEST SWAP3 SWAP2 POP POP JUMP JUMPDEST PUSH2 0x4228 DUP2 PUSH2 0x3B84 JUMP JUMPDEST DUP3 MSTORE POP POP JUMP JUMPDEST PUSH0 PUSH1 0x20 DUP3 ADD SWAP1 POP PUSH2 0x4241 PUSH0 DUP4 ADD DUP5 PUSH2 0x421F JUMP JUMPDEST SWAP3 SWAP2 POP POP JUMP JUMPDEST PUSH0 DUP1 REVERT JUMPDEST PUSH0 PUSH8 0xFFFFFFFFFFFFFFFF DUP3 GT ISZERO PUSH2 0x4265 JUMPI PUSH2 0x4264 PUSH2 0x4061 JUMP JUMPDEST JUMPDEST PUSH2 0x426E DUP3 PUSH2 0x3D4D JUMP JUMPDEST SWAP1 POP PUSH1 0x20 DUP2 ADD SWAP1 POP SWAP2 SWAP1 POP JUMP JUMPDEST DUP3 DUP2 DUP4 CALLDATACOPY PUSH0 DUP4 DUP4 ADD MSTORE POP POP POP JUMP JUMPDEST PUSH0 PUSH2 0x429B PUSH2 0x4296 DUP5 PUSH2 0x424B JUMP JUMPDEST PUSH2 0x40BF JUMP JUMPDEST SWAP1 POP DUP3 DUP2 MSTORE PUSH1 0x20 DUP2 ADD DUP5 DUP5 DUP5 ADD GT ISZERO PUSH2 0x42B7 JUMPI PUSH2 0x42B6 PUSH2 0x4247 JUMP JUMPDEST JUMPDEST PUSH2 0x42C2 DUP5 DUP3 DUP6 PUSH2 0x427B JUMP JUMPDEST POP SWAP4 SWAP3 POP POP POP JUMP JUMPDEST PUSH0 DUP3 PUSH1 0x1F DUP4 ADD SLT PUSH2 0x42DE JUMPI PUSH2 0x42DD PUSH2 0x405D JUMP JUMPDEST JUMPDEST DUP2 CALLDATALOAD PUSH2 0x42EE DUP5 DUP3 PUSH1 0x20 DUP7 ADD PUSH2 0x4289 JUMP JUMPDEST SWAP2 POP POP SWAP3 SWAP2 POP POP JUMP JUMPDEST PUSH2 0x4300 DUP2 PUSH2 0x3C13 JUMP JUMPDEST DUP2 EQ PUSH2 0x430A JUMPI PUSH0 DUP1 REVERT JUMPDEST POP JUMP JUMPDEST PUSH0 DUP2 CALLDATALOAD SWAP1 POP PUSH2 0x431B DUP2 PUSH2 0x42F7 JUMP JUMPDEST SWAP3 SWAP2 POP POP JUMP JUMPDEST PUSH0 DUP1 PUSH0 DUP1 PUSH0 DUP1 PUSH0 PUSH1 0xE0 DUP9 DUP11 SUB SLT ISZERO PUSH2 0x433C JUMPI PUSH2 0x433B PUSH2 0x3B5D JUMP JUMPDEST JUMPDEST PUSH0 PUSH2 0x4349 DUP11 DUP3 DUP12 ADD PUSH2 0x3BAB JUMP JUMPDEST SWAP8 POP POP PUSH1 0x20 DUP9 ADD CALLDATALOAD PUSH8 0xFFFFFFFFFFFFFFFF DUP2 GT ISZERO PUSH2 0x436A JUMPI PUSH2 0x4369 PUSH2 0x3B61 JUMP JUMPDEST JUMPDEST PUSH2 0x4376 DUP11 DUP3 DUP12 ADD PUSH2 0x4170 JUMP JUMPDEST SWAP7 POP POP PUSH1 0x40 PUSH2 0x4387 DUP11 DUP3 DUP12 ADD PUSH2 0x401E JUMP JUMPDEST SWAP6 POP POP PUSH1 0x60 DUP9 ADD CALLDATALOAD PUSH8 0xFFFFFFFFFFFFFFFF DUP2 GT ISZERO PUSH2 0x43A8 JUMPI PUSH2 0x43A7 PUSH2 0x3B61 JUMP JUMPDEST JUMPDEST PUSH2 0x43B4 DUP11 DUP3 DUP12 ADD PUSH2 0x42CA JUMP JUMPDEST SWAP5 POP POP PUSH1 0x80 PUSH2 0x43C5 DUP11 DUP3 DUP12 ADD PUSH2 0x430D JUMP JUMPDEST SWAP4 POP POP PUSH1 0xA0 PUSH2 0x43D6 DUP11 DUP3 DUP12 ADD PUSH2 0x401E JUMP JUMPDEST SWAP3 POP POP PUSH1 0xC0 PUSH2 0x43E7 DUP11 DUP3 DUP12 ADD PUSH2 0x401E JUMP JUMPDEST SWAP2 POP POP SWAP3 SWAP6 SWAP9 SWAP2 SWAP5 SWAP8 POP SWAP3 SWAP6 POP JUMP JUMPDEST PUSH0 DUP1 PUSH1 0x40 DUP4 DUP6 SUB SLT ISZERO PUSH2 0x440C JUMPI PUSH2 0x440B PUSH2 0x3B5D JUMP JUMPDEST JUMPDEST PUSH0 PUSH2 0x4419 DUP6 DUP3 DUP7 ADD PUSH2 0x401E JUMP JUMPDEST SWAP3 POP POP PUSH1 0x20 PUSH2 0x442A DUP6 DUP3 DUP7 ADD PUSH2 0x401E JUMP JUMPDEST SWAP2 POP POP SWAP3 POP SWAP3 SWAP1 POP JUMP JUMPDEST PUSH0 PUSH2 0x180 DUP4 ADD PUSH0 DUP4 ADD MLOAD PUSH2 0x444A PUSH0 DUP7 ADD DUP3 PUSH2 0x3C1E JUMP JUMPDEST POP PUSH1 0x20 DUP4 ADD MLOAD PUSH2 0x445D PUSH1 0x20 DUP7 ADD DUP3 PUSH2 0x3C36 JUMP JUMPDEST POP PUSH1 0x40 DUP4 ADD MLOAD PUSH2 0x4470 PUSH1 0x40 DUP7 ADD DUP3 PUSH2 0x3C45 JUMP JUMPDEST POP PUSH1 0x60 DUP4 ADD MLOAD DUP5 DUP3 SUB PUSH1 0x60 DUP7 ADD MSTORE PUSH2 0x4488 DUP3 DUP3 PUSH2 0x3CA0 JUMP JUMPDEST SWAP2 POP POP PUSH1 0x80 DUP4 ADD MLOAD DUP5 DUP3 SUB PUSH1 0x80 DUP7 ADD MSTORE PUSH2 0x44A2 DUP3 DUP3 PUSH2 0x3DB4 JUMP JUMPDEST SWAP2 POP POP PUSH1 0xA0 DUP4 ADD MLOAD PUSH2 0x44B7 PUSH1 0xA0 DUP7 ADD DUP3 PUSH2 0x3E38 JUMP JUMPDEST POP PUSH1 0xC0 DUP4 ADD MLOAD PUSH2 0x44CA PUSH1 0xC0 DUP7 ADD DUP3 PUSH2 0x3E38 JUMP JUMPDEST POP PUSH1 0xE0 DUP4 ADD MLOAD PUSH2 0x44DD PUSH1 0xE0 DUP7 ADD DUP3 PUSH2 0x3C36 JUMP JUMPDEST POP PUSH2 0x100 DUP4 ADD MLOAD DUP5 DUP3 SUB PUSH2 0x100 DUP7 ADD MSTORE PUSH2 0x44F7 DUP3 DUP3 PUSH2 0x3D5D JUMP JUMPDEST SWAP2 POP POP PUSH2 0x120 DUP4 ADD MLOAD PUSH2 0x450E PUSH2 0x120 DUP7 ADD DUP3 PUSH2 0x3C1E JUMP JUMPDEST POP PUSH2 0x140 DUP4 ADD MLOAD PUSH2 0x4523 PUSH2 0x140 DUP7 ADD DUP3 PUSH2 0x3C36 JUMP JUMPDEST POP PUSH2 0x160 DUP4 ADD MLOAD PUSH2 0x4538 PUSH2 0x160 DUP7 ADD DUP3 PUSH2 0x3C36 JUMP JUMPDEST POP DUP1 SWAP2 POP POP SWAP3 SWAP2 POP POP JUMP JUMPDEST PUSH0 PUSH1 0x20 DUP3 ADD SWAP1 POP DUP2 DUP2 SUB PUSH0 DUP4 ADD MSTORE PUSH2 0x455B DUP2 DUP5 PUSH2 0x4434 JUMP JUMPDEST SWAP1 POP SWAP3 SWAP2 POP POP JUMP JUMPDEST PUSH0 DUP1 PUSH0 PUSH1 0x60 DUP5 DUP7 SUB SLT ISZERO PUSH2 0x457A JUMPI PUSH2 0x4579 PUSH2 0x3B5D JUMP JUMPDEST JUMPDEST PUSH0 PUSH2 0x4587 DUP7 DUP3 DUP8 ADD PUSH2 0x3BAB JUMP JUMPDEST SWAP4 POP POP PUSH1 0x20 DUP5 ADD CALLDATALOAD PUSH8 0xFFFFFFFFFFFFFFFF DUP2 GT ISZERO PUSH2 0x45A8 JUMPI PUSH2 0x45A7 PUSH2 0x3B61 JUMP JUMPDEST JUMPDEST PUSH2 0x45B4 DUP7 DUP3 DUP8 ADD PUSH2 0x42CA JUMP JUMPDEST SWAP3 POP POP PUSH1 0x40 DUP5 ADD CALLDATALOAD PUSH8 0xFFFFFFFFFFFFFFFF DUP2 GT ISZERO PUSH2 0x45D5 JUMPI PUSH2 0x45D4 PUSH2 0x3B61 JUMP JUMPDEST JUMPDEST PUSH2 0x45E1 DUP7 DUP3 DUP8 ADD PUSH2 0x42CA JUMP JUMPDEST SWAP2 POP POP SWAP3 POP SWAP3 POP SWAP3 JUMP JUMPDEST PUSH32 0x4E487B7100000000000000000000000000000000000000000000000000000000 PUSH0 MSTORE PUSH1 0x32 PUSH1 0x4 MSTORE PUSH1 0x24 PUSH0 REVERT JUMPDEST PUSH32 0x4E487B7100000000000000000000000000000000000000000000000000000000 PUSH0 MSTORE PUSH1 0x11 PUSH1 0x4 MSTORE PUSH1 0x24 PUSH0 REVERT JUMPDEST PUSH0 PUSH2 0x464F DUP3 PUSH2 0x3C2D JUMP JUMPDEST SWAP2 POP PUSH2 0x465A DUP4 PUSH2 0x3C2D JUMP JUMPDEST SWAP3 POP DUP3 DUP3 ADD SWAP1 POP DUP1 DUP3 GT ISZERO PUSH2 0x4672 JUMPI PUSH2 0x4671 PUSH2 0x4618 JUMP JUMPDEST JUMPDEST SWAP3 SWAP2 POP POP JUMP JUMPDEST PUSH0 DUP3 DUP3 MSTORE PUSH1 0x20 DUP3 ADD SWAP1 POP SWAP3 SWAP2 POP POP JUMP JUMPDEST PUSH32 0x4E6F2076616C6964206974656D20666F722073656C6C65720000000000000000 PUSH0 DUP3 ADD MSTORE POP JUMP JUMPDEST PUSH0 PUSH2 0x46BC PUSH1 0x18 DUP4 PUSH2 0x4678 JUMP JUMPDEST SWAP2 POP PUSH2 0x46C7 DUP3 PUSH2 0x4688 JUMP JUMPDEST PUSH1 0x20 DUP3 ADD SWAP1 POP SWAP2 SWAP1 POP JUMP JUMPDEST PUSH0 PUSH1 0x20 DUP3 ADD SWAP1 POP DUP2 DUP2 SUB PUSH0 DUP4 ADD MSTORE PUSH2 0x46E9 DUP2 PUSH2 0x46B0 JUMP JUMPDEST SWAP1 POP SWAP2 SWAP1 POP JUMP JUMPDEST PUSH32 0x4E487B7100000000000000000000000000000000000000000000000000000000 PUSH0 MSTORE PUSH1 0x22 PUSH1 0x4 MSTORE PUSH1 0x24 PUSH0 REVERT JUMPDEST PUSH0 PUSH1 0x2 DUP3 DIV SWAP1 POP PUSH1 0x1 DUP3 AND DUP1 PUSH2 0x4734 JUMPI PUSH1 0x7F DUP3 AND SWAP2 POP JUMPDEST PUSH1 0x20 DUP3 LT DUP2 SUB PUSH2 0x4747 JUMPI PUSH2 0x4746 PUSH2 0x46F0 JUMP JUMPDEST JUMPDEST POP SWAP2 SWAP1 POP JUMP JUMPDEST PUSH0 PUSH2 0x4757 DUP3 PUSH2 0x3C2D JUMP JUMPDEST SWAP2 POP PUSH32 0xFFFFFFFFFFFFFFFFFFFFFFFFFFFFFFFFFFFFFFFFFFFFFFFFFFFFFFFFFFFFFFFF DUP3 SUB PUSH2 0x4789 JUMPI PUSH2 0x4788 PUSH2 0x4618 JUMP JUMPDEST JUMPDEST PUSH1 0x1 DUP3 ADD SWAP1 POP SWAP2 SWAP1 POP JUMP JUMPDEST PUSH32 0x4F6E6C79206974656D206F776E65722063616E20706572666F726D2074686973 PUSH0 DUP3 ADD MSTORE PUSH32 0x20616374696F6E00000000000000000000000000000000000000000000000000 PUSH1 0x20 DUP3 ADD MSTORE POP JUMP JUMPDEST PUSH0 PUSH2 0x47EE PUSH1 0x27 DUP4 PUSH2 0x4678 JUMP JUMPDEST SWAP2 POP PUSH2 0x47F9 DUP3 PUSH2 0x4794 JUMP JUMPDEST PUSH1 0x40 DUP3 ADD SWAP1 POP SWAP2 SWAP1 POP JUMP JUMPDEST PUSH0 PUSH1 0x20 DUP3 ADD SWAP1 POP DUP2 DUP2 SUB PUSH0 DUP4 ADD MSTORE PUSH2 0x481B DUP2 PUSH2 0x47E2 JUMP JUMPDEST SWAP1 POP SWAP2 SWAP1 POP JUMP JUMPDEST PUSH32 0x4D61726B6574206974656D20646F6573206E6F74206578697374000000000000 PUSH0 DUP3 ADD MSTORE POP JUMP JUMPDEST PUSH0 PUSH2 0x4856 PUSH1 0x1A DUP4 PUSH2 0x4678 JUMP JUMPDEST SWAP2 POP PUSH2 0x4861 DUP3 PUSH2 0x4822 JUMP JUMPDEST PUSH1 0x20 DUP3 ADD SWAP1 POP SWAP2 SWAP1 POP JUMP JUMPDEST PUSH0 PUSH1 0x20 DUP3 ADD SWAP1 POP DUP2 DUP2 SUB PUSH0 DUP4 ADD MSTORE PUSH2 0x4883 DUP2 PUSH2 0x484A JUMP JUMPDEST SWAP1 POP SWAP2 SWAP1 POP JUMP JUMPDEST PUSH32 0x7472616E73616374696F6E20697320616C72656164792070656E64696E670000 PUSH0 DUP3 ADD MSTORE POP JUMP JUMPDEST PUSH0 PUSH2 0x48BE PUSH1 0x1E DUP4 PUSH2 0x4678 JUMP JUMPDEST SWAP2 POP PUSH2 0x48C9 DUP3 PUSH2 0x488A JUMP JUMPDEST PUSH1 0x20 DUP3 ADD SWAP1 POP SWAP2 SWAP1 POP JUMP JUMPDEST PUSH0 PUSH1 0x20 DUP3 ADD SWAP1 POP DUP2 DUP2 SUB PUSH0 DUP4 ADD MSTORE PUSH2 0x48EB DUP2 PUSH2 0x48B2 JUMP JUMPDEST SWAP1 POP SWAP2 SWAP1 POP JUMP JUMPDEST PUSH2 0x48FB DUP2 PUSH2 0x3C13 JUMP JUMPDEST DUP3 MSTORE POP POP JUMP JUMPDEST PUSH0 PUSH1 0x40 DUP3 ADD SWAP1 POP PUSH2 0x4914 PUSH0 DUP4 ADD DUP6 PUSH2 0x41F7 JUMP JUMPDEST PUSH2 0x4921 PUSH1 0x20 DUP4 ADD DUP5 PUSH2 0x48F2 JUMP JUMPDEST SWAP4 SWAP3 POP POP POP JUMP JUMPDEST PUSH32 0x4E6F2062616C616E636520746F20776974686472617700000000000000000000 PUSH0 DUP3 ADD MSTORE POP JUMP JUMPDEST PUSH0 PUSH2 0x495C PUSH1 0x16 DUP4 PUSH2 0x4678 JUMP JUMPDEST SWAP2 POP PUSH2 0x4967 DUP3 PUSH2 0x4928 JUMP JUMPDEST PUSH1 0x20 DUP3 ADD SWAP1 POP SWAP2 SWAP1 POP JUMP JUMPDEST PUSH0 PUSH1 0x20 DUP3 ADD SWAP1 POP DUP2 DUP2 SUB PUSH0 DUP4 ADD MSTORE PUSH2 0x4989 DUP2 PUSH2 0x4950 JUMP JUMPDEST SWAP1 POP SWAP2 SWAP1 POP JUMP JUMPDEST PUSH32 0x4974656D206973206E6F74206F6E2061756374696F6E00000000000000000000 PUSH0 DUP3 ADD MSTORE POP JUMP JUMPDEST PUSH0 PUSH2 0x49C4 PUSH1 0x16 DUP4 PUSH2 0x4678 JUMP JUMPDEST SWAP2 POP PUSH2 0x49CF DUP3 PUSH2 0x4990 JUMP JUMPDEST PUSH1 0x20 DUP3 ADD SWAP1 POP SWAP2 SWAP1 POP JUMP JUMPDEST PUSH0 PUSH1 0x20 DUP3 ADD SWAP1 POP DUP2 DUP2 SUB PUSH0 DUP4 ADD MSTORE PUSH2 0x49F1 DUP2 PUSH2 0x49B8 JUMP JUMPDEST SWAP1 POP SWAP2 SWAP1 POP JUMP JUMPDEST PUSH32 0x41756374696F6E2068617320656E646564000000000000000000000000000000 PUSH0 DUP3 ADD MSTORE POP JUMP JUMPDEST PUSH0 PUSH2 0x4A2C PUSH1 0x11 DUP4 PUSH2 0x4678 JUMP JUMPDEST SWAP2 POP PUSH2 0x4A37 DUP3 PUSH2 0x49F8 JUMP JUMPDEST PUSH1 0x20 DUP3 ADD SWAP1 POP SWAP2 SWAP1 POP JUMP JUMPDEST PUSH0 PUSH1 0x20 DUP3 ADD SWAP1 POP DUP2 DUP2 SUB PUSH0 DUP4 ADD MSTORE PUSH2 0x4A59 DUP2 PUSH2 0x4A20 JUMP JUMPDEST SWAP1 POP SWAP2 SWAP1 POP JUMP JUMPDEST PUSH32 0x41756374696F6E206E6F74207374617274656400000000000000000000000000 PUSH0 DUP3 ADD MSTORE POP JUMP JUMPDEST PUSH0 PUSH2 0x4A94 PUSH1 0x13 DUP4 PUSH2 0x4678 JUMP JUMPDEST SWAP2 POP PUSH2 0x4A9F DUP3 PUSH2 0x4A60 JUMP JUMPDEST PUSH1 0x20 DUP3 ADD SWAP1 POP SWAP2 SWAP1 POP JUMP JUMPDEST PUSH0 PUSH1 0x20 DUP3 ADD SWAP1 POP DUP2 DUP2 SUB PUSH0 DUP4 ADD MSTORE PUSH2 0x4AC1 DUP2 PUSH2 0x4A88 JUMP JUMPDEST SWAP1 POP SWAP2 SWAP1 POP JUMP JUMPDEST PUSH32 0x42696420616D6F756E74206D75737420626520686967686572207468616E2074 PUSH0 DUP3 ADD MSTORE PUSH32 0x68652063757272656E7420707269636500000000000000000000000000000000 PUSH1 0x20 DUP3 ADD MSTORE POP JUMP JUMPDEST PUSH0 PUSH2 0x4B22 PUSH1 0x30 DUP4 PUSH2 0x4678 JUMP JUMPDEST SWAP2 POP PUSH2 0x4B2D DUP3 PUSH2 0x4AC8 JUMP JUMPDEST PUSH1 0x40 DUP3 ADD SWAP1 POP SWAP2 SWAP1 POP JUMP JUMPDEST PUSH0 PUSH1 0x20 DUP3 ADD SWAP1 POP DUP2 DUP2 SUB PUSH0 DUP4 ADD MSTORE PUSH2 0x4B4F DUP2 PUSH2 0x4B16 JUMP JUMPDEST SWAP1 POP SWAP2 SWAP1 POP JUMP JUMPDEST PUSH32 0x53656C6C65722063616E6E6F7420706C61636520612062696400000000000000 PUSH0 DUP3 ADD MSTORE POP JUMP JUMPDEST PUSH0 PUSH2 0x4B8A PUSH1 0x19 DUP4 PUSH2 0x4678 JUMP JUMPDEST SWAP2 POP PUSH2 0x4B95 DUP3 PUSH2 0x4B56 JUMP JUMPDEST PUSH1 0x20 DUP3 ADD SWAP1 POP SWAP2 SWAP1 POP JUMP JUMPDEST PUSH0 PUSH1 0x20 DUP3 ADD SWAP1 POP DUP2 DUP2 SUB PUSH0 DUP4 ADD MSTORE PUSH2 0x4BB7 DUP2 PUSH2 0x4B7E JUMP JUMPDEST SWAP1 POP SWAP2 SWAP1 POP JUMP JUMPDEST PUSH0 PUSH2 0x4BC8 DUP3 PUSH2 0x3C2D JUMP JUMPDEST SWAP2 POP PUSH2 0x4BD3 DUP4 PUSH2 0x3C2D JUMP JUMPDEST SWAP3 POP DUP3 DUP3 SUB SWAP1 POP DUP2 DUP2 GT ISZERO PUSH2 0x4BEB JUMPI PUSH2 0x4BEA PUSH2 0x4618 JUMP JUMPDEST JUMPDEST SWAP3 SWAP2 POP POP JUMP JUMPDEST PUSH32 0x6E6F20746F6B656E496400000000000000000000000000000000000000000000 PUSH0 DUP3 ADD MSTORE POP JUMP JUMPDEST PUSH0 PUSH2 0x4C25 PUSH1 0xA DUP4 PUSH2 0x4678 JUMP JUMPDEST SWAP2 POP PUSH2 0x4C30 DUP3 PUSH2 0x4BF1 JUMP JUMPDEST PUSH1 0x20 DUP3 ADD SWAP1 POP SWAP2 SWAP1 POP JUMP JUMPDEST PUSH0 PUSH1 0x20 DUP3 ADD SWAP1 POP DUP2 DUP2 SUB PUSH0 DUP4 ADD MSTORE PUSH2 0x4C52 DUP2 PUSH2 0x4C19 JUMP JUMPDEST SWAP1 POP SWAP2 SWAP1 POP JUMP JUMPDEST PUSH32 0x4974656D20697320666F722061756374696F6E00000000000000000000000000 PUSH0 DUP3 ADD MSTORE POP JUMP JUMPDEST PUSH0 PUSH2 0x4C8D PUSH1 0x13 DUP4 PUSH2 0x4678 JUMP JUMPDEST SWAP2 POP PUSH2 0x4C98 DUP3 PUSH2 0x4C59 JUMP JUMPDEST PUSH1 0x20 DUP3 ADD SWAP1 POP SWAP2 SWAP1 POP JUMP JUMPDEST PUSH0 PUSH1 0x20 DUP3 ADD SWAP1 POP DUP2 DUP2 SUB PUSH0 DUP4 ADD MSTORE PUSH2 0x4CBA DUP2 PUSH2 0x4C81 JUMP JUMPDEST SWAP1 POP SWAP2 SWAP1 POP JUMP JUMPDEST PUSH32 0x5061796D656E742076616C756520697320736D616C6C6572207468616E206F6E PUSH0 DUP3 ADD MSTORE PUSH32 0x73616C6520707269636500000000000000000000000000000000000000000000 PUSH1 0x20 DUP3 ADD MSTORE POP JUMP JUMPDEST PUSH0 PUSH2 0x4D1B PUSH1 0x2A DUP4 PUSH2 0x4678 JUMP JUMPDEST SWAP2 POP PUSH2 0x4D26 DUP3 PUSH2 0x4CC1 JUMP JUMPDEST PUSH1 0x40 DUP3 ADD SWAP1 POP SWAP2 SWAP1 POP JUMP JUMPDEST PUSH0 PUSH1 0x20 DUP3 ADD SWAP1 POP DUP2 DUP2 SUB PUSH0 DUP4 ADD MSTORE PUSH2 0x4D48 DUP2 PUSH2 0x4D0F JUMP JUMPDEST SWAP1 POP SWAP2 SWAP1 POP JUMP JUMPDEST PUSH32 0x4974656D2073616C652068617320656E64656400000000000000000000000000 PUSH0 DUP3 ADD MSTORE POP JUMP JUMPDEST PUSH0 PUSH2 0x4D83 PUSH1 0x13 DUP4 PUSH2 0x4678 JUMP JUMPDEST SWAP2 POP PUSH2 0x4D8E DUP3 PUSH2 0x4D4F JUMP JUMPDEST PUSH1 0x20 DUP3 ADD SWAP1 POP SWAP2 SWAP1 POP JUMP JUMPDEST PUSH0 PUSH1 0x20 DUP3 ADD SWAP1 POP DUP2 DUP2 SUB PUSH0 DUP4 ADD MSTORE PUSH2 0x4DB0 DUP2 PUSH2 0x4D77 JUMP JUMPDEST SWAP1 POP SWAP2 SWAP1 POP JUMP JUMPDEST PUSH0 PUSH2 0x4DC1 DUP3 PUSH2 0x3C2D JUMP JUMPDEST SWAP2 POP PUSH2 0x4DCC DUP4 PUSH2 0x3C2D JUMP JUMPDEST SWAP3 POP DUP3 DUP3 MUL PUSH2 0x4DDA DUP2 PUSH2 0x3C2D JUMP JUMPDEST SWAP2 POP DUP3 DUP3 DIV DUP5 EQ DUP4 ISZERO OR PUSH2 0x4DF1 JUMPI PUSH2 0x4DF0 PUSH2 0x4618 JUMP JUMPDEST JUMPDEST POP SWAP3 SWAP2 POP POP JUMP JUMPDEST PUSH32 0x4E487B7100000000000000000000000000000000000000000000000000000000 PUSH0 MSTORE PUSH1 0x12 PUSH1 0x4 MSTORE PUSH1 0x24 PUSH0 REVERT JUMPDEST PUSH0 PUSH2 0x4E2F DUP3 PUSH2 0x3C2D JUMP JUMPDEST SWAP2 POP PUSH2 0x4E3A DUP4 PUSH2 0x3C2D JUMP JUMPDEST SWAP3 POP DUP3 PUSH2 0x4E4A JUMPI PUSH2 0x4E49 PUSH2 0x4DF8 JUMP JUMPDEST JUMPDEST DUP3 DUP3 DIV SWAP1 POP SWAP3 SWAP2 POP POP JUMP JUMPDEST PUSH0 PUSH1 0x40 DUP3 ADD SWAP1 POP PUSH2 0x4E68 PUSH0 DUP4 ADD DUP6 PUSH2 0x421F JUMP JUMPDEST PUSH2 0x4E75 PUSH1 0x20 DUP4 ADD DUP5 PUSH2 0x41F7 JUMP JUMPDEST SWAP4 SWAP3 POP POP POP JUMP JUMPDEST PUSH32 0x5072696365206D7573742062652067726561746572207468616E207A65726F00 PUSH0 DUP3 ADD MSTORE POP JUMP JUMPDEST PUSH0 PUSH2 0x4EB0 PUSH1 0x1F DUP4 PUSH2 0x4678 JUMP JUMPDEST SWAP2 POP PUSH2 0x4EBB DUP3 PUSH2 0x4E7C JUMP JUMPDEST PUSH1 0x20 DUP3 ADD SWAP1 POP SWAP2 SWAP1 POP JUMP JUMPDEST PUSH0 PUSH1 0x20 DUP3 ADD SWAP1 POP DUP2 DUP2 SUB PUSH0 DUP4 ADD MSTORE PUSH2 0x4EDD DUP2 PUSH2 0x4EA4 JUMP JUMPDEST SWAP1 POP SWAP2 SWAP1 POP JUMP JUMPDEST PUSH32 0x43616C6C6572206973206E6F7420746865206F776E6572206F6620746865204E PUSH0 DUP3 ADD MSTORE PUSH32 0x4654730000000000000000000000000000000000000000000000000000000000 PUSH1 0x20 DUP3 ADD MSTORE POP JUMP JUMPDEST PUSH0 PUSH2 0x4F3E PUSH1 0x23 DUP4 PUSH2 0x4678 JUMP JUMPDEST SWAP2 POP PUSH2 0x4F49 DUP3 PUSH2 0x4EE4 JUMP JUMPDEST PUSH1 0x40 DUP3 ADD SWAP1 POP SWAP2 SWAP1 POP JUMP JUMPDEST PUSH0 PUSH1 0x20 DUP3 ADD SWAP1 POP DUP2 DUP2 SUB PUSH0 DUP4 ADD MSTORE PUSH2 0x4F6B DUP2 PUSH2 0x4F32 JUMP JUMPDEST SWAP1 POP SWAP2 SWAP1 POP JUMP JUMPDEST PUSH32 0x4E6F20617661696C61626C65206974656D204944000000000000000000000000 PUSH0 DUP3 ADD MSTORE POP JUMP JUMPDEST PUSH0 PUSH2 0x4FA6 PUSH1 0x14 DUP4 PUSH2 0x4678 JUMP JUMPDEST SWAP2 POP PUSH2 0x4FB1 DUP3 PUSH2 0x4F72 JUMP JUMPDEST PUSH1 0x20 DUP3 ADD SWAP1 POP SWAP2 SWAP1 POP JUMP JUMPDEST PUSH0 PUSH1 0x20 DUP3 ADD SWAP1 POP DUP2 DUP2 SUB PUSH0 DUP4 ADD MSTORE PUSH2 0x4FD3 DUP2 PUSH2 0x4F9A JUMP JUMPDEST SWAP1 POP SWAP2 SWAP1 POP JUMP JUMPDEST PUSH0 PUSH2 0x4FEC PUSH2 0x4FE7 DUP5 PUSH2 0x424B JUMP JUMPDEST PUSH2 0x40BF JUMP JUMPDEST SWAP1 POP DUP3 DUP2 MSTORE PUSH1 0x20 DUP2 ADD DUP5 DUP5 DUP5 ADD GT ISZERO PUSH2 0x5008 JUMPI PUSH2 0x5007 PUSH2 0x4247 JUMP JUMPDEST JUMPDEST PUSH2 0x5013 DUP5 DUP3 DUP6 PUSH2 0x3D3F JUMP JUMPDEST POP SWAP4 SWAP3 POP POP POP JUMP JUMPDEST PUSH0 DUP3 PUSH1 0x1F DUP4 ADD SLT PUSH2 0x502F JUMPI PUSH2 0x502E PUSH2 0x405D JUMP JUMPDEST JUMPDEST DUP2 MLOAD PUSH2 0x503F DUP5 DUP3 PUSH1 0x20 DUP7 ADD PUSH2 0x4FDA JUMP JUMPDEST SWAP2 POP POP SWAP3 SWAP2 POP POP JUMP JUMPDEST PUSH0 PUSH1 0x20 DUP3 DUP5 SUB SLT ISZERO PUSH2 0x505D JUMPI PUSH2 0x505C PUSH2 0x3B5D JUMP JUMPDEST JUMPDEST PUSH0 DUP3 ADD MLOAD PUSH8 0xFFFFFFFFFFFFFFFF DUP2 GT ISZERO PUSH2 0x507A JUMPI PUSH2 0x5079 PUSH2 0x3B61 JUMP JUMPDEST JUMPDEST PUSH2 0x5086 DUP5 DUP3 DUP6 ADD PUSH2 0x501B JUMP JUMPDEST SWAP2 POP POP SWAP3 SWAP2 POP POP JUMP JUMPDEST PUSH0 DUP2 SWAP1 POP DUP2 PUSH0 MSTORE PUSH1 0x20 PUSH0 KECCAK256 SWAP1 POP SWAP2 SWAP1 POP JUMP JUMPDEST PUSH0 PUSH1 0x20 PUSH1 0x1F DUP4 ADD DIV SWAP1 POP SWAP2 SWAP1 POP JUMP JUMPDEST PUSH0 DUP3 DUP3 SHL SWAP1 POP SWAP3 SWAP2 POP POP JUMP JUMPDEST PUSH0 PUSH1 0x8 DUP4 MUL PUSH2 0x50EB PUSH32 0xFFFFFFFFFFFFFFFFFFFFFFFFFFFFFFFFFFFFFFFFFFFFFFFFFFFFFFFFFFFFFFFF DUP3 PUSH2 0x50B0 JUMP JUMPDEST PUSH2 0x50F5 DUP7 DUP4 PUSH2 0x50B0 JUMP JUMPDEST SWAP6 POP DUP1 NOT DUP5 AND SWAP4 POP DUP1 DUP7 AND DUP5 OR SWAP3 POP POP POP SWAP4 SWAP3 POP POP POP JUMP JUMPDEST PUSH0 DUP2 SWAP1 POP SWAP2 SWAP1 POP JUMP JUMPDEST PUSH0 PUSH2 0x5130 PUSH2 0x512B PUSH2 0x5126 DUP5 PUSH2 0x3C2D JUMP JUMPDEST PUSH2 0x510D JUMP JUMPDEST PUSH2 0x3C2D JUMP JUMPDEST SWAP1 POP SWAP2 SWAP1 POP JUMP JUMPDEST PUSH0 DUP2 SWAP1 POP SWAP2 SWAP1 POP JUMP JUMPDEST PUSH2 0x5149 DUP4 PUSH2 0x5116 JUMP JUMPDEST PUSH2 0x515D PUSH2 0x5155 DUP3 PUSH2 0x5137 JUMP JUMPDEST DUP5 DUP5 SLOAD PUSH2 0x50BC JUMP JUMPDEST DUP3 SSTORE POP POP POP POP JUMP JUMPDEST PUSH0 SWAP1 JUMP JUMPDEST PUSH2 0x5171 PUSH2 0x5165 JUMP JUMPDEST PUSH2 0x517C DUP2 DUP5 DUP5 PUSH2 0x5140 JUMP JUMPDEST POP POP POP JUMP JUMPDEST JUMPDEST DUP2 DUP2 LT ISZERO PUSH2 0x519F JUMPI PUSH2 0x5194 PUSH0 DUP3 PUSH2 0x5169 JUMP JUMPDEST PUSH1 0x1 DUP2 ADD SWAP1 POP PUSH2 0x5182 JUMP JUMPDEST POP POP JUMP JUMPDEST PUSH1 0x1F DUP3 GT ISZERO PUSH2 0x51E4 JUMPI PUSH2 0x51B5 DUP2 PUSH2 0x508F JUMP JUMPDEST PUSH2 0x51BE DUP5 PUSH2 0x50A1 JUMP JUMPDEST DUP2 ADD PUSH1 0x20 DUP6 LT ISZERO PUSH2 0x51CD JUMPI DUP2 SWAP1 POP JUMPDEST PUSH2 0x51E1 PUSH2 0x51D9 DUP6 PUSH2 0x50A1 JUMP JUMPDEST DUP4 ADD DUP3 PUSH2 0x5181 JUMP JUMPDEST POP POP JUMPDEST POP POP POP JUMP JUMPDEST PUSH0 DUP3 DUP3 SHR SWAP1 POP SWAP3 SWAP2 POP POP JUMP JUMPDEST PUSH0 PUSH2 0x5204 PUSH0 NOT DUP5 PUSH1 0x8 MUL PUSH2 0x51E9 JUMP JUMPDEST NOT DUP1 DUP4 AND SWAP2 POP POP SWAP3 SWAP2 POP POP JUMP JUMPDEST PUSH0 PUSH2 0x521C DUP4 DUP4 PUSH2 0x51F5 JUMP JUMPDEST SWAP2 POP DUP3 PUSH1 0x2 MUL DUP3 OR SWAP1 POP SWAP3 SWAP2 POP POP JUMP JUMPDEST PUSH2 0x5235 DUP3 PUSH2 0x3D25 JUMP JUMPDEST PUSH8 0xFFFFFFFFFFFFFFFF DUP2 GT ISZERO PUSH2 0x524E JUMPI PUSH2 0x524D PUSH2 0x4061 JUMP JUMPDEST JUMPDEST PUSH2 0x5258 DUP3 SLOAD PUSH2 0x471D JUMP JUMPDEST PUSH2 0x5263 DUP3 DUP3 DUP6 PUSH2 0x51A3 JUMP JUMPDEST PUSH0 PUSH1 0x20 SWAP1 POP PUSH1 0x1F DUP4 GT PUSH1 0x1 DUP2 EQ PUSH2 0x5294 JUMPI PUSH0 DUP5 ISZERO PUSH2 0x5282 JUMPI DUP3 DUP8 ADD MLOAD SWAP1 POP JUMPDEST PUSH2 0x528C DUP6 DUP3 PUSH2 0x5211 JUMP JUMPDEST DUP7 SSTORE POP PUSH2 0x52F3 JUMP JUMPDEST PUSH1 0x1F NOT DUP5 AND PUSH2 0x52A2 DUP7 PUSH2 0x508F JUMP JUMPDEST PUSH0 JUMPDEST DUP3 DUP2 LT ISZERO PUSH2 0x52C9 JUMPI DUP5 DUP10 ADD MLOAD DUP3 SSTORE PUSH1 0x1 DUP3 ADD SWAP2 POP PUSH1 0x20 DUP6 ADD SWAP5 POP PUSH1 0x20 DUP2 ADD SWAP1 POP PUSH2 0x52A4 JUMP JUMPDEST DUP7 DUP4 LT ISZERO PUSH2 0x52E6 JUMPI DUP5 DUP10 ADD MLOAD PUSH2 0x52E2 PUSH1 0x1F DUP10 AND DUP3 PUSH2 0x51F5 JUMP JUMPDEST DUP4 SSTORE POP JUMPDEST PUSH1 0x1 PUSH1 0x2 DUP9 MUL ADD DUP9 SSTORE POP POP POP JUMPDEST POP POP POP POP POP POP JUMP JUMPDEST PUSH0 DUP2 SWAP1 POP SWAP3 SWAP2 POP POP JUMP JUMPDEST PUSH2 0x530E DUP2 PUSH2 0x3C2D JUMP JUMPDEST DUP3 MSTORE POP POP JUMP JUMPDEST PUSH0 PUSH2 0x531F DUP4 DUP4 PUSH2 0x5305 JUMP JUMPDEST PUSH1 0x20 DUP4 ADD SWAP1 POP SWAP3 SWAP2 POP POP JUMP JUMPDEST PUSH0 PUSH2 0x5335 DUP3 PUSH2 0x3C54 JUMP JUMPDEST PUSH2 0x533F DUP2 DUP6 PUSH2 0x52FB JUMP JUMPDEST SWAP4 POP PUSH2 0x534A DUP4 PUSH2 0x3C6E JUMP JUMPDEST DUP1 PUSH0 JUMPDEST DUP4 DUP2 LT ISZERO PUSH2 0x537A JUMPI DUP2 MLOAD PUSH2 0x5361 DUP9 DUP3 PUSH2 0x5314 JUMP JUMPDEST SWAP8 POP PUSH2 0x536C DUP4 PUSH2 0x3C94 JUMP JUMPDEST SWAP3 POP POP PUSH1 0x1 DUP2 ADD SWAP1 POP PUSH2 0x534D JUMP JUMPDEST POP DUP6 SWAP4 POP POP POP POP SWAP3 SWAP2 POP POP JUMP JUMPDEST PUSH0 PUSH2 0x5392 DUP3 DUP5 PUSH2 0x532B JUMP JUMPDEST SWAP2 POP DUP2 SWAP1 POP SWAP3 SWAP2 POP POP JUMP JUMPDEST PUSH0 PUSH1 0xA0 DUP3 ADD SWAP1 POP PUSH2 0x53B0 PUSH0 DUP4 ADD DUP9 PUSH2 0x421F JUMP JUMPDEST PUSH2 0x53BD PUSH1 0x20 DUP4 ADD DUP8 PUSH2 0x41F7 JUMP JUMPDEST PUSH2 0x53CA PUSH1 0x40 DUP4 ADD DUP7 PUSH2 0x48F2 JUMP JUMPDEST PUSH2 0x53D7 PUSH1 0x60 DUP4 ADD DUP6 PUSH2 0x41F7 JUMP JUMPDEST PUSH2 0x53E4 PUSH1 0x80 DUP4 ADD DUP5 PUSH2 0x41F7 JUMP JUMPDEST SWAP7 SWAP6 POP POP POP POP POP POP JUMP JUMPDEST PUSH32 0x43616E6E6F74206368616E676520707269636520647572696E67206175637469 PUSH0 DUP3 ADD MSTORE PUSH32 0x6F6E207769746820616374697665206269647300000000000000000000000000 PUSH1 0x20 DUP3 ADD MSTORE POP JUMP JUMPDEST PUSH0 PUSH2 0x5448 PUSH1 0x33 DUP4 PUSH2 0x4678 JUMP JUMPDEST SWAP2 POP PUSH2 0x5453 DUP3 PUSH2 0x53EE JUMP JUMPDEST PUSH1 0x40 DUP3 ADD SWAP1 POP SWAP2 SWAP1 POP JUMP JUMPDEST PUSH0 PUSH1 0x20 DUP3 ADD SWAP1 POP DUP2 DUP2 SUB PUSH0 DUP4 ADD MSTORE PUSH2 0x5475 DUP2 PUSH2 0x543C JUMP JUMPDEST SWAP1 POP SWAP2 SWAP1 POP JUMP JUMPDEST PUSH32 0x4974656D206973206E6F7420666F722061756374696F6E000000000000000000 PUSH0 DUP3 ADD MSTORE POP JUMP JUMPDEST PUSH0 PUSH2 0x54B0 PUSH1 0x17 DUP4 PUSH2 0x4678 JUMP JUMPDEST SWAP2 POP PUSH2 0x54BB DUP3 PUSH2 0x547C JUMP JUMPDEST PUSH1 0x20 DUP3 ADD SWAP1 POP SWAP2 SWAP1 POP JUMP JUMPDEST PUSH0 PUSH1 0x20 DUP3 ADD SWAP1 POP DUP2 DUP2 SUB PUSH0 DUP4 ADD MSTORE PUSH2 0x54DD DUP2 PUSH2 0x54A4 JUMP JUMPDEST SWAP1 POP SWAP2 SWAP1 POP JUMP JUMPDEST PUSH32 0x41756374696F6E206973207374696C6C206F6E676F696E670000000000000000 PUSH0 DUP3 ADD MSTORE POP JUMP JUMPDEST PUSH0 PUSH2 0x5518 PUSH1 0x18 DUP4 PUSH2 0x4678 JUMP JUMPDEST SWAP2 POP PUSH2 0x5523 DUP3 PUSH2 0x54E4 JUMP JUMPDEST PUSH1 0x20 DUP3 ADD SWAP1 POP SWAP2 SWAP1 POP JUMP JUMPDEST PUSH0 PUSH1 0x20 DUP3 ADD SWAP1 POP DUP2 DUP2 SUB PUSH0 DUP4 ADD MSTORE PUSH2 0x5545 DUP2 PUSH2 0x550C JUMP JUMPDEST SWAP1 POP SWAP2 SWAP1 POP JUMP JUMPDEST PUSH0 PUSH2 0x5566 PUSH2 0x5561 PUSH2 0x555C DUP5 PUSH2 0x3B65 JUMP JUMPDEST PUSH2 0x510D JUMP JUMPDEST PUSH2 0x3B65 JUMP JUMPDEST SWAP1 POP SWAP2 SWAP1 POP JUMP JUMPDEST PUSH0 PUSH2 0x5577 DUP3 PUSH2 0x554C JUMP JUMPDEST SWAP1 POP SWAP2 SWAP1 POP JUMP JUMPDEST PUSH0 PUSH2 0x5588 DUP3 PUSH2 0x556D JUMP JUMPDEST SWAP1 POP SWAP2 SWAP1 POP JUMP JUMPDEST PUSH2 0x5598 DUP2 PUSH2 0x557E JUMP JUMPDEST DUP3 MSTORE POP POP JUMP JUMPDEST PUSH0 PUSH1 0x40 DUP3 ADD SWAP1 POP PUSH2 0x55B1 PUSH0 DUP4 ADD DUP6 PUSH2 0x558F JUMP JUMPDEST PUSH2 0x55BE PUSH1 0x20 DUP4 ADD DUP5 PUSH2 0x41F7 JUMP JUMPDEST SWAP4 SWAP3 POP POP POP JUMP JUMPDEST PUSH0 DUP2 SWAP1 POP SWAP2 SWAP1 POP JUMP JUMPDEST PUSH0 PUSH2 0x55E8 PUSH2 0x55E3 PUSH2 0x55DE DUP5 PUSH2 0x55C5 JUMP JUMPDEST PUSH2 0x510D JUMP JUMPDEST PUSH2 0x3C2D JUMP JUMPDEST SWAP1 POP SWAP2 SWAP1 POP JUMP JUMPDEST PUSH2 0x55F8 DUP2 PUSH2 0x55CE JUMP JUMPDEST DUP3 MSTORE POP POP JUMP JUMPDEST PUSH0 PUSH1 0x40 DUP3 ADD SWAP1 POP PUSH2 0x5611 PUSH0 DUP4 ADD DUP6 PUSH2 0x421F JUMP JUMPDEST PUSH2 0x561E PUSH1 0x20 DUP4 ADD DUP5 PUSH2 0x55EF JUMP JUMPDEST SWAP4 SWAP3 POP POP POP JUMP JUMPDEST PUSH32 0x496E76616C696420636F6E747261637420616464726573730000000000000000 PUSH0 DUP3 ADD MSTORE POP JUMP JUMPDEST PUSH0 PUSH2 0x5659 PUSH1 0x18 DUP4 PUSH2 0x4678 JUMP JUMPDEST SWAP2 POP PUSH2 0x5664 DUP3 PUSH2 0x5625 JUMP JUMPDEST PUSH1 0x20 DUP3 ADD SWAP1 POP SWAP2 SWAP1 POP JUMP JUMPDEST PUSH0 PUSH1 0x20 DUP3 ADD SWAP1 POP DUP2 DUP2 SUB PUSH0 DUP4 ADD MSTORE PUSH2 0x5686 DUP2 PUSH2 0x564D JUMP JUMPDEST SWAP1 POP SWAP2 SWAP1 POP JUMP JUMPDEST PUSH0 PUSH2 0x5697 DUP3 PUSH2 0x3D25 JUMP JUMPDEST PUSH2 0x56A1 DUP2 DUP6 PUSH2 0x4678 JUMP JUMPDEST SWAP4 POP PUSH2 0x56B1 DUP2 DUP6 PUSH1 0x20 DUP7 ADD PUSH2 0x3D3F JUMP JUMPDEST PUSH2 0x56BA DUP2 PUSH2 0x3D4D JUMP JUMPDEST DUP5 ADD SWAP2 POP POP SWAP3 SWAP2 POP POP JUMP JUMPDEST PUSH0 PUSH1 0x20 DUP3 ADD SWAP1 POP DUP2 DUP2 SUB PUSH0 DUP4 ADD MSTORE PUSH2 0x56DD DUP2 DUP5 PUSH2 0x568D JUMP JUMPDEST SWAP1 POP SWAP3 SWAP2 POP POP JUMP JUMPDEST PUSH0 DUP2 SWAP1 POP SWAP3 SWAP2 POP POP JUMP JUMPDEST PUSH0 PUSH2 0x56F9 DUP3 PUSH2 0x3D25 JUMP JUMPDEST PUSH2 0x5703 DUP2 DUP6 PUSH2 0x56E5 JUMP JUMPDEST SWAP4 POP PUSH2 0x5713 DUP2 DUP6 PUSH1 0x20 DUP7 ADD PUSH2 0x3D3F JUMP JUMPDEST DUP1 DUP5 ADD SWAP2 POP POP SWAP3 SWAP2 POP POP JUMP JUMPDEST PUSH0 PUSH2 0x572A DUP3 DUP5 PUSH2 0x56EF JUMP JUMPDEST SWAP2 POP DUP2 SWAP1 POP SWAP3 SWAP2 POP POP JUMP JUMPDEST PUSH0 DUP2 MLOAD SWAP1 POP SWAP2 SWAP1 POP JUMP JUMPDEST PUSH0 DUP2 SWAP1 POP SWAP3 SWAP2 POP POP JUMP JUMPDEST PUSH0 PUSH2 0x5753 DUP3 PUSH2 0x5735 JUMP JUMPDEST PUSH2 0x575D DUP2 DUP6 PUSH2 0x573F JUMP JUMPDEST SWAP4 POP PUSH2 0x576D DUP2 DUP6 PUSH1 0x20 DUP7 ADD PUSH2 0x3D3F JUMP JUMPDEST DUP1 DUP5 ADD SWAP2 POP POP SWAP3 SWAP2 POP POP JUMP JUMPDEST PUSH0 PUSH2 0x5784 DUP3 DUP5 PUSH2 0x5749 JUMP JUMPDEST SWAP2 POP DUP2 SWAP1 POP SWAP3 SWAP2 POP POP JUMP JUMPDEST PUSH32 0x4661696C656420746F2063616C6C20736D61727420636F6E7472616374000000 PUSH0 DUP3 ADD MSTORE POP JUMP JUMPDEST PUSH0 PUSH2 0x57C3 PUSH1 0x1D DUP4 PUSH2 0x4678 JUMP JUMPDEST SWAP2 POP PUSH2 0x57CE DUP3 PUSH2 0x578F JUMP JUMPDEST PUSH1 0x20 DUP3 ADD SWAP1 POP SWAP2 SWAP1 POP JUMP JUMPDEST PUSH0 PUSH1 0x20 DUP3 ADD SWAP1 POP DUP2 DUP2 SUB PUSH0 DUP4 ADD MSTORE PUSH2 0x57F0 DUP2 PUSH2 0x57B7 JUMP JUMPDEST SWAP1 POP SWAP2 SWAP1 POP JUMP JUMPDEST PUSH0 DUP2 SWAP1 POP SWAP2 SWAP1 POP JUMP JUMPDEST PUSH0 PUSH8 0xFFFFFFFFFFFFFFFF DUP3 AND SWAP1 POP SWAP2 SWAP1 POP JUMP JUMPDEST PUSH0 PUSH2 0x582D PUSH2 0x5828 PUSH2 0x5823 DUP5 PUSH2 0x57F7 JUMP JUMPDEST PUSH2 0x510D JUMP JUMPDEST PUSH2 0x5800 JUMP JUMPDEST SWAP1 POP SWAP2 SWAP1 POP JUMP JUMPDEST PUSH2 0x583D DUP2 PUSH2 0x5813 JUMP JUMPDEST DUP3 MSTORE POP POP JUMP JUMPDEST PUSH0 PUSH1 0x20 DUP3 ADD SWAP1 POP PUSH2 0x5856 PUSH0 DUP4 ADD DUP5 PUSH2 0x5834 JUMP JUMPDEST SWAP3 SWAP2 POP POP JUMP JUMPDEST PUSH32 0x5265656E7472616E637947756172643A207265656E7472616E742063616C6C00 PUSH0 DUP3 ADD MSTORE POP JUMP JUMPDEST PUSH0 PUSH2 0x5890 PUSH1 0x1F DUP4 PUSH2 0x4678 JUMP JUMPDEST SWAP2 POP PUSH2 0x589B DUP3 PUSH2 0x585C JUMP JUMPDEST PUSH1 0x20 DUP3 ADD SWAP1 POP SWAP2 SWAP1 POP JUMP JUMPDEST PUSH0 PUSH1 0x20 DUP3 ADD SWAP1 POP DUP2 DUP2 SUB PUSH0 DUP4 ADD MSTORE PUSH2 0x58BD DUP2 PUSH2 0x5884 JUMP JUMPDEST SWAP1 POP SWAP2 SWAP1 POP JUMP JUMPDEST PUSH32 0x4E487B7100000000000000000000000000000000000000000000000000000000 PUSH0 MSTORE PUSH1 0x31 PUSH1 0x4 MSTORE PUSH1 0x24 PUSH0 REVERT JUMPDEST PUSH0 PUSH32 0xFFFFFFFF00000000000000000000000000000000000000000000000000000000 DUP3 AND SWAP1 POP SWAP2 SWAP1 POP JUMP JUMPDEST PUSH2 0x5925 DUP2 PUSH2 0x58F1 JUMP JUMPDEST DUP3 MSTORE POP POP JUMP JUMPDEST PUSH0 PUSH1 0x20 DUP3 ADD SWAP1 POP PUSH2 0x593E PUSH0 DUP4 ADD DUP5 PUSH2 0x591C JUMP JUMPDEST SWAP3 SWAP2 POP POP JUMP JUMPDEST PUSH0 DUP2 MLOAD SWAP1 POP PUSH2 0x5952 DUP2 PUSH2 0x42F7 JUMP JUMPDEST SWAP3 SWAP2 POP POP JUMP JUMPDEST PUSH0 PUSH1 0x20 DUP3 DUP5 SUB SLT ISZERO PUSH2 0x596D JUMPI PUSH2 0x596C PUSH2 0x3B5D JUMP JUMPDEST JUMPDEST PUSH0 PUSH2 0x597A DUP5 DUP3 DUP6 ADD PUSH2 0x5944 JUMP JUMPDEST SWAP2 POP POP SWAP3 SWAP2 POP POP JUMP JUMPDEST PUSH0 PUSH1 0x60 DUP3 ADD SWAP1 POP PUSH2 0x5996 PUSH0 DUP4 ADD DUP7 PUSH2 0x421F JUMP JUMPDEST PUSH2 0x59A3 PUSH1 0x20 DUP4 ADD DUP6 PUSH2 0x421F JUMP JUMPDEST PUSH2 0x59B0 PUSH1 0x40 DUP4 ADD DUP5 PUSH2 0x41F7 JUMP JUMPDEST SWAP5 SWAP4 POP POP POP POP JUMP JUMPDEST PUSH0 PUSH2 0x59D2 PUSH2 0x59CD PUSH2 0x59C8 DUP5 PUSH2 0x57F7 JUMP JUMPDEST PUSH2 0x510D JUMP JUMPDEST PUSH2 0x3C2D JUMP JUMPDEST SWAP1 POP SWAP2 SWAP1 POP JUMP JUMPDEST PUSH2 0x59E2 DUP2 PUSH2 0x59B8 JUMP JUMPDEST DUP3 MSTORE POP POP JUMP JUMPDEST PUSH0 DUP3 DUP3 MSTORE PUSH1 0x20 DUP3 ADD SWAP1 POP SWAP3 SWAP2 POP POP JUMP JUMPDEST POP JUMP JUMPDEST PUSH0 PUSH2 0x5A06 PUSH0 DUP4 PUSH2 0x59E8 JUMP JUMPDEST SWAP2 POP PUSH2 0x5A11 DUP3 PUSH2 0x59F8 JUMP JUMPDEST PUSH0 DUP3 ADD SWAP1 POP SWAP2 SWAP1 POP JUMP JUMPDEST PUSH0 PUSH1 0xA0 DUP3 ADD SWAP1 POP PUSH2 0x5A2E PUSH0 DUP4 ADD DUP8 PUSH2 0x421F JUMP JUMPDEST PUSH2 0x5A3B PUSH1 0x20 DUP4 ADD DUP7 PUSH2 0x421F JUMP JUMPDEST PUSH2 0x5A48 PUSH1 0x40 DUP4 ADD DUP6 PUSH2 0x41F7 JUMP JUMPDEST PUSH2 0x5A55 PUSH1 0x60 DUP4 ADD DUP5 PUSH2 0x59D9 JUMP JUMPDEST DUP2 DUP2 SUB PUSH1 0x80 DUP4 ADD MSTORE PUSH2 0x5A66 DUP2 PUSH2 0x59FB JUMP JUMPDEST SWAP1 POP SWAP6 SWAP5 POP POP POP POP POP JUMP JUMPDEST PUSH32 0x556E737570706F72746564204E4654207374616E646172640000000000000000 PUSH0 DUP3 ADD MSTORE POP JUMP JUMPDEST PUSH0 PUSH2 0x5AA5 PUSH1 0x18 DUP4 PUSH2 0x4678 JUMP JUMPDEST SWAP2 POP PUSH2 0x5AB0 DUP3 PUSH2 0x5A71 JUMP JUMPDEST PUSH1 0x20 DUP3 ADD SWAP1 POP SWAP2 SWAP1 POP JUMP JUMPDEST PUSH0 PUSH1 0x20 DUP3 ADD SWAP1 POP DUP2 DUP2 SUB PUSH0 DUP4 ADD MSTORE PUSH2 0x5AD2 DUP2 PUSH2 0x5A99 JUMP JUMPDEST SWAP1 POP SWAP2 SWAP1 POP JUMP JUMPDEST PUSH0 DUP2 MLOAD SWAP1 POP PUSH2 0x5AE7 DUP2 PUSH2 0x3B95 JUMP JUMPDEST SWAP3 SWAP2 POP POP JUMP JUMPDEST PUSH0 PUSH1 0x20 DUP3 DUP5 SUB SLT ISZERO PUSH2 0x5B02 JUMPI PUSH2 0x5B01 PUSH2 0x3B5D JUMP JUMPDEST JUMPDEST PUSH0 PUSH2 0x5B0F DUP5 DUP3 DUP6 ADD PUSH2 0x5AD9 JUMP JUMPDEST SWAP2 POP POP SWAP3 SWAP2 POP POP JUMP JUMPDEST PUSH0 DUP2 MLOAD SWAP1 POP PUSH2 0x5B26 DUP2 PUSH2 0x4008 JUMP JUMPDEST SWAP3 SWAP2 POP POP JUMP JUMPDEST PUSH0 PUSH1 0x20 DUP3 DUP5 SUB SLT ISZERO PUSH2 0x5B41 JUMPI PUSH2 0x5B40 PUSH2 0x3B5D JUMP JUMPDEST JUMPDEST PUSH0 PUSH2 0x5B4E DUP5 DUP3 DUP6 ADD PUSH2 0x5B18 JUMP JUMPDEST SWAP2 POP POP SWAP3 SWAP2 POP POP JUMP INVALID LOG2 PUSH5 0x6970667358 0x22 SLT KECCAK256 RETURNDATACOPY DUP7 SWAP9 DUP11 ORIGIN 0xC7 DUP4 0xB4 CODECOPY 0xAE 0xDE 0xB6 DUP7 COINBASE LOG1 GT PREVRANDAO PUSH29 0x404996BC203413AB69E369C4FCC164736F6C6343000819003300000000 "
		},
		"gasEstimates": {
			"creation": {
				"codeDepositCost": "4687400",
				"executionCost": "5496",
				"totalCost": "4692896"
			},
			"external": {
				"addMarketItem(address,uint256[],uint256,string,bool,uint256,uint256)": "infinite",
				"addSmartContractSlot(address,string,string)": "infinite",
				"bid(uint256)": "infinite",
				"changeItemPrice(uint256,uint256)": "infinite",
				"endAuction(uint256)": "infinite",
				"getAllActiveItems()": "infinite",
				"getItemId(address,uint256[])": "infinite",
				"getMarketItem(uint256)": "infinite",
				"getMarketItemsBySeller(address)": "infinite",
				"initialize(uint256)": "infinite",
				"owner()": "2612",
				"purchaseMarketItem(uint256)": "infinite",
				"removeMarketItem(uint256)": "infinite",
				"renounceOwnership()": "infinite",
				"swapSaleorAuction(uint256)": "infinite",
				"transferOwnership(address)": "infinite",
				"withdraw()": "infinite"
			},
			"internal": {
				"_areNftOwners(address,uint256[] memory,address)": "infinite",
				"_compareTokenIds(uint256[] memory,uint256[] memory)": "infinite",
				"_removeActiveMarketItemId(uint256)": "infinite",
				"_transferNFT(address,uint256[] memory,address,address)": "infinite",
				"getAvailableItemId()": "infinite"
			}
		},
		"methodIdentifiers": {
			"addMarketItem(address,uint256[],uint256,string,bool,uint256,uint256)": "a48216e3",
			"addSmartContractSlot(address,string,string)": "e2413c0e",
			"bid(uint256)": "454a2ab3",
			"changeItemPrice(uint256,uint256)": "a7b19424",
			"endAuction(uint256)": "b9a2de3a",
			"getAllActiveItems()": "704dd580",
			"getItemId(address,uint256[])": "73413564",
			"getMarketItem(uint256)": "c7be7a49",
			"getMarketItemsBySeller(address)": "023d20b0",
			"initialize(uint256)": "fe4b84df",
			"owner()": "8da5cb5b",
			"purchaseMarketItem(uint256)": "8c77b5b7",
			"removeMarketItem(uint256)": "7fb770cb",
			"renounceOwnership()": "715018a6",
			"swapSaleorAuction(uint256)": "21d02753",
			"transferOwnership(address)": "f2fde38b",
			"withdraw()": "3ccfd60b"
		}
	},
	"abi": [
		{
			"inputs": [],
			"name": "InvalidInitialization",
			"type": "error"
		},
		{
			"inputs": [],
			"name": "NotInitializing",
			"type": "error"
		},
		{
			"inputs": [
				{
					"internalType": "address",
					"name": "owner",
					"type": "address"
				}
			],
			"name": "OwnableInvalidOwner",
			"type": "error"
		},
		{
			"inputs": [
				{
					"internalType": "address",
					"name": "account",
					"type": "address"
				}
			],
			"name": "OwnableUnauthorizedAccount",
			"type": "error"
		},
		{
			"anonymous": false,
			"inputs": [
				{
					"indexed": true,
					"internalType": "uint256",
					"name": "auctionId",
					"type": "uint256"
				},
				{
					"indexed": true,
					"internalType": "address",
					"name": "nftContract",
					"type": "address"
				},
				{
					"indexed": true,
					"internalType": "uint256[]",
					"name": "tokenIds",
					"type": "uint256[]"
				},
				{
					"indexed": false,
					"internalType": "uint256",
					"name": "startPrice",
					"type": "uint256"
				},
				{
					"indexed": false,
					"internalType": "uint256",
					"name": "duration",
					"type": "uint256"
				}
			],
			"name": "AuctionCreated",
			"type": "event"
		},
		{
			"anonymous": false,
			"inputs": [
				{
					"indexed": true,
					"internalType": "uint256",
					"name": "auctionId",
					"type": "uint256"
				},
				{
					"indexed": false,
					"internalType": "address",
					"name": "winner",
					"type": "address"
				},
				{
					"indexed": false,
					"internalType": "uint256",
					"name": "amount",
					"type": "uint256"
				}
			],
			"name": "AuctionEnded",
			"type": "event"
		},
		{
			"anonymous": false,
			"inputs": [
				{
					"indexed": true,
					"internalType": "uint256",
					"name": "auctionId",
					"type": "uint256"
				},
				{
					"indexed": true,
					"internalType": "address",
					"name": "bidder",
					"type": "address"
				},
				{
					"indexed": false,
					"internalType": "uint256",
					"name": "amount",
					"type": "uint256"
				}
			],
			"name": "BidPlaced",
			"type": "event"
		},
		{
			"anonymous": false,
			"inputs": [
				{
					"indexed": false,
					"internalType": "uint256",
					"name": "itemId",
					"type": "uint256"
				},
				{
					"indexed": false,
					"internalType": "bool",
					"name": "isAuction",
					"type": "bool"
				}
			],
			"name": "ChangeSaleorAuction",
			"type": "event"
		},
		{
			"anonymous": false,
			"inputs": [
				{
					"indexed": false,
					"internalType": "uint64",
					"name": "version",
					"type": "uint64"
				}
			],
			"name": "Initialized",
			"type": "event"
		},
		{
			"anonymous": false,
			"inputs": [
				{
					"indexed": true,
					"internalType": "uint256",
					"name": "itemId",
					"type": "uint256"
				},
				{
					"indexed": true,
					"internalType": "address",
					"name": "nftContract",
					"type": "address"
				},
				{
					"indexed": true,
					"internalType": "uint256[]",
					"name": "tokenIds",
					"type": "uint256[]"
				},
				{
					"indexed": false,
					"internalType": "address",
					"name": "seller",
					"type": "address"
				},
				{
					"indexed": false,
					"internalType": "uint256",
					"name": "price",
					"type": "uint256"
				},
				{
					"indexed": false,
					"internalType": "bool",
					"name": "isAuction",
					"type": "bool"
				},
				{
					"indexed": false,
					"internalType": "uint256",
					"name": "startTime",
					"type": "uint256"
				},
				{
					"indexed": false,
					"internalType": "uint256",
					"name": "endTime",
					"type": "uint256"
				}
			],
			"name": "MarketItemAdded",
			"type": "event"
		},
		{
			"anonymous": false,
			"inputs": [
				{
					"indexed": true,
					"internalType": "uint256",
					"name": "itemId",
					"type": "uint256"
				},
				{
					"indexed": false,
					"internalType": "address",
					"name": "buyer",
					"type": "address"
				},
				{
					"indexed": false,
					"internalType": "uint256",
					"name": "price",
					"type": "uint256"
				}
			],
			"name": "MarketItemPurchased",
			"type": "event"
		},
		{
			"anonymous": false,
			"inputs": [
				{
					"indexed": true,
					"internalType": "uint256",
					"name": "itemId",
					"type": "uint256"
				}
			],
			"name": "MarketItemRemoved",
			"type": "event"
		},
		{
			"anonymous": false,
			"inputs": [
				{
					"indexed": true,
					"internalType": "address",
					"name": "previousOwner",
					"type": "address"
				},
				{
					"indexed": true,
					"internalType": "address",
					"name": "newOwner",
					"type": "address"
				}
			],
			"name": "OwnershipTransferred",
			"type": "event"
		},
		{
			"inputs": [
				{
					"internalType": "address",
					"name": "nftContract",
					"type": "address"
				},
				{
					"internalType": "uint256[]",
					"name": "tokenIds",
					"type": "uint256[]"
				},
				{
					"internalType": "uint256",
					"name": "price",
					"type": "uint256"
				},
				{
					"internalType": "string",
					"name": "description",
					"type": "string"
				},
				{
					"internalType": "bool",
					"name": "isAuction",
					"type": "bool"
				},
				{
					"internalType": "uint256",
					"name": "startTime",
					"type": "uint256"
				},
				{
					"internalType": "uint256",
					"name": "endTime",
					"type": "uint256"
				}
			],
			"name": "addMarketItem",
			"outputs": [
				{
					"internalType": "uint256",
					"name": "",
					"type": "uint256"
				}
			],
			"stateMutability": "nonpayable",
			"type": "function"
		},
		{
			"inputs": [
				{
					"internalType": "address",
					"name": "smartContract",
					"type": "address"
				},
				{
					"internalType": "string",
					"name": "functionName",
					"type": "string"
				},
				{
					"internalType": "string",
					"name": "parameters",
					"type": "string"
				}
			],
			"name": "addSmartContractSlot",
			"outputs": [],
			"stateMutability": "nonpayable",
			"type": "function"
		},
		{
			"inputs": [
				{
					"internalType": "uint256",
					"name": "itemId",
					"type": "uint256"
				}
			],
			"name": "bid",
			"outputs": [],
			"stateMutability": "payable",
			"type": "function"
		},
		{
			"inputs": [
				{
					"internalType": "uint256",
					"name": "itemId",
					"type": "uint256"
				},
				{
					"internalType": "uint256",
					"name": "price",
					"type": "uint256"
				}
			],
			"name": "changeItemPrice",
			"outputs": [],
			"stateMutability": "nonpayable",
			"type": "function"
		},
		{
			"inputs": [
				{
					"internalType": "uint256",
					"name": "itemId",
					"type": "uint256"
				}
			],
			"name": "endAuction",
			"outputs": [],
			"stateMutability": "nonpayable",
			"type": "function"
		},
		{
			"inputs": [],
			"name": "getAllActiveItems",
			"outputs": [
				{
					"components": [
						{
							"internalType": "bool",
							"name": "isValid",
							"type": "bool"
						},
						{
							"internalType": "uint256",
							"name": "itemId",
							"type": "uint256"
						},
						{
							"internalType": "address",
							"name": "nftContract",
							"type": "address"
						},
						{
							"internalType": "uint256[]",
							"name": "tokenIds",
							"type": "uint256[]"
						},
						{
							"internalType": "string[]",
							"name": "tokenURIs",
							"type": "string[]"
						},
						{
							"internalType": "address payable",
							"name": "seller",
							"type": "address"
						},
						{
							"internalType": "address payable",
							"name": "tempOwner",
							"type": "address"
						},
						{
							"internalType": "uint256",
							"name": "price",
							"type": "uint256"
						},
						{
							"internalType": "string",
							"name": "description",
							"type": "string"
						},
						{
							"internalType": "bool",
							"name": "isAuction",
							"type": "bool"
						},
						{
							"internalType": "uint256",
							"name": "startTime",
							"type": "uint256"
						},
						{
							"internalType": "uint256",
							"name": "endTime",
							"type": "uint256"
						}
					],
					"internalType": "struct Marketplace.MarketItem[]",
					"name": "",
					"type": "tuple[]"
				}
			],
			"stateMutability": "view",
			"type": "function"
		},
		{
			"inputs": [
				{
					"internalType": "address",
					"name": "nftContract",
					"type": "address"
				},
				{
					"internalType": "uint256[]",
					"name": "tokenIds",
					"type": "uint256[]"
				}
			],
			"name": "getItemId",
			"outputs": [
				{
					"internalType": "uint256",
					"name": "",
					"type": "uint256"
				}
			],
			"stateMutability": "view",
			"type": "function"
		},
		{
			"inputs": [
				{
					"internalType": "uint256",
					"name": "itemId",
					"type": "uint256"
				}
			],
			"name": "getMarketItem",
			"outputs": [
				{
					"components": [
						{
							"internalType": "bool",
							"name": "isValid",
							"type": "bool"
						},
						{
							"internalType": "uint256",
							"name": "itemId",
							"type": "uint256"
						},
						{
							"internalType": "address",
							"name": "nftContract",
							"type": "address"
						},
						{
							"internalType": "uint256[]",
							"name": "tokenIds",
							"type": "uint256[]"
						},
						{
							"internalType": "string[]",
							"name": "tokenURIs",
							"type": "string[]"
						},
						{
							"internalType": "address payable",
							"name": "seller",
							"type": "address"
						},
						{
							"internalType": "address payable",
							"name": "tempOwner",
							"type": "address"
						},
						{
							"internalType": "uint256",
							"name": "price",
							"type": "uint256"
						},
						{
							"internalType": "string",
							"name": "description",
							"type": "string"
						},
						{
							"internalType": "bool",
							"name": "isAuction",
							"type": "bool"
						},
						{
							"internalType": "uint256",
							"name": "startTime",
							"type": "uint256"
						},
						{
							"internalType": "uint256",
							"name": "endTime",
							"type": "uint256"
						}
					],
					"internalType": "struct Marketplace.MarketItem",
					"name": "",
					"type": "tuple"
				}
			],
			"stateMutability": "view",
			"type": "function"
		},
		{
			"inputs": [
				{
					"internalType": "address",
					"name": "seller",
					"type": "address"
				}
			],
			"name": "getMarketItemsBySeller",
			"outputs": [
				{
					"components": [
						{
							"internalType": "bool",
							"name": "isValid",
							"type": "bool"
						},
						{
							"internalType": "uint256",
							"name": "itemId",
							"type": "uint256"
						},
						{
							"internalType": "address",
							"name": "nftContract",
							"type": "address"
						},
						{
							"internalType": "uint256[]",
							"name": "tokenIds",
							"type": "uint256[]"
						},
						{
							"internalType": "string[]",
							"name": "tokenURIs",
							"type": "string[]"
						},
						{
							"internalType": "address payable",
							"name": "seller",
							"type": "address"
						},
						{
							"internalType": "address payable",
							"name": "tempOwner",
							"type": "address"
						},
						{
							"internalType": "uint256",
							"name": "price",
							"type": "uint256"
						},
						{
							"internalType": "string",
							"name": "description",
							"type": "string"
						},
						{
							"internalType": "bool",
							"name": "isAuction",
							"type": "bool"
						},
						{
							"internalType": "uint256",
							"name": "startTime",
							"type": "uint256"
						},
						{
							"internalType": "uint256",
							"name": "endTime",
							"type": "uint256"
						}
					],
					"internalType": "struct Marketplace.MarketItem[]",
					"name": "",
					"type": "tuple[]"
				}
			],
			"stateMutability": "view",
			"type": "function"
		},
		{
			"inputs": [
				{
					"internalType": "uint256",
					"name": "_commissionPercent",
					"type": "uint256"
				}
			],
			"name": "initialize",
			"outputs": [],
			"stateMutability": "nonpayable",
			"type": "function"
		},
		{
			"inputs": [],
			"name": "owner",
			"outputs": [
				{
					"internalType": "address",
					"name": "",
					"type": "address"
				}
			],
			"stateMutability": "view",
			"type": "function"
		},
		{
			"inputs": [
				{
					"internalType": "uint256",
					"name": "itemId",
					"type": "uint256"
				}
			],
			"name": "purchaseMarketItem",
			"outputs": [],
			"stateMutability": "payable",
			"type": "function"
		},
		{
			"inputs": [
				{
					"internalType": "uint256",
					"name": "itemId",
					"type": "uint256"
				}
			],
			"name": "removeMarketItem",
			"outputs": [],
			"stateMutability": "nonpayable",
			"type": "function"
		},
		{
			"inputs": [],
			"name": "renounceOwnership",
			"outputs": [],
			"stateMutability": "nonpayable",
			"type": "function"
		},
		{
			"inputs": [
				{
					"internalType": "uint256",
					"name": "itemId",
					"type": "uint256"
				}
			],
			"name": "swapSaleorAuction",
			"outputs": [],
			"stateMutability": "nonpayable",
			"type": "function"
		},
		{
			"inputs": [
				{
					"internalType": "address",
					"name": "newOwner",
					"type": "address"
				}
			],
			"name": "transferOwnership",
			"outputs": [],
			"stateMutability": "nonpayable",
			"type": "function"
		},
		{
			"inputs": [],
			"name": "withdraw",
			"outputs": [],
			"stateMutability": "nonpayable",
			"type": "function"
		}
	]
}