{
	"data": {
		"bytecode": {
			"linkReferences": {},
			"object": "6080604052348015600e575f80fd5b50615c948061001c5f395ff3fe60806040526004361061011e575f3560e01c80638da5cb5b1161009f578063e2413c0e11610063578063e2413c0e14610356578063eca12a1c1461037e578063f2fde38b146103bb578063f92aa57f146103e3578063ffc9896b1461040d5761011e565b80638da5cb5b1461028c57806399580f30146102b6578063a9b4d919146102de578063b4988fd014610306578063b7f131281461032e5761011e565b8063704dd580116100e6578063704dd580146101e0578063715018a61461020a5780637fb770cb14610220578063813ee1d1146102485780638c77b5b7146102705761011e565b80630eaaf4c8146101225780632642734a1461014a5780633ccfd60b146101725780634081db5114610188578063454a2ab3146101c4575b5f80fd5b34801561012d575f80fd5b5061014860048036038101906101439190613ce0565b610449565b005b348015610155575f80fd5b50610170600480360381019061016b9190613d40565b610809565b005b34801561017d575f80fd5b50610186610ab9565b005b348015610193575f80fd5b506101ae60048036038101906101a99190613dfe565b610b67565b6040516101bb9190613e38565b60405180910390f35b6101de60048036038101906101d99190613ce0565b610b7c565b005b3480156101eb575f80fd5b506101f4610f57565b60405161020191906141ea565b60405180910390f35b348015610215575f80fd5b5061021e6112aa565b005b34801561022b575f80fd5b5061024660048036038101906102419190613ce0565b6112bd565b005b348015610253575f80fd5b5061026e6004803603810190610269919061420a565b6114dc565b005b61028a60048036038101906102859190613ce0565b61152f565b005b348015610297575f80fd5b506102a061193d565b6040516102ad9190614257565b60405180910390f35b3480156102c1575f80fd5b506102dc60048036038101906102d791906143b0565b611972565b005b3480156102e9575f80fd5b5061030460048036038101906102ff91906144f3565b61225c565b005b348015610311575f80fd5b5061032c6004803603810190610327919061457b565b612449565b005b348015610339575f80fd5b50610354600480360381019061034f91906145cb565b612624565b005b348015610361575f80fd5b5061037c600480360381019061037791906144f3565b6128c8565b005b348015610389575f80fd5b506103a4600480360381019061039f9190613ce0565b612a74565b6040516103b292919061469b565b60405180910390f35b3480156103c6575f80fd5b506103e160048036038101906103dc9190613dfe565b612ba0565b005b3480156103ee575f80fd5b506103f7612c24565b6040516104049190614257565b60405180910390f35b348015610418575f80fd5b50610433600480360381019061042e9190613dfe565b612c49565b6040516104409190614807565b60405180910390f35b8060385f8281526020019081526020015f205f015f9054906101000a900460ff166104a9576040517f08c379a00000000000000000000000000000000000000000000000000000000081526004016104a090614871565b60405180910390fd5b6104b1612f07565b5f60385f8481526020019081526020015f209050806008015f9054906101000a900460ff16610515576040517f08c379a000000000000000000000000000000000000000000000000000000000815260040161050c906148d9565b60405180910390fd5b8060090154421161055b576040517f08c379a000000000000000000000000000000000000000000000000000000000815260040161055290614941565b60405180910390fd5b5f815f015f6101000a81548160ff02191690831515021790555061057e83612f54565b6105878361300f565b6105cc816005015f9054906101000a900473ffffffffffffffffffffffffffffffffffffffff1660076064866105bd919061498c565b6105c791906149cd565b613159565b806005015f9054906101000a900473ffffffffffffffffffffffffffffffffffffffff1673ffffffffffffffffffffffffffffffffffffffff16816006015f9054906101000a900473ffffffffffffffffffffffffffffffffffffffff1673ffffffffffffffffffffffffffffffffffffffff161461079b57806005015f9054906101000a900473ffffffffffffffffffffffffffffffffffffffff1673ffffffffffffffffffffffffffffffffffffffff166108fc606460345460646106939190614a00565b84600701546106a2919061498c565b6106ac9190614a60565b90811502906040515f60405180830381858888f193505050501580156106d4573d5f803e3d5ffd5b5061079a816002015f9054906101000a900473ffffffffffffffffffffffffffffffffffffffff168260030180548060200260200160405190810160405280929190818152602001828054801561074857602002820191905f5260205f20905b815481526020019060010190808311610734575b5050505050836005015f9054906101000a900473ffffffffffffffffffffffffffffffffffffffff16846006015f9054906101000a900473ffffffffffffffffffffffffffffffffffffffff16613254565b5b827f14a336eb4d7d76e62b2b4fbdd7e2fe6df1ae52caedbcfa226ed2ac4d985dce07826006015f9054906101000a900473ffffffffffffffffffffffffffffffffffffffff1683600701546040516107f4929190614a90565b60405180910390a250610805613517565b5050565b833373ffffffffffffffffffffffffffffffffffffffff1660385f8381526020019081526020015f206005015f9054906101000a900473ffffffffffffffffffffffffffffffffffffffff1673ffffffffffffffffffffffffffffffffffffffff16146108ab576040517f08c379a00000000000000000000000000000000000000000000000000000000081526004016108a290614b27565b60405180910390fd5b8460385f8281526020019081526020015f205f015f9054906101000a900460ff1661090b576040517f08c379a000000000000000000000000000000000000000000000000000000000815260040161090290614871565b60405180910390fd5b610913612f07565b5f60385f8881526020019081526020015f209050806005015f9054906101000a900473ffffffffffffffffffffffffffffffffffffffff1673ffffffffffffffffffffffffffffffffffffffff16816006015f9054906101000a900473ffffffffffffffffffffffffffffffffffffffff1673ffffffffffffffffffffffffffffffffffffffff16146109db576040517f08c379a00000000000000000000000000000000000000000000000000000000081526004016109d290614bb5565b60405180910390fd5b5f8511610a1d576040517f08c379a0000000000000000000000000000000000000000000000000000000008152600401610a1490614c1d565b60405180910390fd5b85816008015f6101000a81548160ff021916908315150217905550848160070181905550838160090181905550610a6c336005600a8a610a5d919061498c565b610a6791906149cd565b613159565b867f3f64122b54602716f35a4d945015fa5b103d1faa27671afc72422c8e6cf9f85b878787604051610aa093929190614c4a565b60405180910390a250610ab1613517565b505050505050565b5f4790505f8111610aff576040517f08c379a0000000000000000000000000000000000000000000000000000000008152600401610af690614cc9565b60405180910390fd5b60335f9054906101000a900473ffffffffffffffffffffffffffffffffffffffff1673ffffffffffffffffffffffffffffffffffffffff166108fc8290811502906040515f60405180830381858888f19350505050158015610b63573d5f803e3d5ffd5b5050565b6039602052805f5260405f205f915090505481565b8060385f8281526020019081526020015f205f015f9054906101000a900460ff16610bdc576040517f08c379a0000000000000000000000000000000000000000000000000000000008152600401610bd390614871565b60405180910390fd5b610be4612f07565b5f60385f8481526020019081526020015f209050806008015f9054906101000a900460ff16610c48576040517f08c379a0000000000000000000000000000000000000000000000000000000008152600401610c3f90614d31565b60405180910390fd5b8060090154421115610c8f576040517f08c379a0000000000000000000000000000000000000000000000000000000008152600401610c8690614d99565b60405180910390fd5b42421015610cd2576040517f08c379a0000000000000000000000000000000000000000000000000000000008152600401610cc990614e01565b60405180910390fd5b80600701543411610d18576040517f08c379a0000000000000000000000000000000000000000000000000000000008152600401610d0f90614e8f565b60405180910390fd5b806005015f9054906101000a900473ffffffffffffffffffffffffffffffffffffffff1673ffffffffffffffffffffffffffffffffffffffff163373ffffffffffffffffffffffffffffffffffffffff1603610da9576040517f08c379a0000000000000000000000000000000000000000000000000000000008152600401610da090614ef7565b60405180910390fd5b806005015f9054906101000a900473ffffffffffffffffffffffffffffffffffffffff1673ffffffffffffffffffffffffffffffffffffffff16816006015f9054906101000a900473ffffffffffffffffffffffffffffffffffffffff1673ffffffffffffffffffffffffffffffffffffffff1614610e8e57806006015f9054906101000a900473ffffffffffffffffffffffffffffffffffffffff1673ffffffffffffffffffffffffffffffffffffffff166108fc826007015490811502906040515f60405180830381858888f19350505050158015610e8c573d5f803e3d5ffd5b505b34816007018190555033816006015f6101000a81548173ffffffffffffffffffffffffffffffffffffffff021916908373ffffffffffffffffffffffffffffffffffffffff160217905550610efb336004600a86610eec919061498c565b610ef691906149cd565b613159565b3373ffffffffffffffffffffffffffffffffffffffff16837f897645643062f7e221aec187272e76020e3832294b4bf87b8f683c4e3ef8aa6d34604051610f429190613e38565b60405180910390a350610f53613517565b5050565b60605f60328054905067ffffffffffffffff811115610f7957610f78614274565b5b604051908082528060200260200182016040528015610fb257816020015b610f9f613abf565b815260200190600190039081610f975790505b5090505f5b6032805490508110156112a25760385f60328381548110610fdb57610fda614f15565b5b905f5260205f20015481526020019081526020015f20604051806101400160405290815f82015f9054906101000a900460ff1615151515815260200160018201548152602001600282015f9054906101000a900473ffffffffffffffffffffffffffffffffffffffff1673ffffffffffffffffffffffffffffffffffffffff1673ffffffffffffffffffffffffffffffffffffffff168152602001600382018054806020026020016040519081016040528092919081815260200182805480156110c257602002820191905f5260205f20905b8154815260200190600101908083116110ae575b5050505050815260200160048201805480602002602001604051908101604052809291908181526020015f905b82821015611197578382905f5260205f2001805461110c90614f6f565b80601f016020809104026020016040519081016040528092919081815260200182805461113890614f6f565b80156111835780601f1061115a57610100808354040283529160200191611183565b820191905f5260205f20905b81548152906001019060200180831161116657829003601f168201915b5050505050815260200190600101906110ef565b505050508152602001600582015f9054906101000a900473ffffffffffffffffffffffffffffffffffffffff1673ffffffffffffffffffffffffffffffffffffffff1673ffffffffffffffffffffffffffffffffffffffff168152602001600682015f9054906101000a900473ffffffffffffffffffffffffffffffffffffffff1673ffffffffffffffffffffffffffffffffffffffff1673ffffffffffffffffffffffffffffffffffffffff16815260200160078201548152602001600882015f9054906101000a900460ff1615151515815260200160098201548152505082828151811061128a57611289614f15565b5b60200260200101819052508080600101915050610fb7565b508091505090565b6112b2613520565b6112bb5f6135a7565b565b803373ffffffffffffffffffffffffffffffffffffffff1660385f8381526020019081526020015f206005015f9054906101000a900473ffffffffffffffffffffffffffffffffffffffff1673ffffffffffffffffffffffffffffffffffffffff161461135f576040517f08c379a000000000000000000000000000000000000000000000000000000000815260040161135690614b27565b60405180910390fd5b8160385f8281526020019081526020015f205f015f9054906101000a900460ff166113bf576040517f08c379a00000000000000000000000000000000000000000000000000000000081526004016113b690614871565b60405180910390fd5b5f60385f8581526020019081526020015f2090503373ffffffffffffffffffffffffffffffffffffffff16816006015f9054906101000a900473ffffffffffffffffffffffffffffffffffffffff1673ffffffffffffffffffffffffffffffffffffffff1614611464576040517f08c379a000000000000000000000000000000000000000000000000000000000815260040161145b90614fe9565b60405180910390fd5b5f815f015f6101000a81548160ff02191690831515021790555061148784612f54565b6114a9336006600a8761149a919061498c565b6114a491906149cd565b613159565b837ff4db963b540739a72591b5640b5388b95bffcaf184f3730c4a5fae88d9996b4e60405160405180910390a250505050565b6114e4613520565b816034819055508060335f6101000a81548173ffffffffffffffffffffffffffffffffffffffff021916908373ffffffffffffffffffffffffffffffffffffffff1602179055505050565b8060385f8281526020019081526020015f205f015f9054906101000a900460ff1661158f576040517f08c379a000000000000000000000000000000000000000000000000000000000815260040161158690614871565b60405180910390fd5b611597612f07565b5f60385f8481526020019081526020015f209050806008015f9054906101000a900460ff16156115fc576040517f08c379a00000000000000000000000000000000000000000000000000000000081526004016115f390615051565b60405180910390fd5b8060070154341015611643576040517f08c379a000000000000000000000000000000000000000000000000000000000815260040161163a906150df565b60405180910390fd5b806009015442111561168a576040517f08c379a000000000000000000000000000000000000000000000000000000000815260040161168190615147565b60405180910390fd5b5f815f015f6101000a81548160ff021916908315150217905550806005015f9054906101000a900473ffffffffffffffffffffffffffffffffffffffff1673ffffffffffffffffffffffffffffffffffffffff166108fc606460345460646116f29190614a00565b8460070154611701919061498c565b61170b9190614a60565b90811502906040515f60405180830381858888f19350505050158015611733573d5f803e3d5ffd5b506117d6816002015f9054906101000a900473ffffffffffffffffffffffffffffffffffffffff16826003018054806020026020016040519081016040528092919081815260200182805480156117a757602002820191905f5260205f20905b815481526020019060010190808311611793575b5050505050836005015f9054906101000a900473ffffffffffffffffffffffffffffffffffffffff1633613254565b33816006015f6101000a81548173ffffffffffffffffffffffffffffffffffffffff021916908373ffffffffffffffffffffffffffffffffffffffff160217905550603a5f60395f3373ffffffffffffffffffffffffffffffffffffffff1673ffffffffffffffffffffffffffffffffffffffff1681526020019081526020015f205481526020019081526020015f2060030183908060018154018082558091505060019003905f5260205f20015f90919091909150556118968361300f565b33816005015f6101000a81548173ffffffffffffffffffffffffffffffffffffffff021916908373ffffffffffffffffffffffffffffffffffffffff1602179055506118e183612f54565b611903336003600a866118f4919061498c565b6118fe91906149cd565b613159565b827fa7788c101bd389c10c19776f1d4a409fa668344d5464369df3dec808f215399060405160405180910390a250611939613517565b5050565b5f80611947613678565b9050805f015f9054906101000a900473ffffffffffffffffffffffffffffffffffffffff1691505090565b84845f5b603280549050811015611d2f575f60385f6032848154811061199b5761199a614f15565b5b905f5260205f20015481526020019081526020015f20604051806101400160405290815f82015f9054906101000a900460ff1615151515815260200160018201548152602001600282015f9054906101000a900473ffffffffffffffffffffffffffffffffffffffff1673ffffffffffffffffffffffffffffffffffffffff1673ffffffffffffffffffffffffffffffffffffffff16815260200160038201805480602002602001604051908101604052809291908181526020018280548015611a8257602002820191905f5260205f20905b815481526020019060010190808311611a6e575b5050505050815260200160048201805480602002602001604051908101604052809291908181526020015f905b82821015611b57578382905f5260205f20018054611acc90614f6f565b80601f0160208091040260200160405190810160405280929190818152602001828054611af890614f6f565b8015611b435780601f10611b1a57610100808354040283529160200191611b43565b820191905f5260205f20905b815481529060010190602001808311611b2657829003601f168201915b505050505081526020019060010190611aaf565b505050508152602001600582015f9054906101000a900473ffffffffffffffffffffffffffffffffffffffff1673ffffffffffffffffffffffffffffffffffffffff1673ffffffffffffffffffffffffffffffffffffffff168152602001600682015f9054906101000a900473ffffffffffffffffffffffffffffffffffffffff1673ffffffffffffffffffffffffffffffffffffffff1673ffffffffffffffffffffffffffffffffffffffff16815260200160078201548152602001600882015f9054906101000a900460ff1615151515815260200160098201548152505090508373ffffffffffffffffffffffffffffffffffffffff16816040015173ffffffffffffffffffffffffffffffffffffffff1603611d21575f5b816060015151811015611d1f575f5b8451811015611d1157848181518110611c9d57611c9c614f15565b5b602002602001015183606001518381518110611cbc57611cbb614f15565b5b602002602001015103611d04576040517f08c379a0000000000000000000000000000000000000000000000000000000008152600401611cfb906151d5565b60405180910390fd5b8080600101915050611c81565b508080600101915050611c72565b505b508080600101915050611976565b50611d38612f07565b5f8511611d7a576040517f08c379a0000000000000000000000000000000000000000000000000000000008152600401611d7190614c1d565b60405180910390fd5b611d8587873361369f565b611dc4576040517f08c379a0000000000000000000000000000000000000000000000000000000008152600401611dbb90615263565b60405180910390fd5b428311611e06576040517f08c379a0000000000000000000000000000000000000000000000000000000008152600401611dfd906152cb565b60405180910390fd5b5f865167ffffffffffffffff811115611e2257611e21614274565b5b604051908082528060200260200182016040528015611e5557816020015b6060815260200190600190039081611e405790505b5090505f5b8751811015611f23578873ffffffffffffffffffffffffffffffffffffffff1663c87b56dd898381518110611e9257611e91614f15565b5b60200260200101516040518263ffffffff1660e01b8152600401611eb69190613e38565b5f60405180830381865afa158015611ed0573d5f803e3d5ffd5b505050506040513d5f823e3d601f19601f82011682018060405250810190611ef89190615357565b828281518110611f0b57611f0a614f15565b5b60200260200101819052508080600101915050611e5a565b5060405180610140016040528060011515815260200160365481526020018973ffffffffffffffffffffffffffffffffffffffff1681526020018881526020018281526020013373ffffffffffffffffffffffffffffffffffffffff1681526020013373ffffffffffffffffffffffffffffffffffffffff16815260200187815260200186151581526020018581525060385f60365481526020019081526020015f205f820151815f015f6101000a81548160ff021916908315150217905550602082015181600101556040820151816002015f6101000a81548173ffffffffffffffffffffffffffffffffffffffff021916908373ffffffffffffffffffffffffffffffffffffffff160217905550606082015181600301908051906020019061204f929190613b50565b50608082015181600401908051906020019061206c929190613b9b565b5060a0820151816005015f6101000a81548173ffffffffffffffffffffffffffffffffffffffff021916908373ffffffffffffffffffffffffffffffffffffffff16021790555060c0820151816006015f6101000a81548173ffffffffffffffffffffffffffffffffffffffff021916908373ffffffffffffffffffffffffffffffffffffffff16021790555060e08201518160070155610100820151816008015f6101000a81548160ff02191690831515021790555061012082015181600901559050506121653386612141576001612144565b60025b60ff16600a603654612156919061498c565b61216091906149cd565b613159565b603a5f60395f3373ffffffffffffffffffffffffffffffffffffffff1673ffffffffffffffffffffffffffffffffffffffff1681526020019081526020015f205481526020019081526020015f20600301603654908060018154018082558091505060019003905f5260205f20015f90919091909150556032603654908060018154018082558091505060019003905f5260205f20015f90919091909150556036547f1733541e660326aa779e25ed16d4a34d00d02e362997250f6b915005d321905660405160405180910390a260365f8154809291906122459061539e565b919050555050612253613517565b50505050505050565b5f603a5f60395f8773ffffffffffffffffffffffffffffffffffffffff1673ffffffffffffffffffffffffffffffffffffffff1681526020019081526020015f205481526020019081526020015f2060020180549050146122f2576040517f08c379a00000000000000000000000000000000000000000000000000000000081526004016122e99061542f565b60405180910390fd5b60355460395f8573ffffffffffffffffffffffffffffffffffffffff1673ffffffffffffffffffffffffffffffffffffffff1681526020019081526020015f20819055505f603a5f60355481526020019081526020015f20905082815f01908161235c91906155ea565b508181600101908161236e91906155ea565b508060020133908060018154018082558091505060019003905f5260205f20015f9091909190916101000a81548173ffffffffffffffffffffffffffffffffffffffff021916908373ffffffffffffffffffffffffffffffffffffffff1602179055506123dc846008613159565b8373ffffffffffffffffffffffffffffffffffffffff167f68bab5f96dfca3bb7b996195428c1c905126891b7689535d5d7dc256aa667984848460405161242492919061469b565b60405180910390a260355f81548092919061243e9061539e565b919050555050505050565b5f612452613978565b90505f815f0160089054906101000a900460ff161590505f825f015f9054906101000a900467ffffffffffffffff1690505f808267ffffffffffffffff1614801561249a5750825b90505f60018367ffffffffffffffff161480156124cd57505f3073ffffffffffffffffffffffffffffffffffffffff163b145b9050811580156124db575080155b15612512576040517ff92ee8a900000000000000000000000000000000000000000000000000000000815260040160405180910390fd5b6001855f015f6101000a81548167ffffffffffffffff021916908367ffffffffffffffff160217905550831561255f576001855f0160086101000a81548160ff0219169083151502179055505b6125688661399f565b6125706139b3565b61257986612ba0565b876034819055508660335f6101000a81548173ffffffffffffffffffffffffffffffffffffffff021916908373ffffffffffffffffffffffffffffffffffffffff160217905550831561261a575f855f0160086101000a81548160ff0219169083151502179055507fc7f505b2f371ae2175ee4913f4499e1f2633a7b5936321eed1cdaeb6115181d260016040516126119190615705565b60405180910390a15b5050505050505050565b5f603a5f60395f3373ffffffffffffffffffffffffffffffffffffffff1673ffffffffffffffffffffffffffffffffffffffff1681526020019081526020015f205481526020019081526020015f2090505f5b8160020180549050811015612772575f73ffffffffffffffffffffffffffffffffffffffff168373ffffffffffffffffffffffffffffffffffffffff160315612772578160020181815481106126d0576126cf614f15565b5b905f5260205f20015f9054906101000a900473ffffffffffffffffffffffffffffffffffffffff1673ffffffffffffffffffffffffffffffffffffffff168373ffffffffffffffffffffffffffffffffffffffff1603612765576040517f08c379a000000000000000000000000000000000000000000000000000000000815260040161275c90615768565b60405180910390fd5b8080600101915050612677565b508060020182908060018154018082558091505060019003905f5260205f20015f9091909190916101000a81548173ffffffffffffffffffffffffffffffffffffffff021916908373ffffffffffffffffffffffffffffffffffffffff16021790555083815f0190816127e591906155ea565b5060395f3373ffffffffffffffffffffffffffffffffffffffff1673ffffffffffffffffffffffffffffffffffffffff1681526020019081526020015f205460395f8473ffffffffffffffffffffffffffffffffffffffff1673ffffffffffffffffffffffffffffffffffffffff1681526020019081526020015f2081905550612870336009613159565b3373ffffffffffffffffffffffffffffffffffffffff167f2f635232bff98978e47b7dba5b7fe3cace39fe5964feece2cd18f9efc1b2dab78585856040516128ba93929190615786565b60405180910390a250505050565b6128d0613520565b5f73ffffffffffffffffffffffffffffffffffffffff168373ffffffffffffffffffffffffffffffffffffffff160361293e576040517f08c379a000000000000000000000000000000000000000000000000000000000815260040161293590615813565b60405180910390fd5b5f82826040516024016129519190615831565b6040516020818303038152906040529060405161296e919061588b565b60405180910390207bffffffffffffffffffffffffffffffffffffffffffffffffffffffff19166020820180517bffffffffffffffffffffffffffffffffffffffffffffffffffffffff838183161783525050505090505f8473ffffffffffffffffffffffffffffffffffffffff16826040516129eb91906158e5565b5f604051808303815f865af19150503d805f8114612a24576040519150601f19603f3d011682016040523d82523d5f602084013e612a29565b606091505b5050905080612a6d576040517f08c379a0000000000000000000000000000000000000000000000000000000008152600401612a6490615945565b60405180910390fd5b5050505050565b603a602052805f5260405f205f91509050805f018054612a9390614f6f565b80601f0160208091040260200160405190810160405280929190818152602001828054612abf90614f6f565b8015612b0a5780601f10612ae157610100808354040283529160200191612b0a565b820191905f5260205f20905b815481529060010190602001808311612aed57829003601f168201915b505050505090806001018054612b1f90614f6f565b80601f0160208091040260200160405190810160405280929190818152602001828054612b4b90614f6f565b8015612b965780601f10612b6d57610100808354040283529160200191612b96565b820191905f5260205f20905b815481529060010190602001808311612b7957829003601f168201915b5050505050905082565b612ba8613520565b5f73ffffffffffffffffffffffffffffffffffffffff168173ffffffffffffffffffffffffffffffffffffffff1603612c18575f6040517f1e4fbdf7000000000000000000000000000000000000000000000000000000008152600401612c0f9190614257565b60405180910390fd5b612c21816135a7565b50565b60335f9054906101000a900473ffffffffffffffffffffffffffffffffffffffff1681565b612c51613bf2565b603a5f60395f8573ffffffffffffffffffffffffffffffffffffffff1673ffffffffffffffffffffffffffffffffffffffff1681526020019081526020015f205481526020019081526020015f206040518060a00160405290815f82018054612cb990614f6f565b80601f0160208091040260200160405190810160405280929190818152602001828054612ce590614f6f565b8015612d305780601f10612d0757610100808354040283529160200191612d30565b820191905f5260205f20905b815481529060010190602001808311612d1357829003601f168201915b50505050508152602001600182018054612d4990614f6f565b80601f0160208091040260200160405190810160405280929190818152602001828054612d7590614f6f565b8015612dc05780601f10612d9757610100808354040283529160200191612dc0565b820191905f5260205f20905b815481529060010190602001808311612da357829003601f168201915b5050505050815260200160028201805480602002602001604051908101604052809291908181526020018280548015612e4b57602002820191905f5260205f20905b815f9054906101000a900473ffffffffffffffffffffffffffffffffffffffff1673ffffffffffffffffffffffffffffffffffffffff1681526020019060010190808311612e02575b5050505050815260200160038201805480602002602001604051908101604052809291908181526020018280548015612ea157602002820191905f5260205f20905b815481526020019060010190808311612e8d575b5050505050815260200160048201805480602002602001604051908101604052809291908181526020018280548015612ef757602002820191905f5260205f20905b815481526020019060010190808311612ee3575b5050505050815250509050919050565b60025f5403612f4b576040517f08c379a0000000000000000000000000000000000000000000000000000000008152600401612f42906159ad565b60405180910390fd5b60025f81905550565b5f5b60328054905081101561300b578160328281548110612f7857612f77614f15565b5b905f5260205f20015403612ffe5760326001603280549050612f9a9190614a00565b81548110612fab57612faa614f15565b5b905f5260205f20015460328281548110612fc857612fc7614f15565b5b905f5260205f2001819055506032805480612fe657612fe56159cb565b5b600190038181905f5260205f20015f9055905561300b565b8080600101915050612f56565b5050565b5f603a5f60395f60385f8781526020019081526020015f206005015f9054906101000a900473ffffffffffffffffffffffffffffffffffffffff1673ffffffffffffffffffffffffffffffffffffffff1673ffffffffffffffffffffffffffffffffffffffff1681526020019081526020015f205481526020019081526020015f2090505f816003018054905090505f5b8181101561315357838360030182815481106130bf576130be614f15565b5b905f5260205f2001540361314657826003016001836130de9190614a00565b815481106130ef576130ee614f15565b5b905f5260205f20015483600301828154811061310e5761310d614f15565b5b905f5260205f2001819055508260030180548061312e5761312d6159cb565b5b600190038181905f5260205f20015f90559055613153565b80806001019150506130a0565b50505050565b5f603a5f60395f8673ffffffffffffffffffffffffffffffffffffffff1673ffffffffffffffffffffffffffffffffffffffff1681526020019081526020015f205481526020019081526020015f2090508060040182908060018154018082558091505060019003905f5260205f20015f90919091909150556037826305f5e10060395f8773ffffffffffffffffffffffffffffffffffffffff1673ffffffffffffffffffffffffffffffffffffffff1681526020019081526020015f2054613222919061498c565b61322c91906149cd565b908060018154018082558091505060019003905f5260205f20015f9091909190915055505050565b8373ffffffffffffffffffffffffffffffffffffffff166301ffc9a77f80ac58cd000000000000000000000000000000000000000000000000000000006040518263ffffffff1660e01b81526004016132ad9190615a32565b602060405180830381865afa1580156132c8573d5f803e3d5ffd5b505050506040513d601f19601f820116820180604052508101906132ec9190615a5f565b15613393575f5b835181101561338d578473ffffffffffffffffffffffffffffffffffffffff166342842e0e848487858151811061332d5761332c614f15565b5b60200260200101516040518463ffffffff1660e01b815260040161335393929190615a8a565b5f604051808303815f87803b15801561336a575f80fd5b505af115801561337c573d5f803e3d5ffd5b5050505080806001019150506132f3565b50613511565b8373ffffffffffffffffffffffffffffffffffffffff166301ffc9a77fd9b67a26000000000000000000000000000000000000000000000000000000006040518263ffffffff1660e01b81526004016133ec9190615a32565b602060405180830381865afa158015613407573d5f803e3d5ffd5b505050506040513d601f19601f8201168201806040525081019061342b9190615a5f565b156134d5575f5b83518110156134cf578473ffffffffffffffffffffffffffffffffffffffff1663f242432a848487858151811061346c5761346b614f15565b5b602002602001015160016040518563ffffffff1660e01b81526004016134959493929190615b22565b5f604051808303815f87803b1580156134ac575f80fd5b505af11580156134be573d5f803e3d5ffd5b505050508080600101915050613432565b50613510565b6040517f08c379a000000000000000000000000000000000000000000000000000000000815260040161350790615bc2565b60405180910390fd5b5b50505050565b60015f81905550565b6135286139c5565b73ffffffffffffffffffffffffffffffffffffffff1661354661193d565b73ffffffffffffffffffffffffffffffffffffffff16146135a5576135696139c5565b6040517f118cdaa700000000000000000000000000000000000000000000000000000000815260040161359c9190614257565b60405180910390fd5b565b5f6135b0613678565b90505f815f015f9054906101000a900473ffffffffffffffffffffffffffffffffffffffff16905082825f015f6101000a81548173ffffffffffffffffffffffffffffffffffffffff021916908373ffffffffffffffffffffffffffffffffffffffff1602179055508273ffffffffffffffffffffffffffffffffffffffff168173ffffffffffffffffffffffffffffffffffffffff167f8be0079c531659141344cd1fd0a4f28419497f9722a3daafe3b4186f6b6457e060405160405180910390a3505050565b5f7f9016d09d72d40fdae2fd8ceac6b6234c7706214fd39c1cd1e609a0528c199300905090565b5f805f90505b835181101561396b578473ffffffffffffffffffffffffffffffffffffffff166301ffc9a77f80ac58cd000000000000000000000000000000000000000000000000000000006040518263ffffffff1660e01b81526004016137079190615a32565b602060405180830381865afa158015613722573d5f803e3d5ffd5b505050506040513d601f19601f820116820180604052508101906137469190615a5f565b1561381d578273ffffffffffffffffffffffffffffffffffffffff168573ffffffffffffffffffffffffffffffffffffffff16636352211e86848151811061379157613790614f15565b5b60200260200101516040518263ffffffff1660e01b81526004016137b59190613e38565b602060405180830381865afa1580156137d0573d5f803e3d5ffd5b505050506040513d601f19601f820116820180604052508101906137f49190615bf4565b73ffffffffffffffffffffffffffffffffffffffff1614613818575f915050613971565b61395e565b8473ffffffffffffffffffffffffffffffffffffffff166301ffc9a77fd9b67a26000000000000000000000000000000000000000000000000000000006040518263ffffffff1660e01b81526004016138769190615a32565b602060405180830381865afa158015613891573d5f803e3d5ffd5b505050506040513d601f19601f820116820180604052508101906138b59190615a5f565b1561395d575f8573ffffffffffffffffffffffffffffffffffffffff1662fdd58e858785815181106138ea576138e9614f15565b5b60200260200101516040518363ffffffff1660e01b815260040161390f929190614a90565b602060405180830381865afa15801561392a573d5f803e3d5ffd5b505050506040513d601f19601f8201168201806040525081019061394e9190615c33565b0361395c575f915050613971565b5b5b80806001019150506136a5565b50600190505b9392505050565b5f7ff0c57e16840df040f15088dc2f81fe391c3923bec73e23a9662efc9c229c6a00905090565b6139a76139cc565b6139b081613a0c565b50565b6139bb6139cc565b6139c3613a90565b565b5f33905090565b6139d4613aa1565b613a0a576040517fd7e6bcf800000000000000000000000000000000000000000000000000000000815260040160405180910390fd5b565b613a146139cc565b5f73ffffffffffffffffffffffffffffffffffffffff168173ffffffffffffffffffffffffffffffffffffffff1603613a84575f6040517f1e4fbdf7000000000000000000000000000000000000000000000000000000008152600401613a7b9190614257565b60405180910390fd5b613a8d816135a7565b50565b613a986139cc565b60015f81905550565b5f613aaa613978565b5f0160089054906101000a900460ff16905090565b6040518061014001604052805f151581526020015f81526020015f73ffffffffffffffffffffffffffffffffffffffff16815260200160608152602001606081526020015f73ffffffffffffffffffffffffffffffffffffffff1681526020015f73ffffffffffffffffffffffffffffffffffffffff1681526020015f81526020015f151581526020015f81525090565b828054828255905f5260205f20908101928215613b8a579160200282015b82811115613b89578251825591602001919060010190613b6e565b5b509050613b979190613c21565b5090565b828054828255905f5260205f20908101928215613be1579160200282015b82811115613be0578251829081613bd091906155ea565b5091602001919060010190613bb9565b5b509050613bee9190613c3c565b5090565b6040518060a0016040528060608152602001606081526020016060815260200160608152602001606081525090565b5b80821115613c38575f815f905550600101613c22565b5090565b5b80821115613c5b575f8181613c529190613c5f565b50600101613c3d565b5090565b508054613c6b90614f6f565b5f825580601f10613c7c5750613c99565b601f0160209004905f5260205f2090810190613c989190613c21565b5b50565b5f604051905090565b5f80fd5b5f80fd5b5f819050919050565b613cbf81613cad565b8114613cc9575f80fd5b50565b5f81359050613cda81613cb6565b92915050565b5f60208284031215613cf557613cf4613ca5565b5b5f613d0284828501613ccc565b91505092915050565b5f8115159050919050565b613d1f81613d0b565b8114613d29575f80fd5b50565b5f81359050613d3a81613d16565b92915050565b5f805f8060808587031215613d5857613d57613ca5565b5b5f613d6587828801613ccc565b9450506020613d7687828801613d2c565b9350506040613d8787828801613ccc565b9250506060613d9887828801613ccc565b91505092959194509250565b5f73ffffffffffffffffffffffffffffffffffffffff82169050919050565b5f613dcd82613da4565b9050919050565b613ddd81613dc3565b8114613de7575f80fd5b50565b5f81359050613df881613dd4565b92915050565b5f60208284031215613e1357613e12613ca5565b5b5f613e2084828501613dea565b91505092915050565b613e3281613cad565b82525050565b5f602082019050613e4b5f830184613e29565b92915050565b5f81519050919050565b5f82825260208201905092915050565b5f819050602082019050919050565b613e8381613d0b565b82525050565b613e9281613cad565b82525050565b613ea181613dc3565b82525050565b5f81519050919050565b5f82825260208201905092915050565b5f819050602082019050919050565b5f613edb8383613e89565b60208301905092915050565b5f602082019050919050565b5f613efd82613ea7565b613f078185613eb1565b9350613f1283613ec1565b805f5b83811015613f42578151613f298882613ed0565b9750613f3483613ee7565b925050600181019050613f15565b5085935050505092915050565b5f81519050919050565b5f82825260208201905092915050565b5f819050602082019050919050565b5f81519050919050565b5f82825260208201905092915050565b8281835e5f83830152505050565b5f601f19601f8301169050919050565b5f613fba82613f78565b613fc48185613f82565b9350613fd4818560208601613f92565b613fdd81613fa0565b840191505092915050565b5f613ff38383613fb0565b905092915050565b5f602082019050919050565b5f61401182613f4f565b61401b8185613f59565b93508360208202850161402d85613f69565b805f5b8581101561406857848403895281516140498582613fe8565b945061405483613ffb565b925060208a01995050600181019050614030565b50829750879550505050505092915050565b5f61014083015f8301516140905f860182613e7a565b5060208301516140a36020860182613e89565b5060408301516140b66040860182613e98565b50606083015184820360608601526140ce8282613ef3565b915050608083015184820360808601526140e88282614007565b91505060a08301516140fd60a0860182613e98565b5060c083015161411060c0860182613e98565b5060e083015161412360e0860182613e89565b50610100830151614138610100860182613e7a565b5061012083015161414d610120860182613e89565b508091505092915050565b5f614163838361407a565b905092915050565b5f602082019050919050565b5f61418182613e51565b61418b8185613e5b565b93508360208202850161419d85613e6b565b805f5b858110156141d857848403895281516141b98582614158565b94506141c48361416b565b925060208a019950506001810190506141a0565b50829750879550505050505092915050565b5f6020820190508181035f8301526142028184614177565b905092915050565b5f80604083850312156142205761421f613ca5565b5b5f61422d85828601613ccc565b925050602061423e85828601613dea565b9150509250929050565b61425181613dc3565b82525050565b5f60208201905061426a5f830184614248565b92915050565b5f80fd5b7f4e487b71000000000000000000000000000000000000000000000000000000005f52604160045260245ffd5b6142aa82613fa0565b810181811067ffffffffffffffff821117156142c9576142c8614274565b5b80604052505050565b5f6142db613c9c565b90506142e782826142a1565b919050565b5f67ffffffffffffffff82111561430657614305614274565b5b602082029050602081019050919050565b5f80fd5b5f61432d614328846142ec565b6142d2565b905080838252602082019050602084028301858111156143505761434f614317565b5b835b8181101561437957806143658882613ccc565b845260208401935050602081019050614352565b5050509392505050565b5f82601f83011261439757614396614270565b5b81356143a784826020860161431b565b91505092915050565b5f805f805f60a086880312156143c9576143c8613ca5565b5b5f6143d688828901613dea565b955050602086013567ffffffffffffffff8111156143f7576143f6613ca9565b5b61440388828901614383565b945050604061441488828901613ccc565b935050606061442588828901613d2c565b925050608061443688828901613ccc565b9150509295509295909350565b5f80fd5b5f67ffffffffffffffff82111561446157614460614274565b5b61446a82613fa0565b9050602081019050919050565b828183375f83830152505050565b5f61449761449284614447565b6142d2565b9050828152602081018484840111156144b3576144b2614443565b5b6144be848285614477565b509392505050565b5f82601f8301126144da576144d9614270565b5b81356144ea848260208601614485565b91505092915050565b5f805f6060848603121561450a57614509613ca5565b5b5f61451786828701613dea565b935050602084013567ffffffffffffffff81111561453857614537613ca9565b5b614544868287016144c6565b925050604084013567ffffffffffffffff81111561456557614564613ca9565b5b614571868287016144c6565b9150509250925092565b5f805f6060848603121561459257614591613ca5565b5b5f61459f86828701613ccc565b93505060206145b086828701613dea565b92505060406145c186828701613dea565b9150509250925092565b5f805f606084860312156145e2576145e1613ca5565b5b5f84013567ffffffffffffffff8111156145ff576145fe613ca9565b5b61460b868287016144c6565b935050602084013567ffffffffffffffff81111561462c5761462b613ca9565b5b614638868287016144c6565b925050604061464986828701613dea565b9150509250925092565b5f82825260208201905092915050565b5f61466d82613f78565b6146778185614653565b9350614687818560208601613f92565b61469081613fa0565b840191505092915050565b5f6040820190508181035f8301526146b38185614663565b905081810360208301526146c78184614663565b90509392505050565b5f81519050919050565b5f82825260208201905092915050565b5f819050602082019050919050565b5f6147048383613e98565b60208301905092915050565b5f602082019050919050565b5f614726826146d0565b61473081856146da565b935061473b836146ea565b805f5b8381101561476b57815161475288826146f9565b975061475d83614710565b92505060018101905061473e565b5085935050505092915050565b5f60a083015f8301518482035f8601526147928282613fb0565b915050602083015184820360208601526147ac8282613fb0565b915050604083015184820360408601526147c6828261471c565b915050606083015184820360608601526147e08282613ef3565b915050608083015184820360808601526147fa8282613ef3565b9150508091505092915050565b5f6020820190508181035f83015261481f8184614778565b905092915050565b7f4d61726b6574206974656d206973206e6f742076616c696400000000000000005f82015250565b5f61485b601883614653565b915061486682614827565b602082019050919050565b5f6020820190508181035f8301526148888161484f565b9050919050565b7f4974656d206973206e6f7420666f722061756374696f6e0000000000000000005f82015250565b5f6148c3601783614653565b91506148ce8261488f565b602082019050919050565b5f6020820190508181035f8301526148f0816148b7565b9050919050565b7f41756374696f6e206973207374696c6c206f6e676f696e6700000000000000005f82015250565b5f61492b601883614653565b9150614936826148f7565b602082019050919050565b5f6020820190508181035f8301526149588161491f565b9050919050565b7f4e487b71000000000000000000000000000000000000000000000000000000005f52601160045260245ffd5b5f61499682613cad565b91506149a183613cad565b92508282026149af81613cad565b915082820484148315176149c6576149c561495f565b5b5092915050565b5f6149d782613cad565b91506149e283613cad565b92508282019050808211156149fa576149f961495f565b5b92915050565b5f614a0a82613cad565b9150614a1583613cad565b9250828203905081811115614a2d57614a2c61495f565b5b92915050565b7f4e487b71000000000000000000000000000000000000000000000000000000005f52601260045260245ffd5b5f614a6a82613cad565b9150614a7583613cad565b925082614a8557614a84614a33565b5b828204905092915050565b5f604082019050614aa35f830185614248565b614ab06020830184613e29565b9392505050565b7f4f6e6c79206974656d206f776e65722063616e20706572666f726d20746869735f8201527f20616374696f6e00000000000000000000000000000000000000000000000000602082015250565b5f614b11602783614653565b9150614b1c82614ab7565b604082019050919050565b5f6020820190508181035f830152614b3e81614b05565b9050919050565b7f41756374696f6e206f722053616c6520697320616c72656164792070656e64695f8201527f6e67000000000000000000000000000000000000000000000000000000000000602082015250565b5f614b9f602283614653565b9150614baa82614b45565b604082019050919050565b5f6020820190508181035f830152614bcc81614b93565b9050919050565b7f5072696365206d7573742062652067726561746572207468616e207a65726f005f82015250565b5f614c07601f83614653565b9150614c1282614bd3565b602082019050919050565b5f6020820190508181035f830152614c3481614bfb565b9050919050565b614c4481613d0b565b82525050565b5f606082019050614c5d5f830186614c3b565b614c6a6020830185613e29565b614c776040830184613e29565b949350505050565b7f4e6f2062616c616e636520746f207769746864726177000000000000000000005f82015250565b5f614cb3601683614653565b9150614cbe82614c7f565b602082019050919050565b5f6020820190508181035f830152614ce081614ca7565b9050919050565b7f4974656d206973206e6f74206f6e2061756374696f6e000000000000000000005f82015250565b5f614d1b601683614653565b9150614d2682614ce7565b602082019050919050565b5f6020820190508181035f830152614d4881614d0f565b9050919050565b7f41756374696f6e2068617320656e6465640000000000000000000000000000005f82015250565b5f614d83601183614653565b9150614d8e82614d4f565b602082019050919050565b5f6020820190508181035f830152614db081614d77565b9050919050565b7f41756374696f6e206e6f742073746172746564000000000000000000000000005f82015250565b5f614deb601383614653565b9150614df682614db7565b602082019050919050565b5f6020820190508181035f830152614e1881614ddf565b9050919050565b7f42696420616d6f756e74206d75737420626520686967686572207468616e20745f8201527f68652063757272656e7420707269636500000000000000000000000000000000602082015250565b5f614e79603083614653565b9150614e8482614e1f565b604082019050919050565b5f6020820190508181035f830152614ea681614e6d565b9050919050565b7f53656c6c65722063616e6e6f7420706c616365206120626964000000000000005f82015250565b5f614ee1601983614653565b9150614eec82614ead565b602082019050919050565b5f6020820190508181035f830152614f0e81614ed5565b9050919050565b7f4e487b71000000000000000000000000000000000000000000000000000000005f52603260045260245ffd5b7f4e487b71000000000000000000000000000000000000000000000000000000005f52602260045260245ffd5b5f6002820490506001821680614f8657607f821691505b602082108103614f9957614f98614f42565b5b50919050565b7f63616e206e6f742072656d6f7665206974656d730000000000000000000000005f82015250565b5f614fd3601483614653565b9150614fde82614f9f565b602082019050919050565b5f6020820190508181035f83015261500081614fc7565b9050919050565b7f4974656d20697320666f722061756374696f6e000000000000000000000000005f82015250565b5f61503b601383614653565b915061504682615007565b602082019050919050565b5f6020820190508181035f8301526150688161502f565b9050919050565b7f5061796d656e742076616c756520697320736d616c6c6572207468616e206f6e5f8201527f73616c6520707269636500000000000000000000000000000000000000000000602082015250565b5f6150c9602a83614653565b91506150d48261506f565b604082019050919050565b5f6020820190508181035f8301526150f6816150bd565b9050919050565b7f4974656d2073616c652068617320656e646564000000000000000000000000005f82015250565b5f615131601383614653565b915061513c826150fd565b602082019050919050565b5f6020820190508181035f83015261515e81615125565b9050919050565b7f6d61726b65744974656d20697320616c7265616479206f6e2073616c652f61755f8201527f6374696f6e000000000000000000000000000000000000000000000000000000602082015250565b5f6151bf602583614653565b91506151ca82615165565b604082019050919050565b5f6020820190508181035f8301526151ec816151b3565b9050919050565b7f43616c6c6572206973206e6f7420746865206f776e6572206f6620746865204e5f8201527f4654730000000000000000000000000000000000000000000000000000000000602082015250565b5f61524d602383614653565b9150615258826151f3565b604082019050919050565b5f6020820190508181035f83015261527a81615241565b9050919050565b7f656e6454696d65206d7573742062652067726561746572207468616e206e6f775f82015250565b5f6152b5602083614653565b91506152c082615281565b602082019050919050565b5f6020820190508181035f8301526152e2816152a9565b9050919050565b5f6152fb6152f684614447565b6142d2565b90508281526020810184848401111561531757615316614443565b5b615322848285613f92565b509392505050565b5f82601f83011261533e5761533d614270565b5b815161534e8482602086016152e9565b91505092915050565b5f6020828403121561536c5761536b613ca5565b5b5f82015167ffffffffffffffff81111561538957615388613ca9565b5b6153958482850161532a565b91505092915050565b5f6153a882613cad565b91507fffffffffffffffffffffffffffffffffffffffffffffffffffffffffffffffff82036153da576153d961495f565b5b600182019050919050565b7f416c7265616479205369676e65642055700000000000000000000000000000005f82015250565b5f615419601183614653565b9150615424826153e5565b602082019050919050565b5f6020820190508181035f8301526154468161540d565b9050919050565b5f819050815f5260205f209050919050565b5f6020601f8301049050919050565b5f82821b905092915050565b5f600883026154a97fffffffffffffffffffffffffffffffffffffffffffffffffffffffffffffffff8261546e565b6154b3868361546e565b95508019841693508086168417925050509392505050565b5f819050919050565b5f6154ee6154e96154e484613cad565b6154cb565b613cad565b9050919050565b5f819050919050565b615507836154d4565b61551b615513826154f5565b84845461547a565b825550505050565b5f90565b61552f615523565b61553a8184846154fe565b505050565b5b8181101561555d576155525f82615527565b600181019050615540565b5050565b601f8211156155a2576155738161544d565b61557c8461545f565b8101602085101561558b578190505b61559f6155978561545f565b83018261553f565b50505b505050565b5f82821c905092915050565b5f6155c25f19846008026155a7565b1980831691505092915050565b5f6155da83836155b3565b9150826002028217905092915050565b6155f382613f78565b67ffffffffffffffff81111561560c5761560b614274565b5b6156168254614f6f565b615621828285615561565b5f60209050601f831160018114615652575f8415615640578287015190505b61564a85826155cf565b8655506156b1565b601f1984166156608661544d565b5f5b8281101561568757848901518255600182019150602085019450602081019050615662565b868310156156a457848901516156a0601f8916826155b3565b8355505b6001600288020188555050505b505050505050565b5f819050919050565b5f67ffffffffffffffff82169050919050565b5f6156ef6156ea6156e5846156b9565b6154cb565b6156c2565b9050919050565b6156ff816156d5565b82525050565b5f6020820190506157185f8301846156f6565b92915050565b7f616c726561647920726567697374657265642077616c6c6574000000000000005f82015250565b5f615752601983614653565b915061575d8261571e565b602082019050919050565b5f6020820190508181035f83015261577f81615746565b9050919050565b5f6060820190508181035f83015261579e8186614663565b905081810360208301526157b28185614663565b90506157c16040830184614248565b949350505050565b7f496e76616c696420636f6e7472616374206164647265737300000000000000005f82015250565b5f6157fd601883614653565b9150615808826157c9565b602082019050919050565b5f6020820190508181035f83015261582a816157f1565b9050919050565b5f6020820190508181035f8301526158498184614663565b905092915050565b5f81905092915050565b5f61586582613f78565b61586f8185615851565b935061587f818560208601613f92565b80840191505092915050565b5f615896828461585b565b915081905092915050565b5f81519050919050565b5f81905092915050565b5f6158bf826158a1565b6158c981856158ab565b93506158d9818560208601613f92565b80840191505092915050565b5f6158f082846158b5565b915081905092915050565b7f4661696c656420746f2063616c6c20736d61727420636f6e74726163740000005f82015250565b5f61592f601d83614653565b915061593a826158fb565b602082019050919050565b5f6020820190508181035f83015261595c81615923565b9050919050565b7f5265656e7472616e637947756172643a207265656e7472616e742063616c6c005f82015250565b5f615997601f83614653565b91506159a282615963565b602082019050919050565b5f6020820190508181035f8301526159c48161598b565b9050919050565b7f4e487b71000000000000000000000000000000000000000000000000000000005f52603160045260245ffd5b5f7fffffffff0000000000000000000000000000000000000000000000000000000082169050919050565b615a2c816159f8565b82525050565b5f602082019050615a455f830184615a23565b92915050565b5f81519050615a5981613d16565b92915050565b5f60208284031215615a7457615a73613ca5565b5b5f615a8184828501615a4b565b91505092915050565b5f606082019050615a9d5f830186614248565b615aaa6020830185614248565b615ab76040830184613e29565b949350505050565b5f615ad9615ad4615acf846156b9565b6154cb565b613cad565b9050919050565b615ae981615abf565b82525050565b5f82825260208201905092915050565b50565b5f615b0d5f83615aef565b9150615b1882615aff565b5f82019050919050565b5f60a082019050615b355f830187614248565b615b426020830186614248565b615b4f6040830185613e29565b615b5c6060830184615ae0565b8181036080830152615b6d81615b02565b905095945050505050565b7f556e737570706f72746564204e4654207374616e6461726400000000000000005f82015250565b5f615bac601883614653565b9150615bb782615b78565b602082019050919050565b5f6020820190508181035f830152615bd981615ba0565b9050919050565b5f81519050615bee81613dd4565b92915050565b5f60208284031215615c0957615c08613ca5565b5b5f615c1684828501615be0565b91505092915050565b5f81519050615c2d81613cb6565b92915050565b5f60208284031215615c4857615c47613ca5565b5b5f615c5584828501615c1f565b9150509291505056fea2646970667358221220367539a7592133c7ee46494728bca27fea5e8716d16592df7edbfd6c4ae5c82164736f6c634300081a0033",
			"opcodes": "PUSH1 0x80 PUSH1 0x40 MSTORE CALLVALUE DUP1 ISZERO PUSH1 0xE JUMPI PUSH0 DUP1 REVERT JUMPDEST POP PUSH2 0x5C94 DUP1 PUSH2 0x1C PUSH0 CODECOPY PUSH0 RETURN INVALID PUSH1 0x80 PUSH1 0x40 MSTORE PUSH1 0x4 CALLDATASIZE LT PUSH2 0x11E JUMPI PUSH0 CALLDATALOAD PUSH1 0xE0 SHR DUP1 PUSH4 0x8DA5CB5B GT PUSH2 0x9F JUMPI DUP1 PUSH4 0xE2413C0E GT PUSH2 0x63 JUMPI DUP1 PUSH4 0xE2413C0E EQ PUSH2 0x356 JUMPI DUP1 PUSH4 0xECA12A1C EQ PUSH2 0x37E JUMPI DUP1 PUSH4 0xF2FDE38B EQ PUSH2 0x3BB JUMPI DUP1 PUSH4 0xF92AA57F EQ PUSH2 0x3E3 JUMPI DUP1 PUSH4 0xFFC9896B EQ PUSH2 0x40D JUMPI PUSH2 0x11E JUMP JUMPDEST DUP1 PUSH4 0x8DA5CB5B EQ PUSH2 0x28C JUMPI DUP1 PUSH4 0x99580F30 EQ PUSH2 0x2B6 JUMPI DUP1 PUSH4 0xA9B4D919 EQ PUSH2 0x2DE JUMPI DUP1 PUSH4 0xB4988FD0 EQ PUSH2 0x306 JUMPI DUP1 PUSH4 0xB7F13128 EQ PUSH2 0x32E JUMPI PUSH2 0x11E JUMP JUMPDEST DUP1 PUSH4 0x704DD580 GT PUSH2 0xE6 JUMPI DUP1 PUSH4 0x704DD580 EQ PUSH2 0x1E0 JUMPI DUP1 PUSH4 0x715018A6 EQ PUSH2 0x20A JUMPI DUP1 PUSH4 0x7FB770CB EQ PUSH2 0x220 JUMPI DUP1 PUSH4 0x813EE1D1 EQ PUSH2 0x248 JUMPI DUP1 PUSH4 0x8C77B5B7 EQ PUSH2 0x270 JUMPI PUSH2 0x11E JUMP JUMPDEST DUP1 PUSH4 0xEAAF4C8 EQ PUSH2 0x122 JUMPI DUP1 PUSH4 0x2642734A EQ PUSH2 0x14A JUMPI DUP1 PUSH4 0x3CCFD60B EQ PUSH2 0x172 JUMPI DUP1 PUSH4 0x4081DB51 EQ PUSH2 0x188 JUMPI DUP1 PUSH4 0x454A2AB3 EQ PUSH2 0x1C4 JUMPI JUMPDEST PUSH0 DUP1 REVERT JUMPDEST CALLVALUE DUP1 ISZERO PUSH2 0x12D JUMPI PUSH0 DUP1 REVERT JUMPDEST POP PUSH2 0x148 PUSH1 0x4 DUP1 CALLDATASIZE SUB DUP2 ADD SWAP1 PUSH2 0x143 SWAP2 SWAP1 PUSH2 0x3CE0 JUMP JUMPDEST PUSH2 0x449 JUMP JUMPDEST STOP JUMPDEST CALLVALUE DUP1 ISZERO PUSH2 0x155 JUMPI PUSH0 DUP1 REVERT JUMPDEST POP PUSH2 0x170 PUSH1 0x4 DUP1 CALLDATASIZE SUB DUP2 ADD SWAP1 PUSH2 0x16B SWAP2 SWAP1 PUSH2 0x3D40 JUMP JUMPDEST PUSH2 0x809 JUMP JUMPDEST STOP JUMPDEST CALLVALUE DUP1 ISZERO PUSH2 0x17D JUMPI PUSH0 DUP1 REVERT JUMPDEST POP PUSH2 0x186 PUSH2 0xAB9 JUMP JUMPDEST STOP JUMPDEST CALLVALUE DUP1 ISZERO PUSH2 0x193 JUMPI PUSH0 DUP1 REVERT JUMPDEST POP PUSH2 0x1AE PUSH1 0x4 DUP1 CALLDATASIZE SUB DUP2 ADD SWAP1 PUSH2 0x1A9 SWAP2 SWAP1 PUSH2 0x3DFE JUMP JUMPDEST PUSH2 0xB67 JUMP JUMPDEST PUSH1 0x40 MLOAD PUSH2 0x1BB SWAP2 SWAP1 PUSH2 0x3E38 JUMP JUMPDEST PUSH1 0x40 MLOAD DUP1 SWAP2 SUB SWAP1 RETURN JUMPDEST PUSH2 0x1DE PUSH1 0x4 DUP1 CALLDATASIZE SUB DUP2 ADD SWAP1 PUSH2 0x1D9 SWAP2 SWAP1 PUSH2 0x3CE0 JUMP JUMPDEST PUSH2 0xB7C JUMP JUMPDEST STOP JUMPDEST CALLVALUE DUP1 ISZERO PUSH2 0x1EB JUMPI PUSH0 DUP1 REVERT JUMPDEST POP PUSH2 0x1F4 PUSH2 0xF57 JUMP JUMPDEST PUSH1 0x40 MLOAD PUSH2 0x201 SWAP2 SWAP1 PUSH2 0x41EA JUMP JUMPDEST PUSH1 0x40 MLOAD DUP1 SWAP2 SUB SWAP1 RETURN JUMPDEST CALLVALUE DUP1 ISZERO PUSH2 0x215 JUMPI PUSH0 DUP1 REVERT JUMPDEST POP PUSH2 0x21E PUSH2 0x12AA JUMP JUMPDEST STOP JUMPDEST CALLVALUE DUP1 ISZERO PUSH2 0x22B JUMPI PUSH0 DUP1 REVERT JUMPDEST POP PUSH2 0x246 PUSH1 0x4 DUP1 CALLDATASIZE SUB DUP2 ADD SWAP1 PUSH2 0x241 SWAP2 SWAP1 PUSH2 0x3CE0 JUMP JUMPDEST PUSH2 0x12BD JUMP JUMPDEST STOP JUMPDEST CALLVALUE DUP1 ISZERO PUSH2 0x253 JUMPI PUSH0 DUP1 REVERT JUMPDEST POP PUSH2 0x26E PUSH1 0x4 DUP1 CALLDATASIZE SUB DUP2 ADD SWAP1 PUSH2 0x269 SWAP2 SWAP1 PUSH2 0x420A JUMP JUMPDEST PUSH2 0x14DC JUMP JUMPDEST STOP JUMPDEST PUSH2 0x28A PUSH1 0x4 DUP1 CALLDATASIZE SUB DUP2 ADD SWAP1 PUSH2 0x285 SWAP2 SWAP1 PUSH2 0x3CE0 JUMP JUMPDEST PUSH2 0x152F JUMP JUMPDEST STOP JUMPDEST CALLVALUE DUP1 ISZERO PUSH2 0x297 JUMPI PUSH0 DUP1 REVERT JUMPDEST POP PUSH2 0x2A0 PUSH2 0x193D JUMP JUMPDEST PUSH1 0x40 MLOAD PUSH2 0x2AD SWAP2 SWAP1 PUSH2 0x4257 JUMP JUMPDEST PUSH1 0x40 MLOAD DUP1 SWAP2 SUB SWAP1 RETURN JUMPDEST CALLVALUE DUP1 ISZERO PUSH2 0x2C1 JUMPI PUSH0 DUP1 REVERT JUMPDEST POP PUSH2 0x2DC PUSH1 0x4 DUP1 CALLDATASIZE SUB DUP2 ADD SWAP1 PUSH2 0x2D7 SWAP2 SWAP1 PUSH2 0x43B0 JUMP JUMPDEST PUSH2 0x1972 JUMP JUMPDEST STOP JUMPDEST CALLVALUE DUP1 ISZERO PUSH2 0x2E9 JUMPI PUSH0 DUP1 REVERT JUMPDEST POP PUSH2 0x304 PUSH1 0x4 DUP1 CALLDATASIZE SUB DUP2 ADD SWAP1 PUSH2 0x2FF SWAP2 SWAP1 PUSH2 0x44F3 JUMP JUMPDEST PUSH2 0x225C JUMP JUMPDEST STOP JUMPDEST CALLVALUE DUP1 ISZERO PUSH2 0x311 JUMPI PUSH0 DUP1 REVERT JUMPDEST POP PUSH2 0x32C PUSH1 0x4 DUP1 CALLDATASIZE SUB DUP2 ADD SWAP1 PUSH2 0x327 SWAP2 SWAP1 PUSH2 0x457B JUMP JUMPDEST PUSH2 0x2449 JUMP JUMPDEST STOP JUMPDEST CALLVALUE DUP1 ISZERO PUSH2 0x339 JUMPI PUSH0 DUP1 REVERT JUMPDEST POP PUSH2 0x354 PUSH1 0x4 DUP1 CALLDATASIZE SUB DUP2 ADD SWAP1 PUSH2 0x34F SWAP2 SWAP1 PUSH2 0x45CB JUMP JUMPDEST PUSH2 0x2624 JUMP JUMPDEST STOP JUMPDEST CALLVALUE DUP1 ISZERO PUSH2 0x361 JUMPI PUSH0 DUP1 REVERT JUMPDEST POP PUSH2 0x37C PUSH1 0x4 DUP1 CALLDATASIZE SUB DUP2 ADD SWAP1 PUSH2 0x377 SWAP2 SWAP1 PUSH2 0x44F3 JUMP JUMPDEST PUSH2 0x28C8 JUMP JUMPDEST STOP JUMPDEST CALLVALUE DUP1 ISZERO PUSH2 0x389 JUMPI PUSH0 DUP1 REVERT JUMPDEST POP PUSH2 0x3A4 PUSH1 0x4 DUP1 CALLDATASIZE SUB DUP2 ADD SWAP1 PUSH2 0x39F SWAP2 SWAP1 PUSH2 0x3CE0 JUMP JUMPDEST PUSH2 0x2A74 JUMP JUMPDEST PUSH1 0x40 MLOAD PUSH2 0x3B2 SWAP3 SWAP2 SWAP1 PUSH2 0x469B JUMP JUMPDEST PUSH1 0x40 MLOAD DUP1 SWAP2 SUB SWAP1 RETURN JUMPDEST CALLVALUE DUP1 ISZERO PUSH2 0x3C6 JUMPI PUSH0 DUP1 REVERT JUMPDEST POP PUSH2 0x3E1 PUSH1 0x4 DUP1 CALLDATASIZE SUB DUP2 ADD SWAP1 PUSH2 0x3DC SWAP2 SWAP1 PUSH2 0x3DFE JUMP JUMPDEST PUSH2 0x2BA0 JUMP JUMPDEST STOP JUMPDEST CALLVALUE DUP1 ISZERO PUSH2 0x3EE JUMPI PUSH0 DUP1 REVERT JUMPDEST POP PUSH2 0x3F7 PUSH2 0x2C24 JUMP JUMPDEST PUSH1 0x40 MLOAD PUSH2 0x404 SWAP2 SWAP1 PUSH2 0x4257 JUMP JUMPDEST PUSH1 0x40 MLOAD DUP1 SWAP2 SUB SWAP1 RETURN JUMPDEST CALLVALUE DUP1 ISZERO PUSH2 0x418 JUMPI PUSH0 DUP1 REVERT JUMPDEST POP PUSH2 0x433 PUSH1 0x4 DUP1 CALLDATASIZE SUB DUP2 ADD SWAP1 PUSH2 0x42E SWAP2 SWAP1 PUSH2 0x3DFE JUMP JUMPDEST PUSH2 0x2C49 JUMP JUMPDEST PUSH1 0x40 MLOAD PUSH2 0x440 SWAP2 SWAP1 PUSH2 0x4807 JUMP JUMPDEST PUSH1 0x40 MLOAD DUP1 SWAP2 SUB SWAP1 RETURN JUMPDEST DUP1 PUSH1 0x38 PUSH0 DUP3 DUP2 MSTORE PUSH1 0x20 ADD SWAP1 DUP2 MSTORE PUSH1 0x20 ADD PUSH0 KECCAK256 PUSH0 ADD PUSH0 SWAP1 SLOAD SWAP1 PUSH2 0x100 EXP SWAP1 DIV PUSH1 0xFF AND PUSH2 0x4A9 JUMPI PUSH1 0x40 MLOAD PUSH32 0x8C379A000000000000000000000000000000000000000000000000000000000 DUP2 MSTORE PUSH1 0x4 ADD PUSH2 0x4A0 SWAP1 PUSH2 0x4871 JUMP JUMPDEST PUSH1 0x40 MLOAD DUP1 SWAP2 SUB SWAP1 REVERT JUMPDEST PUSH2 0x4B1 PUSH2 0x2F07 JUMP JUMPDEST PUSH0 PUSH1 0x38 PUSH0 DUP5 DUP2 MSTORE PUSH1 0x20 ADD SWAP1 DUP2 MSTORE PUSH1 0x20 ADD PUSH0 KECCAK256 SWAP1 POP DUP1 PUSH1 0x8 ADD PUSH0 SWAP1 SLOAD SWAP1 PUSH2 0x100 EXP SWAP1 DIV PUSH1 0xFF AND PUSH2 0x515 JUMPI PUSH1 0x40 MLOAD PUSH32 0x8C379A000000000000000000000000000000000000000000000000000000000 DUP2 MSTORE PUSH1 0x4 ADD PUSH2 0x50C SWAP1 PUSH2 0x48D9 JUMP JUMPDEST PUSH1 0x40 MLOAD DUP1 SWAP2 SUB SWAP1 REVERT JUMPDEST DUP1 PUSH1 0x9 ADD SLOAD TIMESTAMP GT PUSH2 0x55B JUMPI PUSH1 0x40 MLOAD PUSH32 0x8C379A000000000000000000000000000000000000000000000000000000000 DUP2 MSTORE PUSH1 0x4 ADD PUSH2 0x552 SWAP1 PUSH2 0x4941 JUMP JUMPDEST PUSH1 0x40 MLOAD DUP1 SWAP2 SUB SWAP1 REVERT JUMPDEST PUSH0 DUP2 PUSH0 ADD PUSH0 PUSH2 0x100 EXP DUP2 SLOAD DUP2 PUSH1 0xFF MUL NOT AND SWAP1 DUP4 ISZERO ISZERO MUL OR SWAP1 SSTORE POP PUSH2 0x57E DUP4 PUSH2 0x2F54 JUMP JUMPDEST PUSH2 0x587 DUP4 PUSH2 0x300F JUMP JUMPDEST PUSH2 0x5CC DUP2 PUSH1 0x5 ADD PUSH0 SWAP1 SLOAD SWAP1 PUSH2 0x100 EXP SWAP1 DIV PUSH20 0xFFFFFFFFFFFFFFFFFFFFFFFFFFFFFFFFFFFFFFFF AND PUSH1 0x7 PUSH1 0x64 DUP7 PUSH2 0x5BD SWAP2 SWAP1 PUSH2 0x498C JUMP JUMPDEST PUSH2 0x5C7 SWAP2 SWAP1 PUSH2 0x49CD JUMP JUMPDEST PUSH2 0x3159 JUMP JUMPDEST DUP1 PUSH1 0x5 ADD PUSH0 SWAP1 SLOAD SWAP1 PUSH2 0x100 EXP SWAP1 DIV PUSH20 0xFFFFFFFFFFFFFFFFFFFFFFFFFFFFFFFFFFFFFFFF AND PUSH20 0xFFFFFFFFFFFFFFFFFFFFFFFFFFFFFFFFFFFFFFFF AND DUP2 PUSH1 0x6 ADD PUSH0 SWAP1 SLOAD SWAP1 PUSH2 0x100 EXP SWAP1 DIV PUSH20 0xFFFFFFFFFFFFFFFFFFFFFFFFFFFFFFFFFFFFFFFF AND PUSH20 0xFFFFFFFFFFFFFFFFFFFFFFFFFFFFFFFFFFFFFFFF AND EQ PUSH2 0x79B JUMPI DUP1 PUSH1 0x5 ADD PUSH0 SWAP1 SLOAD SWAP1 PUSH2 0x100 EXP SWAP1 DIV PUSH20 0xFFFFFFFFFFFFFFFFFFFFFFFFFFFFFFFFFFFFFFFF AND PUSH20 0xFFFFFFFFFFFFFFFFFFFFFFFFFFFFFFFFFFFFFFFF AND PUSH2 0x8FC PUSH1 0x64 PUSH1 0x34 SLOAD PUSH1 0x64 PUSH2 0x693 SWAP2 SWAP1 PUSH2 0x4A00 JUMP JUMPDEST DUP5 PUSH1 0x7 ADD SLOAD PUSH2 0x6A2 SWAP2 SWAP1 PUSH2 0x498C JUMP JUMPDEST PUSH2 0x6AC SWAP2 SWAP1 PUSH2 0x4A60 JUMP JUMPDEST SWAP1 DUP2 ISZERO MUL SWAP1 PUSH1 0x40 MLOAD PUSH0 PUSH1 0x40 MLOAD DUP1 DUP4 SUB DUP2 DUP6 DUP9 DUP9 CALL SWAP4 POP POP POP POP ISZERO DUP1 ISZERO PUSH2 0x6D4 JUMPI RETURNDATASIZE PUSH0 DUP1 RETURNDATACOPY RETURNDATASIZE PUSH0 REVERT JUMPDEST POP PUSH2 0x79A DUP2 PUSH1 0x2 ADD PUSH0 SWAP1 SLOAD SWAP1 PUSH2 0x100 EXP SWAP1 DIV PUSH20 0xFFFFFFFFFFFFFFFFFFFFFFFFFFFFFFFFFFFFFFFF AND DUP3 PUSH1 0x3 ADD DUP1 SLOAD DUP1 PUSH1 0x20 MUL PUSH1 0x20 ADD PUSH1 0x40 MLOAD SWAP1 DUP2 ADD PUSH1 0x40 MSTORE DUP1 SWAP3 SWAP2 SWAP1 DUP2 DUP2 MSTORE PUSH1 0x20 ADD DUP3 DUP1 SLOAD DUP1 ISZERO PUSH2 0x748 JUMPI PUSH1 0x20 MUL DUP3 ADD SWAP2 SWAP1 PUSH0 MSTORE PUSH1 0x20 PUSH0 KECCAK256 SWAP1 JUMPDEST DUP2 SLOAD DUP2 MSTORE PUSH1 0x20 ADD SWAP1 PUSH1 0x1 ADD SWAP1 DUP1 DUP4 GT PUSH2 0x734 JUMPI JUMPDEST POP POP POP POP POP DUP4 PUSH1 0x5 ADD PUSH0 SWAP1 SLOAD SWAP1 PUSH2 0x100 EXP SWAP1 DIV PUSH20 0xFFFFFFFFFFFFFFFFFFFFFFFFFFFFFFFFFFFFFFFF AND DUP5 PUSH1 0x6 ADD PUSH0 SWAP1 SLOAD SWAP1 PUSH2 0x100 EXP SWAP1 DIV PUSH20 0xFFFFFFFFFFFFFFFFFFFFFFFFFFFFFFFFFFFFFFFF AND PUSH2 0x3254 JUMP JUMPDEST JUMPDEST DUP3 PUSH32 0x14A336EB4D7D76E62B2B4FBDD7E2FE6DF1AE52CAEDBCFA226ED2AC4D985DCE07 DUP3 PUSH1 0x6 ADD PUSH0 SWAP1 SLOAD SWAP1 PUSH2 0x100 EXP SWAP1 DIV PUSH20 0xFFFFFFFFFFFFFFFFFFFFFFFFFFFFFFFFFFFFFFFF AND DUP4 PUSH1 0x7 ADD SLOAD PUSH1 0x40 MLOAD PUSH2 0x7F4 SWAP3 SWAP2 SWAP1 PUSH2 0x4A90 JUMP JUMPDEST PUSH1 0x40 MLOAD DUP1 SWAP2 SUB SWAP1 LOG2 POP PUSH2 0x805 PUSH2 0x3517 JUMP JUMPDEST POP POP JUMP JUMPDEST DUP4 CALLER PUSH20 0xFFFFFFFFFFFFFFFFFFFFFFFFFFFFFFFFFFFFFFFF AND PUSH1 0x38 PUSH0 DUP4 DUP2 MSTORE PUSH1 0x20 ADD SWAP1 DUP2 MSTORE PUSH1 0x20 ADD PUSH0 KECCAK256 PUSH1 0x5 ADD PUSH0 SWAP1 SLOAD SWAP1 PUSH2 0x100 EXP SWAP1 DIV PUSH20 0xFFFFFFFFFFFFFFFFFFFFFFFFFFFFFFFFFFFFFFFF AND PUSH20 0xFFFFFFFFFFFFFFFFFFFFFFFFFFFFFFFFFFFFFFFF AND EQ PUSH2 0x8AB JUMPI PUSH1 0x40 MLOAD PUSH32 0x8C379A000000000000000000000000000000000000000000000000000000000 DUP2 MSTORE PUSH1 0x4 ADD PUSH2 0x8A2 SWAP1 PUSH2 0x4B27 JUMP JUMPDEST PUSH1 0x40 MLOAD DUP1 SWAP2 SUB SWAP1 REVERT JUMPDEST DUP5 PUSH1 0x38 PUSH0 DUP3 DUP2 MSTORE PUSH1 0x20 ADD SWAP1 DUP2 MSTORE PUSH1 0x20 ADD PUSH0 KECCAK256 PUSH0 ADD PUSH0 SWAP1 SLOAD SWAP1 PUSH2 0x100 EXP SWAP1 DIV PUSH1 0xFF AND PUSH2 0x90B JUMPI PUSH1 0x40 MLOAD PUSH32 0x8C379A000000000000000000000000000000000000000000000000000000000 DUP2 MSTORE PUSH1 0x4 ADD PUSH2 0x902 SWAP1 PUSH2 0x4871 JUMP JUMPDEST PUSH1 0x40 MLOAD DUP1 SWAP2 SUB SWAP1 REVERT JUMPDEST PUSH2 0x913 PUSH2 0x2F07 JUMP JUMPDEST PUSH0 PUSH1 0x38 PUSH0 DUP9 DUP2 MSTORE PUSH1 0x20 ADD SWAP1 DUP2 MSTORE PUSH1 0x20 ADD PUSH0 KECCAK256 SWAP1 POP DUP1 PUSH1 0x5 ADD PUSH0 SWAP1 SLOAD SWAP1 PUSH2 0x100 EXP SWAP1 DIV PUSH20 0xFFFFFFFFFFFFFFFFFFFFFFFFFFFFFFFFFFFFFFFF AND PUSH20 0xFFFFFFFFFFFFFFFFFFFFFFFFFFFFFFFFFFFFFFFF AND DUP2 PUSH1 0x6 ADD PUSH0 SWAP1 SLOAD SWAP1 PUSH2 0x100 EXP SWAP1 DIV PUSH20 0xFFFFFFFFFFFFFFFFFFFFFFFFFFFFFFFFFFFFFFFF AND PUSH20 0xFFFFFFFFFFFFFFFFFFFFFFFFFFFFFFFFFFFFFFFF AND EQ PUSH2 0x9DB JUMPI PUSH1 0x40 MLOAD PUSH32 0x8C379A000000000000000000000000000000000000000000000000000000000 DUP2 MSTORE PUSH1 0x4 ADD PUSH2 0x9D2 SWAP1 PUSH2 0x4BB5 JUMP JUMPDEST PUSH1 0x40 MLOAD DUP1 SWAP2 SUB SWAP1 REVERT JUMPDEST PUSH0 DUP6 GT PUSH2 0xA1D JUMPI PUSH1 0x40 MLOAD PUSH32 0x8C379A000000000000000000000000000000000000000000000000000000000 DUP2 MSTORE PUSH1 0x4 ADD PUSH2 0xA14 SWAP1 PUSH2 0x4C1D JUMP JUMPDEST PUSH1 0x40 MLOAD DUP1 SWAP2 SUB SWAP1 REVERT JUMPDEST DUP6 DUP2 PUSH1 0x8 ADD PUSH0 PUSH2 0x100 EXP DUP2 SLOAD DUP2 PUSH1 0xFF MUL NOT AND SWAP1 DUP4 ISZERO ISZERO MUL OR SWAP1 SSTORE POP DUP5 DUP2 PUSH1 0x7 ADD DUP2 SWAP1 SSTORE POP DUP4 DUP2 PUSH1 0x9 ADD DUP2 SWAP1 SSTORE POP PUSH2 0xA6C CALLER PUSH1 0x5 PUSH1 0xA DUP11 PUSH2 0xA5D SWAP2 SWAP1 PUSH2 0x498C JUMP JUMPDEST PUSH2 0xA67 SWAP2 SWAP1 PUSH2 0x49CD JUMP JUMPDEST PUSH2 0x3159 JUMP JUMPDEST DUP7 PUSH32 0x3F64122B54602716F35A4D945015FA5B103D1FAA27671AFC72422C8E6CF9F85B DUP8 DUP8 DUP8 PUSH1 0x40 MLOAD PUSH2 0xAA0 SWAP4 SWAP3 SWAP2 SWAP1 PUSH2 0x4C4A JUMP JUMPDEST PUSH1 0x40 MLOAD DUP1 SWAP2 SUB SWAP1 LOG2 POP PUSH2 0xAB1 PUSH2 0x3517 JUMP JUMPDEST POP POP POP POP POP POP JUMP JUMPDEST PUSH0 SELFBALANCE SWAP1 POP PUSH0 DUP2 GT PUSH2 0xAFF JUMPI PUSH1 0x40 MLOAD PUSH32 0x8C379A000000000000000000000000000000000000000000000000000000000 DUP2 MSTORE PUSH1 0x4 ADD PUSH2 0xAF6 SWAP1 PUSH2 0x4CC9 JUMP JUMPDEST PUSH1 0x40 MLOAD DUP1 SWAP2 SUB SWAP1 REVERT JUMPDEST PUSH1 0x33 PUSH0 SWAP1 SLOAD SWAP1 PUSH2 0x100 EXP SWAP1 DIV PUSH20 0xFFFFFFFFFFFFFFFFFFFFFFFFFFFFFFFFFFFFFFFF AND PUSH20 0xFFFFFFFFFFFFFFFFFFFFFFFFFFFFFFFFFFFFFFFF AND PUSH2 0x8FC DUP3 SWAP1 DUP2 ISZERO MUL SWAP1 PUSH1 0x40 MLOAD PUSH0 PUSH1 0x40 MLOAD DUP1 DUP4 SUB DUP2 DUP6 DUP9 DUP9 CALL SWAP4 POP POP POP POP ISZERO DUP1 ISZERO PUSH2 0xB63 JUMPI RETURNDATASIZE PUSH0 DUP1 RETURNDATACOPY RETURNDATASIZE PUSH0 REVERT JUMPDEST POP POP JUMP JUMPDEST PUSH1 0x39 PUSH1 0x20 MSTORE DUP1 PUSH0 MSTORE PUSH1 0x40 PUSH0 KECCAK256 PUSH0 SWAP2 POP SWAP1 POP SLOAD DUP2 JUMP JUMPDEST DUP1 PUSH1 0x38 PUSH0 DUP3 DUP2 MSTORE PUSH1 0x20 ADD SWAP1 DUP2 MSTORE PUSH1 0x20 ADD PUSH0 KECCAK256 PUSH0 ADD PUSH0 SWAP1 SLOAD SWAP1 PUSH2 0x100 EXP SWAP1 DIV PUSH1 0xFF AND PUSH2 0xBDC JUMPI PUSH1 0x40 MLOAD PUSH32 0x8C379A000000000000000000000000000000000000000000000000000000000 DUP2 MSTORE PUSH1 0x4 ADD PUSH2 0xBD3 SWAP1 PUSH2 0x4871 JUMP JUMPDEST PUSH1 0x40 MLOAD DUP1 SWAP2 SUB SWAP1 REVERT JUMPDEST PUSH2 0xBE4 PUSH2 0x2F07 JUMP JUMPDEST PUSH0 PUSH1 0x38 PUSH0 DUP5 DUP2 MSTORE PUSH1 0x20 ADD SWAP1 DUP2 MSTORE PUSH1 0x20 ADD PUSH0 KECCAK256 SWAP1 POP DUP1 PUSH1 0x8 ADD PUSH0 SWAP1 SLOAD SWAP1 PUSH2 0x100 EXP SWAP1 DIV PUSH1 0xFF AND PUSH2 0xC48 JUMPI PUSH1 0x40 MLOAD PUSH32 0x8C379A000000000000000000000000000000000000000000000000000000000 DUP2 MSTORE PUSH1 0x4 ADD PUSH2 0xC3F SWAP1 PUSH2 0x4D31 JUMP JUMPDEST PUSH1 0x40 MLOAD DUP1 SWAP2 SUB SWAP1 REVERT JUMPDEST DUP1 PUSH1 0x9 ADD SLOAD TIMESTAMP GT ISZERO PUSH2 0xC8F JUMPI PUSH1 0x40 MLOAD PUSH32 0x8C379A000000000000000000000000000000000000000000000000000000000 DUP2 MSTORE PUSH1 0x4 ADD PUSH2 0xC86 SWAP1 PUSH2 0x4D99 JUMP JUMPDEST PUSH1 0x40 MLOAD DUP1 SWAP2 SUB SWAP1 REVERT JUMPDEST TIMESTAMP TIMESTAMP LT ISZERO PUSH2 0xCD2 JUMPI PUSH1 0x40 MLOAD PUSH32 0x8C379A000000000000000000000000000000000000000000000000000000000 DUP2 MSTORE PUSH1 0x4 ADD PUSH2 0xCC9 SWAP1 PUSH2 0x4E01 JUMP JUMPDEST PUSH1 0x40 MLOAD DUP1 SWAP2 SUB SWAP1 REVERT JUMPDEST DUP1 PUSH1 0x7 ADD SLOAD CALLVALUE GT PUSH2 0xD18 JUMPI PUSH1 0x40 MLOAD PUSH32 0x8C379A000000000000000000000000000000000000000000000000000000000 DUP2 MSTORE PUSH1 0x4 ADD PUSH2 0xD0F SWAP1 PUSH2 0x4E8F JUMP JUMPDEST PUSH1 0x40 MLOAD DUP1 SWAP2 SUB SWAP1 REVERT JUMPDEST DUP1 PUSH1 0x5 ADD PUSH0 SWAP1 SLOAD SWAP1 PUSH2 0x100 EXP SWAP1 DIV PUSH20 0xFFFFFFFFFFFFFFFFFFFFFFFFFFFFFFFFFFFFFFFF AND PUSH20 0xFFFFFFFFFFFFFFFFFFFFFFFFFFFFFFFFFFFFFFFF AND CALLER PUSH20 0xFFFFFFFFFFFFFFFFFFFFFFFFFFFFFFFFFFFFFFFF AND SUB PUSH2 0xDA9 JUMPI PUSH1 0x40 MLOAD PUSH32 0x8C379A000000000000000000000000000000000000000000000000000000000 DUP2 MSTORE PUSH1 0x4 ADD PUSH2 0xDA0 SWAP1 PUSH2 0x4EF7 JUMP JUMPDEST PUSH1 0x40 MLOAD DUP1 SWAP2 SUB SWAP1 REVERT JUMPDEST DUP1 PUSH1 0x5 ADD PUSH0 SWAP1 SLOAD SWAP1 PUSH2 0x100 EXP SWAP1 DIV PUSH20 0xFFFFFFFFFFFFFFFFFFFFFFFFFFFFFFFFFFFFFFFF AND PUSH20 0xFFFFFFFFFFFFFFFFFFFFFFFFFFFFFFFFFFFFFFFF AND DUP2 PUSH1 0x6 ADD PUSH0 SWAP1 SLOAD SWAP1 PUSH2 0x100 EXP SWAP1 DIV PUSH20 0xFFFFFFFFFFFFFFFFFFFFFFFFFFFFFFFFFFFFFFFF AND PUSH20 0xFFFFFFFFFFFFFFFFFFFFFFFFFFFFFFFFFFFFFFFF AND EQ PUSH2 0xE8E JUMPI DUP1 PUSH1 0x6 ADD PUSH0 SWAP1 SLOAD SWAP1 PUSH2 0x100 EXP SWAP1 DIV PUSH20 0xFFFFFFFFFFFFFFFFFFFFFFFFFFFFFFFFFFFFFFFF AND PUSH20 0xFFFFFFFFFFFFFFFFFFFFFFFFFFFFFFFFFFFFFFFF AND PUSH2 0x8FC DUP3 PUSH1 0x7 ADD SLOAD SWAP1 DUP2 ISZERO MUL SWAP1 PUSH1 0x40 MLOAD PUSH0 PUSH1 0x40 MLOAD DUP1 DUP4 SUB DUP2 DUP6 DUP9 DUP9 CALL SWAP4 POP POP POP POP ISZERO DUP1 ISZERO PUSH2 0xE8C JUMPI RETURNDATASIZE PUSH0 DUP1 RETURNDATACOPY RETURNDATASIZE PUSH0 REVERT JUMPDEST POP JUMPDEST CALLVALUE DUP2 PUSH1 0x7 ADD DUP2 SWAP1 SSTORE POP CALLER DUP2 PUSH1 0x6 ADD PUSH0 PUSH2 0x100 EXP DUP2 SLOAD DUP2 PUSH20 0xFFFFFFFFFFFFFFFFFFFFFFFFFFFFFFFFFFFFFFFF MUL NOT AND SWAP1 DUP4 PUSH20 0xFFFFFFFFFFFFFFFFFFFFFFFFFFFFFFFFFFFFFFFF AND MUL OR SWAP1 SSTORE POP PUSH2 0xEFB CALLER PUSH1 0x4 PUSH1 0xA DUP7 PUSH2 0xEEC SWAP2 SWAP1 PUSH2 0x498C JUMP JUMPDEST PUSH2 0xEF6 SWAP2 SWAP1 PUSH2 0x49CD JUMP JUMPDEST PUSH2 0x3159 JUMP JUMPDEST CALLER PUSH20 0xFFFFFFFFFFFFFFFFFFFFFFFFFFFFFFFFFFFFFFFF AND DUP4 PUSH32 0x897645643062F7E221AEC187272E76020E3832294B4BF87B8F683C4E3EF8AA6D CALLVALUE PUSH1 0x40 MLOAD PUSH2 0xF42 SWAP2 SWAP1 PUSH2 0x3E38 JUMP JUMPDEST PUSH1 0x40 MLOAD DUP1 SWAP2 SUB SWAP1 LOG3 POP PUSH2 0xF53 PUSH2 0x3517 JUMP JUMPDEST POP POP JUMP JUMPDEST PUSH1 0x60 PUSH0 PUSH1 0x32 DUP1 SLOAD SWAP1 POP PUSH8 0xFFFFFFFFFFFFFFFF DUP2 GT ISZERO PUSH2 0xF79 JUMPI PUSH2 0xF78 PUSH2 0x4274 JUMP JUMPDEST JUMPDEST PUSH1 0x40 MLOAD SWAP1 DUP1 DUP3 MSTORE DUP1 PUSH1 0x20 MUL PUSH1 0x20 ADD DUP3 ADD PUSH1 0x40 MSTORE DUP1 ISZERO PUSH2 0xFB2 JUMPI DUP2 PUSH1 0x20 ADD JUMPDEST PUSH2 0xF9F PUSH2 0x3ABF JUMP JUMPDEST DUP2 MSTORE PUSH1 0x20 ADD SWAP1 PUSH1 0x1 SWAP1 SUB SWAP1 DUP2 PUSH2 0xF97 JUMPI SWAP1 POP JUMPDEST POP SWAP1 POP PUSH0 JUMPDEST PUSH1 0x32 DUP1 SLOAD SWAP1 POP DUP2 LT ISZERO PUSH2 0x12A2 JUMPI PUSH1 0x38 PUSH0 PUSH1 0x32 DUP4 DUP2 SLOAD DUP2 LT PUSH2 0xFDB JUMPI PUSH2 0xFDA PUSH2 0x4F15 JUMP JUMPDEST JUMPDEST SWAP1 PUSH0 MSTORE PUSH1 0x20 PUSH0 KECCAK256 ADD SLOAD DUP2 MSTORE PUSH1 0x20 ADD SWAP1 DUP2 MSTORE PUSH1 0x20 ADD PUSH0 KECCAK256 PUSH1 0x40 MLOAD DUP1 PUSH2 0x140 ADD PUSH1 0x40 MSTORE SWAP1 DUP2 PUSH0 DUP3 ADD PUSH0 SWAP1 SLOAD SWAP1 PUSH2 0x100 EXP SWAP1 DIV PUSH1 0xFF AND ISZERO ISZERO ISZERO ISZERO DUP2 MSTORE PUSH1 0x20 ADD PUSH1 0x1 DUP3 ADD SLOAD DUP2 MSTORE PUSH1 0x20 ADD PUSH1 0x2 DUP3 ADD PUSH0 SWAP1 SLOAD SWAP1 PUSH2 0x100 EXP SWAP1 DIV PUSH20 0xFFFFFFFFFFFFFFFFFFFFFFFFFFFFFFFFFFFFFFFF AND PUSH20 0xFFFFFFFFFFFFFFFFFFFFFFFFFFFFFFFFFFFFFFFF AND PUSH20 0xFFFFFFFFFFFFFFFFFFFFFFFFFFFFFFFFFFFFFFFF AND DUP2 MSTORE PUSH1 0x20 ADD PUSH1 0x3 DUP3 ADD DUP1 SLOAD DUP1 PUSH1 0x20 MUL PUSH1 0x20 ADD PUSH1 0x40 MLOAD SWAP1 DUP2 ADD PUSH1 0x40 MSTORE DUP1 SWAP3 SWAP2 SWAP1 DUP2 DUP2 MSTORE PUSH1 0x20 ADD DUP3 DUP1 SLOAD DUP1 ISZERO PUSH2 0x10C2 JUMPI PUSH1 0x20 MUL DUP3 ADD SWAP2 SWAP1 PUSH0 MSTORE PUSH1 0x20 PUSH0 KECCAK256 SWAP1 JUMPDEST DUP2 SLOAD DUP2 MSTORE PUSH1 0x20 ADD SWAP1 PUSH1 0x1 ADD SWAP1 DUP1 DUP4 GT PUSH2 0x10AE JUMPI JUMPDEST POP POP POP POP POP DUP2 MSTORE PUSH1 0x20 ADD PUSH1 0x4 DUP3 ADD DUP1 SLOAD DUP1 PUSH1 0x20 MUL PUSH1 0x20 ADD PUSH1 0x40 MLOAD SWAP1 DUP2 ADD PUSH1 0x40 MSTORE DUP1 SWAP3 SWAP2 SWAP1 DUP2 DUP2 MSTORE PUSH1 0x20 ADD PUSH0 SWAP1 JUMPDEST DUP3 DUP3 LT ISZERO PUSH2 0x1197 JUMPI DUP4 DUP3 SWAP1 PUSH0 MSTORE PUSH1 0x20 PUSH0 KECCAK256 ADD DUP1 SLOAD PUSH2 0x110C SWAP1 PUSH2 0x4F6F JUMP JUMPDEST DUP1 PUSH1 0x1F ADD PUSH1 0x20 DUP1 SWAP2 DIV MUL PUSH1 0x20 ADD PUSH1 0x40 MLOAD SWAP1 DUP2 ADD PUSH1 0x40 MSTORE DUP1 SWAP3 SWAP2 SWAP1 DUP2 DUP2 MSTORE PUSH1 0x20 ADD DUP3 DUP1 SLOAD PUSH2 0x1138 SWAP1 PUSH2 0x4F6F JUMP JUMPDEST DUP1 ISZERO PUSH2 0x1183 JUMPI DUP1 PUSH1 0x1F LT PUSH2 0x115A JUMPI PUSH2 0x100 DUP1 DUP4 SLOAD DIV MUL DUP4 MSTORE SWAP2 PUSH1 0x20 ADD SWAP2 PUSH2 0x1183 JUMP JUMPDEST DUP3 ADD SWAP2 SWAP1 PUSH0 MSTORE PUSH1 0x20 PUSH0 KECCAK256 SWAP1 JUMPDEST DUP2 SLOAD DUP2 MSTORE SWAP1 PUSH1 0x1 ADD SWAP1 PUSH1 0x20 ADD DUP1 DUP4 GT PUSH2 0x1166 JUMPI DUP3 SWAP1 SUB PUSH1 0x1F AND DUP3 ADD SWAP2 JUMPDEST POP POP POP POP POP DUP2 MSTORE PUSH1 0x20 ADD SWAP1 PUSH1 0x1 ADD SWAP1 PUSH2 0x10EF JUMP JUMPDEST POP POP POP POP DUP2 MSTORE PUSH1 0x20 ADD PUSH1 0x5 DUP3 ADD PUSH0 SWAP1 SLOAD SWAP1 PUSH2 0x100 EXP SWAP1 DIV PUSH20 0xFFFFFFFFFFFFFFFFFFFFFFFFFFFFFFFFFFFFFFFF AND PUSH20 0xFFFFFFFFFFFFFFFFFFFFFFFFFFFFFFFFFFFFFFFF AND PUSH20 0xFFFFFFFFFFFFFFFFFFFFFFFFFFFFFFFFFFFFFFFF AND DUP2 MSTORE PUSH1 0x20 ADD PUSH1 0x6 DUP3 ADD PUSH0 SWAP1 SLOAD SWAP1 PUSH2 0x100 EXP SWAP1 DIV PUSH20 0xFFFFFFFFFFFFFFFFFFFFFFFFFFFFFFFFFFFFFFFF AND PUSH20 0xFFFFFFFFFFFFFFFFFFFFFFFFFFFFFFFFFFFFFFFF AND PUSH20 0xFFFFFFFFFFFFFFFFFFFFFFFFFFFFFFFFFFFFFFFF AND DUP2 MSTORE PUSH1 0x20 ADD PUSH1 0x7 DUP3 ADD SLOAD DUP2 MSTORE PUSH1 0x20 ADD PUSH1 0x8 DUP3 ADD PUSH0 SWAP1 SLOAD SWAP1 PUSH2 0x100 EXP SWAP1 DIV PUSH1 0xFF AND ISZERO ISZERO ISZERO ISZERO DUP2 MSTORE PUSH1 0x20 ADD PUSH1 0x9 DUP3 ADD SLOAD DUP2 MSTORE POP POP DUP3 DUP3 DUP2 MLOAD DUP2 LT PUSH2 0x128A JUMPI PUSH2 0x1289 PUSH2 0x4F15 JUMP JUMPDEST JUMPDEST PUSH1 0x20 MUL PUSH1 0x20 ADD ADD DUP2 SWAP1 MSTORE POP DUP1 DUP1 PUSH1 0x1 ADD SWAP2 POP POP PUSH2 0xFB7 JUMP JUMPDEST POP DUP1 SWAP2 POP POP SWAP1 JUMP JUMPDEST PUSH2 0x12B2 PUSH2 0x3520 JUMP JUMPDEST PUSH2 0x12BB PUSH0 PUSH2 0x35A7 JUMP JUMPDEST JUMP JUMPDEST DUP1 CALLER PUSH20 0xFFFFFFFFFFFFFFFFFFFFFFFFFFFFFFFFFFFFFFFF AND PUSH1 0x38 PUSH0 DUP4 DUP2 MSTORE PUSH1 0x20 ADD SWAP1 DUP2 MSTORE PUSH1 0x20 ADD PUSH0 KECCAK256 PUSH1 0x5 ADD PUSH0 SWAP1 SLOAD SWAP1 PUSH2 0x100 EXP SWAP1 DIV PUSH20 0xFFFFFFFFFFFFFFFFFFFFFFFFFFFFFFFFFFFFFFFF AND PUSH20 0xFFFFFFFFFFFFFFFFFFFFFFFFFFFFFFFFFFFFFFFF AND EQ PUSH2 0x135F JUMPI PUSH1 0x40 MLOAD PUSH32 0x8C379A000000000000000000000000000000000000000000000000000000000 DUP2 MSTORE PUSH1 0x4 ADD PUSH2 0x1356 SWAP1 PUSH2 0x4B27 JUMP JUMPDEST PUSH1 0x40 MLOAD DUP1 SWAP2 SUB SWAP1 REVERT JUMPDEST DUP2 PUSH1 0x38 PUSH0 DUP3 DUP2 MSTORE PUSH1 0x20 ADD SWAP1 DUP2 MSTORE PUSH1 0x20 ADD PUSH0 KECCAK256 PUSH0 ADD PUSH0 SWAP1 SLOAD SWAP1 PUSH2 0x100 EXP SWAP1 DIV PUSH1 0xFF AND PUSH2 0x13BF JUMPI PUSH1 0x40 MLOAD PUSH32 0x8C379A000000000000000000000000000000000000000000000000000000000 DUP2 MSTORE PUSH1 0x4 ADD PUSH2 0x13B6 SWAP1 PUSH2 0x4871 JUMP JUMPDEST PUSH1 0x40 MLOAD DUP1 SWAP2 SUB SWAP1 REVERT JUMPDEST PUSH0 PUSH1 0x38 PUSH0 DUP6 DUP2 MSTORE PUSH1 0x20 ADD SWAP1 DUP2 MSTORE PUSH1 0x20 ADD PUSH0 KECCAK256 SWAP1 POP CALLER PUSH20 0xFFFFFFFFFFFFFFFFFFFFFFFFFFFFFFFFFFFFFFFF AND DUP2 PUSH1 0x6 ADD PUSH0 SWAP1 SLOAD SWAP1 PUSH2 0x100 EXP SWAP1 DIV PUSH20 0xFFFFFFFFFFFFFFFFFFFFFFFFFFFFFFFFFFFFFFFF AND PUSH20 0xFFFFFFFFFFFFFFFFFFFFFFFFFFFFFFFFFFFFFFFF AND EQ PUSH2 0x1464 JUMPI PUSH1 0x40 MLOAD PUSH32 0x8C379A000000000000000000000000000000000000000000000000000000000 DUP2 MSTORE PUSH1 0x4 ADD PUSH2 0x145B SWAP1 PUSH2 0x4FE9 JUMP JUMPDEST PUSH1 0x40 MLOAD DUP1 SWAP2 SUB SWAP1 REVERT JUMPDEST PUSH0 DUP2 PUSH0 ADD PUSH0 PUSH2 0x100 EXP DUP2 SLOAD DUP2 PUSH1 0xFF MUL NOT AND SWAP1 DUP4 ISZERO ISZERO MUL OR SWAP1 SSTORE POP PUSH2 0x1487 DUP5 PUSH2 0x2F54 JUMP JUMPDEST PUSH2 0x14A9 CALLER PUSH1 0x6 PUSH1 0xA DUP8 PUSH2 0x149A SWAP2 SWAP1 PUSH2 0x498C JUMP JUMPDEST PUSH2 0x14A4 SWAP2 SWAP1 PUSH2 0x49CD JUMP JUMPDEST PUSH2 0x3159 JUMP JUMPDEST DUP4 PUSH32 0xF4DB963B540739A72591B5640B5388B95BFFCAF184F3730C4A5FAE88D9996B4E PUSH1 0x40 MLOAD PUSH1 0x40 MLOAD DUP1 SWAP2 SUB SWAP1 LOG2 POP POP POP POP JUMP JUMPDEST PUSH2 0x14E4 PUSH2 0x3520 JUMP JUMPDEST DUP2 PUSH1 0x34 DUP2 SWAP1 SSTORE POP DUP1 PUSH1 0x33 PUSH0 PUSH2 0x100 EXP DUP2 SLOAD DUP2 PUSH20 0xFFFFFFFFFFFFFFFFFFFFFFFFFFFFFFFFFFFFFFFF MUL NOT AND SWAP1 DUP4 PUSH20 0xFFFFFFFFFFFFFFFFFFFFFFFFFFFFFFFFFFFFFFFF AND MUL OR SWAP1 SSTORE POP POP POP JUMP JUMPDEST DUP1 PUSH1 0x38 PUSH0 DUP3 DUP2 MSTORE PUSH1 0x20 ADD SWAP1 DUP2 MSTORE PUSH1 0x20 ADD PUSH0 KECCAK256 PUSH0 ADD PUSH0 SWAP1 SLOAD SWAP1 PUSH2 0x100 EXP SWAP1 DIV PUSH1 0xFF AND PUSH2 0x158F JUMPI PUSH1 0x40 MLOAD PUSH32 0x8C379A000000000000000000000000000000000000000000000000000000000 DUP2 MSTORE PUSH1 0x4 ADD PUSH2 0x1586 SWAP1 PUSH2 0x4871 JUMP JUMPDEST PUSH1 0x40 MLOAD DUP1 SWAP2 SUB SWAP1 REVERT JUMPDEST PUSH2 0x1597 PUSH2 0x2F07 JUMP JUMPDEST PUSH0 PUSH1 0x38 PUSH0 DUP5 DUP2 MSTORE PUSH1 0x20 ADD SWAP1 DUP2 MSTORE PUSH1 0x20 ADD PUSH0 KECCAK256 SWAP1 POP DUP1 PUSH1 0x8 ADD PUSH0 SWAP1 SLOAD SWAP1 PUSH2 0x100 EXP SWAP1 DIV PUSH1 0xFF AND ISZERO PUSH2 0x15FC JUMPI PUSH1 0x40 MLOAD PUSH32 0x8C379A000000000000000000000000000000000000000000000000000000000 DUP2 MSTORE PUSH1 0x4 ADD PUSH2 0x15F3 SWAP1 PUSH2 0x5051 JUMP JUMPDEST PUSH1 0x40 MLOAD DUP1 SWAP2 SUB SWAP1 REVERT JUMPDEST DUP1 PUSH1 0x7 ADD SLOAD CALLVALUE LT ISZERO PUSH2 0x1643 JUMPI PUSH1 0x40 MLOAD PUSH32 0x8C379A000000000000000000000000000000000000000000000000000000000 DUP2 MSTORE PUSH1 0x4 ADD PUSH2 0x163A SWAP1 PUSH2 0x50DF JUMP JUMPDEST PUSH1 0x40 MLOAD DUP1 SWAP2 SUB SWAP1 REVERT JUMPDEST DUP1 PUSH1 0x9 ADD SLOAD TIMESTAMP GT ISZERO PUSH2 0x168A JUMPI PUSH1 0x40 MLOAD PUSH32 0x8C379A000000000000000000000000000000000000000000000000000000000 DUP2 MSTORE PUSH1 0x4 ADD PUSH2 0x1681 SWAP1 PUSH2 0x5147 JUMP JUMPDEST PUSH1 0x40 MLOAD DUP1 SWAP2 SUB SWAP1 REVERT JUMPDEST PUSH0 DUP2 PUSH0 ADD PUSH0 PUSH2 0x100 EXP DUP2 SLOAD DUP2 PUSH1 0xFF MUL NOT AND SWAP1 DUP4 ISZERO ISZERO MUL OR SWAP1 SSTORE POP DUP1 PUSH1 0x5 ADD PUSH0 SWAP1 SLOAD SWAP1 PUSH2 0x100 EXP SWAP1 DIV PUSH20 0xFFFFFFFFFFFFFFFFFFFFFFFFFFFFFFFFFFFFFFFF AND PUSH20 0xFFFFFFFFFFFFFFFFFFFFFFFFFFFFFFFFFFFFFFFF AND PUSH2 0x8FC PUSH1 0x64 PUSH1 0x34 SLOAD PUSH1 0x64 PUSH2 0x16F2 SWAP2 SWAP1 PUSH2 0x4A00 JUMP JUMPDEST DUP5 PUSH1 0x7 ADD SLOAD PUSH2 0x1701 SWAP2 SWAP1 PUSH2 0x498C JUMP JUMPDEST PUSH2 0x170B SWAP2 SWAP1 PUSH2 0x4A60 JUMP JUMPDEST SWAP1 DUP2 ISZERO MUL SWAP1 PUSH1 0x40 MLOAD PUSH0 PUSH1 0x40 MLOAD DUP1 DUP4 SUB DUP2 DUP6 DUP9 DUP9 CALL SWAP4 POP POP POP POP ISZERO DUP1 ISZERO PUSH2 0x1733 JUMPI RETURNDATASIZE PUSH0 DUP1 RETURNDATACOPY RETURNDATASIZE PUSH0 REVERT JUMPDEST POP PUSH2 0x17D6 DUP2 PUSH1 0x2 ADD PUSH0 SWAP1 SLOAD SWAP1 PUSH2 0x100 EXP SWAP1 DIV PUSH20 0xFFFFFFFFFFFFFFFFFFFFFFFFFFFFFFFFFFFFFFFF AND DUP3 PUSH1 0x3 ADD DUP1 SLOAD DUP1 PUSH1 0x20 MUL PUSH1 0x20 ADD PUSH1 0x40 MLOAD SWAP1 DUP2 ADD PUSH1 0x40 MSTORE DUP1 SWAP3 SWAP2 SWAP1 DUP2 DUP2 MSTORE PUSH1 0x20 ADD DUP3 DUP1 SLOAD DUP1 ISZERO PUSH2 0x17A7 JUMPI PUSH1 0x20 MUL DUP3 ADD SWAP2 SWAP1 PUSH0 MSTORE PUSH1 0x20 PUSH0 KECCAK256 SWAP1 JUMPDEST DUP2 SLOAD DUP2 MSTORE PUSH1 0x20 ADD SWAP1 PUSH1 0x1 ADD SWAP1 DUP1 DUP4 GT PUSH2 0x1793 JUMPI JUMPDEST POP POP POP POP POP DUP4 PUSH1 0x5 ADD PUSH0 SWAP1 SLOAD SWAP1 PUSH2 0x100 EXP SWAP1 DIV PUSH20 0xFFFFFFFFFFFFFFFFFFFFFFFFFFFFFFFFFFFFFFFF AND CALLER PUSH2 0x3254 JUMP JUMPDEST CALLER DUP2 PUSH1 0x6 ADD PUSH0 PUSH2 0x100 EXP DUP2 SLOAD DUP2 PUSH20 0xFFFFFFFFFFFFFFFFFFFFFFFFFFFFFFFFFFFFFFFF MUL NOT AND SWAP1 DUP4 PUSH20 0xFFFFFFFFFFFFFFFFFFFFFFFFFFFFFFFFFFFFFFFF AND MUL OR SWAP1 SSTORE POP PUSH1 0x3A PUSH0 PUSH1 0x39 PUSH0 CALLER PUSH20 0xFFFFFFFFFFFFFFFFFFFFFFFFFFFFFFFFFFFFFFFF AND PUSH20 0xFFFFFFFFFFFFFFFFFFFFFFFFFFFFFFFFFFFFFFFF AND DUP2 MSTORE PUSH1 0x20 ADD SWAP1 DUP2 MSTORE PUSH1 0x20 ADD PUSH0 KECCAK256 SLOAD DUP2 MSTORE PUSH1 0x20 ADD SWAP1 DUP2 MSTORE PUSH1 0x20 ADD PUSH0 KECCAK256 PUSH1 0x3 ADD DUP4 SWAP1 DUP1 PUSH1 0x1 DUP2 SLOAD ADD DUP1 DUP3 SSTORE DUP1 SWAP2 POP POP PUSH1 0x1 SWAP1 SUB SWAP1 PUSH0 MSTORE PUSH1 0x20 PUSH0 KECCAK256 ADD PUSH0 SWAP1 SWAP2 SWAP1 SWAP2 SWAP1 SWAP2 POP SSTORE PUSH2 0x1896 DUP4 PUSH2 0x300F JUMP JUMPDEST CALLER DUP2 PUSH1 0x5 ADD PUSH0 PUSH2 0x100 EXP DUP2 SLOAD DUP2 PUSH20 0xFFFFFFFFFFFFFFFFFFFFFFFFFFFFFFFFFFFFFFFF MUL NOT AND SWAP1 DUP4 PUSH20 0xFFFFFFFFFFFFFFFFFFFFFFFFFFFFFFFFFFFFFFFF AND MUL OR SWAP1 SSTORE POP PUSH2 0x18E1 DUP4 PUSH2 0x2F54 JUMP JUMPDEST PUSH2 0x1903 CALLER PUSH1 0x3 PUSH1 0xA DUP7 PUSH2 0x18F4 SWAP2 SWAP1 PUSH2 0x498C JUMP JUMPDEST PUSH2 0x18FE SWAP2 SWAP1 PUSH2 0x49CD JUMP JUMPDEST PUSH2 0x3159 JUMP JUMPDEST DUP3 PUSH32 0xA7788C101BD389C10C19776F1D4A409FA668344D5464369DF3DEC808F2153990 PUSH1 0x40 MLOAD PUSH1 0x40 MLOAD DUP1 SWAP2 SUB SWAP1 LOG2 POP PUSH2 0x1939 PUSH2 0x3517 JUMP JUMPDEST POP POP JUMP JUMPDEST PUSH0 DUP1 PUSH2 0x1947 PUSH2 0x3678 JUMP JUMPDEST SWAP1 POP DUP1 PUSH0 ADD PUSH0 SWAP1 SLOAD SWAP1 PUSH2 0x100 EXP SWAP1 DIV PUSH20 0xFFFFFFFFFFFFFFFFFFFFFFFFFFFFFFFFFFFFFFFF AND SWAP2 POP POP SWAP1 JUMP JUMPDEST DUP5 DUP5 PUSH0 JUMPDEST PUSH1 0x32 DUP1 SLOAD SWAP1 POP DUP2 LT ISZERO PUSH2 0x1D2F JUMPI PUSH0 PUSH1 0x38 PUSH0 PUSH1 0x32 DUP5 DUP2 SLOAD DUP2 LT PUSH2 0x199B JUMPI PUSH2 0x199A PUSH2 0x4F15 JUMP JUMPDEST JUMPDEST SWAP1 PUSH0 MSTORE PUSH1 0x20 PUSH0 KECCAK256 ADD SLOAD DUP2 MSTORE PUSH1 0x20 ADD SWAP1 DUP2 MSTORE PUSH1 0x20 ADD PUSH0 KECCAK256 PUSH1 0x40 MLOAD DUP1 PUSH2 0x140 ADD PUSH1 0x40 MSTORE SWAP1 DUP2 PUSH0 DUP3 ADD PUSH0 SWAP1 SLOAD SWAP1 PUSH2 0x100 EXP SWAP1 DIV PUSH1 0xFF AND ISZERO ISZERO ISZERO ISZERO DUP2 MSTORE PUSH1 0x20 ADD PUSH1 0x1 DUP3 ADD SLOAD DUP2 MSTORE PUSH1 0x20 ADD PUSH1 0x2 DUP3 ADD PUSH0 SWAP1 SLOAD SWAP1 PUSH2 0x100 EXP SWAP1 DIV PUSH20 0xFFFFFFFFFFFFFFFFFFFFFFFFFFFFFFFFFFFFFFFF AND PUSH20 0xFFFFFFFFFFFFFFFFFFFFFFFFFFFFFFFFFFFFFFFF AND PUSH20 0xFFFFFFFFFFFFFFFFFFFFFFFFFFFFFFFFFFFFFFFF AND DUP2 MSTORE PUSH1 0x20 ADD PUSH1 0x3 DUP3 ADD DUP1 SLOAD DUP1 PUSH1 0x20 MUL PUSH1 0x20 ADD PUSH1 0x40 MLOAD SWAP1 DUP2 ADD PUSH1 0x40 MSTORE DUP1 SWAP3 SWAP2 SWAP1 DUP2 DUP2 MSTORE PUSH1 0x20 ADD DUP3 DUP1 SLOAD DUP1 ISZERO PUSH2 0x1A82 JUMPI PUSH1 0x20 MUL DUP3 ADD SWAP2 SWAP1 PUSH0 MSTORE PUSH1 0x20 PUSH0 KECCAK256 SWAP1 JUMPDEST DUP2 SLOAD DUP2 MSTORE PUSH1 0x20 ADD SWAP1 PUSH1 0x1 ADD SWAP1 DUP1 DUP4 GT PUSH2 0x1A6E JUMPI JUMPDEST POP POP POP POP POP DUP2 MSTORE PUSH1 0x20 ADD PUSH1 0x4 DUP3 ADD DUP1 SLOAD DUP1 PUSH1 0x20 MUL PUSH1 0x20 ADD PUSH1 0x40 MLOAD SWAP1 DUP2 ADD PUSH1 0x40 MSTORE DUP1 SWAP3 SWAP2 SWAP1 DUP2 DUP2 MSTORE PUSH1 0x20 ADD PUSH0 SWAP1 JUMPDEST DUP3 DUP3 LT ISZERO PUSH2 0x1B57 JUMPI DUP4 DUP3 SWAP1 PUSH0 MSTORE PUSH1 0x20 PUSH0 KECCAK256 ADD DUP1 SLOAD PUSH2 0x1ACC SWAP1 PUSH2 0x4F6F JUMP JUMPDEST DUP1 PUSH1 0x1F ADD PUSH1 0x20 DUP1 SWAP2 DIV MUL PUSH1 0x20 ADD PUSH1 0x40 MLOAD SWAP1 DUP2 ADD PUSH1 0x40 MSTORE DUP1 SWAP3 SWAP2 SWAP1 DUP2 DUP2 MSTORE PUSH1 0x20 ADD DUP3 DUP1 SLOAD PUSH2 0x1AF8 SWAP1 PUSH2 0x4F6F JUMP JUMPDEST DUP1 ISZERO PUSH2 0x1B43 JUMPI DUP1 PUSH1 0x1F LT PUSH2 0x1B1A JUMPI PUSH2 0x100 DUP1 DUP4 SLOAD DIV MUL DUP4 MSTORE SWAP2 PUSH1 0x20 ADD SWAP2 PUSH2 0x1B43 JUMP JUMPDEST DUP3 ADD SWAP2 SWAP1 PUSH0 MSTORE PUSH1 0x20 PUSH0 KECCAK256 SWAP1 JUMPDEST DUP2 SLOAD DUP2 MSTORE SWAP1 PUSH1 0x1 ADD SWAP1 PUSH1 0x20 ADD DUP1 DUP4 GT PUSH2 0x1B26 JUMPI DUP3 SWAP1 SUB PUSH1 0x1F AND DUP3 ADD SWAP2 JUMPDEST POP POP POP POP POP DUP2 MSTORE PUSH1 0x20 ADD SWAP1 PUSH1 0x1 ADD SWAP1 PUSH2 0x1AAF JUMP JUMPDEST POP POP POP POP DUP2 MSTORE PUSH1 0x20 ADD PUSH1 0x5 DUP3 ADD PUSH0 SWAP1 SLOAD SWAP1 PUSH2 0x100 EXP SWAP1 DIV PUSH20 0xFFFFFFFFFFFFFFFFFFFFFFFFFFFFFFFFFFFFFFFF AND PUSH20 0xFFFFFFFFFFFFFFFFFFFFFFFFFFFFFFFFFFFFFFFF AND PUSH20 0xFFFFFFFFFFFFFFFFFFFFFFFFFFFFFFFFFFFFFFFF AND DUP2 MSTORE PUSH1 0x20 ADD PUSH1 0x6 DUP3 ADD PUSH0 SWAP1 SLOAD SWAP1 PUSH2 0x100 EXP SWAP1 DIV PUSH20 0xFFFFFFFFFFFFFFFFFFFFFFFFFFFFFFFFFFFFFFFF AND PUSH20 0xFFFFFFFFFFFFFFFFFFFFFFFFFFFFFFFFFFFFFFFF AND PUSH20 0xFFFFFFFFFFFFFFFFFFFFFFFFFFFFFFFFFFFFFFFF AND DUP2 MSTORE PUSH1 0x20 ADD PUSH1 0x7 DUP3 ADD SLOAD DUP2 MSTORE PUSH1 0x20 ADD PUSH1 0x8 DUP3 ADD PUSH0 SWAP1 SLOAD SWAP1 PUSH2 0x100 EXP SWAP1 DIV PUSH1 0xFF AND ISZERO ISZERO ISZERO ISZERO DUP2 MSTORE PUSH1 0x20 ADD PUSH1 0x9 DUP3 ADD SLOAD DUP2 MSTORE POP POP SWAP1 POP DUP4 PUSH20 0xFFFFFFFFFFFFFFFFFFFFFFFFFFFFFFFFFFFFFFFF AND DUP2 PUSH1 0x40 ADD MLOAD PUSH20 0xFFFFFFFFFFFFFFFFFFFFFFFFFFFFFFFFFFFFFFFF AND SUB PUSH2 0x1D21 JUMPI PUSH0 JUMPDEST DUP2 PUSH1 0x60 ADD MLOAD MLOAD DUP2 LT ISZERO PUSH2 0x1D1F JUMPI PUSH0 JUMPDEST DUP5 MLOAD DUP2 LT ISZERO PUSH2 0x1D11 JUMPI DUP5 DUP2 DUP2 MLOAD DUP2 LT PUSH2 0x1C9D JUMPI PUSH2 0x1C9C PUSH2 0x4F15 JUMP JUMPDEST JUMPDEST PUSH1 0x20 MUL PUSH1 0x20 ADD ADD MLOAD DUP4 PUSH1 0x60 ADD MLOAD DUP4 DUP2 MLOAD DUP2 LT PUSH2 0x1CBC JUMPI PUSH2 0x1CBB PUSH2 0x4F15 JUMP JUMPDEST JUMPDEST PUSH1 0x20 MUL PUSH1 0x20 ADD ADD MLOAD SUB PUSH2 0x1D04 JUMPI PUSH1 0x40 MLOAD PUSH32 0x8C379A000000000000000000000000000000000000000000000000000000000 DUP2 MSTORE PUSH1 0x4 ADD PUSH2 0x1CFB SWAP1 PUSH2 0x51D5 JUMP JUMPDEST PUSH1 0x40 MLOAD DUP1 SWAP2 SUB SWAP1 REVERT JUMPDEST DUP1 DUP1 PUSH1 0x1 ADD SWAP2 POP POP PUSH2 0x1C81 JUMP JUMPDEST POP DUP1 DUP1 PUSH1 0x1 ADD SWAP2 POP POP PUSH2 0x1C72 JUMP JUMPDEST POP JUMPDEST POP DUP1 DUP1 PUSH1 0x1 ADD SWAP2 POP POP PUSH2 0x1976 JUMP JUMPDEST POP PUSH2 0x1D38 PUSH2 0x2F07 JUMP JUMPDEST PUSH0 DUP6 GT PUSH2 0x1D7A JUMPI PUSH1 0x40 MLOAD PUSH32 0x8C379A000000000000000000000000000000000000000000000000000000000 DUP2 MSTORE PUSH1 0x4 ADD PUSH2 0x1D71 SWAP1 PUSH2 0x4C1D JUMP JUMPDEST PUSH1 0x40 MLOAD DUP1 SWAP2 SUB SWAP1 REVERT JUMPDEST PUSH2 0x1D85 DUP8 DUP8 CALLER PUSH2 0x369F JUMP JUMPDEST PUSH2 0x1DC4 JUMPI PUSH1 0x40 MLOAD PUSH32 0x8C379A000000000000000000000000000000000000000000000000000000000 DUP2 MSTORE PUSH1 0x4 ADD PUSH2 0x1DBB SWAP1 PUSH2 0x5263 JUMP JUMPDEST PUSH1 0x40 MLOAD DUP1 SWAP2 SUB SWAP1 REVERT JUMPDEST TIMESTAMP DUP4 GT PUSH2 0x1E06 JUMPI PUSH1 0x40 MLOAD PUSH32 0x8C379A000000000000000000000000000000000000000000000000000000000 DUP2 MSTORE PUSH1 0x4 ADD PUSH2 0x1DFD SWAP1 PUSH2 0x52CB JUMP JUMPDEST PUSH1 0x40 MLOAD DUP1 SWAP2 SUB SWAP1 REVERT JUMPDEST PUSH0 DUP7 MLOAD PUSH8 0xFFFFFFFFFFFFFFFF DUP2 GT ISZERO PUSH2 0x1E22 JUMPI PUSH2 0x1E21 PUSH2 0x4274 JUMP JUMPDEST JUMPDEST PUSH1 0x40 MLOAD SWAP1 DUP1 DUP3 MSTORE DUP1 PUSH1 0x20 MUL PUSH1 0x20 ADD DUP3 ADD PUSH1 0x40 MSTORE DUP1 ISZERO PUSH2 0x1E55 JUMPI DUP2 PUSH1 0x20 ADD JUMPDEST PUSH1 0x60 DUP2 MSTORE PUSH1 0x20 ADD SWAP1 PUSH1 0x1 SWAP1 SUB SWAP1 DUP2 PUSH2 0x1E40 JUMPI SWAP1 POP JUMPDEST POP SWAP1 POP PUSH0 JUMPDEST DUP8 MLOAD DUP2 LT ISZERO PUSH2 0x1F23 JUMPI DUP9 PUSH20 0xFFFFFFFFFFFFFFFFFFFFFFFFFFFFFFFFFFFFFFFF AND PUSH4 0xC87B56DD DUP10 DUP4 DUP2 MLOAD DUP2 LT PUSH2 0x1E92 JUMPI PUSH2 0x1E91 PUSH2 0x4F15 JUMP JUMPDEST JUMPDEST PUSH1 0x20 MUL PUSH1 0x20 ADD ADD MLOAD PUSH1 0x40 MLOAD DUP3 PUSH4 0xFFFFFFFF AND PUSH1 0xE0 SHL DUP2 MSTORE PUSH1 0x4 ADD PUSH2 0x1EB6 SWAP2 SWAP1 PUSH2 0x3E38 JUMP JUMPDEST PUSH0 PUSH1 0x40 MLOAD DUP1 DUP4 SUB DUP2 DUP7 GAS STATICCALL ISZERO DUP1 ISZERO PUSH2 0x1ED0 JUMPI RETURNDATASIZE PUSH0 DUP1 RETURNDATACOPY RETURNDATASIZE PUSH0 REVERT JUMPDEST POP POP POP POP PUSH1 0x40 MLOAD RETURNDATASIZE PUSH0 DUP3 RETURNDATACOPY RETURNDATASIZE PUSH1 0x1F NOT PUSH1 0x1F DUP3 ADD AND DUP3 ADD DUP1 PUSH1 0x40 MSTORE POP DUP2 ADD SWAP1 PUSH2 0x1EF8 SWAP2 SWAP1 PUSH2 0x5357 JUMP JUMPDEST DUP3 DUP3 DUP2 MLOAD DUP2 LT PUSH2 0x1F0B JUMPI PUSH2 0x1F0A PUSH2 0x4F15 JUMP JUMPDEST JUMPDEST PUSH1 0x20 MUL PUSH1 0x20 ADD ADD DUP2 SWAP1 MSTORE POP DUP1 DUP1 PUSH1 0x1 ADD SWAP2 POP POP PUSH2 0x1E5A JUMP JUMPDEST POP PUSH1 0x40 MLOAD DUP1 PUSH2 0x140 ADD PUSH1 0x40 MSTORE DUP1 PUSH1 0x1 ISZERO ISZERO DUP2 MSTORE PUSH1 0x20 ADD PUSH1 0x36 SLOAD DUP2 MSTORE PUSH1 0x20 ADD DUP10 PUSH20 0xFFFFFFFFFFFFFFFFFFFFFFFFFFFFFFFFFFFFFFFF AND DUP2 MSTORE PUSH1 0x20 ADD DUP9 DUP2 MSTORE PUSH1 0x20 ADD DUP3 DUP2 MSTORE PUSH1 0x20 ADD CALLER PUSH20 0xFFFFFFFFFFFFFFFFFFFFFFFFFFFFFFFFFFFFFFFF AND DUP2 MSTORE PUSH1 0x20 ADD CALLER PUSH20 0xFFFFFFFFFFFFFFFFFFFFFFFFFFFFFFFFFFFFFFFF AND DUP2 MSTORE PUSH1 0x20 ADD DUP8 DUP2 MSTORE PUSH1 0x20 ADD DUP7 ISZERO ISZERO DUP2 MSTORE PUSH1 0x20 ADD DUP6 DUP2 MSTORE POP PUSH1 0x38 PUSH0 PUSH1 0x36 SLOAD DUP2 MSTORE PUSH1 0x20 ADD SWAP1 DUP2 MSTORE PUSH1 0x20 ADD PUSH0 KECCAK256 PUSH0 DUP3 ADD MLOAD DUP2 PUSH0 ADD PUSH0 PUSH2 0x100 EXP DUP2 SLOAD DUP2 PUSH1 0xFF MUL NOT AND SWAP1 DUP4 ISZERO ISZERO MUL OR SWAP1 SSTORE POP PUSH1 0x20 DUP3 ADD MLOAD DUP2 PUSH1 0x1 ADD SSTORE PUSH1 0x40 DUP3 ADD MLOAD DUP2 PUSH1 0x2 ADD PUSH0 PUSH2 0x100 EXP DUP2 SLOAD DUP2 PUSH20 0xFFFFFFFFFFFFFFFFFFFFFFFFFFFFFFFFFFFFFFFF MUL NOT AND SWAP1 DUP4 PUSH20 0xFFFFFFFFFFFFFFFFFFFFFFFFFFFFFFFFFFFFFFFF AND MUL OR SWAP1 SSTORE POP PUSH1 0x60 DUP3 ADD MLOAD DUP2 PUSH1 0x3 ADD SWAP1 DUP1 MLOAD SWAP1 PUSH1 0x20 ADD SWAP1 PUSH2 0x204F SWAP3 SWAP2 SWAP1 PUSH2 0x3B50 JUMP JUMPDEST POP PUSH1 0x80 DUP3 ADD MLOAD DUP2 PUSH1 0x4 ADD SWAP1 DUP1 MLOAD SWAP1 PUSH1 0x20 ADD SWAP1 PUSH2 0x206C SWAP3 SWAP2 SWAP1 PUSH2 0x3B9B JUMP JUMPDEST POP PUSH1 0xA0 DUP3 ADD MLOAD DUP2 PUSH1 0x5 ADD PUSH0 PUSH2 0x100 EXP DUP2 SLOAD DUP2 PUSH20 0xFFFFFFFFFFFFFFFFFFFFFFFFFFFFFFFFFFFFFFFF MUL NOT AND SWAP1 DUP4 PUSH20 0xFFFFFFFFFFFFFFFFFFFFFFFFFFFFFFFFFFFFFFFF AND MUL OR SWAP1 SSTORE POP PUSH1 0xC0 DUP3 ADD MLOAD DUP2 PUSH1 0x6 ADD PUSH0 PUSH2 0x100 EXP DUP2 SLOAD DUP2 PUSH20 0xFFFFFFFFFFFFFFFFFFFFFFFFFFFFFFFFFFFFFFFF MUL NOT AND SWAP1 DUP4 PUSH20 0xFFFFFFFFFFFFFFFFFFFFFFFFFFFFFFFFFFFFFFFF AND MUL OR SWAP1 SSTORE POP PUSH1 0xE0 DUP3 ADD MLOAD DUP2 PUSH1 0x7 ADD SSTORE PUSH2 0x100 DUP3 ADD MLOAD DUP2 PUSH1 0x8 ADD PUSH0 PUSH2 0x100 EXP DUP2 SLOAD DUP2 PUSH1 0xFF MUL NOT AND SWAP1 DUP4 ISZERO ISZERO MUL OR SWAP1 SSTORE POP PUSH2 0x120 DUP3 ADD MLOAD DUP2 PUSH1 0x9 ADD SSTORE SWAP1 POP POP PUSH2 0x2165 CALLER DUP7 PUSH2 0x2141 JUMPI PUSH1 0x1 PUSH2 0x2144 JUMP JUMPDEST PUSH1 0x2 JUMPDEST PUSH1 0xFF AND PUSH1 0xA PUSH1 0x36 SLOAD PUSH2 0x2156 SWAP2 SWAP1 PUSH2 0x498C JUMP JUMPDEST PUSH2 0x2160 SWAP2 SWAP1 PUSH2 0x49CD JUMP JUMPDEST PUSH2 0x3159 JUMP JUMPDEST PUSH1 0x3A PUSH0 PUSH1 0x39 PUSH0 CALLER PUSH20 0xFFFFFFFFFFFFFFFFFFFFFFFFFFFFFFFFFFFFFFFF AND PUSH20 0xFFFFFFFFFFFFFFFFFFFFFFFFFFFFFFFFFFFFFFFF AND DUP2 MSTORE PUSH1 0x20 ADD SWAP1 DUP2 MSTORE PUSH1 0x20 ADD PUSH0 KECCAK256 SLOAD DUP2 MSTORE PUSH1 0x20 ADD SWAP1 DUP2 MSTORE PUSH1 0x20 ADD PUSH0 KECCAK256 PUSH1 0x3 ADD PUSH1 0x36 SLOAD SWAP1 DUP1 PUSH1 0x1 DUP2 SLOAD ADD DUP1 DUP3 SSTORE DUP1 SWAP2 POP POP PUSH1 0x1 SWAP1 SUB SWAP1 PUSH0 MSTORE PUSH1 0x20 PUSH0 KECCAK256 ADD PUSH0 SWAP1 SWAP2 SWAP1 SWAP2 SWAP1 SWAP2 POP SSTORE PUSH1 0x32 PUSH1 0x36 SLOAD SWAP1 DUP1 PUSH1 0x1 DUP2 SLOAD ADD DUP1 DUP3 SSTORE DUP1 SWAP2 POP POP PUSH1 0x1 SWAP1 SUB SWAP1 PUSH0 MSTORE PUSH1 0x20 PUSH0 KECCAK256 ADD PUSH0 SWAP1 SWAP2 SWAP1 SWAP2 SWAP1 SWAP2 POP SSTORE PUSH1 0x36 SLOAD PUSH32 0x1733541E660326AA779E25ED16D4A34D00D02E362997250F6B915005D3219056 PUSH1 0x40 MLOAD PUSH1 0x40 MLOAD DUP1 SWAP2 SUB SWAP1 LOG2 PUSH1 0x36 PUSH0 DUP2 SLOAD DUP1 SWAP3 SWAP2 SWAP1 PUSH2 0x2245 SWAP1 PUSH2 0x539E JUMP JUMPDEST SWAP2 SWAP1 POP SSTORE POP POP PUSH2 0x2253 PUSH2 0x3517 JUMP JUMPDEST POP POP POP POP POP POP POP JUMP JUMPDEST PUSH0 PUSH1 0x3A PUSH0 PUSH1 0x39 PUSH0 DUP8 PUSH20 0xFFFFFFFFFFFFFFFFFFFFFFFFFFFFFFFFFFFFFFFF AND PUSH20 0xFFFFFFFFFFFFFFFFFFFFFFFFFFFFFFFFFFFFFFFF AND DUP2 MSTORE PUSH1 0x20 ADD SWAP1 DUP2 MSTORE PUSH1 0x20 ADD PUSH0 KECCAK256 SLOAD DUP2 MSTORE PUSH1 0x20 ADD SWAP1 DUP2 MSTORE PUSH1 0x20 ADD PUSH0 KECCAK256 PUSH1 0x2 ADD DUP1 SLOAD SWAP1 POP EQ PUSH2 0x22F2 JUMPI PUSH1 0x40 MLOAD PUSH32 0x8C379A000000000000000000000000000000000000000000000000000000000 DUP2 MSTORE PUSH1 0x4 ADD PUSH2 0x22E9 SWAP1 PUSH2 0x542F JUMP JUMPDEST PUSH1 0x40 MLOAD DUP1 SWAP2 SUB SWAP1 REVERT JUMPDEST PUSH1 0x35 SLOAD PUSH1 0x39 PUSH0 DUP6 PUSH20 0xFFFFFFFFFFFFFFFFFFFFFFFFFFFFFFFFFFFFFFFF AND PUSH20 0xFFFFFFFFFFFFFFFFFFFFFFFFFFFFFFFFFFFFFFFF AND DUP2 MSTORE PUSH1 0x20 ADD SWAP1 DUP2 MSTORE PUSH1 0x20 ADD PUSH0 KECCAK256 DUP2 SWAP1 SSTORE POP PUSH0 PUSH1 0x3A PUSH0 PUSH1 0x35 SLOAD DUP2 MSTORE PUSH1 0x20 ADD SWAP1 DUP2 MSTORE PUSH1 0x20 ADD PUSH0 KECCAK256 SWAP1 POP DUP3 DUP2 PUSH0 ADD SWAP1 DUP2 PUSH2 0x235C SWAP2 SWAP1 PUSH2 0x55EA JUMP JUMPDEST POP DUP2 DUP2 PUSH1 0x1 ADD SWAP1 DUP2 PUSH2 0x236E SWAP2 SWAP1 PUSH2 0x55EA JUMP JUMPDEST POP DUP1 PUSH1 0x2 ADD CALLER SWAP1 DUP1 PUSH1 0x1 DUP2 SLOAD ADD DUP1 DUP3 SSTORE DUP1 SWAP2 POP POP PUSH1 0x1 SWAP1 SUB SWAP1 PUSH0 MSTORE PUSH1 0x20 PUSH0 KECCAK256 ADD PUSH0 SWAP1 SWAP2 SWAP1 SWAP2 SWAP1 SWAP2 PUSH2 0x100 EXP DUP2 SLOAD DUP2 PUSH20 0xFFFFFFFFFFFFFFFFFFFFFFFFFFFFFFFFFFFFFFFF MUL NOT AND SWAP1 DUP4 PUSH20 0xFFFFFFFFFFFFFFFFFFFFFFFFFFFFFFFFFFFFFFFF AND MUL OR SWAP1 SSTORE POP PUSH2 0x23DC DUP5 PUSH1 0x8 PUSH2 0x3159 JUMP JUMPDEST DUP4 PUSH20 0xFFFFFFFFFFFFFFFFFFFFFFFFFFFFFFFFFFFFFFFF AND PUSH32 0x68BAB5F96DFCA3BB7B996195428C1C905126891B7689535D5D7DC256AA667984 DUP5 DUP5 PUSH1 0x40 MLOAD PUSH2 0x2424 SWAP3 SWAP2 SWAP1 PUSH2 0x469B JUMP JUMPDEST PUSH1 0x40 MLOAD DUP1 SWAP2 SUB SWAP1 LOG2 PUSH1 0x35 PUSH0 DUP2 SLOAD DUP1 SWAP3 SWAP2 SWAP1 PUSH2 0x243E SWAP1 PUSH2 0x539E JUMP JUMPDEST SWAP2 SWAP1 POP SSTORE POP POP POP POP POP JUMP JUMPDEST PUSH0 PUSH2 0x2452 PUSH2 0x3978 JUMP JUMPDEST SWAP1 POP PUSH0 DUP2 PUSH0 ADD PUSH1 0x8 SWAP1 SLOAD SWAP1 PUSH2 0x100 EXP SWAP1 DIV PUSH1 0xFF AND ISZERO SWAP1 POP PUSH0 DUP3 PUSH0 ADD PUSH0 SWAP1 SLOAD SWAP1 PUSH2 0x100 EXP SWAP1 DIV PUSH8 0xFFFFFFFFFFFFFFFF AND SWAP1 POP PUSH0 DUP1 DUP3 PUSH8 0xFFFFFFFFFFFFFFFF AND EQ DUP1 ISZERO PUSH2 0x249A JUMPI POP DUP3 JUMPDEST SWAP1 POP PUSH0 PUSH1 0x1 DUP4 PUSH8 0xFFFFFFFFFFFFFFFF AND EQ DUP1 ISZERO PUSH2 0x24CD JUMPI POP PUSH0 ADDRESS PUSH20 0xFFFFFFFFFFFFFFFFFFFFFFFFFFFFFFFFFFFFFFFF AND EXTCODESIZE EQ JUMPDEST SWAP1 POP DUP2 ISZERO DUP1 ISZERO PUSH2 0x24DB JUMPI POP DUP1 ISZERO JUMPDEST ISZERO PUSH2 0x2512 JUMPI PUSH1 0x40 MLOAD PUSH32 0xF92EE8A900000000000000000000000000000000000000000000000000000000 DUP2 MSTORE PUSH1 0x4 ADD PUSH1 0x40 MLOAD DUP1 SWAP2 SUB SWAP1 REVERT JUMPDEST PUSH1 0x1 DUP6 PUSH0 ADD PUSH0 PUSH2 0x100 EXP DUP2 SLOAD DUP2 PUSH8 0xFFFFFFFFFFFFFFFF MUL NOT AND SWAP1 DUP4 PUSH8 0xFFFFFFFFFFFFFFFF AND MUL OR SWAP1 SSTORE POP DUP4 ISZERO PUSH2 0x255F JUMPI PUSH1 0x1 DUP6 PUSH0 ADD PUSH1 0x8 PUSH2 0x100 EXP DUP2 SLOAD DUP2 PUSH1 0xFF MUL NOT AND SWAP1 DUP4 ISZERO ISZERO MUL OR SWAP1 SSTORE POP JUMPDEST PUSH2 0x2568 DUP7 PUSH2 0x399F JUMP JUMPDEST PUSH2 0x2570 PUSH2 0x39B3 JUMP JUMPDEST PUSH2 0x2579 DUP7 PUSH2 0x2BA0 JUMP JUMPDEST DUP8 PUSH1 0x34 DUP2 SWAP1 SSTORE POP DUP7 PUSH1 0x33 PUSH0 PUSH2 0x100 EXP DUP2 SLOAD DUP2 PUSH20 0xFFFFFFFFFFFFFFFFFFFFFFFFFFFFFFFFFFFFFFFF MUL NOT AND SWAP1 DUP4 PUSH20 0xFFFFFFFFFFFFFFFFFFFFFFFFFFFFFFFFFFFFFFFF AND MUL OR SWAP1 SSTORE POP DUP4 ISZERO PUSH2 0x261A JUMPI PUSH0 DUP6 PUSH0 ADD PUSH1 0x8 PUSH2 0x100 EXP DUP2 SLOAD DUP2 PUSH1 0xFF MUL NOT AND SWAP1 DUP4 ISZERO ISZERO MUL OR SWAP1 SSTORE POP PUSH32 0xC7F505B2F371AE2175EE4913F4499E1F2633A7B5936321EED1CDAEB6115181D2 PUSH1 0x1 PUSH1 0x40 MLOAD PUSH2 0x2611 SWAP2 SWAP1 PUSH2 0x5705 JUMP JUMPDEST PUSH1 0x40 MLOAD DUP1 SWAP2 SUB SWAP1 LOG1 JUMPDEST POP POP POP POP POP POP POP POP JUMP JUMPDEST PUSH0 PUSH1 0x3A PUSH0 PUSH1 0x39 PUSH0 CALLER PUSH20 0xFFFFFFFFFFFFFFFFFFFFFFFFFFFFFFFFFFFFFFFF AND PUSH20 0xFFFFFFFFFFFFFFFFFFFFFFFFFFFFFFFFFFFFFFFF AND DUP2 MSTORE PUSH1 0x20 ADD SWAP1 DUP2 MSTORE PUSH1 0x20 ADD PUSH0 KECCAK256 SLOAD DUP2 MSTORE PUSH1 0x20 ADD SWAP1 DUP2 MSTORE PUSH1 0x20 ADD PUSH0 KECCAK256 SWAP1 POP PUSH0 JUMPDEST DUP2 PUSH1 0x2 ADD DUP1 SLOAD SWAP1 POP DUP2 LT ISZERO PUSH2 0x2772 JUMPI PUSH0 PUSH20 0xFFFFFFFFFFFFFFFFFFFFFFFFFFFFFFFFFFFFFFFF AND DUP4 PUSH20 0xFFFFFFFFFFFFFFFFFFFFFFFFFFFFFFFFFFFFFFFF AND SUB ISZERO PUSH2 0x2772 JUMPI DUP2 PUSH1 0x2 ADD DUP2 DUP2 SLOAD DUP2 LT PUSH2 0x26D0 JUMPI PUSH2 0x26CF PUSH2 0x4F15 JUMP JUMPDEST JUMPDEST SWAP1 PUSH0 MSTORE PUSH1 0x20 PUSH0 KECCAK256 ADD PUSH0 SWAP1 SLOAD SWAP1 PUSH2 0x100 EXP SWAP1 DIV PUSH20 0xFFFFFFFFFFFFFFFFFFFFFFFFFFFFFFFFFFFFFFFF AND PUSH20 0xFFFFFFFFFFFFFFFFFFFFFFFFFFFFFFFFFFFFFFFF AND DUP4 PUSH20 0xFFFFFFFFFFFFFFFFFFFFFFFFFFFFFFFFFFFFFFFF AND SUB PUSH2 0x2765 JUMPI PUSH1 0x40 MLOAD PUSH32 0x8C379A000000000000000000000000000000000000000000000000000000000 DUP2 MSTORE PUSH1 0x4 ADD PUSH2 0x275C SWAP1 PUSH2 0x5768 JUMP JUMPDEST PUSH1 0x40 MLOAD DUP1 SWAP2 SUB SWAP1 REVERT JUMPDEST DUP1 DUP1 PUSH1 0x1 ADD SWAP2 POP POP PUSH2 0x2677 JUMP JUMPDEST POP DUP1 PUSH1 0x2 ADD DUP3 SWAP1 DUP1 PUSH1 0x1 DUP2 SLOAD ADD DUP1 DUP3 SSTORE DUP1 SWAP2 POP POP PUSH1 0x1 SWAP1 SUB SWAP1 PUSH0 MSTORE PUSH1 0x20 PUSH0 KECCAK256 ADD PUSH0 SWAP1 SWAP2 SWAP1 SWAP2 SWAP1 SWAP2 PUSH2 0x100 EXP DUP2 SLOAD DUP2 PUSH20 0xFFFFFFFFFFFFFFFFFFFFFFFFFFFFFFFFFFFFFFFF MUL NOT AND SWAP1 DUP4 PUSH20 0xFFFFFFFFFFFFFFFFFFFFFFFFFFFFFFFFFFFFFFFF AND MUL OR SWAP1 SSTORE POP DUP4 DUP2 PUSH0 ADD SWAP1 DUP2 PUSH2 0x27E5 SWAP2 SWAP1 PUSH2 0x55EA JUMP JUMPDEST POP PUSH1 0x39 PUSH0 CALLER PUSH20 0xFFFFFFFFFFFFFFFFFFFFFFFFFFFFFFFFFFFFFFFF AND PUSH20 0xFFFFFFFFFFFFFFFFFFFFFFFFFFFFFFFFFFFFFFFF AND DUP2 MSTORE PUSH1 0x20 ADD SWAP1 DUP2 MSTORE PUSH1 0x20 ADD PUSH0 KECCAK256 SLOAD PUSH1 0x39 PUSH0 DUP5 PUSH20 0xFFFFFFFFFFFFFFFFFFFFFFFFFFFFFFFFFFFFFFFF AND PUSH20 0xFFFFFFFFFFFFFFFFFFFFFFFFFFFFFFFFFFFFFFFF AND DUP2 MSTORE PUSH1 0x20 ADD SWAP1 DUP2 MSTORE PUSH1 0x20 ADD PUSH0 KECCAK256 DUP2 SWAP1 SSTORE POP PUSH2 0x2870 CALLER PUSH1 0x9 PUSH2 0x3159 JUMP JUMPDEST CALLER PUSH20 0xFFFFFFFFFFFFFFFFFFFFFFFFFFFFFFFFFFFFFFFF AND PUSH32 0x2F635232BFF98978E47B7DBA5B7FE3CACE39FE5964FEECE2CD18F9EFC1B2DAB7 DUP6 DUP6 DUP6 PUSH1 0x40 MLOAD PUSH2 0x28BA SWAP4 SWAP3 SWAP2 SWAP1 PUSH2 0x5786 JUMP JUMPDEST PUSH1 0x40 MLOAD DUP1 SWAP2 SUB SWAP1 LOG2 POP POP POP POP JUMP JUMPDEST PUSH2 0x28D0 PUSH2 0x3520 JUMP JUMPDEST PUSH0 PUSH20 0xFFFFFFFFFFFFFFFFFFFFFFFFFFFFFFFFFFFFFFFF AND DUP4 PUSH20 0xFFFFFFFFFFFFFFFFFFFFFFFFFFFFFFFFFFFFFFFF AND SUB PUSH2 0x293E JUMPI PUSH1 0x40 MLOAD PUSH32 0x8C379A000000000000000000000000000000000000000000000000000000000 DUP2 MSTORE PUSH1 0x4 ADD PUSH2 0x2935 SWAP1 PUSH2 0x5813 JUMP JUMPDEST PUSH1 0x40 MLOAD DUP1 SWAP2 SUB SWAP1 REVERT JUMPDEST PUSH0 DUP3 DUP3 PUSH1 0x40 MLOAD PUSH1 0x24 ADD PUSH2 0x2951 SWAP2 SWAP1 PUSH2 0x5831 JUMP JUMPDEST PUSH1 0x40 MLOAD PUSH1 0x20 DUP2 DUP4 SUB SUB DUP2 MSTORE SWAP1 PUSH1 0x40 MSTORE SWAP1 PUSH1 0x40 MLOAD PUSH2 0x296E SWAP2 SWAP1 PUSH2 0x588B JUMP JUMPDEST PUSH1 0x40 MLOAD DUP1 SWAP2 SUB SWAP1 KECCAK256 PUSH28 0xFFFFFFFFFFFFFFFFFFFFFFFFFFFFFFFFFFFFFFFFFFFFFFFFFFFFFFFF NOT AND PUSH1 0x20 DUP3 ADD DUP1 MLOAD PUSH28 0xFFFFFFFFFFFFFFFFFFFFFFFFFFFFFFFFFFFFFFFFFFFFFFFFFFFFFFFF DUP4 DUP2 DUP4 AND OR DUP4 MSTORE POP POP POP POP SWAP1 POP PUSH0 DUP5 PUSH20 0xFFFFFFFFFFFFFFFFFFFFFFFFFFFFFFFFFFFFFFFF AND DUP3 PUSH1 0x40 MLOAD PUSH2 0x29EB SWAP2 SWAP1 PUSH2 0x58E5 JUMP JUMPDEST PUSH0 PUSH1 0x40 MLOAD DUP1 DUP4 SUB DUP2 PUSH0 DUP7 GAS CALL SWAP2 POP POP RETURNDATASIZE DUP1 PUSH0 DUP2 EQ PUSH2 0x2A24 JUMPI PUSH1 0x40 MLOAD SWAP2 POP PUSH1 0x1F NOT PUSH1 0x3F RETURNDATASIZE ADD AND DUP3 ADD PUSH1 0x40 MSTORE RETURNDATASIZE DUP3 MSTORE RETURNDATASIZE PUSH0 PUSH1 0x20 DUP5 ADD RETURNDATACOPY PUSH2 0x2A29 JUMP JUMPDEST PUSH1 0x60 SWAP2 POP JUMPDEST POP POP SWAP1 POP DUP1 PUSH2 0x2A6D JUMPI PUSH1 0x40 MLOAD PUSH32 0x8C379A000000000000000000000000000000000000000000000000000000000 DUP2 MSTORE PUSH1 0x4 ADD PUSH2 0x2A64 SWAP1 PUSH2 0x5945 JUMP JUMPDEST PUSH1 0x40 MLOAD DUP1 SWAP2 SUB SWAP1 REVERT JUMPDEST POP POP POP POP POP JUMP JUMPDEST PUSH1 0x3A PUSH1 0x20 MSTORE DUP1 PUSH0 MSTORE PUSH1 0x40 PUSH0 KECCAK256 PUSH0 SWAP2 POP SWAP1 POP DUP1 PUSH0 ADD DUP1 SLOAD PUSH2 0x2A93 SWAP1 PUSH2 0x4F6F JUMP JUMPDEST DUP1 PUSH1 0x1F ADD PUSH1 0x20 DUP1 SWAP2 DIV MUL PUSH1 0x20 ADD PUSH1 0x40 MLOAD SWAP1 DUP2 ADD PUSH1 0x40 MSTORE DUP1 SWAP3 SWAP2 SWAP1 DUP2 DUP2 MSTORE PUSH1 0x20 ADD DUP3 DUP1 SLOAD PUSH2 0x2ABF SWAP1 PUSH2 0x4F6F JUMP JUMPDEST DUP1 ISZERO PUSH2 0x2B0A JUMPI DUP1 PUSH1 0x1F LT PUSH2 0x2AE1 JUMPI PUSH2 0x100 DUP1 DUP4 SLOAD DIV MUL DUP4 MSTORE SWAP2 PUSH1 0x20 ADD SWAP2 PUSH2 0x2B0A JUMP JUMPDEST DUP3 ADD SWAP2 SWAP1 PUSH0 MSTORE PUSH1 0x20 PUSH0 KECCAK256 SWAP1 JUMPDEST DUP2 SLOAD DUP2 MSTORE SWAP1 PUSH1 0x1 ADD SWAP1 PUSH1 0x20 ADD DUP1 DUP4 GT PUSH2 0x2AED JUMPI DUP3 SWAP1 SUB PUSH1 0x1F AND DUP3 ADD SWAP2 JUMPDEST POP POP POP POP POP SWAP1 DUP1 PUSH1 0x1 ADD DUP1 SLOAD PUSH2 0x2B1F SWAP1 PUSH2 0x4F6F JUMP JUMPDEST DUP1 PUSH1 0x1F ADD PUSH1 0x20 DUP1 SWAP2 DIV MUL PUSH1 0x20 ADD PUSH1 0x40 MLOAD SWAP1 DUP2 ADD PUSH1 0x40 MSTORE DUP1 SWAP3 SWAP2 SWAP1 DUP2 DUP2 MSTORE PUSH1 0x20 ADD DUP3 DUP1 SLOAD PUSH2 0x2B4B SWAP1 PUSH2 0x4F6F JUMP JUMPDEST DUP1 ISZERO PUSH2 0x2B96 JUMPI DUP1 PUSH1 0x1F LT PUSH2 0x2B6D JUMPI PUSH2 0x100 DUP1 DUP4 SLOAD DIV MUL DUP4 MSTORE SWAP2 PUSH1 0x20 ADD SWAP2 PUSH2 0x2B96 JUMP JUMPDEST DUP3 ADD SWAP2 SWAP1 PUSH0 MSTORE PUSH1 0x20 PUSH0 KECCAK256 SWAP1 JUMPDEST DUP2 SLOAD DUP2 MSTORE SWAP1 PUSH1 0x1 ADD SWAP1 PUSH1 0x20 ADD DUP1 DUP4 GT PUSH2 0x2B79 JUMPI DUP3 SWAP1 SUB PUSH1 0x1F AND DUP3 ADD SWAP2 JUMPDEST POP POP POP POP POP SWAP1 POP DUP3 JUMP JUMPDEST PUSH2 0x2BA8 PUSH2 0x3520 JUMP JUMPDEST PUSH0 PUSH20 0xFFFFFFFFFFFFFFFFFFFFFFFFFFFFFFFFFFFFFFFF AND DUP2 PUSH20 0xFFFFFFFFFFFFFFFFFFFFFFFFFFFFFFFFFFFFFFFF AND SUB PUSH2 0x2C18 JUMPI PUSH0 PUSH1 0x40 MLOAD PUSH32 0x1E4FBDF700000000000000000000000000000000000000000000000000000000 DUP2 MSTORE PUSH1 0x4 ADD PUSH2 0x2C0F SWAP2 SWAP1 PUSH2 0x4257 JUMP JUMPDEST PUSH1 0x40 MLOAD DUP1 SWAP2 SUB SWAP1 REVERT JUMPDEST PUSH2 0x2C21 DUP2 PUSH2 0x35A7 JUMP JUMPDEST POP JUMP JUMPDEST PUSH1 0x33 PUSH0 SWAP1 SLOAD SWAP1 PUSH2 0x100 EXP SWAP1 DIV PUSH20 0xFFFFFFFFFFFFFFFFFFFFFFFFFFFFFFFFFFFFFFFF AND DUP2 JUMP JUMPDEST PUSH2 0x2C51 PUSH2 0x3BF2 JUMP JUMPDEST PUSH1 0x3A PUSH0 PUSH1 0x39 PUSH0 DUP6 PUSH20 0xFFFFFFFFFFFFFFFFFFFFFFFFFFFFFFFFFFFFFFFF AND PUSH20 0xFFFFFFFFFFFFFFFFFFFFFFFFFFFFFFFFFFFFFFFF AND DUP2 MSTORE PUSH1 0x20 ADD SWAP1 DUP2 MSTORE PUSH1 0x20 ADD PUSH0 KECCAK256 SLOAD DUP2 MSTORE PUSH1 0x20 ADD SWAP1 DUP2 MSTORE PUSH1 0x20 ADD PUSH0 KECCAK256 PUSH1 0x40 MLOAD DUP1 PUSH1 0xA0 ADD PUSH1 0x40 MSTORE SWAP1 DUP2 PUSH0 DUP3 ADD DUP1 SLOAD PUSH2 0x2CB9 SWAP1 PUSH2 0x4F6F JUMP JUMPDEST DUP1 PUSH1 0x1F ADD PUSH1 0x20 DUP1 SWAP2 DIV MUL PUSH1 0x20 ADD PUSH1 0x40 MLOAD SWAP1 DUP2 ADD PUSH1 0x40 MSTORE DUP1 SWAP3 SWAP2 SWAP1 DUP2 DUP2 MSTORE PUSH1 0x20 ADD DUP3 DUP1 SLOAD PUSH2 0x2CE5 SWAP1 PUSH2 0x4F6F JUMP JUMPDEST DUP1 ISZERO PUSH2 0x2D30 JUMPI DUP1 PUSH1 0x1F LT PUSH2 0x2D07 JUMPI PUSH2 0x100 DUP1 DUP4 SLOAD DIV MUL DUP4 MSTORE SWAP2 PUSH1 0x20 ADD SWAP2 PUSH2 0x2D30 JUMP JUMPDEST DUP3 ADD SWAP2 SWAP1 PUSH0 MSTORE PUSH1 0x20 PUSH0 KECCAK256 SWAP1 JUMPDEST DUP2 SLOAD DUP2 MSTORE SWAP1 PUSH1 0x1 ADD SWAP1 PUSH1 0x20 ADD DUP1 DUP4 GT PUSH2 0x2D13 JUMPI DUP3 SWAP1 SUB PUSH1 0x1F AND DUP3 ADD SWAP2 JUMPDEST POP POP POP POP POP DUP2 MSTORE PUSH1 0x20 ADD PUSH1 0x1 DUP3 ADD DUP1 SLOAD PUSH2 0x2D49 SWAP1 PUSH2 0x4F6F JUMP JUMPDEST DUP1 PUSH1 0x1F ADD PUSH1 0x20 DUP1 SWAP2 DIV MUL PUSH1 0x20 ADD PUSH1 0x40 MLOAD SWAP1 DUP2 ADD PUSH1 0x40 MSTORE DUP1 SWAP3 SWAP2 SWAP1 DUP2 DUP2 MSTORE PUSH1 0x20 ADD DUP3 DUP1 SLOAD PUSH2 0x2D75 SWAP1 PUSH2 0x4F6F JUMP JUMPDEST DUP1 ISZERO PUSH2 0x2DC0 JUMPI DUP1 PUSH1 0x1F LT PUSH2 0x2D97 JUMPI PUSH2 0x100 DUP1 DUP4 SLOAD DIV MUL DUP4 MSTORE SWAP2 PUSH1 0x20 ADD SWAP2 PUSH2 0x2DC0 JUMP JUMPDEST DUP3 ADD SWAP2 SWAP1 PUSH0 MSTORE PUSH1 0x20 PUSH0 KECCAK256 SWAP1 JUMPDEST DUP2 SLOAD DUP2 MSTORE SWAP1 PUSH1 0x1 ADD SWAP1 PUSH1 0x20 ADD DUP1 DUP4 GT PUSH2 0x2DA3 JUMPI DUP3 SWAP1 SUB PUSH1 0x1F AND DUP3 ADD SWAP2 JUMPDEST POP POP POP POP POP DUP2 MSTORE PUSH1 0x20 ADD PUSH1 0x2 DUP3 ADD DUP1 SLOAD DUP1 PUSH1 0x20 MUL PUSH1 0x20 ADD PUSH1 0x40 MLOAD SWAP1 DUP2 ADD PUSH1 0x40 MSTORE DUP1 SWAP3 SWAP2 SWAP1 DUP2 DUP2 MSTORE PUSH1 0x20 ADD DUP3 DUP1 SLOAD DUP1 ISZERO PUSH2 0x2E4B JUMPI PUSH1 0x20 MUL DUP3 ADD SWAP2 SWAP1 PUSH0 MSTORE PUSH1 0x20 PUSH0 KECCAK256 SWAP1 JUMPDEST DUP2 PUSH0 SWAP1 SLOAD SWAP1 PUSH2 0x100 EXP SWAP1 DIV PUSH20 0xFFFFFFFFFFFFFFFFFFFFFFFFFFFFFFFFFFFFFFFF AND PUSH20 0xFFFFFFFFFFFFFFFFFFFFFFFFFFFFFFFFFFFFFFFF AND DUP2 MSTORE PUSH1 0x20 ADD SWAP1 PUSH1 0x1 ADD SWAP1 DUP1 DUP4 GT PUSH2 0x2E02 JUMPI JUMPDEST POP POP POP POP POP DUP2 MSTORE PUSH1 0x20 ADD PUSH1 0x3 DUP3 ADD DUP1 SLOAD DUP1 PUSH1 0x20 MUL PUSH1 0x20 ADD PUSH1 0x40 MLOAD SWAP1 DUP2 ADD PUSH1 0x40 MSTORE DUP1 SWAP3 SWAP2 SWAP1 DUP2 DUP2 MSTORE PUSH1 0x20 ADD DUP3 DUP1 SLOAD DUP1 ISZERO PUSH2 0x2EA1 JUMPI PUSH1 0x20 MUL DUP3 ADD SWAP2 SWAP1 PUSH0 MSTORE PUSH1 0x20 PUSH0 KECCAK256 SWAP1 JUMPDEST DUP2 SLOAD DUP2 MSTORE PUSH1 0x20 ADD SWAP1 PUSH1 0x1 ADD SWAP1 DUP1 DUP4 GT PUSH2 0x2E8D JUMPI JUMPDEST POP POP POP POP POP DUP2 MSTORE PUSH1 0x20 ADD PUSH1 0x4 DUP3 ADD DUP1 SLOAD DUP1 PUSH1 0x20 MUL PUSH1 0x20 ADD PUSH1 0x40 MLOAD SWAP1 DUP2 ADD PUSH1 0x40 MSTORE DUP1 SWAP3 SWAP2 SWAP1 DUP2 DUP2 MSTORE PUSH1 0x20 ADD DUP3 DUP1 SLOAD DUP1 ISZERO PUSH2 0x2EF7 JUMPI PUSH1 0x20 MUL DUP3 ADD SWAP2 SWAP1 PUSH0 MSTORE PUSH1 0x20 PUSH0 KECCAK256 SWAP1 JUMPDEST DUP2 SLOAD DUP2 MSTORE PUSH1 0x20 ADD SWAP1 PUSH1 0x1 ADD SWAP1 DUP1 DUP4 GT PUSH2 0x2EE3 JUMPI JUMPDEST POP POP POP POP POP DUP2 MSTORE POP POP SWAP1 POP SWAP2 SWAP1 POP JUMP JUMPDEST PUSH1 0x2 PUSH0 SLOAD SUB PUSH2 0x2F4B JUMPI PUSH1 0x40 MLOAD PUSH32 0x8C379A000000000000000000000000000000000000000000000000000000000 DUP2 MSTORE PUSH1 0x4 ADD PUSH2 0x2F42 SWAP1 PUSH2 0x59AD JUMP JUMPDEST PUSH1 0x40 MLOAD DUP1 SWAP2 SUB SWAP1 REVERT JUMPDEST PUSH1 0x2 PUSH0 DUP2 SWAP1 SSTORE POP JUMP JUMPDEST PUSH0 JUMPDEST PUSH1 0x32 DUP1 SLOAD SWAP1 POP DUP2 LT ISZERO PUSH2 0x300B JUMPI DUP2 PUSH1 0x32 DUP3 DUP2 SLOAD DUP2 LT PUSH2 0x2F78 JUMPI PUSH2 0x2F77 PUSH2 0x4F15 JUMP JUMPDEST JUMPDEST SWAP1 PUSH0 MSTORE PUSH1 0x20 PUSH0 KECCAK256 ADD SLOAD SUB PUSH2 0x2FFE JUMPI PUSH1 0x32 PUSH1 0x1 PUSH1 0x32 DUP1 SLOAD SWAP1 POP PUSH2 0x2F9A SWAP2 SWAP1 PUSH2 0x4A00 JUMP JUMPDEST DUP2 SLOAD DUP2 LT PUSH2 0x2FAB JUMPI PUSH2 0x2FAA PUSH2 0x4F15 JUMP JUMPDEST JUMPDEST SWAP1 PUSH0 MSTORE PUSH1 0x20 PUSH0 KECCAK256 ADD SLOAD PUSH1 0x32 DUP3 DUP2 SLOAD DUP2 LT PUSH2 0x2FC8 JUMPI PUSH2 0x2FC7 PUSH2 0x4F15 JUMP JUMPDEST JUMPDEST SWAP1 PUSH0 MSTORE PUSH1 0x20 PUSH0 KECCAK256 ADD DUP2 SWAP1 SSTORE POP PUSH1 0x32 DUP1 SLOAD DUP1 PUSH2 0x2FE6 JUMPI PUSH2 0x2FE5 PUSH2 0x59CB JUMP JUMPDEST JUMPDEST PUSH1 0x1 SWAP1 SUB DUP2 DUP2 SWAP1 PUSH0 MSTORE PUSH1 0x20 PUSH0 KECCAK256 ADD PUSH0 SWAP1 SSTORE SWAP1 SSTORE PUSH2 0x300B JUMP JUMPDEST DUP1 DUP1 PUSH1 0x1 ADD SWAP2 POP POP PUSH2 0x2F56 JUMP JUMPDEST POP POP JUMP JUMPDEST PUSH0 PUSH1 0x3A PUSH0 PUSH1 0x39 PUSH0 PUSH1 0x38 PUSH0 DUP8 DUP2 MSTORE PUSH1 0x20 ADD SWAP1 DUP2 MSTORE PUSH1 0x20 ADD PUSH0 KECCAK256 PUSH1 0x5 ADD PUSH0 SWAP1 SLOAD SWAP1 PUSH2 0x100 EXP SWAP1 DIV PUSH20 0xFFFFFFFFFFFFFFFFFFFFFFFFFFFFFFFFFFFFFFFF AND PUSH20 0xFFFFFFFFFFFFFFFFFFFFFFFFFFFFFFFFFFFFFFFF AND PUSH20 0xFFFFFFFFFFFFFFFFFFFFFFFFFFFFFFFFFFFFFFFF AND DUP2 MSTORE PUSH1 0x20 ADD SWAP1 DUP2 MSTORE PUSH1 0x20 ADD PUSH0 KECCAK256 SLOAD DUP2 MSTORE PUSH1 0x20 ADD SWAP1 DUP2 MSTORE PUSH1 0x20 ADD PUSH0 KECCAK256 SWAP1 POP PUSH0 DUP2 PUSH1 0x3 ADD DUP1 SLOAD SWAP1 POP SWAP1 POP PUSH0 JUMPDEST DUP2 DUP2 LT ISZERO PUSH2 0x3153 JUMPI DUP4 DUP4 PUSH1 0x3 ADD DUP3 DUP2 SLOAD DUP2 LT PUSH2 0x30BF JUMPI PUSH2 0x30BE PUSH2 0x4F15 JUMP JUMPDEST JUMPDEST SWAP1 PUSH0 MSTORE PUSH1 0x20 PUSH0 KECCAK256 ADD SLOAD SUB PUSH2 0x3146 JUMPI DUP3 PUSH1 0x3 ADD PUSH1 0x1 DUP4 PUSH2 0x30DE SWAP2 SWAP1 PUSH2 0x4A00 JUMP JUMPDEST DUP2 SLOAD DUP2 LT PUSH2 0x30EF JUMPI PUSH2 0x30EE PUSH2 0x4F15 JUMP JUMPDEST JUMPDEST SWAP1 PUSH0 MSTORE PUSH1 0x20 PUSH0 KECCAK256 ADD SLOAD DUP4 PUSH1 0x3 ADD DUP3 DUP2 SLOAD DUP2 LT PUSH2 0x310E JUMPI PUSH2 0x310D PUSH2 0x4F15 JUMP JUMPDEST JUMPDEST SWAP1 PUSH0 MSTORE PUSH1 0x20 PUSH0 KECCAK256 ADD DUP2 SWAP1 SSTORE POP DUP3 PUSH1 0x3 ADD DUP1 SLOAD DUP1 PUSH2 0x312E JUMPI PUSH2 0x312D PUSH2 0x59CB JUMP JUMPDEST JUMPDEST PUSH1 0x1 SWAP1 SUB DUP2 DUP2 SWAP1 PUSH0 MSTORE PUSH1 0x20 PUSH0 KECCAK256 ADD PUSH0 SWAP1 SSTORE SWAP1 SSTORE PUSH2 0x3153 JUMP JUMPDEST DUP1 DUP1 PUSH1 0x1 ADD SWAP2 POP POP PUSH2 0x30A0 JUMP JUMPDEST POP POP POP POP JUMP JUMPDEST PUSH0 PUSH1 0x3A PUSH0 PUSH1 0x39 PUSH0 DUP7 PUSH20 0xFFFFFFFFFFFFFFFFFFFFFFFFFFFFFFFFFFFFFFFF AND PUSH20 0xFFFFFFFFFFFFFFFFFFFFFFFFFFFFFFFFFFFFFFFF AND DUP2 MSTORE PUSH1 0x20 ADD SWAP1 DUP2 MSTORE PUSH1 0x20 ADD PUSH0 KECCAK256 SLOAD DUP2 MSTORE PUSH1 0x20 ADD SWAP1 DUP2 MSTORE PUSH1 0x20 ADD PUSH0 KECCAK256 SWAP1 POP DUP1 PUSH1 0x4 ADD DUP3 SWAP1 DUP1 PUSH1 0x1 DUP2 SLOAD ADD DUP1 DUP3 SSTORE DUP1 SWAP2 POP POP PUSH1 0x1 SWAP1 SUB SWAP1 PUSH0 MSTORE PUSH1 0x20 PUSH0 KECCAK256 ADD PUSH0 SWAP1 SWAP2 SWAP1 SWAP2 SWAP1 SWAP2 POP SSTORE PUSH1 0x37 DUP3 PUSH4 0x5F5E100 PUSH1 0x39 PUSH0 DUP8 PUSH20 0xFFFFFFFFFFFFFFFFFFFFFFFFFFFFFFFFFFFFFFFF AND PUSH20 0xFFFFFFFFFFFFFFFFFFFFFFFFFFFFFFFFFFFFFFFF AND DUP2 MSTORE PUSH1 0x20 ADD SWAP1 DUP2 MSTORE PUSH1 0x20 ADD PUSH0 KECCAK256 SLOAD PUSH2 0x3222 SWAP2 SWAP1 PUSH2 0x498C JUMP JUMPDEST PUSH2 0x322C SWAP2 SWAP1 PUSH2 0x49CD JUMP JUMPDEST SWAP1 DUP1 PUSH1 0x1 DUP2 SLOAD ADD DUP1 DUP3 SSTORE DUP1 SWAP2 POP POP PUSH1 0x1 SWAP1 SUB SWAP1 PUSH0 MSTORE PUSH1 0x20 PUSH0 KECCAK256 ADD PUSH0 SWAP1 SWAP2 SWAP1 SWAP2 SWAP1 SWAP2 POP SSTORE POP POP POP JUMP JUMPDEST DUP4 PUSH20 0xFFFFFFFFFFFFFFFFFFFFFFFFFFFFFFFFFFFFFFFF AND PUSH4 0x1FFC9A7 PUSH32 0x80AC58CD00000000000000000000000000000000000000000000000000000000 PUSH1 0x40 MLOAD DUP3 PUSH4 0xFFFFFFFF AND PUSH1 0xE0 SHL DUP2 MSTORE PUSH1 0x4 ADD PUSH2 0x32AD SWAP2 SWAP1 PUSH2 0x5A32 JUMP JUMPDEST PUSH1 0x20 PUSH1 0x40 MLOAD DUP1 DUP4 SUB DUP2 DUP7 GAS STATICCALL ISZERO DUP1 ISZERO PUSH2 0x32C8 JUMPI RETURNDATASIZE PUSH0 DUP1 RETURNDATACOPY RETURNDATASIZE PUSH0 REVERT JUMPDEST POP POP POP POP PUSH1 0x40 MLOAD RETURNDATASIZE PUSH1 0x1F NOT PUSH1 0x1F DUP3 ADD AND DUP3 ADD DUP1 PUSH1 0x40 MSTORE POP DUP2 ADD SWAP1 PUSH2 0x32EC SWAP2 SWAP1 PUSH2 0x5A5F JUMP JUMPDEST ISZERO PUSH2 0x3393 JUMPI PUSH0 JUMPDEST DUP4 MLOAD DUP2 LT ISZERO PUSH2 0x338D JUMPI DUP5 PUSH20 0xFFFFFFFFFFFFFFFFFFFFFFFFFFFFFFFFFFFFFFFF AND PUSH4 0x42842E0E DUP5 DUP5 DUP8 DUP6 DUP2 MLOAD DUP2 LT PUSH2 0x332D JUMPI PUSH2 0x332C PUSH2 0x4F15 JUMP JUMPDEST JUMPDEST PUSH1 0x20 MUL PUSH1 0x20 ADD ADD MLOAD PUSH1 0x40 MLOAD DUP5 PUSH4 0xFFFFFFFF AND PUSH1 0xE0 SHL DUP2 MSTORE PUSH1 0x4 ADD PUSH2 0x3353 SWAP4 SWAP3 SWAP2 SWAP1 PUSH2 0x5A8A JUMP JUMPDEST PUSH0 PUSH1 0x40 MLOAD DUP1 DUP4 SUB DUP2 PUSH0 DUP8 DUP1 EXTCODESIZE ISZERO DUP1 ISZERO PUSH2 0x336A JUMPI PUSH0 DUP1 REVERT JUMPDEST POP GAS CALL ISZERO DUP1 ISZERO PUSH2 0x337C JUMPI RETURNDATASIZE PUSH0 DUP1 RETURNDATACOPY RETURNDATASIZE PUSH0 REVERT JUMPDEST POP POP POP POP DUP1 DUP1 PUSH1 0x1 ADD SWAP2 POP POP PUSH2 0x32F3 JUMP JUMPDEST POP PUSH2 0x3511 JUMP JUMPDEST DUP4 PUSH20 0xFFFFFFFFFFFFFFFFFFFFFFFFFFFFFFFFFFFFFFFF AND PUSH4 0x1FFC9A7 PUSH32 0xD9B67A2600000000000000000000000000000000000000000000000000000000 PUSH1 0x40 MLOAD DUP3 PUSH4 0xFFFFFFFF AND PUSH1 0xE0 SHL DUP2 MSTORE PUSH1 0x4 ADD PUSH2 0x33EC SWAP2 SWAP1 PUSH2 0x5A32 JUMP JUMPDEST PUSH1 0x20 PUSH1 0x40 MLOAD DUP1 DUP4 SUB DUP2 DUP7 GAS STATICCALL ISZERO DUP1 ISZERO PUSH2 0x3407 JUMPI RETURNDATASIZE PUSH0 DUP1 RETURNDATACOPY RETURNDATASIZE PUSH0 REVERT JUMPDEST POP POP POP POP PUSH1 0x40 MLOAD RETURNDATASIZE PUSH1 0x1F NOT PUSH1 0x1F DUP3 ADD AND DUP3 ADD DUP1 PUSH1 0x40 MSTORE POP DUP2 ADD SWAP1 PUSH2 0x342B SWAP2 SWAP1 PUSH2 0x5A5F JUMP JUMPDEST ISZERO PUSH2 0x34D5 JUMPI PUSH0 JUMPDEST DUP4 MLOAD DUP2 LT ISZERO PUSH2 0x34CF JUMPI DUP5 PUSH20 0xFFFFFFFFFFFFFFFFFFFFFFFFFFFFFFFFFFFFFFFF AND PUSH4 0xF242432A DUP5 DUP5 DUP8 DUP6 DUP2 MLOAD DUP2 LT PUSH2 0x346C JUMPI PUSH2 0x346B PUSH2 0x4F15 JUMP JUMPDEST JUMPDEST PUSH1 0x20 MUL PUSH1 0x20 ADD ADD MLOAD PUSH1 0x1 PUSH1 0x40 MLOAD DUP6 PUSH4 0xFFFFFFFF AND PUSH1 0xE0 SHL DUP2 MSTORE PUSH1 0x4 ADD PUSH2 0x3495 SWAP5 SWAP4 SWAP3 SWAP2 SWAP1 PUSH2 0x5B22 JUMP JUMPDEST PUSH0 PUSH1 0x40 MLOAD DUP1 DUP4 SUB DUP2 PUSH0 DUP8 DUP1 EXTCODESIZE ISZERO DUP1 ISZERO PUSH2 0x34AC JUMPI PUSH0 DUP1 REVERT JUMPDEST POP GAS CALL ISZERO DUP1 ISZERO PUSH2 0x34BE JUMPI RETURNDATASIZE PUSH0 DUP1 RETURNDATACOPY RETURNDATASIZE PUSH0 REVERT JUMPDEST POP POP POP POP DUP1 DUP1 PUSH1 0x1 ADD SWAP2 POP POP PUSH2 0x3432 JUMP JUMPDEST POP PUSH2 0x3510 JUMP JUMPDEST PUSH1 0x40 MLOAD PUSH32 0x8C379A000000000000000000000000000000000000000000000000000000000 DUP2 MSTORE PUSH1 0x4 ADD PUSH2 0x3507 SWAP1 PUSH2 0x5BC2 JUMP JUMPDEST PUSH1 0x40 MLOAD DUP1 SWAP2 SUB SWAP1 REVERT JUMPDEST JUMPDEST POP POP POP POP JUMP JUMPDEST PUSH1 0x1 PUSH0 DUP2 SWAP1 SSTORE POP JUMP JUMPDEST PUSH2 0x3528 PUSH2 0x39C5 JUMP JUMPDEST PUSH20 0xFFFFFFFFFFFFFFFFFFFFFFFFFFFFFFFFFFFFFFFF AND PUSH2 0x3546 PUSH2 0x193D JUMP JUMPDEST PUSH20 0xFFFFFFFFFFFFFFFFFFFFFFFFFFFFFFFFFFFFFFFF AND EQ PUSH2 0x35A5 JUMPI PUSH2 0x3569 PUSH2 0x39C5 JUMP JUMPDEST PUSH1 0x40 MLOAD PUSH32 0x118CDAA700000000000000000000000000000000000000000000000000000000 DUP2 MSTORE PUSH1 0x4 ADD PUSH2 0x359C SWAP2 SWAP1 PUSH2 0x4257 JUMP JUMPDEST PUSH1 0x40 MLOAD DUP1 SWAP2 SUB SWAP1 REVERT JUMPDEST JUMP JUMPDEST PUSH0 PUSH2 0x35B0 PUSH2 0x3678 JUMP JUMPDEST SWAP1 POP PUSH0 DUP2 PUSH0 ADD PUSH0 SWAP1 SLOAD SWAP1 PUSH2 0x100 EXP SWAP1 DIV PUSH20 0xFFFFFFFFFFFFFFFFFFFFFFFFFFFFFFFFFFFFFFFF AND SWAP1 POP DUP3 DUP3 PUSH0 ADD PUSH0 PUSH2 0x100 EXP DUP2 SLOAD DUP2 PUSH20 0xFFFFFFFFFFFFFFFFFFFFFFFFFFFFFFFFFFFFFFFF MUL NOT AND SWAP1 DUP4 PUSH20 0xFFFFFFFFFFFFFFFFFFFFFFFFFFFFFFFFFFFFFFFF AND MUL OR SWAP1 SSTORE POP DUP3 PUSH20 0xFFFFFFFFFFFFFFFFFFFFFFFFFFFFFFFFFFFFFFFF AND DUP2 PUSH20 0xFFFFFFFFFFFFFFFFFFFFFFFFFFFFFFFFFFFFFFFF AND PUSH32 0x8BE0079C531659141344CD1FD0A4F28419497F9722A3DAAFE3B4186F6B6457E0 PUSH1 0x40 MLOAD PUSH1 0x40 MLOAD DUP1 SWAP2 SUB SWAP1 LOG3 POP POP POP JUMP JUMPDEST PUSH0 PUSH32 0x9016D09D72D40FDAE2FD8CEAC6B6234C7706214FD39C1CD1E609A0528C199300 SWAP1 POP SWAP1 JUMP JUMPDEST PUSH0 DUP1 PUSH0 SWAP1 POP JUMPDEST DUP4 MLOAD DUP2 LT ISZERO PUSH2 0x396B JUMPI DUP5 PUSH20 0xFFFFFFFFFFFFFFFFFFFFFFFFFFFFFFFFFFFFFFFF AND PUSH4 0x1FFC9A7 PUSH32 0x80AC58CD00000000000000000000000000000000000000000000000000000000 PUSH1 0x40 MLOAD DUP3 PUSH4 0xFFFFFFFF AND PUSH1 0xE0 SHL DUP2 MSTORE PUSH1 0x4 ADD PUSH2 0x3707 SWAP2 SWAP1 PUSH2 0x5A32 JUMP JUMPDEST PUSH1 0x20 PUSH1 0x40 MLOAD DUP1 DUP4 SUB DUP2 DUP7 GAS STATICCALL ISZERO DUP1 ISZERO PUSH2 0x3722 JUMPI RETURNDATASIZE PUSH0 DUP1 RETURNDATACOPY RETURNDATASIZE PUSH0 REVERT JUMPDEST POP POP POP POP PUSH1 0x40 MLOAD RETURNDATASIZE PUSH1 0x1F NOT PUSH1 0x1F DUP3 ADD AND DUP3 ADD DUP1 PUSH1 0x40 MSTORE POP DUP2 ADD SWAP1 PUSH2 0x3746 SWAP2 SWAP1 PUSH2 0x5A5F JUMP JUMPDEST ISZERO PUSH2 0x381D JUMPI DUP3 PUSH20 0xFFFFFFFFFFFFFFFFFFFFFFFFFFFFFFFFFFFFFFFF AND DUP6 PUSH20 0xFFFFFFFFFFFFFFFFFFFFFFFFFFFFFFFFFFFFFFFF AND PUSH4 0x6352211E DUP7 DUP5 DUP2 MLOAD DUP2 LT PUSH2 0x3791 JUMPI PUSH2 0x3790 PUSH2 0x4F15 JUMP JUMPDEST JUMPDEST PUSH1 0x20 MUL PUSH1 0x20 ADD ADD MLOAD PUSH1 0x40 MLOAD DUP3 PUSH4 0xFFFFFFFF AND PUSH1 0xE0 SHL DUP2 MSTORE PUSH1 0x4 ADD PUSH2 0x37B5 SWAP2 SWAP1 PUSH2 0x3E38 JUMP JUMPDEST PUSH1 0x20 PUSH1 0x40 MLOAD DUP1 DUP4 SUB DUP2 DUP7 GAS STATICCALL ISZERO DUP1 ISZERO PUSH2 0x37D0 JUMPI RETURNDATASIZE PUSH0 DUP1 RETURNDATACOPY RETURNDATASIZE PUSH0 REVERT JUMPDEST POP POP POP POP PUSH1 0x40 MLOAD RETURNDATASIZE PUSH1 0x1F NOT PUSH1 0x1F DUP3 ADD AND DUP3 ADD DUP1 PUSH1 0x40 MSTORE POP DUP2 ADD SWAP1 PUSH2 0x37F4 SWAP2 SWAP1 PUSH2 0x5BF4 JUMP JUMPDEST PUSH20 0xFFFFFFFFFFFFFFFFFFFFFFFFFFFFFFFFFFFFFFFF AND EQ PUSH2 0x3818 JUMPI PUSH0 SWAP2 POP POP PUSH2 0x3971 JUMP JUMPDEST PUSH2 0x395E JUMP JUMPDEST DUP5 PUSH20 0xFFFFFFFFFFFFFFFFFFFFFFFFFFFFFFFFFFFFFFFF AND PUSH4 0x1FFC9A7 PUSH32 0xD9B67A2600000000000000000000000000000000000000000000000000000000 PUSH1 0x40 MLOAD DUP3 PUSH4 0xFFFFFFFF AND PUSH1 0xE0 SHL DUP2 MSTORE PUSH1 0x4 ADD PUSH2 0x3876 SWAP2 SWAP1 PUSH2 0x5A32 JUMP JUMPDEST PUSH1 0x20 PUSH1 0x40 MLOAD DUP1 DUP4 SUB DUP2 DUP7 GAS STATICCALL ISZERO DUP1 ISZERO PUSH2 0x3891 JUMPI RETURNDATASIZE PUSH0 DUP1 RETURNDATACOPY RETURNDATASIZE PUSH0 REVERT JUMPDEST POP POP POP POP PUSH1 0x40 MLOAD RETURNDATASIZE PUSH1 0x1F NOT PUSH1 0x1F DUP3 ADD AND DUP3 ADD DUP1 PUSH1 0x40 MSTORE POP DUP2 ADD SWAP1 PUSH2 0x38B5 SWAP2 SWAP1 PUSH2 0x5A5F JUMP JUMPDEST ISZERO PUSH2 0x395D JUMPI PUSH0 DUP6 PUSH20 0xFFFFFFFFFFFFFFFFFFFFFFFFFFFFFFFFFFFFFFFF AND PUSH3 0xFDD58E DUP6 DUP8 DUP6 DUP2 MLOAD DUP2 LT PUSH2 0x38EA JUMPI PUSH2 0x38E9 PUSH2 0x4F15 JUMP JUMPDEST JUMPDEST PUSH1 0x20 MUL PUSH1 0x20 ADD ADD MLOAD PUSH1 0x40 MLOAD DUP4 PUSH4 0xFFFFFFFF AND PUSH1 0xE0 SHL DUP2 MSTORE PUSH1 0x4 ADD PUSH2 0x390F SWAP3 SWAP2 SWAP1 PUSH2 0x4A90 JUMP JUMPDEST PUSH1 0x20 PUSH1 0x40 MLOAD DUP1 DUP4 SUB DUP2 DUP7 GAS STATICCALL ISZERO DUP1 ISZERO PUSH2 0x392A JUMPI RETURNDATASIZE PUSH0 DUP1 RETURNDATACOPY RETURNDATASIZE PUSH0 REVERT JUMPDEST POP POP POP POP PUSH1 0x40 MLOAD RETURNDATASIZE PUSH1 0x1F NOT PUSH1 0x1F DUP3 ADD AND DUP3 ADD DUP1 PUSH1 0x40 MSTORE POP DUP2 ADD SWAP1 PUSH2 0x394E SWAP2 SWAP1 PUSH2 0x5C33 JUMP JUMPDEST SUB PUSH2 0x395C JUMPI PUSH0 SWAP2 POP POP PUSH2 0x3971 JUMP JUMPDEST JUMPDEST JUMPDEST DUP1 DUP1 PUSH1 0x1 ADD SWAP2 POP POP PUSH2 0x36A5 JUMP JUMPDEST POP PUSH1 0x1 SWAP1 POP JUMPDEST SWAP4 SWAP3 POP POP POP JUMP JUMPDEST PUSH0 PUSH32 0xF0C57E16840DF040F15088DC2F81FE391C3923BEC73E23A9662EFC9C229C6A00 SWAP1 POP SWAP1 JUMP JUMPDEST PUSH2 0x39A7 PUSH2 0x39CC JUMP JUMPDEST PUSH2 0x39B0 DUP2 PUSH2 0x3A0C JUMP JUMPDEST POP JUMP JUMPDEST PUSH2 0x39BB PUSH2 0x39CC JUMP JUMPDEST PUSH2 0x39C3 PUSH2 0x3A90 JUMP JUMPDEST JUMP JUMPDEST PUSH0 CALLER SWAP1 POP SWAP1 JUMP JUMPDEST PUSH2 0x39D4 PUSH2 0x3AA1 JUMP JUMPDEST PUSH2 0x3A0A JUMPI PUSH1 0x40 MLOAD PUSH32 0xD7E6BCF800000000000000000000000000000000000000000000000000000000 DUP2 MSTORE PUSH1 0x4 ADD PUSH1 0x40 MLOAD DUP1 SWAP2 SUB SWAP1 REVERT JUMPDEST JUMP JUMPDEST PUSH2 0x3A14 PUSH2 0x39CC JUMP JUMPDEST PUSH0 PUSH20 0xFFFFFFFFFFFFFFFFFFFFFFFFFFFFFFFFFFFFFFFF AND DUP2 PUSH20 0xFFFFFFFFFFFFFFFFFFFFFFFFFFFFFFFFFFFFFFFF AND SUB PUSH2 0x3A84 JUMPI PUSH0 PUSH1 0x40 MLOAD PUSH32 0x1E4FBDF700000000000000000000000000000000000000000000000000000000 DUP2 MSTORE PUSH1 0x4 ADD PUSH2 0x3A7B SWAP2 SWAP1 PUSH2 0x4257 JUMP JUMPDEST PUSH1 0x40 MLOAD DUP1 SWAP2 SUB SWAP1 REVERT JUMPDEST PUSH2 0x3A8D DUP2 PUSH2 0x35A7 JUMP JUMPDEST POP JUMP JUMPDEST PUSH2 0x3A98 PUSH2 0x39CC JUMP JUMPDEST PUSH1 0x1 PUSH0 DUP2 SWAP1 SSTORE POP JUMP JUMPDEST PUSH0 PUSH2 0x3AAA PUSH2 0x3978 JUMP JUMPDEST PUSH0 ADD PUSH1 0x8 SWAP1 SLOAD SWAP1 PUSH2 0x100 EXP SWAP1 DIV PUSH1 0xFF AND SWAP1 POP SWAP1 JUMP JUMPDEST PUSH1 0x40 MLOAD DUP1 PUSH2 0x140 ADD PUSH1 0x40 MSTORE DUP1 PUSH0 ISZERO ISZERO DUP2 MSTORE PUSH1 0x20 ADD PUSH0 DUP2 MSTORE PUSH1 0x20 ADD PUSH0 PUSH20 0xFFFFFFFFFFFFFFFFFFFFFFFFFFFFFFFFFFFFFFFF AND DUP2 MSTORE PUSH1 0x20 ADD PUSH1 0x60 DUP2 MSTORE PUSH1 0x20 ADD PUSH1 0x60 DUP2 MSTORE PUSH1 0x20 ADD PUSH0 PUSH20 0xFFFFFFFFFFFFFFFFFFFFFFFFFFFFFFFFFFFFFFFF AND DUP2 MSTORE PUSH1 0x20 ADD PUSH0 PUSH20 0xFFFFFFFFFFFFFFFFFFFFFFFFFFFFFFFFFFFFFFFF AND DUP2 MSTORE PUSH1 0x20 ADD PUSH0 DUP2 MSTORE PUSH1 0x20 ADD PUSH0 ISZERO ISZERO DUP2 MSTORE PUSH1 0x20 ADD PUSH0 DUP2 MSTORE POP SWAP1 JUMP JUMPDEST DUP3 DUP1 SLOAD DUP3 DUP3 SSTORE SWAP1 PUSH0 MSTORE PUSH1 0x20 PUSH0 KECCAK256 SWAP1 DUP2 ADD SWAP3 DUP3 ISZERO PUSH2 0x3B8A JUMPI SWAP2 PUSH1 0x20 MUL DUP3 ADD JUMPDEST DUP3 DUP2 GT ISZERO PUSH2 0x3B89 JUMPI DUP3 MLOAD DUP3 SSTORE SWAP2 PUSH1 0x20 ADD SWAP2 SWAP1 PUSH1 0x1 ADD SWAP1 PUSH2 0x3B6E JUMP JUMPDEST JUMPDEST POP SWAP1 POP PUSH2 0x3B97 SWAP2 SWAP1 PUSH2 0x3C21 JUMP JUMPDEST POP SWAP1 JUMP JUMPDEST DUP3 DUP1 SLOAD DUP3 DUP3 SSTORE SWAP1 PUSH0 MSTORE PUSH1 0x20 PUSH0 KECCAK256 SWAP1 DUP2 ADD SWAP3 DUP3 ISZERO PUSH2 0x3BE1 JUMPI SWAP2 PUSH1 0x20 MUL DUP3 ADD JUMPDEST DUP3 DUP2 GT ISZERO PUSH2 0x3BE0 JUMPI DUP3 MLOAD DUP3 SWAP1 DUP2 PUSH2 0x3BD0 SWAP2 SWAP1 PUSH2 0x55EA JUMP JUMPDEST POP SWAP2 PUSH1 0x20 ADD SWAP2 SWAP1 PUSH1 0x1 ADD SWAP1 PUSH2 0x3BB9 JUMP JUMPDEST JUMPDEST POP SWAP1 POP PUSH2 0x3BEE SWAP2 SWAP1 PUSH2 0x3C3C JUMP JUMPDEST POP SWAP1 JUMP JUMPDEST PUSH1 0x40 MLOAD DUP1 PUSH1 0xA0 ADD PUSH1 0x40 MSTORE DUP1 PUSH1 0x60 DUP2 MSTORE PUSH1 0x20 ADD PUSH1 0x60 DUP2 MSTORE PUSH1 0x20 ADD PUSH1 0x60 DUP2 MSTORE PUSH1 0x20 ADD PUSH1 0x60 DUP2 MSTORE PUSH1 0x20 ADD PUSH1 0x60 DUP2 MSTORE POP SWAP1 JUMP JUMPDEST JUMPDEST DUP1 DUP3 GT ISZERO PUSH2 0x3C38 JUMPI PUSH0 DUP2 PUSH0 SWAP1 SSTORE POP PUSH1 0x1 ADD PUSH2 0x3C22 JUMP JUMPDEST POP SWAP1 JUMP JUMPDEST JUMPDEST DUP1 DUP3 GT ISZERO PUSH2 0x3C5B JUMPI PUSH0 DUP2 DUP2 PUSH2 0x3C52 SWAP2 SWAP1 PUSH2 0x3C5F JUMP JUMPDEST POP PUSH1 0x1 ADD PUSH2 0x3C3D JUMP JUMPDEST POP SWAP1 JUMP JUMPDEST POP DUP1 SLOAD PUSH2 0x3C6B SWAP1 PUSH2 0x4F6F JUMP JUMPDEST PUSH0 DUP3 SSTORE DUP1 PUSH1 0x1F LT PUSH2 0x3C7C JUMPI POP PUSH2 0x3C99 JUMP JUMPDEST PUSH1 0x1F ADD PUSH1 0x20 SWAP1 DIV SWAP1 PUSH0 MSTORE PUSH1 0x20 PUSH0 KECCAK256 SWAP1 DUP2 ADD SWAP1 PUSH2 0x3C98 SWAP2 SWAP1 PUSH2 0x3C21 JUMP JUMPDEST JUMPDEST POP JUMP JUMPDEST PUSH0 PUSH1 0x40 MLOAD SWAP1 POP SWAP1 JUMP JUMPDEST PUSH0 DUP1 REVERT JUMPDEST PUSH0 DUP1 REVERT JUMPDEST PUSH0 DUP2 SWAP1 POP SWAP2 SWAP1 POP JUMP JUMPDEST PUSH2 0x3CBF DUP2 PUSH2 0x3CAD JUMP JUMPDEST DUP2 EQ PUSH2 0x3CC9 JUMPI PUSH0 DUP1 REVERT JUMPDEST POP JUMP JUMPDEST PUSH0 DUP2 CALLDATALOAD SWAP1 POP PUSH2 0x3CDA DUP2 PUSH2 0x3CB6 JUMP JUMPDEST SWAP3 SWAP2 POP POP JUMP JUMPDEST PUSH0 PUSH1 0x20 DUP3 DUP5 SUB SLT ISZERO PUSH2 0x3CF5 JUMPI PUSH2 0x3CF4 PUSH2 0x3CA5 JUMP JUMPDEST JUMPDEST PUSH0 PUSH2 0x3D02 DUP5 DUP3 DUP6 ADD PUSH2 0x3CCC JUMP JUMPDEST SWAP2 POP POP SWAP3 SWAP2 POP POP JUMP JUMPDEST PUSH0 DUP2 ISZERO ISZERO SWAP1 POP SWAP2 SWAP1 POP JUMP JUMPDEST PUSH2 0x3D1F DUP2 PUSH2 0x3D0B JUMP JUMPDEST DUP2 EQ PUSH2 0x3D29 JUMPI PUSH0 DUP1 REVERT JUMPDEST POP JUMP JUMPDEST PUSH0 DUP2 CALLDATALOAD SWAP1 POP PUSH2 0x3D3A DUP2 PUSH2 0x3D16 JUMP JUMPDEST SWAP3 SWAP2 POP POP JUMP JUMPDEST PUSH0 DUP1 PUSH0 DUP1 PUSH1 0x80 DUP6 DUP8 SUB SLT ISZERO PUSH2 0x3D58 JUMPI PUSH2 0x3D57 PUSH2 0x3CA5 JUMP JUMPDEST JUMPDEST PUSH0 PUSH2 0x3D65 DUP8 DUP3 DUP9 ADD PUSH2 0x3CCC JUMP JUMPDEST SWAP5 POP POP PUSH1 0x20 PUSH2 0x3D76 DUP8 DUP3 DUP9 ADD PUSH2 0x3D2C JUMP JUMPDEST SWAP4 POP POP PUSH1 0x40 PUSH2 0x3D87 DUP8 DUP3 DUP9 ADD PUSH2 0x3CCC JUMP JUMPDEST SWAP3 POP POP PUSH1 0x60 PUSH2 0x3D98 DUP8 DUP3 DUP9 ADD PUSH2 0x3CCC JUMP JUMPDEST SWAP2 POP POP SWAP3 SWAP6 SWAP2 SWAP5 POP SWAP3 POP JUMP JUMPDEST PUSH0 PUSH20 0xFFFFFFFFFFFFFFFFFFFFFFFFFFFFFFFFFFFFFFFF DUP3 AND SWAP1 POP SWAP2 SWAP1 POP JUMP JUMPDEST PUSH0 PUSH2 0x3DCD DUP3 PUSH2 0x3DA4 JUMP JUMPDEST SWAP1 POP SWAP2 SWAP1 POP JUMP JUMPDEST PUSH2 0x3DDD DUP2 PUSH2 0x3DC3 JUMP JUMPDEST DUP2 EQ PUSH2 0x3DE7 JUMPI PUSH0 DUP1 REVERT JUMPDEST POP JUMP JUMPDEST PUSH0 DUP2 CALLDATALOAD SWAP1 POP PUSH2 0x3DF8 DUP2 PUSH2 0x3DD4 JUMP JUMPDEST SWAP3 SWAP2 POP POP JUMP JUMPDEST PUSH0 PUSH1 0x20 DUP3 DUP5 SUB SLT ISZERO PUSH2 0x3E13 JUMPI PUSH2 0x3E12 PUSH2 0x3CA5 JUMP JUMPDEST JUMPDEST PUSH0 PUSH2 0x3E20 DUP5 DUP3 DUP6 ADD PUSH2 0x3DEA JUMP JUMPDEST SWAP2 POP POP SWAP3 SWAP2 POP POP JUMP JUMPDEST PUSH2 0x3E32 DUP2 PUSH2 0x3CAD JUMP JUMPDEST DUP3 MSTORE POP POP JUMP JUMPDEST PUSH0 PUSH1 0x20 DUP3 ADD SWAP1 POP PUSH2 0x3E4B PUSH0 DUP4 ADD DUP5 PUSH2 0x3E29 JUMP JUMPDEST SWAP3 SWAP2 POP POP JUMP JUMPDEST PUSH0 DUP2 MLOAD SWAP1 POP SWAP2 SWAP1 POP JUMP JUMPDEST PUSH0 DUP3 DUP3 MSTORE PUSH1 0x20 DUP3 ADD SWAP1 POP SWAP3 SWAP2 POP POP JUMP JUMPDEST PUSH0 DUP2 SWAP1 POP PUSH1 0x20 DUP3 ADD SWAP1 POP SWAP2 SWAP1 POP JUMP JUMPDEST PUSH2 0x3E83 DUP2 PUSH2 0x3D0B JUMP JUMPDEST DUP3 MSTORE POP POP JUMP JUMPDEST PUSH2 0x3E92 DUP2 PUSH2 0x3CAD JUMP JUMPDEST DUP3 MSTORE POP POP JUMP JUMPDEST PUSH2 0x3EA1 DUP2 PUSH2 0x3DC3 JUMP JUMPDEST DUP3 MSTORE POP POP JUMP JUMPDEST PUSH0 DUP2 MLOAD SWAP1 POP SWAP2 SWAP1 POP JUMP JUMPDEST PUSH0 DUP3 DUP3 MSTORE PUSH1 0x20 DUP3 ADD SWAP1 POP SWAP3 SWAP2 POP POP JUMP JUMPDEST PUSH0 DUP2 SWAP1 POP PUSH1 0x20 DUP3 ADD SWAP1 POP SWAP2 SWAP1 POP JUMP JUMPDEST PUSH0 PUSH2 0x3EDB DUP4 DUP4 PUSH2 0x3E89 JUMP JUMPDEST PUSH1 0x20 DUP4 ADD SWAP1 POP SWAP3 SWAP2 POP POP JUMP JUMPDEST PUSH0 PUSH1 0x20 DUP3 ADD SWAP1 POP SWAP2 SWAP1 POP JUMP JUMPDEST PUSH0 PUSH2 0x3EFD DUP3 PUSH2 0x3EA7 JUMP JUMPDEST PUSH2 0x3F07 DUP2 DUP6 PUSH2 0x3EB1 JUMP JUMPDEST SWAP4 POP PUSH2 0x3F12 DUP4 PUSH2 0x3EC1 JUMP JUMPDEST DUP1 PUSH0 JUMPDEST DUP4 DUP2 LT ISZERO PUSH2 0x3F42 JUMPI DUP2 MLOAD PUSH2 0x3F29 DUP9 DUP3 PUSH2 0x3ED0 JUMP JUMPDEST SWAP8 POP PUSH2 0x3F34 DUP4 PUSH2 0x3EE7 JUMP JUMPDEST SWAP3 POP POP PUSH1 0x1 DUP2 ADD SWAP1 POP PUSH2 0x3F15 JUMP JUMPDEST POP DUP6 SWAP4 POP POP POP POP SWAP3 SWAP2 POP POP JUMP JUMPDEST PUSH0 DUP2 MLOAD SWAP1 POP SWAP2 SWAP1 POP JUMP JUMPDEST PUSH0 DUP3 DUP3 MSTORE PUSH1 0x20 DUP3 ADD SWAP1 POP SWAP3 SWAP2 POP POP JUMP JUMPDEST PUSH0 DUP2 SWAP1 POP PUSH1 0x20 DUP3 ADD SWAP1 POP SWAP2 SWAP1 POP JUMP JUMPDEST PUSH0 DUP2 MLOAD SWAP1 POP SWAP2 SWAP1 POP JUMP JUMPDEST PUSH0 DUP3 DUP3 MSTORE PUSH1 0x20 DUP3 ADD SWAP1 POP SWAP3 SWAP2 POP POP JUMP JUMPDEST DUP3 DUP2 DUP4 MCOPY PUSH0 DUP4 DUP4 ADD MSTORE POP POP POP JUMP JUMPDEST PUSH0 PUSH1 0x1F NOT PUSH1 0x1F DUP4 ADD AND SWAP1 POP SWAP2 SWAP1 POP JUMP JUMPDEST PUSH0 PUSH2 0x3FBA DUP3 PUSH2 0x3F78 JUMP JUMPDEST PUSH2 0x3FC4 DUP2 DUP6 PUSH2 0x3F82 JUMP JUMPDEST SWAP4 POP PUSH2 0x3FD4 DUP2 DUP6 PUSH1 0x20 DUP7 ADD PUSH2 0x3F92 JUMP JUMPDEST PUSH2 0x3FDD DUP2 PUSH2 0x3FA0 JUMP JUMPDEST DUP5 ADD SWAP2 POP POP SWAP3 SWAP2 POP POP JUMP JUMPDEST PUSH0 PUSH2 0x3FF3 DUP4 DUP4 PUSH2 0x3FB0 JUMP JUMPDEST SWAP1 POP SWAP3 SWAP2 POP POP JUMP JUMPDEST PUSH0 PUSH1 0x20 DUP3 ADD SWAP1 POP SWAP2 SWAP1 POP JUMP JUMPDEST PUSH0 PUSH2 0x4011 DUP3 PUSH2 0x3F4F JUMP JUMPDEST PUSH2 0x401B DUP2 DUP6 PUSH2 0x3F59 JUMP JUMPDEST SWAP4 POP DUP4 PUSH1 0x20 DUP3 MUL DUP6 ADD PUSH2 0x402D DUP6 PUSH2 0x3F69 JUMP JUMPDEST DUP1 PUSH0 JUMPDEST DUP6 DUP2 LT ISZERO PUSH2 0x4068 JUMPI DUP5 DUP5 SUB DUP10 MSTORE DUP2 MLOAD PUSH2 0x4049 DUP6 DUP3 PUSH2 0x3FE8 JUMP JUMPDEST SWAP5 POP PUSH2 0x4054 DUP4 PUSH2 0x3FFB JUMP JUMPDEST SWAP3 POP PUSH1 0x20 DUP11 ADD SWAP10 POP POP PUSH1 0x1 DUP2 ADD SWAP1 POP PUSH2 0x4030 JUMP JUMPDEST POP DUP3 SWAP8 POP DUP8 SWAP6 POP POP POP POP POP POP SWAP3 SWAP2 POP POP JUMP JUMPDEST PUSH0 PUSH2 0x140 DUP4 ADD PUSH0 DUP4 ADD MLOAD PUSH2 0x4090 PUSH0 DUP7 ADD DUP3 PUSH2 0x3E7A JUMP JUMPDEST POP PUSH1 0x20 DUP4 ADD MLOAD PUSH2 0x40A3 PUSH1 0x20 DUP7 ADD DUP3 PUSH2 0x3E89 JUMP JUMPDEST POP PUSH1 0x40 DUP4 ADD MLOAD PUSH2 0x40B6 PUSH1 0x40 DUP7 ADD DUP3 PUSH2 0x3E98 JUMP JUMPDEST POP PUSH1 0x60 DUP4 ADD MLOAD DUP5 DUP3 SUB PUSH1 0x60 DUP7 ADD MSTORE PUSH2 0x40CE DUP3 DUP3 PUSH2 0x3EF3 JUMP JUMPDEST SWAP2 POP POP PUSH1 0x80 DUP4 ADD MLOAD DUP5 DUP3 SUB PUSH1 0x80 DUP7 ADD MSTORE PUSH2 0x40E8 DUP3 DUP3 PUSH2 0x4007 JUMP JUMPDEST SWAP2 POP POP PUSH1 0xA0 DUP4 ADD MLOAD PUSH2 0x40FD PUSH1 0xA0 DUP7 ADD DUP3 PUSH2 0x3E98 JUMP JUMPDEST POP PUSH1 0xC0 DUP4 ADD MLOAD PUSH2 0x4110 PUSH1 0xC0 DUP7 ADD DUP3 PUSH2 0x3E98 JUMP JUMPDEST POP PUSH1 0xE0 DUP4 ADD MLOAD PUSH2 0x4123 PUSH1 0xE0 DUP7 ADD DUP3 PUSH2 0x3E89 JUMP JUMPDEST POP PUSH2 0x100 DUP4 ADD MLOAD PUSH2 0x4138 PUSH2 0x100 DUP7 ADD DUP3 PUSH2 0x3E7A JUMP JUMPDEST POP PUSH2 0x120 DUP4 ADD MLOAD PUSH2 0x414D PUSH2 0x120 DUP7 ADD DUP3 PUSH2 0x3E89 JUMP JUMPDEST POP DUP1 SWAP2 POP POP SWAP3 SWAP2 POP POP JUMP JUMPDEST PUSH0 PUSH2 0x4163 DUP4 DUP4 PUSH2 0x407A JUMP JUMPDEST SWAP1 POP SWAP3 SWAP2 POP POP JUMP JUMPDEST PUSH0 PUSH1 0x20 DUP3 ADD SWAP1 POP SWAP2 SWAP1 POP JUMP JUMPDEST PUSH0 PUSH2 0x4181 DUP3 PUSH2 0x3E51 JUMP JUMPDEST PUSH2 0x418B DUP2 DUP6 PUSH2 0x3E5B JUMP JUMPDEST SWAP4 POP DUP4 PUSH1 0x20 DUP3 MUL DUP6 ADD PUSH2 0x419D DUP6 PUSH2 0x3E6B JUMP JUMPDEST DUP1 PUSH0 JUMPDEST DUP6 DUP2 LT ISZERO PUSH2 0x41D8 JUMPI DUP5 DUP5 SUB DUP10 MSTORE DUP2 MLOAD PUSH2 0x41B9 DUP6 DUP3 PUSH2 0x4158 JUMP JUMPDEST SWAP5 POP PUSH2 0x41C4 DUP4 PUSH2 0x416B JUMP JUMPDEST SWAP3 POP PUSH1 0x20 DUP11 ADD SWAP10 POP POP PUSH1 0x1 DUP2 ADD SWAP1 POP PUSH2 0x41A0 JUMP JUMPDEST POP DUP3 SWAP8 POP DUP8 SWAP6 POP POP POP POP POP POP SWAP3 SWAP2 POP POP JUMP JUMPDEST PUSH0 PUSH1 0x20 DUP3 ADD SWAP1 POP DUP2 DUP2 SUB PUSH0 DUP4 ADD MSTORE PUSH2 0x4202 DUP2 DUP5 PUSH2 0x4177 JUMP JUMPDEST SWAP1 POP SWAP3 SWAP2 POP POP JUMP JUMPDEST PUSH0 DUP1 PUSH1 0x40 DUP4 DUP6 SUB SLT ISZERO PUSH2 0x4220 JUMPI PUSH2 0x421F PUSH2 0x3CA5 JUMP JUMPDEST JUMPDEST PUSH0 PUSH2 0x422D DUP6 DUP3 DUP7 ADD PUSH2 0x3CCC JUMP JUMPDEST SWAP3 POP POP PUSH1 0x20 PUSH2 0x423E DUP6 DUP3 DUP7 ADD PUSH2 0x3DEA JUMP JUMPDEST SWAP2 POP POP SWAP3 POP SWAP3 SWAP1 POP JUMP JUMPDEST PUSH2 0x4251 DUP2 PUSH2 0x3DC3 JUMP JUMPDEST DUP3 MSTORE POP POP JUMP JUMPDEST PUSH0 PUSH1 0x20 DUP3 ADD SWAP1 POP PUSH2 0x426A PUSH0 DUP4 ADD DUP5 PUSH2 0x4248 JUMP JUMPDEST SWAP3 SWAP2 POP POP JUMP JUMPDEST PUSH0 DUP1 REVERT JUMPDEST PUSH32 0x4E487B7100000000000000000000000000000000000000000000000000000000 PUSH0 MSTORE PUSH1 0x41 PUSH1 0x4 MSTORE PUSH1 0x24 PUSH0 REVERT JUMPDEST PUSH2 0x42AA DUP3 PUSH2 0x3FA0 JUMP JUMPDEST DUP2 ADD DUP2 DUP2 LT PUSH8 0xFFFFFFFFFFFFFFFF DUP3 GT OR ISZERO PUSH2 0x42C9 JUMPI PUSH2 0x42C8 PUSH2 0x4274 JUMP JUMPDEST JUMPDEST DUP1 PUSH1 0x40 MSTORE POP POP POP JUMP JUMPDEST PUSH0 PUSH2 0x42DB PUSH2 0x3C9C JUMP JUMPDEST SWAP1 POP PUSH2 0x42E7 DUP3 DUP3 PUSH2 0x42A1 JUMP JUMPDEST SWAP2 SWAP1 POP JUMP JUMPDEST PUSH0 PUSH8 0xFFFFFFFFFFFFFFFF DUP3 GT ISZERO PUSH2 0x4306 JUMPI PUSH2 0x4305 PUSH2 0x4274 JUMP JUMPDEST JUMPDEST PUSH1 0x20 DUP3 MUL SWAP1 POP PUSH1 0x20 DUP2 ADD SWAP1 POP SWAP2 SWAP1 POP JUMP JUMPDEST PUSH0 DUP1 REVERT JUMPDEST PUSH0 PUSH2 0x432D PUSH2 0x4328 DUP5 PUSH2 0x42EC JUMP JUMPDEST PUSH2 0x42D2 JUMP JUMPDEST SWAP1 POP DUP1 DUP4 DUP3 MSTORE PUSH1 0x20 DUP3 ADD SWAP1 POP PUSH1 0x20 DUP5 MUL DUP4 ADD DUP6 DUP2 GT ISZERO PUSH2 0x4350 JUMPI PUSH2 0x434F PUSH2 0x4317 JUMP JUMPDEST JUMPDEST DUP4 JUMPDEST DUP2 DUP2 LT ISZERO PUSH2 0x4379 JUMPI DUP1 PUSH2 0x4365 DUP9 DUP3 PUSH2 0x3CCC JUMP JUMPDEST DUP5 MSTORE PUSH1 0x20 DUP5 ADD SWAP4 POP POP PUSH1 0x20 DUP2 ADD SWAP1 POP PUSH2 0x4352 JUMP JUMPDEST POP POP POP SWAP4 SWAP3 POP POP POP JUMP JUMPDEST PUSH0 DUP3 PUSH1 0x1F DUP4 ADD SLT PUSH2 0x4397 JUMPI PUSH2 0x4396 PUSH2 0x4270 JUMP JUMPDEST JUMPDEST DUP2 CALLDATALOAD PUSH2 0x43A7 DUP5 DUP3 PUSH1 0x20 DUP7 ADD PUSH2 0x431B JUMP JUMPDEST SWAP2 POP POP SWAP3 SWAP2 POP POP JUMP JUMPDEST PUSH0 DUP1 PUSH0 DUP1 PUSH0 PUSH1 0xA0 DUP7 DUP9 SUB SLT ISZERO PUSH2 0x43C9 JUMPI PUSH2 0x43C8 PUSH2 0x3CA5 JUMP JUMPDEST JUMPDEST PUSH0 PUSH2 0x43D6 DUP9 DUP3 DUP10 ADD PUSH2 0x3DEA JUMP JUMPDEST SWAP6 POP POP PUSH1 0x20 DUP7 ADD CALLDATALOAD PUSH8 0xFFFFFFFFFFFFFFFF DUP2 GT ISZERO PUSH2 0x43F7 JUMPI PUSH2 0x43F6 PUSH2 0x3CA9 JUMP JUMPDEST JUMPDEST PUSH2 0x4403 DUP9 DUP3 DUP10 ADD PUSH2 0x4383 JUMP JUMPDEST SWAP5 POP POP PUSH1 0x40 PUSH2 0x4414 DUP9 DUP3 DUP10 ADD PUSH2 0x3CCC JUMP JUMPDEST SWAP4 POP POP PUSH1 0x60 PUSH2 0x4425 DUP9 DUP3 DUP10 ADD PUSH2 0x3D2C JUMP JUMPDEST SWAP3 POP POP PUSH1 0x80 PUSH2 0x4436 DUP9 DUP3 DUP10 ADD PUSH2 0x3CCC JUMP JUMPDEST SWAP2 POP POP SWAP3 SWAP6 POP SWAP3 SWAP6 SWAP1 SWAP4 POP JUMP JUMPDEST PUSH0 DUP1 REVERT JUMPDEST PUSH0 PUSH8 0xFFFFFFFFFFFFFFFF DUP3 GT ISZERO PUSH2 0x4461 JUMPI PUSH2 0x4460 PUSH2 0x4274 JUMP JUMPDEST JUMPDEST PUSH2 0x446A DUP3 PUSH2 0x3FA0 JUMP JUMPDEST SWAP1 POP PUSH1 0x20 DUP2 ADD SWAP1 POP SWAP2 SWAP1 POP JUMP JUMPDEST DUP3 DUP2 DUP4 CALLDATACOPY PUSH0 DUP4 DUP4 ADD MSTORE POP POP POP JUMP JUMPDEST PUSH0 PUSH2 0x4497 PUSH2 0x4492 DUP5 PUSH2 0x4447 JUMP JUMPDEST PUSH2 0x42D2 JUMP JUMPDEST SWAP1 POP DUP3 DUP2 MSTORE PUSH1 0x20 DUP2 ADD DUP5 DUP5 DUP5 ADD GT ISZERO PUSH2 0x44B3 JUMPI PUSH2 0x44B2 PUSH2 0x4443 JUMP JUMPDEST JUMPDEST PUSH2 0x44BE DUP5 DUP3 DUP6 PUSH2 0x4477 JUMP JUMPDEST POP SWAP4 SWAP3 POP POP POP JUMP JUMPDEST PUSH0 DUP3 PUSH1 0x1F DUP4 ADD SLT PUSH2 0x44DA JUMPI PUSH2 0x44D9 PUSH2 0x4270 JUMP JUMPDEST JUMPDEST DUP2 CALLDATALOAD PUSH2 0x44EA DUP5 DUP3 PUSH1 0x20 DUP7 ADD PUSH2 0x4485 JUMP JUMPDEST SWAP2 POP POP SWAP3 SWAP2 POP POP JUMP JUMPDEST PUSH0 DUP1 PUSH0 PUSH1 0x60 DUP5 DUP7 SUB SLT ISZERO PUSH2 0x450A JUMPI PUSH2 0x4509 PUSH2 0x3CA5 JUMP JUMPDEST JUMPDEST PUSH0 PUSH2 0x4517 DUP7 DUP3 DUP8 ADD PUSH2 0x3DEA JUMP JUMPDEST SWAP4 POP POP PUSH1 0x20 DUP5 ADD CALLDATALOAD PUSH8 0xFFFFFFFFFFFFFFFF DUP2 GT ISZERO PUSH2 0x4538 JUMPI PUSH2 0x4537 PUSH2 0x3CA9 JUMP JUMPDEST JUMPDEST PUSH2 0x4544 DUP7 DUP3 DUP8 ADD PUSH2 0x44C6 JUMP JUMPDEST SWAP3 POP POP PUSH1 0x40 DUP5 ADD CALLDATALOAD PUSH8 0xFFFFFFFFFFFFFFFF DUP2 GT ISZERO PUSH2 0x4565 JUMPI PUSH2 0x4564 PUSH2 0x3CA9 JUMP JUMPDEST JUMPDEST PUSH2 0x4571 DUP7 DUP3 DUP8 ADD PUSH2 0x44C6 JUMP JUMPDEST SWAP2 POP POP SWAP3 POP SWAP3 POP SWAP3 JUMP JUMPDEST PUSH0 DUP1 PUSH0 PUSH1 0x60 DUP5 DUP7 SUB SLT ISZERO PUSH2 0x4592 JUMPI PUSH2 0x4591 PUSH2 0x3CA5 JUMP JUMPDEST JUMPDEST PUSH0 PUSH2 0x459F DUP7 DUP3 DUP8 ADD PUSH2 0x3CCC JUMP JUMPDEST SWAP4 POP POP PUSH1 0x20 PUSH2 0x45B0 DUP7 DUP3 DUP8 ADD PUSH2 0x3DEA JUMP JUMPDEST SWAP3 POP POP PUSH1 0x40 PUSH2 0x45C1 DUP7 DUP3 DUP8 ADD PUSH2 0x3DEA JUMP JUMPDEST SWAP2 POP POP SWAP3 POP SWAP3 POP SWAP3 JUMP JUMPDEST PUSH0 DUP1 PUSH0 PUSH1 0x60 DUP5 DUP7 SUB SLT ISZERO PUSH2 0x45E2 JUMPI PUSH2 0x45E1 PUSH2 0x3CA5 JUMP JUMPDEST JUMPDEST PUSH0 DUP5 ADD CALLDATALOAD PUSH8 0xFFFFFFFFFFFFFFFF DUP2 GT ISZERO PUSH2 0x45FF JUMPI PUSH2 0x45FE PUSH2 0x3CA9 JUMP JUMPDEST JUMPDEST PUSH2 0x460B DUP7 DUP3 DUP8 ADD PUSH2 0x44C6 JUMP JUMPDEST SWAP4 POP POP PUSH1 0x20 DUP5 ADD CALLDATALOAD PUSH8 0xFFFFFFFFFFFFFFFF DUP2 GT ISZERO PUSH2 0x462C JUMPI PUSH2 0x462B PUSH2 0x3CA9 JUMP JUMPDEST JUMPDEST PUSH2 0x4638 DUP7 DUP3 DUP8 ADD PUSH2 0x44C6 JUMP JUMPDEST SWAP3 POP POP PUSH1 0x40 PUSH2 0x4649 DUP7 DUP3 DUP8 ADD PUSH2 0x3DEA JUMP JUMPDEST SWAP2 POP POP SWAP3 POP SWAP3 POP SWAP3 JUMP JUMPDEST PUSH0 DUP3 DUP3 MSTORE PUSH1 0x20 DUP3 ADD SWAP1 POP SWAP3 SWAP2 POP POP JUMP JUMPDEST PUSH0 PUSH2 0x466D DUP3 PUSH2 0x3F78 JUMP JUMPDEST PUSH2 0x4677 DUP2 DUP6 PUSH2 0x4653 JUMP JUMPDEST SWAP4 POP PUSH2 0x4687 DUP2 DUP6 PUSH1 0x20 DUP7 ADD PUSH2 0x3F92 JUMP JUMPDEST PUSH2 0x4690 DUP2 PUSH2 0x3FA0 JUMP JUMPDEST DUP5 ADD SWAP2 POP POP SWAP3 SWAP2 POP POP JUMP JUMPDEST PUSH0 PUSH1 0x40 DUP3 ADD SWAP1 POP DUP2 DUP2 SUB PUSH0 DUP4 ADD MSTORE PUSH2 0x46B3 DUP2 DUP6 PUSH2 0x4663 JUMP JUMPDEST SWAP1 POP DUP2 DUP2 SUB PUSH1 0x20 DUP4 ADD MSTORE PUSH2 0x46C7 DUP2 DUP5 PUSH2 0x4663 JUMP JUMPDEST SWAP1 POP SWAP4 SWAP3 POP POP POP JUMP JUMPDEST PUSH0 DUP2 MLOAD SWAP1 POP SWAP2 SWAP1 POP JUMP JUMPDEST PUSH0 DUP3 DUP3 MSTORE PUSH1 0x20 DUP3 ADD SWAP1 POP SWAP3 SWAP2 POP POP JUMP JUMPDEST PUSH0 DUP2 SWAP1 POP PUSH1 0x20 DUP3 ADD SWAP1 POP SWAP2 SWAP1 POP JUMP JUMPDEST PUSH0 PUSH2 0x4704 DUP4 DUP4 PUSH2 0x3E98 JUMP JUMPDEST PUSH1 0x20 DUP4 ADD SWAP1 POP SWAP3 SWAP2 POP POP JUMP JUMPDEST PUSH0 PUSH1 0x20 DUP3 ADD SWAP1 POP SWAP2 SWAP1 POP JUMP JUMPDEST PUSH0 PUSH2 0x4726 DUP3 PUSH2 0x46D0 JUMP JUMPDEST PUSH2 0x4730 DUP2 DUP6 PUSH2 0x46DA JUMP JUMPDEST SWAP4 POP PUSH2 0x473B DUP4 PUSH2 0x46EA JUMP JUMPDEST DUP1 PUSH0 JUMPDEST DUP4 DUP2 LT ISZERO PUSH2 0x476B JUMPI DUP2 MLOAD PUSH2 0x4752 DUP9 DUP3 PUSH2 0x46F9 JUMP JUMPDEST SWAP8 POP PUSH2 0x475D DUP4 PUSH2 0x4710 JUMP JUMPDEST SWAP3 POP POP PUSH1 0x1 DUP2 ADD SWAP1 POP PUSH2 0x473E JUMP JUMPDEST POP DUP6 SWAP4 POP POP POP POP SWAP3 SWAP2 POP POP JUMP JUMPDEST PUSH0 PUSH1 0xA0 DUP4 ADD PUSH0 DUP4 ADD MLOAD DUP5 DUP3 SUB PUSH0 DUP7 ADD MSTORE PUSH2 0x4792 DUP3 DUP3 PUSH2 0x3FB0 JUMP JUMPDEST SWAP2 POP POP PUSH1 0x20 DUP4 ADD MLOAD DUP5 DUP3 SUB PUSH1 0x20 DUP7 ADD MSTORE PUSH2 0x47AC DUP3 DUP3 PUSH2 0x3FB0 JUMP JUMPDEST SWAP2 POP POP PUSH1 0x40 DUP4 ADD MLOAD DUP5 DUP3 SUB PUSH1 0x40 DUP7 ADD MSTORE PUSH2 0x47C6 DUP3 DUP3 PUSH2 0x471C JUMP JUMPDEST SWAP2 POP POP PUSH1 0x60 DUP4 ADD MLOAD DUP5 DUP3 SUB PUSH1 0x60 DUP7 ADD MSTORE PUSH2 0x47E0 DUP3 DUP3 PUSH2 0x3EF3 JUMP JUMPDEST SWAP2 POP POP PUSH1 0x80 DUP4 ADD MLOAD DUP5 DUP3 SUB PUSH1 0x80 DUP7 ADD MSTORE PUSH2 0x47FA DUP3 DUP3 PUSH2 0x3EF3 JUMP JUMPDEST SWAP2 POP POP DUP1 SWAP2 POP POP SWAP3 SWAP2 POP POP JUMP JUMPDEST PUSH0 PUSH1 0x20 DUP3 ADD SWAP1 POP DUP2 DUP2 SUB PUSH0 DUP4 ADD MSTORE PUSH2 0x481F DUP2 DUP5 PUSH2 0x4778 JUMP JUMPDEST SWAP1 POP SWAP3 SWAP2 POP POP JUMP JUMPDEST PUSH32 0x4D61726B6574206974656D206973206E6F742076616C69640000000000000000 PUSH0 DUP3 ADD MSTORE POP JUMP JUMPDEST PUSH0 PUSH2 0x485B PUSH1 0x18 DUP4 PUSH2 0x4653 JUMP JUMPDEST SWAP2 POP PUSH2 0x4866 DUP3 PUSH2 0x4827 JUMP JUMPDEST PUSH1 0x20 DUP3 ADD SWAP1 POP SWAP2 SWAP1 POP JUMP JUMPDEST PUSH0 PUSH1 0x20 DUP3 ADD SWAP1 POP DUP2 DUP2 SUB PUSH0 DUP4 ADD MSTORE PUSH2 0x4888 DUP2 PUSH2 0x484F JUMP JUMPDEST SWAP1 POP SWAP2 SWAP1 POP JUMP JUMPDEST PUSH32 0x4974656D206973206E6F7420666F722061756374696F6E000000000000000000 PUSH0 DUP3 ADD MSTORE POP JUMP JUMPDEST PUSH0 PUSH2 0x48C3 PUSH1 0x17 DUP4 PUSH2 0x4653 JUMP JUMPDEST SWAP2 POP PUSH2 0x48CE DUP3 PUSH2 0x488F JUMP JUMPDEST PUSH1 0x20 DUP3 ADD SWAP1 POP SWAP2 SWAP1 POP JUMP JUMPDEST PUSH0 PUSH1 0x20 DUP3 ADD SWAP1 POP DUP2 DUP2 SUB PUSH0 DUP4 ADD MSTORE PUSH2 0x48F0 DUP2 PUSH2 0x48B7 JUMP JUMPDEST SWAP1 POP SWAP2 SWAP1 POP JUMP JUMPDEST PUSH32 0x41756374696F6E206973207374696C6C206F6E676F696E670000000000000000 PUSH0 DUP3 ADD MSTORE POP JUMP JUMPDEST PUSH0 PUSH2 0x492B PUSH1 0x18 DUP4 PUSH2 0x4653 JUMP JUMPDEST SWAP2 POP PUSH2 0x4936 DUP3 PUSH2 0x48F7 JUMP JUMPDEST PUSH1 0x20 DUP3 ADD SWAP1 POP SWAP2 SWAP1 POP JUMP JUMPDEST PUSH0 PUSH1 0x20 DUP3 ADD SWAP1 POP DUP2 DUP2 SUB PUSH0 DUP4 ADD MSTORE PUSH2 0x4958 DUP2 PUSH2 0x491F JUMP JUMPDEST SWAP1 POP SWAP2 SWAP1 POP JUMP JUMPDEST PUSH32 0x4E487B7100000000000000000000000000000000000000000000000000000000 PUSH0 MSTORE PUSH1 0x11 PUSH1 0x4 MSTORE PUSH1 0x24 PUSH0 REVERT JUMPDEST PUSH0 PUSH2 0x4996 DUP3 PUSH2 0x3CAD JUMP JUMPDEST SWAP2 POP PUSH2 0x49A1 DUP4 PUSH2 0x3CAD JUMP JUMPDEST SWAP3 POP DUP3 DUP3 MUL PUSH2 0x49AF DUP2 PUSH2 0x3CAD JUMP JUMPDEST SWAP2 POP DUP3 DUP3 DIV DUP5 EQ DUP4 ISZERO OR PUSH2 0x49C6 JUMPI PUSH2 0x49C5 PUSH2 0x495F JUMP JUMPDEST JUMPDEST POP SWAP3 SWAP2 POP POP JUMP JUMPDEST PUSH0 PUSH2 0x49D7 DUP3 PUSH2 0x3CAD JUMP JUMPDEST SWAP2 POP PUSH2 0x49E2 DUP4 PUSH2 0x3CAD JUMP JUMPDEST SWAP3 POP DUP3 DUP3 ADD SWAP1 POP DUP1 DUP3 GT ISZERO PUSH2 0x49FA JUMPI PUSH2 0x49F9 PUSH2 0x495F JUMP JUMPDEST JUMPDEST SWAP3 SWAP2 POP POP JUMP JUMPDEST PUSH0 PUSH2 0x4A0A DUP3 PUSH2 0x3CAD JUMP JUMPDEST SWAP2 POP PUSH2 0x4A15 DUP4 PUSH2 0x3CAD JUMP JUMPDEST SWAP3 POP DUP3 DUP3 SUB SWAP1 POP DUP2 DUP2 GT ISZERO PUSH2 0x4A2D JUMPI PUSH2 0x4A2C PUSH2 0x495F JUMP JUMPDEST JUMPDEST SWAP3 SWAP2 POP POP JUMP JUMPDEST PUSH32 0x4E487B7100000000000000000000000000000000000000000000000000000000 PUSH0 MSTORE PUSH1 0x12 PUSH1 0x4 MSTORE PUSH1 0x24 PUSH0 REVERT JUMPDEST PUSH0 PUSH2 0x4A6A DUP3 PUSH2 0x3CAD JUMP JUMPDEST SWAP2 POP PUSH2 0x4A75 DUP4 PUSH2 0x3CAD JUMP JUMPDEST SWAP3 POP DUP3 PUSH2 0x4A85 JUMPI PUSH2 0x4A84 PUSH2 0x4A33 JUMP JUMPDEST JUMPDEST DUP3 DUP3 DIV SWAP1 POP SWAP3 SWAP2 POP POP JUMP JUMPDEST PUSH0 PUSH1 0x40 DUP3 ADD SWAP1 POP PUSH2 0x4AA3 PUSH0 DUP4 ADD DUP6 PUSH2 0x4248 JUMP JUMPDEST PUSH2 0x4AB0 PUSH1 0x20 DUP4 ADD DUP5 PUSH2 0x3E29 JUMP JUMPDEST SWAP4 SWAP3 POP POP POP JUMP JUMPDEST PUSH32 0x4F6E6C79206974656D206F776E65722063616E20706572666F726D2074686973 PUSH0 DUP3 ADD MSTORE PUSH32 0x20616374696F6E00000000000000000000000000000000000000000000000000 PUSH1 0x20 DUP3 ADD MSTORE POP JUMP JUMPDEST PUSH0 PUSH2 0x4B11 PUSH1 0x27 DUP4 PUSH2 0x4653 JUMP JUMPDEST SWAP2 POP PUSH2 0x4B1C DUP3 PUSH2 0x4AB7 JUMP JUMPDEST PUSH1 0x40 DUP3 ADD SWAP1 POP SWAP2 SWAP1 POP JUMP JUMPDEST PUSH0 PUSH1 0x20 DUP3 ADD SWAP1 POP DUP2 DUP2 SUB PUSH0 DUP4 ADD MSTORE PUSH2 0x4B3E DUP2 PUSH2 0x4B05 JUMP JUMPDEST SWAP1 POP SWAP2 SWAP1 POP JUMP JUMPDEST PUSH32 0x41756374696F6E206F722053616C6520697320616C72656164792070656E6469 PUSH0 DUP3 ADD MSTORE PUSH32 0x6E67000000000000000000000000000000000000000000000000000000000000 PUSH1 0x20 DUP3 ADD MSTORE POP JUMP JUMPDEST PUSH0 PUSH2 0x4B9F PUSH1 0x22 DUP4 PUSH2 0x4653 JUMP JUMPDEST SWAP2 POP PUSH2 0x4BAA DUP3 PUSH2 0x4B45 JUMP JUMPDEST PUSH1 0x40 DUP3 ADD SWAP1 POP SWAP2 SWAP1 POP JUMP JUMPDEST PUSH0 PUSH1 0x20 DUP3 ADD SWAP1 POP DUP2 DUP2 SUB PUSH0 DUP4 ADD MSTORE PUSH2 0x4BCC DUP2 PUSH2 0x4B93 JUMP JUMPDEST SWAP1 POP SWAP2 SWAP1 POP JUMP JUMPDEST PUSH32 0x5072696365206D7573742062652067726561746572207468616E207A65726F00 PUSH0 DUP3 ADD MSTORE POP JUMP JUMPDEST PUSH0 PUSH2 0x4C07 PUSH1 0x1F DUP4 PUSH2 0x4653 JUMP JUMPDEST SWAP2 POP PUSH2 0x4C12 DUP3 PUSH2 0x4BD3 JUMP JUMPDEST PUSH1 0x20 DUP3 ADD SWAP1 POP SWAP2 SWAP1 POP JUMP JUMPDEST PUSH0 PUSH1 0x20 DUP3 ADD SWAP1 POP DUP2 DUP2 SUB PUSH0 DUP4 ADD MSTORE PUSH2 0x4C34 DUP2 PUSH2 0x4BFB JUMP JUMPDEST SWAP1 POP SWAP2 SWAP1 POP JUMP JUMPDEST PUSH2 0x4C44 DUP2 PUSH2 0x3D0B JUMP JUMPDEST DUP3 MSTORE POP POP JUMP JUMPDEST PUSH0 PUSH1 0x60 DUP3 ADD SWAP1 POP PUSH2 0x4C5D PUSH0 DUP4 ADD DUP7 PUSH2 0x4C3B JUMP JUMPDEST PUSH2 0x4C6A PUSH1 0x20 DUP4 ADD DUP6 PUSH2 0x3E29 JUMP JUMPDEST PUSH2 0x4C77 PUSH1 0x40 DUP4 ADD DUP5 PUSH2 0x3E29 JUMP JUMPDEST SWAP5 SWAP4 POP POP POP POP JUMP JUMPDEST PUSH32 0x4E6F2062616C616E636520746F20776974686472617700000000000000000000 PUSH0 DUP3 ADD MSTORE POP JUMP JUMPDEST PUSH0 PUSH2 0x4CB3 PUSH1 0x16 DUP4 PUSH2 0x4653 JUMP JUMPDEST SWAP2 POP PUSH2 0x4CBE DUP3 PUSH2 0x4C7F JUMP JUMPDEST PUSH1 0x20 DUP3 ADD SWAP1 POP SWAP2 SWAP1 POP JUMP JUMPDEST PUSH0 PUSH1 0x20 DUP3 ADD SWAP1 POP DUP2 DUP2 SUB PUSH0 DUP4 ADD MSTORE PUSH2 0x4CE0 DUP2 PUSH2 0x4CA7 JUMP JUMPDEST SWAP1 POP SWAP2 SWAP1 POP JUMP JUMPDEST PUSH32 0x4974656D206973206E6F74206F6E2061756374696F6E00000000000000000000 PUSH0 DUP3 ADD MSTORE POP JUMP JUMPDEST PUSH0 PUSH2 0x4D1B PUSH1 0x16 DUP4 PUSH2 0x4653 JUMP JUMPDEST SWAP2 POP PUSH2 0x4D26 DUP3 PUSH2 0x4CE7 JUMP JUMPDEST PUSH1 0x20 DUP3 ADD SWAP1 POP SWAP2 SWAP1 POP JUMP JUMPDEST PUSH0 PUSH1 0x20 DUP3 ADD SWAP1 POP DUP2 DUP2 SUB PUSH0 DUP4 ADD MSTORE PUSH2 0x4D48 DUP2 PUSH2 0x4D0F JUMP JUMPDEST SWAP1 POP SWAP2 SWAP1 POP JUMP JUMPDEST PUSH32 0x41756374696F6E2068617320656E646564000000000000000000000000000000 PUSH0 DUP3 ADD MSTORE POP JUMP JUMPDEST PUSH0 PUSH2 0x4D83 PUSH1 0x11 DUP4 PUSH2 0x4653 JUMP JUMPDEST SWAP2 POP PUSH2 0x4D8E DUP3 PUSH2 0x4D4F JUMP JUMPDEST PUSH1 0x20 DUP3 ADD SWAP1 POP SWAP2 SWAP1 POP JUMP JUMPDEST PUSH0 PUSH1 0x20 DUP3 ADD SWAP1 POP DUP2 DUP2 SUB PUSH0 DUP4 ADD MSTORE PUSH2 0x4DB0 DUP2 PUSH2 0x4D77 JUMP JUMPDEST SWAP1 POP SWAP2 SWAP1 POP JUMP JUMPDEST PUSH32 0x41756374696F6E206E6F74207374617274656400000000000000000000000000 PUSH0 DUP3 ADD MSTORE POP JUMP JUMPDEST PUSH0 PUSH2 0x4DEB PUSH1 0x13 DUP4 PUSH2 0x4653 JUMP JUMPDEST SWAP2 POP PUSH2 0x4DF6 DUP3 PUSH2 0x4DB7 JUMP JUMPDEST PUSH1 0x20 DUP3 ADD SWAP1 POP SWAP2 SWAP1 POP JUMP JUMPDEST PUSH0 PUSH1 0x20 DUP3 ADD SWAP1 POP DUP2 DUP2 SUB PUSH0 DUP4 ADD MSTORE PUSH2 0x4E18 DUP2 PUSH2 0x4DDF JUMP JUMPDEST SWAP1 POP SWAP2 SWAP1 POP JUMP JUMPDEST PUSH32 0x42696420616D6F756E74206D75737420626520686967686572207468616E2074 PUSH0 DUP3 ADD MSTORE PUSH32 0x68652063757272656E7420707269636500000000000000000000000000000000 PUSH1 0x20 DUP3 ADD MSTORE POP JUMP JUMPDEST PUSH0 PUSH2 0x4E79 PUSH1 0x30 DUP4 PUSH2 0x4653 JUMP JUMPDEST SWAP2 POP PUSH2 0x4E84 DUP3 PUSH2 0x4E1F JUMP JUMPDEST PUSH1 0x40 DUP3 ADD SWAP1 POP SWAP2 SWAP1 POP JUMP JUMPDEST PUSH0 PUSH1 0x20 DUP3 ADD SWAP1 POP DUP2 DUP2 SUB PUSH0 DUP4 ADD MSTORE PUSH2 0x4EA6 DUP2 PUSH2 0x4E6D JUMP JUMPDEST SWAP1 POP SWAP2 SWAP1 POP JUMP JUMPDEST PUSH32 0x53656C6C65722063616E6E6F7420706C61636520612062696400000000000000 PUSH0 DUP3 ADD MSTORE POP JUMP JUMPDEST PUSH0 PUSH2 0x4EE1 PUSH1 0x19 DUP4 PUSH2 0x4653 JUMP JUMPDEST SWAP2 POP PUSH2 0x4EEC DUP3 PUSH2 0x4EAD JUMP JUMPDEST PUSH1 0x20 DUP3 ADD SWAP1 POP SWAP2 SWAP1 POP JUMP JUMPDEST PUSH0 PUSH1 0x20 DUP3 ADD SWAP1 POP DUP2 DUP2 SUB PUSH0 DUP4 ADD MSTORE PUSH2 0x4F0E DUP2 PUSH2 0x4ED5 JUMP JUMPDEST SWAP1 POP SWAP2 SWAP1 POP JUMP JUMPDEST PUSH32 0x4E487B7100000000000000000000000000000000000000000000000000000000 PUSH0 MSTORE PUSH1 0x32 PUSH1 0x4 MSTORE PUSH1 0x24 PUSH0 REVERT JUMPDEST PUSH32 0x4E487B7100000000000000000000000000000000000000000000000000000000 PUSH0 MSTORE PUSH1 0x22 PUSH1 0x4 MSTORE PUSH1 0x24 PUSH0 REVERT JUMPDEST PUSH0 PUSH1 0x2 DUP3 DIV SWAP1 POP PUSH1 0x1 DUP3 AND DUP1 PUSH2 0x4F86 JUMPI PUSH1 0x7F DUP3 AND SWAP2 POP JUMPDEST PUSH1 0x20 DUP3 LT DUP2 SUB PUSH2 0x4F99 JUMPI PUSH2 0x4F98 PUSH2 0x4F42 JUMP JUMPDEST JUMPDEST POP SWAP2 SWAP1 POP JUMP JUMPDEST PUSH32 0x63616E206E6F742072656D6F7665206974656D73000000000000000000000000 PUSH0 DUP3 ADD MSTORE POP JUMP JUMPDEST PUSH0 PUSH2 0x4FD3 PUSH1 0x14 DUP4 PUSH2 0x4653 JUMP JUMPDEST SWAP2 POP PUSH2 0x4FDE DUP3 PUSH2 0x4F9F JUMP JUMPDEST PUSH1 0x20 DUP3 ADD SWAP1 POP SWAP2 SWAP1 POP JUMP JUMPDEST PUSH0 PUSH1 0x20 DUP3 ADD SWAP1 POP DUP2 DUP2 SUB PUSH0 DUP4 ADD MSTORE PUSH2 0x5000 DUP2 PUSH2 0x4FC7 JUMP JUMPDEST SWAP1 POP SWAP2 SWAP1 POP JUMP JUMPDEST PUSH32 0x4974656D20697320666F722061756374696F6E00000000000000000000000000 PUSH0 DUP3 ADD MSTORE POP JUMP JUMPDEST PUSH0 PUSH2 0x503B PUSH1 0x13 DUP4 PUSH2 0x4653 JUMP JUMPDEST SWAP2 POP PUSH2 0x5046 DUP3 PUSH2 0x5007 JUMP JUMPDEST PUSH1 0x20 DUP3 ADD SWAP1 POP SWAP2 SWAP1 POP JUMP JUMPDEST PUSH0 PUSH1 0x20 DUP3 ADD SWAP1 POP DUP2 DUP2 SUB PUSH0 DUP4 ADD MSTORE PUSH2 0x5068 DUP2 PUSH2 0x502F JUMP JUMPDEST SWAP1 POP SWAP2 SWAP1 POP JUMP JUMPDEST PUSH32 0x5061796D656E742076616C756520697320736D616C6C6572207468616E206F6E PUSH0 DUP3 ADD MSTORE PUSH32 0x73616C6520707269636500000000000000000000000000000000000000000000 PUSH1 0x20 DUP3 ADD MSTORE POP JUMP JUMPDEST PUSH0 PUSH2 0x50C9 PUSH1 0x2A DUP4 PUSH2 0x4653 JUMP JUMPDEST SWAP2 POP PUSH2 0x50D4 DUP3 PUSH2 0x506F JUMP JUMPDEST PUSH1 0x40 DUP3 ADD SWAP1 POP SWAP2 SWAP1 POP JUMP JUMPDEST PUSH0 PUSH1 0x20 DUP3 ADD SWAP1 POP DUP2 DUP2 SUB PUSH0 DUP4 ADD MSTORE PUSH2 0x50F6 DUP2 PUSH2 0x50BD JUMP JUMPDEST SWAP1 POP SWAP2 SWAP1 POP JUMP JUMPDEST PUSH32 0x4974656D2073616C652068617320656E64656400000000000000000000000000 PUSH0 DUP3 ADD MSTORE POP JUMP JUMPDEST PUSH0 PUSH2 0x5131 PUSH1 0x13 DUP4 PUSH2 0x4653 JUMP JUMPDEST SWAP2 POP PUSH2 0x513C DUP3 PUSH2 0x50FD JUMP JUMPDEST PUSH1 0x20 DUP3 ADD SWAP1 POP SWAP2 SWAP1 POP JUMP JUMPDEST PUSH0 PUSH1 0x20 DUP3 ADD SWAP1 POP DUP2 DUP2 SUB PUSH0 DUP4 ADD MSTORE PUSH2 0x515E DUP2 PUSH2 0x5125 JUMP JUMPDEST SWAP1 POP SWAP2 SWAP1 POP JUMP JUMPDEST PUSH32 0x6D61726B65744974656D20697320616C7265616479206F6E2073616C652F6175 PUSH0 DUP3 ADD MSTORE PUSH32 0x6374696F6E000000000000000000000000000000000000000000000000000000 PUSH1 0x20 DUP3 ADD MSTORE POP JUMP JUMPDEST PUSH0 PUSH2 0x51BF PUSH1 0x25 DUP4 PUSH2 0x4653 JUMP JUMPDEST SWAP2 POP PUSH2 0x51CA DUP3 PUSH2 0x5165 JUMP JUMPDEST PUSH1 0x40 DUP3 ADD SWAP1 POP SWAP2 SWAP1 POP JUMP JUMPDEST PUSH0 PUSH1 0x20 DUP3 ADD SWAP1 POP DUP2 DUP2 SUB PUSH0 DUP4 ADD MSTORE PUSH2 0x51EC DUP2 PUSH2 0x51B3 JUMP JUMPDEST SWAP1 POP SWAP2 SWAP1 POP JUMP JUMPDEST PUSH32 0x43616C6C6572206973206E6F7420746865206F776E6572206F6620746865204E PUSH0 DUP3 ADD MSTORE PUSH32 0x4654730000000000000000000000000000000000000000000000000000000000 PUSH1 0x20 DUP3 ADD MSTORE POP JUMP JUMPDEST PUSH0 PUSH2 0x524D PUSH1 0x23 DUP4 PUSH2 0x4653 JUMP JUMPDEST SWAP2 POP PUSH2 0x5258 DUP3 PUSH2 0x51F3 JUMP JUMPDEST PUSH1 0x40 DUP3 ADD SWAP1 POP SWAP2 SWAP1 POP JUMP JUMPDEST PUSH0 PUSH1 0x20 DUP3 ADD SWAP1 POP DUP2 DUP2 SUB PUSH0 DUP4 ADD MSTORE PUSH2 0x527A DUP2 PUSH2 0x5241 JUMP JUMPDEST SWAP1 POP SWAP2 SWAP1 POP JUMP JUMPDEST PUSH32 0x656E6454696D65206D7573742062652067726561746572207468616E206E6F77 PUSH0 DUP3 ADD MSTORE POP JUMP JUMPDEST PUSH0 PUSH2 0x52B5 PUSH1 0x20 DUP4 PUSH2 0x4653 JUMP JUMPDEST SWAP2 POP PUSH2 0x52C0 DUP3 PUSH2 0x5281 JUMP JUMPDEST PUSH1 0x20 DUP3 ADD SWAP1 POP SWAP2 SWAP1 POP JUMP JUMPDEST PUSH0 PUSH1 0x20 DUP3 ADD SWAP1 POP DUP2 DUP2 SUB PUSH0 DUP4 ADD MSTORE PUSH2 0x52E2 DUP2 PUSH2 0x52A9 JUMP JUMPDEST SWAP1 POP SWAP2 SWAP1 POP JUMP JUMPDEST PUSH0 PUSH2 0x52FB PUSH2 0x52F6 DUP5 PUSH2 0x4447 JUMP JUMPDEST PUSH2 0x42D2 JUMP JUMPDEST SWAP1 POP DUP3 DUP2 MSTORE PUSH1 0x20 DUP2 ADD DUP5 DUP5 DUP5 ADD GT ISZERO PUSH2 0x5317 JUMPI PUSH2 0x5316 PUSH2 0x4443 JUMP JUMPDEST JUMPDEST PUSH2 0x5322 DUP5 DUP3 DUP6 PUSH2 0x3F92 JUMP JUMPDEST POP SWAP4 SWAP3 POP POP POP JUMP JUMPDEST PUSH0 DUP3 PUSH1 0x1F DUP4 ADD SLT PUSH2 0x533E JUMPI PUSH2 0x533D PUSH2 0x4270 JUMP JUMPDEST JUMPDEST DUP2 MLOAD PUSH2 0x534E DUP5 DUP3 PUSH1 0x20 DUP7 ADD PUSH2 0x52E9 JUMP JUMPDEST SWAP2 POP POP SWAP3 SWAP2 POP POP JUMP JUMPDEST PUSH0 PUSH1 0x20 DUP3 DUP5 SUB SLT ISZERO PUSH2 0x536C JUMPI PUSH2 0x536B PUSH2 0x3CA5 JUMP JUMPDEST JUMPDEST PUSH0 DUP3 ADD MLOAD PUSH8 0xFFFFFFFFFFFFFFFF DUP2 GT ISZERO PUSH2 0x5389 JUMPI PUSH2 0x5388 PUSH2 0x3CA9 JUMP JUMPDEST JUMPDEST PUSH2 0x5395 DUP5 DUP3 DUP6 ADD PUSH2 0x532A JUMP JUMPDEST SWAP2 POP POP SWAP3 SWAP2 POP POP JUMP JUMPDEST PUSH0 PUSH2 0x53A8 DUP3 PUSH2 0x3CAD JUMP JUMPDEST SWAP2 POP PUSH32 0xFFFFFFFFFFFFFFFFFFFFFFFFFFFFFFFFFFFFFFFFFFFFFFFFFFFFFFFFFFFFFFFF DUP3 SUB PUSH2 0x53DA JUMPI PUSH2 0x53D9 PUSH2 0x495F JUMP JUMPDEST JUMPDEST PUSH1 0x1 DUP3 ADD SWAP1 POP SWAP2 SWAP1 POP JUMP JUMPDEST PUSH32 0x416C7265616479205369676E6564205570000000000000000000000000000000 PUSH0 DUP3 ADD MSTORE POP JUMP JUMPDEST PUSH0 PUSH2 0x5419 PUSH1 0x11 DUP4 PUSH2 0x4653 JUMP JUMPDEST SWAP2 POP PUSH2 0x5424 DUP3 PUSH2 0x53E5 JUMP JUMPDEST PUSH1 0x20 DUP3 ADD SWAP1 POP SWAP2 SWAP1 POP JUMP JUMPDEST PUSH0 PUSH1 0x20 DUP3 ADD SWAP1 POP DUP2 DUP2 SUB PUSH0 DUP4 ADD MSTORE PUSH2 0x5446 DUP2 PUSH2 0x540D JUMP JUMPDEST SWAP1 POP SWAP2 SWAP1 POP JUMP JUMPDEST PUSH0 DUP2 SWAP1 POP DUP2 PUSH0 MSTORE PUSH1 0x20 PUSH0 KECCAK256 SWAP1 POP SWAP2 SWAP1 POP JUMP JUMPDEST PUSH0 PUSH1 0x20 PUSH1 0x1F DUP4 ADD DIV SWAP1 POP SWAP2 SWAP1 POP JUMP JUMPDEST PUSH0 DUP3 DUP3 SHL SWAP1 POP SWAP3 SWAP2 POP POP JUMP JUMPDEST PUSH0 PUSH1 0x8 DUP4 MUL PUSH2 0x54A9 PUSH32 0xFFFFFFFFFFFFFFFFFFFFFFFFFFFFFFFFFFFFFFFFFFFFFFFFFFFFFFFFFFFFFFFF DUP3 PUSH2 0x546E JUMP JUMPDEST PUSH2 0x54B3 DUP7 DUP4 PUSH2 0x546E JUMP JUMPDEST SWAP6 POP DUP1 NOT DUP5 AND SWAP4 POP DUP1 DUP7 AND DUP5 OR SWAP3 POP POP POP SWAP4 SWAP3 POP POP POP JUMP JUMPDEST PUSH0 DUP2 SWAP1 POP SWAP2 SWAP1 POP JUMP JUMPDEST PUSH0 PUSH2 0x54EE PUSH2 0x54E9 PUSH2 0x54E4 DUP5 PUSH2 0x3CAD JUMP JUMPDEST PUSH2 0x54CB JUMP JUMPDEST PUSH2 0x3CAD JUMP JUMPDEST SWAP1 POP SWAP2 SWAP1 POP JUMP JUMPDEST PUSH0 DUP2 SWAP1 POP SWAP2 SWAP1 POP JUMP JUMPDEST PUSH2 0x5507 DUP4 PUSH2 0x54D4 JUMP JUMPDEST PUSH2 0x551B PUSH2 0x5513 DUP3 PUSH2 0x54F5 JUMP JUMPDEST DUP5 DUP5 SLOAD PUSH2 0x547A JUMP JUMPDEST DUP3 SSTORE POP POP POP POP JUMP JUMPDEST PUSH0 SWAP1 JUMP JUMPDEST PUSH2 0x552F PUSH2 0x5523 JUMP JUMPDEST PUSH2 0x553A DUP2 DUP5 DUP5 PUSH2 0x54FE JUMP JUMPDEST POP POP POP JUMP JUMPDEST JUMPDEST DUP2 DUP2 LT ISZERO PUSH2 0x555D JUMPI PUSH2 0x5552 PUSH0 DUP3 PUSH2 0x5527 JUMP JUMPDEST PUSH1 0x1 DUP2 ADD SWAP1 POP PUSH2 0x5540 JUMP JUMPDEST POP POP JUMP JUMPDEST PUSH1 0x1F DUP3 GT ISZERO PUSH2 0x55A2 JUMPI PUSH2 0x5573 DUP2 PUSH2 0x544D JUMP JUMPDEST PUSH2 0x557C DUP5 PUSH2 0x545F JUMP JUMPDEST DUP2 ADD PUSH1 0x20 DUP6 LT ISZERO PUSH2 0x558B JUMPI DUP2 SWAP1 POP JUMPDEST PUSH2 0x559F PUSH2 0x5597 DUP6 PUSH2 0x545F JUMP JUMPDEST DUP4 ADD DUP3 PUSH2 0x553F JUMP JUMPDEST POP POP JUMPDEST POP POP POP JUMP JUMPDEST PUSH0 DUP3 DUP3 SHR SWAP1 POP SWAP3 SWAP2 POP POP JUMP JUMPDEST PUSH0 PUSH2 0x55C2 PUSH0 NOT DUP5 PUSH1 0x8 MUL PUSH2 0x55A7 JUMP JUMPDEST NOT DUP1 DUP4 AND SWAP2 POP POP SWAP3 SWAP2 POP POP JUMP JUMPDEST PUSH0 PUSH2 0x55DA DUP4 DUP4 PUSH2 0x55B3 JUMP JUMPDEST SWAP2 POP DUP3 PUSH1 0x2 MUL DUP3 OR SWAP1 POP SWAP3 SWAP2 POP POP JUMP JUMPDEST PUSH2 0x55F3 DUP3 PUSH2 0x3F78 JUMP JUMPDEST PUSH8 0xFFFFFFFFFFFFFFFF DUP2 GT ISZERO PUSH2 0x560C JUMPI PUSH2 0x560B PUSH2 0x4274 JUMP JUMPDEST JUMPDEST PUSH2 0x5616 DUP3 SLOAD PUSH2 0x4F6F JUMP JUMPDEST PUSH2 0x5621 DUP3 DUP3 DUP6 PUSH2 0x5561 JUMP JUMPDEST PUSH0 PUSH1 0x20 SWAP1 POP PUSH1 0x1F DUP4 GT PUSH1 0x1 DUP2 EQ PUSH2 0x5652 JUMPI PUSH0 DUP5 ISZERO PUSH2 0x5640 JUMPI DUP3 DUP8 ADD MLOAD SWAP1 POP JUMPDEST PUSH2 0x564A DUP6 DUP3 PUSH2 0x55CF JUMP JUMPDEST DUP7 SSTORE POP PUSH2 0x56B1 JUMP JUMPDEST PUSH1 0x1F NOT DUP5 AND PUSH2 0x5660 DUP7 PUSH2 0x544D JUMP JUMPDEST PUSH0 JUMPDEST DUP3 DUP2 LT ISZERO PUSH2 0x5687 JUMPI DUP5 DUP10 ADD MLOAD DUP3 SSTORE PUSH1 0x1 DUP3 ADD SWAP2 POP PUSH1 0x20 DUP6 ADD SWAP5 POP PUSH1 0x20 DUP2 ADD SWAP1 POP PUSH2 0x5662 JUMP JUMPDEST DUP7 DUP4 LT ISZERO PUSH2 0x56A4 JUMPI DUP5 DUP10 ADD MLOAD PUSH2 0x56A0 PUSH1 0x1F DUP10 AND DUP3 PUSH2 0x55B3 JUMP JUMPDEST DUP4 SSTORE POP JUMPDEST PUSH1 0x1 PUSH1 0x2 DUP9 MUL ADD DUP9 SSTORE POP POP POP JUMPDEST POP POP POP POP POP POP JUMP JUMPDEST PUSH0 DUP2 SWAP1 POP SWAP2 SWAP1 POP JUMP JUMPDEST PUSH0 PUSH8 0xFFFFFFFFFFFFFFFF DUP3 AND SWAP1 POP SWAP2 SWAP1 POP JUMP JUMPDEST PUSH0 PUSH2 0x56EF PUSH2 0x56EA PUSH2 0x56E5 DUP5 PUSH2 0x56B9 JUMP JUMPDEST PUSH2 0x54CB JUMP JUMPDEST PUSH2 0x56C2 JUMP JUMPDEST SWAP1 POP SWAP2 SWAP1 POP JUMP JUMPDEST PUSH2 0x56FF DUP2 PUSH2 0x56D5 JUMP JUMPDEST DUP3 MSTORE POP POP JUMP JUMPDEST PUSH0 PUSH1 0x20 DUP3 ADD SWAP1 POP PUSH2 0x5718 PUSH0 DUP4 ADD DUP5 PUSH2 0x56F6 JUMP JUMPDEST SWAP3 SWAP2 POP POP JUMP JUMPDEST PUSH32 0x616C726561647920726567697374657265642077616C6C657400000000000000 PUSH0 DUP3 ADD MSTORE POP JUMP JUMPDEST PUSH0 PUSH2 0x5752 PUSH1 0x19 DUP4 PUSH2 0x4653 JUMP JUMPDEST SWAP2 POP PUSH2 0x575D DUP3 PUSH2 0x571E JUMP JUMPDEST PUSH1 0x20 DUP3 ADD SWAP1 POP SWAP2 SWAP1 POP JUMP JUMPDEST PUSH0 PUSH1 0x20 DUP3 ADD SWAP1 POP DUP2 DUP2 SUB PUSH0 DUP4 ADD MSTORE PUSH2 0x577F DUP2 PUSH2 0x5746 JUMP JUMPDEST SWAP1 POP SWAP2 SWAP1 POP JUMP JUMPDEST PUSH0 PUSH1 0x60 DUP3 ADD SWAP1 POP DUP2 DUP2 SUB PUSH0 DUP4 ADD MSTORE PUSH2 0x579E DUP2 DUP7 PUSH2 0x4663 JUMP JUMPDEST SWAP1 POP DUP2 DUP2 SUB PUSH1 0x20 DUP4 ADD MSTORE PUSH2 0x57B2 DUP2 DUP6 PUSH2 0x4663 JUMP JUMPDEST SWAP1 POP PUSH2 0x57C1 PUSH1 0x40 DUP4 ADD DUP5 PUSH2 0x4248 JUMP JUMPDEST SWAP5 SWAP4 POP POP POP POP JUMP JUMPDEST PUSH32 0x496E76616C696420636F6E747261637420616464726573730000000000000000 PUSH0 DUP3 ADD MSTORE POP JUMP JUMPDEST PUSH0 PUSH2 0x57FD PUSH1 0x18 DUP4 PUSH2 0x4653 JUMP JUMPDEST SWAP2 POP PUSH2 0x5808 DUP3 PUSH2 0x57C9 JUMP JUMPDEST PUSH1 0x20 DUP3 ADD SWAP1 POP SWAP2 SWAP1 POP JUMP JUMPDEST PUSH0 PUSH1 0x20 DUP3 ADD SWAP1 POP DUP2 DUP2 SUB PUSH0 DUP4 ADD MSTORE PUSH2 0x582A DUP2 PUSH2 0x57F1 JUMP JUMPDEST SWAP1 POP SWAP2 SWAP1 POP JUMP JUMPDEST PUSH0 PUSH1 0x20 DUP3 ADD SWAP1 POP DUP2 DUP2 SUB PUSH0 DUP4 ADD MSTORE PUSH2 0x5849 DUP2 DUP5 PUSH2 0x4663 JUMP JUMPDEST SWAP1 POP SWAP3 SWAP2 POP POP JUMP JUMPDEST PUSH0 DUP2 SWAP1 POP SWAP3 SWAP2 POP POP JUMP JUMPDEST PUSH0 PUSH2 0x5865 DUP3 PUSH2 0x3F78 JUMP JUMPDEST PUSH2 0x586F DUP2 DUP6 PUSH2 0x5851 JUMP JUMPDEST SWAP4 POP PUSH2 0x587F DUP2 DUP6 PUSH1 0x20 DUP7 ADD PUSH2 0x3F92 JUMP JUMPDEST DUP1 DUP5 ADD SWAP2 POP POP SWAP3 SWAP2 POP POP JUMP JUMPDEST PUSH0 PUSH2 0x5896 DUP3 DUP5 PUSH2 0x585B JUMP JUMPDEST SWAP2 POP DUP2 SWAP1 POP SWAP3 SWAP2 POP POP JUMP JUMPDEST PUSH0 DUP2 MLOAD SWAP1 POP SWAP2 SWAP1 POP JUMP JUMPDEST PUSH0 DUP2 SWAP1 POP SWAP3 SWAP2 POP POP JUMP JUMPDEST PUSH0 PUSH2 0x58BF DUP3 PUSH2 0x58A1 JUMP JUMPDEST PUSH2 0x58C9 DUP2 DUP6 PUSH2 0x58AB JUMP JUMPDEST SWAP4 POP PUSH2 0x58D9 DUP2 DUP6 PUSH1 0x20 DUP7 ADD PUSH2 0x3F92 JUMP JUMPDEST DUP1 DUP5 ADD SWAP2 POP POP SWAP3 SWAP2 POP POP JUMP JUMPDEST PUSH0 PUSH2 0x58F0 DUP3 DUP5 PUSH2 0x58B5 JUMP JUMPDEST SWAP2 POP DUP2 SWAP1 POP SWAP3 SWAP2 POP POP JUMP JUMPDEST PUSH32 0x4661696C656420746F2063616C6C20736D61727420636F6E7472616374000000 PUSH0 DUP3 ADD MSTORE POP JUMP JUMPDEST PUSH0 PUSH2 0x592F PUSH1 0x1D DUP4 PUSH2 0x4653 JUMP JUMPDEST SWAP2 POP PUSH2 0x593A DUP3 PUSH2 0x58FB JUMP JUMPDEST PUSH1 0x20 DUP3 ADD SWAP1 POP SWAP2 SWAP1 POP JUMP JUMPDEST PUSH0 PUSH1 0x20 DUP3 ADD SWAP1 POP DUP2 DUP2 SUB PUSH0 DUP4 ADD MSTORE PUSH2 0x595C DUP2 PUSH2 0x5923 JUMP JUMPDEST SWAP1 POP SWAP2 SWAP1 POP JUMP JUMPDEST PUSH32 0x5265656E7472616E637947756172643A207265656E7472616E742063616C6C00 PUSH0 DUP3 ADD MSTORE POP JUMP JUMPDEST PUSH0 PUSH2 0x5997 PUSH1 0x1F DUP4 PUSH2 0x4653 JUMP JUMPDEST SWAP2 POP PUSH2 0x59A2 DUP3 PUSH2 0x5963 JUMP JUMPDEST PUSH1 0x20 DUP3 ADD SWAP1 POP SWAP2 SWAP1 POP JUMP JUMPDEST PUSH0 PUSH1 0x20 DUP3 ADD SWAP1 POP DUP2 DUP2 SUB PUSH0 DUP4 ADD MSTORE PUSH2 0x59C4 DUP2 PUSH2 0x598B JUMP JUMPDEST SWAP1 POP SWAP2 SWAP1 POP JUMP JUMPDEST PUSH32 0x4E487B7100000000000000000000000000000000000000000000000000000000 PUSH0 MSTORE PUSH1 0x31 PUSH1 0x4 MSTORE PUSH1 0x24 PUSH0 REVERT JUMPDEST PUSH0 PUSH32 0xFFFFFFFF00000000000000000000000000000000000000000000000000000000 DUP3 AND SWAP1 POP SWAP2 SWAP1 POP JUMP JUMPDEST PUSH2 0x5A2C DUP2 PUSH2 0x59F8 JUMP JUMPDEST DUP3 MSTORE POP POP JUMP JUMPDEST PUSH0 PUSH1 0x20 DUP3 ADD SWAP1 POP PUSH2 0x5A45 PUSH0 DUP4 ADD DUP5 PUSH2 0x5A23 JUMP JUMPDEST SWAP3 SWAP2 POP POP JUMP JUMPDEST PUSH0 DUP2 MLOAD SWAP1 POP PUSH2 0x5A59 DUP2 PUSH2 0x3D16 JUMP JUMPDEST SWAP3 SWAP2 POP POP JUMP JUMPDEST PUSH0 PUSH1 0x20 DUP3 DUP5 SUB SLT ISZERO PUSH2 0x5A74 JUMPI PUSH2 0x5A73 PUSH2 0x3CA5 JUMP JUMPDEST JUMPDEST PUSH0 PUSH2 0x5A81 DUP5 DUP3 DUP6 ADD PUSH2 0x5A4B JUMP JUMPDEST SWAP2 POP POP SWAP3 SWAP2 POP POP JUMP JUMPDEST PUSH0 PUSH1 0x60 DUP3 ADD SWAP1 POP PUSH2 0x5A9D PUSH0 DUP4 ADD DUP7 PUSH2 0x4248 JUMP JUMPDEST PUSH2 0x5AAA PUSH1 0x20 DUP4 ADD DUP6 PUSH2 0x4248 JUMP JUMPDEST PUSH2 0x5AB7 PUSH1 0x40 DUP4 ADD DUP5 PUSH2 0x3E29 JUMP JUMPDEST SWAP5 SWAP4 POP POP POP POP JUMP JUMPDEST PUSH0 PUSH2 0x5AD9 PUSH2 0x5AD4 PUSH2 0x5ACF DUP5 PUSH2 0x56B9 JUMP JUMPDEST PUSH2 0x54CB JUMP JUMPDEST PUSH2 0x3CAD JUMP JUMPDEST SWAP1 POP SWAP2 SWAP1 POP JUMP JUMPDEST PUSH2 0x5AE9 DUP2 PUSH2 0x5ABF JUMP JUMPDEST DUP3 MSTORE POP POP JUMP JUMPDEST PUSH0 DUP3 DUP3 MSTORE PUSH1 0x20 DUP3 ADD SWAP1 POP SWAP3 SWAP2 POP POP JUMP JUMPDEST POP JUMP JUMPDEST PUSH0 PUSH2 0x5B0D PUSH0 DUP4 PUSH2 0x5AEF JUMP JUMPDEST SWAP2 POP PUSH2 0x5B18 DUP3 PUSH2 0x5AFF JUMP JUMPDEST PUSH0 DUP3 ADD SWAP1 POP SWAP2 SWAP1 POP JUMP JUMPDEST PUSH0 PUSH1 0xA0 DUP3 ADD SWAP1 POP PUSH2 0x5B35 PUSH0 DUP4 ADD DUP8 PUSH2 0x4248 JUMP JUMPDEST PUSH2 0x5B42 PUSH1 0x20 DUP4 ADD DUP7 PUSH2 0x4248 JUMP JUMPDEST PUSH2 0x5B4F PUSH1 0x40 DUP4 ADD DUP6 PUSH2 0x3E29 JUMP JUMPDEST PUSH2 0x5B5C PUSH1 0x60 DUP4 ADD DUP5 PUSH2 0x5AE0 JUMP JUMPDEST DUP2 DUP2 SUB PUSH1 0x80 DUP4 ADD MSTORE PUSH2 0x5B6D DUP2 PUSH2 0x5B02 JUMP JUMPDEST SWAP1 POP SWAP6 SWAP5 POP POP POP POP POP JUMP JUMPDEST PUSH32 0x556E737570706F72746564204E4654207374616E646172640000000000000000 PUSH0 DUP3 ADD MSTORE POP JUMP JUMPDEST PUSH0 PUSH2 0x5BAC PUSH1 0x18 DUP4 PUSH2 0x4653 JUMP JUMPDEST SWAP2 POP PUSH2 0x5BB7 DUP3 PUSH2 0x5B78 JUMP JUMPDEST PUSH1 0x20 DUP3 ADD SWAP1 POP SWAP2 SWAP1 POP JUMP JUMPDEST PUSH0 PUSH1 0x20 DUP3 ADD SWAP1 POP DUP2 DUP2 SUB PUSH0 DUP4 ADD MSTORE PUSH2 0x5BD9 DUP2 PUSH2 0x5BA0 JUMP JUMPDEST SWAP1 POP SWAP2 SWAP1 POP JUMP JUMPDEST PUSH0 DUP2 MLOAD SWAP1 POP PUSH2 0x5BEE DUP2 PUSH2 0x3DD4 JUMP JUMPDEST SWAP3 SWAP2 POP POP JUMP JUMPDEST PUSH0 PUSH1 0x20 DUP3 DUP5 SUB SLT ISZERO PUSH2 0x5C09 JUMPI PUSH2 0x5C08 PUSH2 0x3CA5 JUMP JUMPDEST JUMPDEST PUSH0 PUSH2 0x5C16 DUP5 DUP3 DUP6 ADD PUSH2 0x5BE0 JUMP JUMPDEST SWAP2 POP POP SWAP3 SWAP2 POP POP JUMP JUMPDEST PUSH0 DUP2 MLOAD SWAP1 POP PUSH2 0x5C2D DUP2 PUSH2 0x3CB6 JUMP JUMPDEST SWAP3 SWAP2 POP POP JUMP JUMPDEST PUSH0 PUSH1 0x20 DUP3 DUP5 SUB SLT ISZERO PUSH2 0x5C48 JUMPI PUSH2 0x5C47 PUSH2 0x3CA5 JUMP JUMPDEST JUMPDEST PUSH0 PUSH2 0x5C55 DUP5 DUP3 DUP6 ADD PUSH2 0x5C1F JUMP JUMPDEST SWAP2 POP POP SWAP3 SWAP2 POP POP JUMP INVALID LOG2 PUSH5 0x6970667358 0x22 SLT KECCAK256 CALLDATASIZE PUSH22 0x39A7592133C7EE46494728BCA27FEA5E8716D16592DF PUSH31 0xDBFD6C4AE5C82164736F6C634300081A003300000000000000000000000000 "
		},
		"gasEstimates": {
			"creation": {
				"codeDepositCost": "4740000",
				"executionCost": "5567",
				"totalCost": "4745567"
			},
			"external": {
				"addNewMarketItem(address,uint256[],uint256,bool,uint256)": "infinite",
				"addSmartContractSlot(address,string,string)": "infinite",
				"bid(uint256)": "infinite",
				"changeMarketItem(uint256,bool,uint256,uint256)": "infinite",
				"changeUserData(string,string,address)": "infinite",
				"commissionReceiver()": "2596",
				"getAllActiveItems()": "infinite",
				"getUserData(address)": "infinite",
				"initialize(uint256,address,address)": "infinite",
				"owner()": "2590",
				"purchaseMarketItem(uint256)": "infinite",
				"removeMarketItem(uint256)": "infinite",
				"renounceOwnership()": "infinite",
				"setCommissionData(uint256,address)": "infinite",
				"signUp(address,string,string)": "infinite",
				"transferOwnership(address)": "infinite",
				"userDataMap(uint256)": "infinite",
				"userIds(address)": "2892",
				"withdraw()": "infinite",
				"withdrawBid(uint256)": "infinite"
			},
			"internal": {
				"_areNftOwners(address,uint256[] memory,address)": "infinite",
				"_removeActiveMarketItemId(uint256)": "infinite",
				"_removeItemFromOwnList(uint256)": "infinite",
				"_transferNFT(address,uint256[] memory,address,address)": "infinite",
				"updateActivityHistory(address,uint256)": "infinite"
			}
		},
		"methodIdentifiers": {
			"addNewMarketItem(address,uint256[],uint256,bool,uint256)": "99580f30",
			"addSmartContractSlot(address,string,string)": "e2413c0e",
			"bid(uint256)": "454a2ab3",
			"changeMarketItem(uint256,bool,uint256,uint256)": "2642734a",
			"changeUserData(string,string,address)": "b7f13128",
			"commissionReceiver()": "f92aa57f",
			"getAllActiveItems()": "704dd580",
			"getUserData(address)": "ffc9896b",
			"initialize(uint256,address,address)": "b4988fd0",
			"owner()": "8da5cb5b",
			"purchaseMarketItem(uint256)": "8c77b5b7",
			"removeMarketItem(uint256)": "7fb770cb",
			"renounceOwnership()": "715018a6",
			"setCommissionData(uint256,address)": "813ee1d1",
			"signUp(address,string,string)": "a9b4d919",
			"transferOwnership(address)": "f2fde38b",
			"userDataMap(uint256)": "eca12a1c",
			"userIds(address)": "4081db51",
			"withdraw()": "3ccfd60b",
			"withdrawBid(uint256)": "0eaaf4c8"
		}
	},
	"abi": [
		{
			"inputs": [],
			"name": "InvalidInitialization",
			"type": "error"
		},
		{
			"inputs": [],
			"name": "NotInitializing",
			"type": "error"
		},
		{
			"inputs": [
				{
					"internalType": "address",
					"name": "owner",
					"type": "address"
				}
			],
			"name": "OwnableInvalidOwner",
			"type": "error"
		},
		{
			"inputs": [
				{
					"internalType": "address",
					"name": "account",
					"type": "address"
				}
			],
			"name": "OwnableUnauthorizedAccount",
			"type": "error"
		},
		{
			"anonymous": false,
			"inputs": [
				{
					"indexed": true,
					"internalType": "uint256",
					"name": "itemId",
					"type": "uint256"
				}
			],
			"name": "AddedMarketItem",
			"type": "event"
		},
		{
			"anonymous": false,
			"inputs": [
				{
					"indexed": true,
					"internalType": "uint256",
					"name": "itemId",
					"type": "uint256"
				},
				{
					"indexed": false,
					"internalType": "bool",
					"name": "isAuction",
					"type": "bool"
				},
				{
					"indexed": false,
					"internalType": "uint256",
					"name": "price",
					"type": "uint256"
				},
				{
					"indexed": false,
					"internalType": "uint256",
					"name": "endTime",
					"type": "uint256"
				}
			],
			"name": "ChangedMarketItem",
			"type": "event"
		},
		{
			"anonymous": false,
			"inputs": [
				{
					"indexed": true,
					"internalType": "address",
					"name": "user",
					"type": "address"
				},
				{
					"indexed": false,
					"internalType": "string",
					"name": "userName",
					"type": "string"
				},
				{
					"indexed": false,
					"internalType": "string",
					"name": "avatar",
					"type": "string"
				},
				{
					"indexed": false,
					"internalType": "address",
					"name": "newAddress",
					"type": "address"
				}
			],
			"name": "ChangedUserData",
			"type": "event"
		},
		{
			"anonymous": false,
			"inputs": [
				{
					"indexed": false,
					"internalType": "uint64",
					"name": "version",
					"type": "uint64"
				}
			],
			"name": "Initialized",
			"type": "event"
		},
		{
			"anonymous": false,
			"inputs": [
				{
					"indexed": true,
					"internalType": "address",
					"name": "previousOwner",
					"type": "address"
				},
				{
					"indexed": true,
					"internalType": "address",
					"name": "newOwner",
					"type": "address"
				}
			],
			"name": "OwnershipTransferred",
			"type": "event"
		},
		{
			"anonymous": false,
			"inputs": [
				{
					"indexed": true,
					"internalType": "uint256",
					"name": "itemId",
					"type": "uint256"
				},
				{
					"indexed": true,
					"internalType": "address",
					"name": "bidder",
					"type": "address"
				},
				{
					"indexed": false,
					"internalType": "uint256",
					"name": "amount",
					"type": "uint256"
				}
			],
			"name": "PlacedBid",
			"type": "event"
		},
		{
			"anonymous": false,
			"inputs": [
				{
					"indexed": true,
					"internalType": "uint256",
					"name": "itemId",
					"type": "uint256"
				}
			],
			"name": "PurchasedMarketItem",
			"type": "event"
		},
		{
			"anonymous": false,
			"inputs": [
				{
					"indexed": true,
					"internalType": "uint256",
					"name": "itemId",
					"type": "uint256"
				}
			],
			"name": "RemovedMarketItem",
			"type": "event"
		},
		{
			"anonymous": false,
			"inputs": [
				{
					"indexed": true,
					"internalType": "address",
					"name": "user",
					"type": "address"
				},
				{
					"indexed": false,
					"internalType": "string",
					"name": "userName",
					"type": "string"
				},
				{
					"indexed": false,
					"internalType": "string",
					"name": "avatar",
					"type": "string"
				}
			],
			"name": "SignedUp",
			"type": "event"
		},
		{
			"anonymous": false,
			"inputs": [
				{
					"indexed": true,
					"internalType": "uint256",
					"name": "itemId",
					"type": "uint256"
				},
				{
					"indexed": false,
					"internalType": "address",
					"name": "winner",
					"type": "address"
				},
				{
					"indexed": false,
					"internalType": "uint256",
					"name": "amount",
					"type": "uint256"
				}
			],
			"name": "WithdrawnBid",
			"type": "event"
		},
		{
			"inputs": [
				{
					"internalType": "address",
					"name": "nftContract",
					"type": "address"
				},
				{
					"internalType": "uint256[]",
					"name": "tokenIds",
					"type": "uint256[]"
				},
				{
					"internalType": "uint256",
					"name": "price",
					"type": "uint256"
				},
				{
					"internalType": "bool",
					"name": "isAuction",
					"type": "bool"
				},
				{
					"internalType": "uint256",
					"name": "endTime",
					"type": "uint256"
				}
			],
			"name": "addNewMarketItem",
			"outputs": [],
			"stateMutability": "nonpayable",
			"type": "function"
		},
		{
			"inputs": [
				{
					"internalType": "address",
					"name": "smartContract",
					"type": "address"
				},
				{
					"internalType": "string",
					"name": "functionName",
					"type": "string"
				},
				{
					"internalType": "string",
					"name": "parameters",
					"type": "string"
				}
			],
			"name": "addSmartContractSlot",
			"outputs": [],
			"stateMutability": "nonpayable",
			"type": "function"
		},
		{
			"inputs": [
				{
					"internalType": "uint256",
					"name": "itemId",
					"type": "uint256"
				}
			],
			"name": "bid",
			"outputs": [],
			"stateMutability": "payable",
			"type": "function"
		},
		{
			"inputs": [
				{
					"internalType": "uint256",
					"name": "itemId",
					"type": "uint256"
				},
				{
					"internalType": "bool",
					"name": "_isAuction",
					"type": "bool"
				},
				{
					"internalType": "uint256",
					"name": "_price",
					"type": "uint256"
				},
				{
					"internalType": "uint256",
					"name": "_endTime",
					"type": "uint256"
				}
			],
			"name": "changeMarketItem",
			"outputs": [],
			"stateMutability": "nonpayable",
			"type": "function"
		},
		{
			"inputs": [
				{
					"internalType": "string",
					"name": "userName",
					"type": "string"
				},
				{
					"internalType": "string",
					"name": "_avatar",
					"type": "string"
				},
				{
					"internalType": "address",
					"name": "_newAddress",
					"type": "address"
				}
			],
			"name": "changeUserData",
			"outputs": [],
			"stateMutability": "nonpayable",
			"type": "function"
		},
		{
			"inputs": [],
			"name": "commissionReceiver",
			"outputs": [
				{
					"internalType": "address",
					"name": "",
					"type": "address"
				}
			],
			"stateMutability": "view",
			"type": "function"
		},
		{
			"inputs": [],
			"name": "getAllActiveItems",
			"outputs": [
				{
					"components": [
						{
							"internalType": "bool",
							"name": "isValid",
							"type": "bool"
						},
						{
							"internalType": "uint256",
							"name": "itemId",
							"type": "uint256"
						},
						{
							"internalType": "address",
							"name": "nftContract",
							"type": "address"
						},
						{
							"internalType": "uint256[]",
							"name": "tokenIds",
							"type": "uint256[]"
						},
						{
							"internalType": "string[]",
							"name": "tokenURIs",
							"type": "string[]"
						},
						{
							"internalType": "address",
							"name": "seller",
							"type": "address"
						},
						{
							"internalType": "address",
							"name": "tempOwner",
							"type": "address"
						},
						{
							"internalType": "uint256",
							"name": "price",
							"type": "uint256"
						},
						{
							"internalType": "bool",
							"name": "isAuction",
							"type": "bool"
						},
						{
							"internalType": "uint256",
							"name": "endTime",
							"type": "uint256"
						}
					],
					"internalType": "struct Marketplace.MarketItem[]",
					"name": "",
					"type": "tuple[]"
				}
			],
			"stateMutability": "view",
			"type": "function"
		},
		{
			"inputs": [
				{
					"internalType": "address",
					"name": "user",
					"type": "address"
				}
			],
			"name": "getUserData",
			"outputs": [
				{
					"components": [
						{
							"internalType": "string",
							"name": "userName",
							"type": "string"
						},
						{
							"internalType": "string",
							"name": "avatar",
							"type": "string"
						},
						{
							"internalType": "address[]",
							"name": "wallets",
							"type": "address[]"
						},
						{
							"internalType": "uint256[]",
							"name": "ownMarketItemIds",
							"type": "uint256[]"
						},
						{
							"internalType": "uint256[]",
							"name": "activityHistory",
							"type": "uint256[]"
						}
					],
					"internalType": "struct Marketplace.UserData",
					"name": "",
					"type": "tuple"
				}
			],
			"stateMutability": "view",
			"type": "function"
		},
		{
			"inputs": [
				{
					"internalType": "uint256",
					"name": "_commissionPercent",
					"type": "uint256"
				},
				{
					"internalType": "address",
					"name": "_commissionReceiver",
					"type": "address"
				},
				{
					"internalType": "address",
					"name": "_ownerAddress",
					"type": "address"
				}
			],
			"name": "initialize",
			"outputs": [],
			"stateMutability": "nonpayable",
			"type": "function"
		},
		{
			"inputs": [],
			"name": "owner",
			"outputs": [
				{
					"internalType": "address",
					"name": "",
					"type": "address"
				}
			],
			"stateMutability": "view",
			"type": "function"
		},
		{
			"inputs": [
				{
					"internalType": "uint256",
					"name": "itemId",
					"type": "uint256"
				}
			],
			"name": "purchaseMarketItem",
			"outputs": [],
			"stateMutability": "payable",
			"type": "function"
		},
		{
			"inputs": [
				{
					"internalType": "uint256",
					"name": "itemId",
					"type": "uint256"
				}
			],
			"name": "removeMarketItem",
			"outputs": [],
			"stateMutability": "nonpayable",
			"type": "function"
		},
		{
			"inputs": [],
			"name": "renounceOwnership",
			"outputs": [],
			"stateMutability": "nonpayable",
			"type": "function"
		},
		{
			"inputs": [
				{
					"internalType": "uint256",
					"name": "_commissionPercent",
					"type": "uint256"
				},
				{
					"internalType": "address",
					"name": "_commissionReceiver",
					"type": "address"
				}
			],
			"name": "setCommissionData",
			"outputs": [],
			"stateMutability": "nonpayable",
			"type": "function"
		},
		{
			"inputs": [
				{
					"internalType": "address",
					"name": "_userAddress",
					"type": "address"
				},
				{
					"internalType": "string",
					"name": "_userName",
					"type": "string"
				},
				{
					"internalType": "string",
					"name": "_avatar",
					"type": "string"
				}
			],
			"name": "signUp",
			"outputs": [],
			"stateMutability": "nonpayable",
			"type": "function"
		},
		{
			"inputs": [
				{
					"internalType": "address",
					"name": "newOwner",
					"type": "address"
				}
			],
			"name": "transferOwnership",
			"outputs": [],
			"stateMutability": "nonpayable",
			"type": "function"
		},
		{
			"inputs": [
				{
					"internalType": "uint256",
					"name": "",
					"type": "uint256"
				}
			],
			"name": "userDataMap",
			"outputs": [
				{
					"internalType": "string",
					"name": "userName",
					"type": "string"
				},
				{
					"internalType": "string",
					"name": "avatar",
					"type": "string"
				}
			],
			"stateMutability": "view",
			"type": "function"
		},
		{
			"inputs": [
				{
					"internalType": "address",
					"name": "",
					"type": "address"
				}
			],
			"name": "userIds",
			"outputs": [
				{
					"internalType": "uint256",
					"name": "",
					"type": "uint256"
				}
			],
			"stateMutability": "view",
			"type": "function"
		},
		{
			"inputs": [],
			"name": "withdraw",
			"outputs": [],
			"stateMutability": "nonpayable",
			"type": "function"
		},
		{
			"inputs": [
				{
					"internalType": "uint256",
					"name": "itemId",
					"type": "uint256"
				}
			],
			"name": "withdrawBid",
			"outputs": [],
			"stateMutability": "nonpayable",
			"type": "function"
		}
	]
}