{
  "_format": "hh-sol-artifact-1",
  "contractName": "NFTMarketplaceV2",
  "sourceName": "contracts/NFTMarketplaceV2.sol",
  "abi": [
    {
      "anonymous": false,
      "inputs": [
        {
          "indexed": true,
          "internalType": "address",
          "name": "owner",
          "type": "address"
        },
        {
          "indexed": true,
          "internalType": "address",
          "name": "approved",
          "type": "address"
        },
        {
          "indexed": true,
          "internalType": "uint256",
          "name": "tokenId",
          "type": "uint256"
        }
      ],
      "name": "Approval",
      "type": "event"
    },
    {
      "anonymous": false,
      "inputs": [
        {
          "indexed": true,
          "internalType": "address",
          "name": "owner",
          "type": "address"
        },
        {
          "indexed": true,
          "internalType": "address",
          "name": "operator",
          "type": "address"
        },
        {
          "indexed": false,
          "internalType": "bool",
          "name": "approved",
          "type": "bool"
        }
      ],
      "name": "ApprovalForAll",
      "type": "event"
    },
    {
      "anonymous": false,
      "inputs": [
        {
          "indexed": false,
          "internalType": "uint256",
          "name": "_fromTokenId",
          "type": "uint256"
        },
        {
          "indexed": false,
          "internalType": "uint256",
          "name": "_toTokenId",
          "type": "uint256"
        }
      ],
      "name": "BatchMetadataUpdate",
      "type": "event"
    },
    {
      "anonymous": false,
      "inputs": [
        {
          "indexed": false,
          "internalType": "uint8",
          "name": "version",
          "type": "uint8"
        }
      ],
      "name": "Initialized",
      "type": "event"
    },
    {
      "anonymous": false,
      "inputs": [
        {
          "indexed": false,
          "internalType": "uint256",
          "name": "_tokenId",
          "type": "uint256"
        }
      ],
      "name": "MetadataUpdate",
      "type": "event"
    },
    {
      "anonymous": false,
      "inputs": [
        {
          "indexed": true,
          "internalType": "address",
          "name": "previousOwner",
          "type": "address"
        },
        {
          "indexed": true,
          "internalType": "address",
          "name": "newOwner",
          "type": "address"
        }
      ],
      "name": "OwnershipTransferred",
      "type": "event"
    },
    {
      "anonymous": false,
      "inputs": [
        {
          "indexed": true,
          "internalType": "address",
          "name": "from",
          "type": "address"
        },
        {
          "indexed": true,
          "internalType": "address",
          "name": "to",
          "type": "address"
        },
        {
          "indexed": true,
          "internalType": "uint256",
          "name": "tokenId",
          "type": "uint256"
        }
      ],
      "name": "Transfer",
      "type": "event"
    },
    {
      "inputs": [
        {
          "internalType": "address",
          "name": "to",
          "type": "address"
        },
        {
          "internalType": "uint256",
          "name": "tokenId",
          "type": "uint256"
        }
      ],
      "name": "approve",
      "outputs": [],
      "stateMutability": "nonpayable",
      "type": "function"
    },
    {
      "inputs": [
        {
          "internalType": "address",
          "name": "owner",
          "type": "address"
        }
      ],
      "name": "balanceOf",
      "outputs": [
        {
          "internalType": "uint256",
          "name": "",
          "type": "uint256"
        }
      ],
      "stateMutability": "view",
      "type": "function"
    },
    {
      "inputs": [
        {
          "internalType": "uint256",
          "name": "tokenId",
          "type": "uint256"
        },
        {
          "internalType": "uint256",
          "name": "price",
          "type": "uint256"
        },
        {
          "internalType": "enum NFTMarketplaceV2.State",
          "name": "state",
          "type": "uint8"
        }
      ],
      "name": "changeItemStateAndPrice",
      "outputs": [],
      "stateMutability": "payable",
      "type": "function"
    },
    {
      "inputs": [
        {
          "internalType": "uint256",
          "name": "tokenId",
          "type": "uint256"
        }
      ],
      "name": "checkOwner",
      "outputs": [
        {
          "internalType": "address",
          "name": "",
          "type": "address"
        }
      ],
      "stateMutability": "view",
      "type": "function"
    },
    {
      "inputs": [],
      "name": "commissionPercentage",
      "outputs": [
        {
          "internalType": "uint256",
          "name": "",
          "type": "uint256"
        }
      ],
      "stateMutability": "view",
      "type": "function"
    },
    {
      "inputs": [],
      "name": "commissionReceiver",
      "outputs": [
        {
          "internalType": "address payable",
          "name": "",
          "type": "address"
        }
      ],
      "stateMutability": "view",
      "type": "function"
    },
    {
      "inputs": [
        {
          "internalType": "string",
          "name": "_tokenURI",
          "type": "string"
        },
        {
          "internalType": "uint256",
          "name": "_price",
          "type": "uint256"
        }
      ],
      "name": "createToken",
      "outputs": [],
      "stateMutability": "payable",
      "type": "function"
    },
    {
      "inputs": [
        {
          "internalType": "uint256",
          "name": "tokenId",
          "type": "uint256"
        }
      ],
      "name": "getActiveMarketItem",
      "outputs": [
        {
          "components": [
            {
              "internalType": "uint256",
              "name": "tokenId",
              "type": "uint256"
            },
            {
              "internalType": "string",
              "name": "tokenURI",
              "type": "string"
            },
            {
              "internalType": "address payable",
              "name": "seller",
              "type": "address"
            },
            {
              "internalType": "address payable",
              "name": "owner",
              "type": "address"
            },
            {
              "internalType": "uint256",
              "name": "price",
              "type": "uint256"
            },
            {
              "internalType": "enum NFTMarketplaceV2.State",
              "name": "state",
              "type": "uint8"
            },
            {
              "internalType": "bool",
              "name": "sold",
              "type": "bool"
            }
          ],
          "internalType": "struct NFTMarketplaceV2.MarketItem",
          "name": "",
          "type": "tuple"
        }
      ],
      "stateMutability": "view",
      "type": "function"
    },
    {
      "inputs": [],
      "name": "getActiveMarketItems",
      "outputs": [
        {
          "components": [
            {
              "internalType": "uint256",
              "name": "tokenId",
              "type": "uint256"
            },
            {
              "internalType": "string",
              "name": "tokenURI",
              "type": "string"
            },
            {
              "internalType": "address payable",
              "name": "seller",
              "type": "address"
            },
            {
              "internalType": "address payable",
              "name": "owner",
              "type": "address"
            },
            {
              "internalType": "uint256",
              "name": "price",
              "type": "uint256"
            },
            {
              "internalType": "enum NFTMarketplaceV2.State",
              "name": "state",
              "type": "uint8"
            },
            {
              "internalType": "bool",
              "name": "sold",
              "type": "bool"
            }
          ],
          "internalType": "struct NFTMarketplaceV2.MarketItem[]",
          "name": "",
          "type": "tuple[]"
        }
      ],
      "stateMutability": "view",
      "type": "function"
    },
    {
      "inputs": [
        {
          "internalType": "uint256",
          "name": "tokenId",
          "type": "uint256"
        }
      ],
      "name": "getApproved",
      "outputs": [
        {
          "internalType": "address",
          "name": "",
          "type": "address"
        }
      ],
      "stateMutability": "view",
      "type": "function"
    },
    {
      "inputs": [
        {
          "internalType": "address",
          "name": "seller",
          "type": "address"
        }
      ],
      "name": "getMarketItemsBySeller",
      "outputs": [
        {
          "components": [
            {
              "internalType": "uint256",
              "name": "tokenId",
              "type": "uint256"
            },
            {
              "internalType": "string",
              "name": "tokenURI",
              "type": "string"
            },
            {
              "internalType": "address payable",
              "name": "seller",
              "type": "address"
            },
            {
              "internalType": "address payable",
              "name": "owner",
              "type": "address"
            },
            {
              "internalType": "uint256",
              "name": "price",
              "type": "uint256"
            },
            {
              "internalType": "enum NFTMarketplaceV2.State",
              "name": "state",
              "type": "uint8"
            },
            {
              "internalType": "bool",
              "name": "sold",
              "type": "bool"
            }
          ],
          "internalType": "struct NFTMarketplaceV2.MarketItem[]",
          "name": "",
          "type": "tuple[]"
        }
      ],
      "stateMutability": "view",
      "type": "function"
    },
    {
      "inputs": [],
      "name": "initialize",
      "outputs": [],
      "stateMutability": "nonpayable",
      "type": "function"
    },
    {
      "inputs": [
        {
          "internalType": "address payable",
          "name": "_commissionReceiver",
          "type": "address"
        },
        {
          "internalType": "uint256",
          "name": "_commissionPercentage",
          "type": "uint256"
        }
      ],
      "name": "initializeV2",
      "outputs": [],
      "stateMutability": "nonpayable",
      "type": "function"
    },
    {
      "inputs": [
        {
          "internalType": "address",
          "name": "owner",
          "type": "address"
        },
        {
          "internalType": "address",
          "name": "operator",
          "type": "address"
        }
      ],
      "name": "isApprovedForAll",
      "outputs": [
        {
          "internalType": "bool",
          "name": "",
          "type": "bool"
        }
      ],
      "stateMutability": "view",
      "type": "function"
    },
    {
      "inputs": [],
      "name": "name",
      "outputs": [
        {
          "internalType": "string",
          "name": "",
          "type": "string"
        }
      ],
      "stateMutability": "view",
      "type": "function"
    },
    {
      "inputs": [],
      "name": "owner",
      "outputs": [
        {
          "internalType": "address",
          "name": "",
          "type": "address"
        }
      ],
      "stateMutability": "view",
      "type": "function"
    },
    {
      "inputs": [
        {
          "internalType": "uint256",
          "name": "tokenId",
          "type": "uint256"
        }
      ],
      "name": "ownerOf",
      "outputs": [
        {
          "internalType": "address",
          "name": "",
          "type": "address"
        }
      ],
      "stateMutability": "view",
      "type": "function"
    },
    {
      "inputs": [
        {
          "internalType": "uint256",
          "name": "tokenId",
          "type": "uint256"
        }
      ],
      "name": "purchaseMarketItem",
      "outputs": [],
      "stateMutability": "payable",
      "type": "function"
    },
    {
      "inputs": [],
      "name": "renounceOwnership",
      "outputs": [],
      "stateMutability": "nonpayable",
      "type": "function"
    },
    {
      "inputs": [
        {
          "internalType": "address",
          "name": "from",
          "type": "address"
        },
        {
          "internalType": "address",
          "name": "to",
          "type": "address"
        },
        {
          "internalType": "uint256",
          "name": "tokenId",
          "type": "uint256"
        }
      ],
      "name": "safeTransferFrom",
      "outputs": [],
      "stateMutability": "nonpayable",
      "type": "function"
    },
    {
      "inputs": [
        {
          "internalType": "address",
          "name": "from",
          "type": "address"
        },
        {
          "internalType": "address",
          "name": "to",
          "type": "address"
        },
        {
          "internalType": "uint256",
          "name": "tokenId",
          "type": "uint256"
        },
        {
          "internalType": "bytes",
          "name": "data",
          "type": "bytes"
        }
      ],
      "name": "safeTransferFrom",
      "outputs": [],
      "stateMutability": "nonpayable",
      "type": "function"
    },
    {
      "inputs": [
        {
          "internalType": "address",
          "name": "operator",
          "type": "address"
        },
        {
          "internalType": "bool",
          "name": "approved",
          "type": "bool"
        }
      ],
      "name": "setApprovalForAll",
      "outputs": [],
      "stateMutability": "nonpayable",
      "type": "function"
    },
    {
      "inputs": [
        {
          "internalType": "uint256",
          "name": "_newPercentage",
          "type": "uint256"
        }
      ],
      "name": "setCommissionPercentage",
      "outputs": [],
      "stateMutability": "nonpayable",
      "type": "function"
    },
    {
      "inputs": [
        {
          "internalType": "address payable",
          "name": "_newReceiver",
          "type": "address"
        }
      ],
      "name": "setCommissionReceiver",
      "outputs": [],
      "stateMutability": "nonpayable",
      "type": "function"
    },
    {
      "inputs": [
        {
          "internalType": "bytes4",
          "name": "interfaceId",
          "type": "bytes4"
        }
      ],
      "name": "supportsInterface",
      "outputs": [
        {
          "internalType": "bool",
          "name": "",
          "type": "bool"
        }
      ],
      "stateMutability": "view",
      "type": "function"
    },
    {
      "inputs": [],
      "name": "symbol",
      "outputs": [
        {
          "internalType": "string",
          "name": "",
          "type": "string"
        }
      ],
      "stateMutability": "view",
      "type": "function"
    },
    {
      "inputs": [
        {
          "internalType": "uint256",
          "name": "tokenId",
          "type": "uint256"
        }
      ],
      "name": "tokenURI",
      "outputs": [
        {
          "internalType": "string",
          "name": "",
          "type": "string"
        }
      ],
      "stateMutability": "view",
      "type": "function"
    },
    {
      "inputs": [
        {
          "internalType": "address",
          "name": "from",
          "type": "address"
        },
        {
          "internalType": "address",
          "name": "to",
          "type": "address"
        },
        {
          "internalType": "uint256",
          "name": "tokenId",
          "type": "uint256"
        }
      ],
      "name": "transferFrom",
      "outputs": [],
      "stateMutability": "nonpayable",
      "type": "function"
    },
    {
      "inputs": [
        {
          "internalType": "address",
          "name": "newOwner",
          "type": "address"
        }
      ],
      "name": "transferOwnership",
      "outputs": [],
      "stateMutability": "nonpayable",
      "type": "function"
    }
  ],
  "bytecode": "0x608060405234801561001057600080fd5b506157c880620000216000396000f3fe6080604052600436106101c25760003560e01c8063880ba06d116100f7578063b88d4fde11610095578063e985e9c511610064578063e985e9c514610634578063f2fde38b14610671578063f92aa57f1461069a578063fdc16a3e146106c5576101c2565b8063b88d4fde1461057a578063c87b56dd146105a3578063ccd8af22146105e0578063d575fe6414610609576101c2565b806395d89b41116100d157806395d89b41146104c05780639870dce0146104eb578063a22cb46514610528578063a576cf9d14610551576101c2565b8063880ba06d1461044e5780638c77b5b7146104795780638da5cb5b14610495576101c2565b806342842e0e1161016457806370a082311161013e57806370a08231146103c7578063715018a61461040457806372b3b6201461041b5780638129fc1c14610437576101c2565b806342842e0e146103245780635d3e8b081461034d5780636352211e1461038a576101c2565b8063081812fc116101a0578063081812fc1461026c578063095ea7b3146102a957806323b872dd146102d257806339b87c8f146102fb576101c2565b806301ffc9a7146101c7578063023d20b01461020457806306fdde0314610241575b600080fd5b3480156101d357600080fd5b506101ee60048036038101906101e991906139fe565b6106e1565b6040516101fb9190613a46565b60405180910390f35b34801561021057600080fd5b5061022b60048036038101906102269190613abf565b610742565b6040516102389190613d9a565b60405180910390f35b34801561024d57600080fd5b50610256610aca565b6040516102639190613e06565b60405180910390f35b34801561027857600080fd5b50610293600480360381019061028e9190613e54565b610b5c565b6040516102a09190613e90565b60405180910390f35b3480156102b557600080fd5b506102d060048036038101906102cb9190613eab565b610ba2565b005b3480156102de57600080fd5b506102f960048036038101906102f49190613eeb565b610cb9565b005b34801561030757600080fd5b50610322600480360381019061031d9190613e54565b610dd2565b005b34801561033057600080fd5b5061034b60048036038101906103469190613eeb565b610e29565b005b34801561035957600080fd5b50610374600480360381019061036f9190613e54565b610e49565b6040516103819190613fda565b60405180910390f35b34801561039657600080fd5b506103b160048036038101906103ac9190613e54565b6110aa565b6040516103be9190613e90565b60405180910390f35b3480156103d357600080fd5b506103ee60048036038101906103e99190613abf565b611130565b6040516103fb919061400b565b60405180910390f35b34801561041057600080fd5b506104196111e7565b005b6104356004803603810190610430919061415b565b6111fb565b005b34801561044357600080fd5b5061044c611240565b005b34801561045a57600080fd5b50610463611386565b6040516104709190613d9a565b60405180910390f35b610493600480360381019061048e9190613e54565b6117b6565b005b3480156104a157600080fd5b506104aa611c8d565b6040516104b79190613e90565b60405180910390f35b3480156104cc57600080fd5b506104d5611cb7565b6040516104e29190613e06565b60405180910390f35b3480156104f757600080fd5b50610512600480360381019061050d9190613e54565b611d49565b60405161051f9190613e90565b60405180910390f35b34801561053457600080fd5b5061054f600480360381019061054a91906141e3565b611d5b565b005b34801561055d57600080fd5b506105786004803603810190610573919061424f565b611d71565b005b34801561058657600080fd5b506105a1600480360381019061059c919061431d565b611dbe565b005b3480156105af57600080fd5b506105ca60048036038101906105c59190613e54565b611e20565b6040516105d79190613e06565b60405180910390f35b3480156105ec57600080fd5b50610607600480360381019061060291906143a0565b611f32565b005b34801561061557600080fd5b5061061e612077565b60405161062b919061400b565b60405180910390f35b34801561064057600080fd5b5061065b600480360381019061065691906143e0565b61207e565b6040516106689190613a46565b60405180910390f35b34801561067d57600080fd5b5061069860048036038101906106939190613abf565b612112565b005b3480156106a657600080fd5b506106af612195565b6040516106bc919061442f565b60405180910390f35b6106df60048036038101906106da919061446f565b6121bc565b005b6000634906490660e01b7bffffffffffffffffffffffffffffffffffffffffffffffffffffffff1916827bffffffffffffffffffffffffffffffffffffffffffffffffffffffff1916148061073b575061073a82612506565b5b9050919050565b6060600080600190505b61012d5481116107e2578373ffffffffffffffffffffffffffffffffffffffff1661012e600083815260200190815260200160002060020160009054906101000a900473ffffffffffffffffffffffffffffffffffffffff1673ffffffffffffffffffffffffffffffffffffffff16036107cf5781806107cb906144f1565b9250505b80806107da906144f1565b91505061074c565b5060008167ffffffffffffffff8111156107ff576107fe614030565b5b60405190808252806020026020018201604052801561083857816020015b610825613915565b81526020019060019003908161081d5790505b509050600080600190505b61012d548111610abe578573ffffffffffffffffffffffffffffffffffffffff1661012e600083815260200190815260200160002060020160009054906101000a900473ffffffffffffffffffffffffffffffffffffffff1673ffffffffffffffffffffffffffffffffffffffff1603610aab5761012e60008281526020019081526020016000206040518060e0016040529081600082015481526020016001820180546108f090614568565b80601f016020809104026020016040519081016040528092919081815260200182805461091c90614568565b80156109695780601f1061093e57610100808354040283529160200191610969565b820191906000526020600020905b81548152906001019060200180831161094c57829003601f168201915b505050505081526020016002820160009054906101000a900473ffffffffffffffffffffffffffffffffffffffff1673ffffffffffffffffffffffffffffffffffffffff1673ffffffffffffffffffffffffffffffffffffffff1681526020016003820160009054906101000a900473ffffffffffffffffffffffffffffffffffffffff1673ffffffffffffffffffffffffffffffffffffffff1673ffffffffffffffffffffffffffffffffffffffff168152602001600482015481526020016005820160009054906101000a900460ff166001811115610a4d57610a4c613be2565b5b6001811115610a5f57610a5e613be2565b5b81526020016005820160019054906101000a900460ff161515151581525050838381518110610a9157610a90614599565b5b60200260200101819052508180610aa7906144f1565b9250505b8080610ab6906144f1565b915050610843565b50819350505050919050565b606060c98054610ad990614568565b80601f0160208091040260200160405190810160405280929190818152602001828054610b0590614568565b8015610b525780601f10610b2757610100808354040283529160200191610b52565b820191906000526020600020905b815481529060010190602001808311610b3557829003601f168201915b5050505050905090565b6000610b67826125e8565b60cd600083815260200190815260200160002060009054906101000a900473ffffffffffffffffffffffffffffffffffffffff169050919050565b6000610bad826110aa565b90508073ffffffffffffffffffffffffffffffffffffffff168373ffffffffffffffffffffffffffffffffffffffff1603610c1d576040517f08c379a0000000000000000000000000000000000000000000000000000000008152600401610c149061463a565b60405180910390fd5b8073ffffffffffffffffffffffffffffffffffffffff16610c3c612633565b73ffffffffffffffffffffffffffffffffffffffff161480610c6b5750610c6a81610c65612633565b61207e565b5b610caa576040517f08c379a0000000000000000000000000000000000000000000000000000000008152600401610ca1906146cc565b60405180910390fd5b610cb4838361263b565b505050565b610cc4838383610e29565b8161012e600083815260200190815260200160002060030160006101000a81548173ffffffffffffffffffffffffffffffffffffffff021916908373ffffffffffffffffffffffffffffffffffffffff1602179055508161012e600083815260200190815260200160002060020160006101000a81548173ffffffffffffffffffffffffffffffffffffffff021916908373ffffffffffffffffffffffffffffffffffffffff160217905550600161012e600083815260200190815260200160002060050160006101000a81548160ff02191690836001811115610dab57610daa613be2565b5b0217905550600061012e600083815260200190815260200160002060040181905550505050565b610dda6126f4565b6064811115610e1e576040517f08c379a0000000000000000000000000000000000000000000000000000000008152600401610e159061475e565b60405180910390fd5b806101308190555050565b610e4483838360405180602001604052806000815250611dbe565b505050565b610e51613915565b60006001811115610e6557610e64613be2565b5b61012e600084815260200190815260200160002060050160009054906101000a900460ff166001811115610e9c57610e9b613be2565b5b14610edc576040517f08c379a0000000000000000000000000000000000000000000000000000000008152600401610ed3906147ca565b60405180910390fd5b61012e60008381526020019081526020016000206040518060e001604052908160008201548152602001600182018054610f1590614568565b80601f0160208091040260200160405190810160405280929190818152602001828054610f4190614568565b8015610f8e5780601f10610f6357610100808354040283529160200191610f8e565b820191906000526020600020905b815481529060010190602001808311610f7157829003601f168201915b505050505081526020016002820160009054906101000a900473ffffffffffffffffffffffffffffffffffffffff1673ffffffffffffffffffffffffffffffffffffffff1673ffffffffffffffffffffffffffffffffffffffff1681526020016003820160009054906101000a900473ffffffffffffffffffffffffffffffffffffffff1673ffffffffffffffffffffffffffffffffffffffff1673ffffffffffffffffffffffffffffffffffffffff168152602001600482015481526020016005820160009054906101000a900460ff16600181111561107257611071613be2565b5b600181111561108457611083613be2565b5b81526020016005820160019054906101000a900460ff1615151515815250509050919050565b6000806110b683612772565b9050600073ffffffffffffffffffffffffffffffffffffffff168173ffffffffffffffffffffffffffffffffffffffff1603611127576040517f08c379a000000000000000000000000000000000000000000000000000000000815260040161111e90614836565b60405180910390fd5b80915050919050565b60008073ffffffffffffffffffffffffffffffffffffffff168273ffffffffffffffffffffffffffffffffffffffff16036111a0576040517f08c379a0000000000000000000000000000000000000000000000000000000008152600401611197906148c8565b60405180910390fd5b60cc60008373ffffffffffffffffffffffffffffffffffffffff1673ffffffffffffffffffffffffffffffffffffffff168152602001908152602001600020549050919050565b6111ef6126f4565b6111f960006127af565b565b61012d600081548092919061120f906144f1565b9190505550600061012d5490506112263382612875565b6112308184612893565b61123b818385612937565b505050565b60008060019054906101000a900460ff161590508080156112715750600160008054906101000a900460ff1660ff16105b8061129e575061128030612ada565b15801561129d5750600160008054906101000a900460ff1660ff16145b5b6112dd576040517f08c379a00000000000000000000000000000000000000000000000000000000081526004016112d49061495a565b60405180910390fd5b60016000806101000a81548160ff021916908360ff160217905550801561131a576001600060016101000a81548160ff0219169083151502179055505b611322612afd565b61132a612b56565b80156113835760008060016101000a81548160ff0219169083151502179055507f7f26b83ff96e1f2b6a682f133852f6798a09c465da95921460cefb3847402498600160405161137a91906149cc565b60405180910390a15b50565b6060600080600190505b61012d54811161147b573073ffffffffffffffffffffffffffffffffffffffff1661012e600083815260200190815260200160002060030160009054906101000a900473ffffffffffffffffffffffffffffffffffffffff1673ffffffffffffffffffffffffffffffffffffffff1614801561145457506000600181111561141b5761141a613be2565b5b61012e600083815260200190815260200160002060050160009054906101000a900460ff16600181111561145257611451613be2565b5b145b15611468578180611464906144f1565b9250505b8080611473906144f1565b915050611390565b5060008167ffffffffffffffff81111561149857611497614030565b5b6040519080825280602002602001820160405280156114d157816020015b6114be613915565b8152602001906001900390816114b65790505b509050600080600190505b61012d5481116117ac573073ffffffffffffffffffffffffffffffffffffffff1661012e600083815260200190815260200160002060030160009054906101000a900473ffffffffffffffffffffffffffffffffffffffff1673ffffffffffffffffffffffffffffffffffffffff161480156115a057506000600181111561156757611566613be2565b5b61012e600083815260200190815260200160002060050160009054906101000a900460ff16600181111561159e5761159d613be2565b5b145b156117995761012e60008281526020019081526020016000206040518060e0016040529081600082015481526020016001820180546115de90614568565b80601f016020809104026020016040519081016040528092919081815260200182805461160a90614568565b80156116575780601f1061162c57610100808354040283529160200191611657565b820191906000526020600020905b81548152906001019060200180831161163a57829003601f168201915b505050505081526020016002820160009054906101000a900473ffffffffffffffffffffffffffffffffffffffff1673ffffffffffffffffffffffffffffffffffffffff1673ffffffffffffffffffffffffffffffffffffffff1681526020016003820160009054906101000a900473ffffffffffffffffffffffffffffffffffffffff1673ffffffffffffffffffffffffffffffffffffffff1673ffffffffffffffffffffffffffffffffffffffff168152602001600482015481526020016005820160009054906101000a900460ff16600181111561173b5761173a613be2565b5b600181111561174d5761174c613be2565b5b81526020016005820160019054906101000a900460ff16151515158152505083838151811061177f5761177e614599565b5b60200260200101819052508180611795906144f1565b9250505b80806117a4906144f1565b9150506114dc565b5081935050505090565b600061012e6000838152602001908152602001600020600401549050600060018111156117e6576117e5613be2565b5b61012e600084815260200190815260200160002060050160009054906101000a900460ff16600181111561181d5761181c613be2565b5b1461185d576040517f08c379a0000000000000000000000000000000000000000000000000000000008152600401611854906147ca565b60405180910390fd5b600081116118a0576040517f08c379a0000000000000000000000000000000000000000000000000000000008152600401611897906147ca565b60405180910390fd5b8034146118e2576040517f08c379a00000000000000000000000000000000000000000000000000000000081526004016118d990614a59565b60405180910390fd5b3373ffffffffffffffffffffffffffffffffffffffff1661012e600084815260200190815260200160002060030160009054906101000a900473ffffffffffffffffffffffffffffffffffffffff1673ffffffffffffffffffffffffffffffffffffffff1603611987576040517f08c379a000000000000000000000000000000000000000000000000000000000815260040161197e90614aeb565b60405180910390fd5b3373ffffffffffffffffffffffffffffffffffffffff1661012e600084815260200190815260200160002060020160009054906101000a900473ffffffffffffffffffffffffffffffffffffffff1673ffffffffffffffffffffffffffffffffffffffff1603611a2c576040517f08c379a0000000000000000000000000000000000000000000000000000000008152600401611a2390614b7d565b60405180910390fd5b600060646101305483611a3f9190614b9d565b611a499190614c0e565b905060008183611a599190614c3f565b905061012f60009054906101000a900473ffffffffffffffffffffffffffffffffffffffff1673ffffffffffffffffffffffffffffffffffffffff166108fc839081150290604051600060405180830381858888f19350505050158015611ac4573d6000803e3d6000fd5b5061012e600085815260200190815260200160002060020160009054906101000a900473ffffffffffffffffffffffffffffffffffffffff1673ffffffffffffffffffffffffffffffffffffffff166108fc829081150290604051600060405180830381858888f19350505050158015611b42573d6000803e3d6000fd5b503361012e600086815260200190815260200160002060030160006101000a81548173ffffffffffffffffffffffffffffffffffffffff021916908373ffffffffffffffffffffffffffffffffffffffff1602179055503361012e600086815260200190815260200160002060020160006101000a81548173ffffffffffffffffffffffffffffffffffffffff021916908373ffffffffffffffffffffffffffffffffffffffff160217905550600161012e600086815260200190815260200160002060050160006101000a81548160ff02191690836001811115611c2a57611c29613be2565b5b0217905550600061012e600086815260200190815260200160002060040181905550600161012e600086815260200190815260200160002060050160016101000a81548160ff021916908315150217905550611c87303386612baf565b50505050565b6000603360009054906101000a900473ffffffffffffffffffffffffffffffffffffffff16905090565b606060ca8054611cc690614568565b80601f0160208091040260200160405190810160405280929190818152602001828054611cf290614568565b8015611d3f5780601f10611d1457610100808354040283529160200191611d3f565b820191906000526020600020905b815481529060010190602001808311611d2257829003601f168201915b5050505050905090565b6000611d54826110aa565b9050919050565b611d6d611d66612633565b8383612ea8565b5050565b611d796126f4565b8061012f60006101000a81548173ffffffffffffffffffffffffffffffffffffffff021916908373ffffffffffffffffffffffffffffffffffffffff16021790555050565b611dcf611dc9612633565b83613014565b611e0e576040517f08c379a0000000000000000000000000000000000000000000000000000000008152600401611e0590614ce5565b60405180910390fd5b611e1a848484846130a9565b50505050565b6060611e2b826125e8565b600060fb60008481526020019081526020016000208054611e4b90614568565b80601f0160208091040260200160405190810160405280929190818152602001828054611e7790614568565b8015611ec45780601f10611e9957610100808354040283529160200191611ec4565b820191906000526020600020905b815481529060010190602001808311611ea757829003601f168201915b505050505090506000611ed5613105565b90506000815103611eea578192505050611f2d565b600082511115611f1f578082604051602001611f07929190614d41565b60405160208183030381529060405292505050611f2d565b611f288461311c565b925050505b919050565b6002600060019054906101000a900460ff16158015611f6357508060ff1660008054906101000a900460ff1660ff16105b611fa2576040517f08c379a0000000000000000000000000000000000000000000000000000000008152600401611f999061495a565b60405180910390fd5b806000806101000a81548160ff021916908360ff1602179055506001600060016101000a81548160ff0219169083151502179055508261012f60006101000a81548173ffffffffffffffffffffffffffffffffffffffff021916908373ffffffffffffffffffffffffffffffffffffffff160217905550816101308190555060008060016101000a81548160ff0219169083151502179055507f7f26b83ff96e1f2b6a682f133852f6798a09c465da95921460cefb38474024988160405161206a9190614d74565b60405180910390a1505050565b6101305481565b600060ce60008473ffffffffffffffffffffffffffffffffffffffff1673ffffffffffffffffffffffffffffffffffffffff16815260200190815260200160002060008373ffffffffffffffffffffffffffffffffffffffff1673ffffffffffffffffffffffffffffffffffffffff16815260200190815260200160002060009054906101000a900460ff16905092915050565b61211a6126f4565b600073ffffffffffffffffffffffffffffffffffffffff168173ffffffffffffffffffffffffffffffffffffffff1603612189576040517f08c379a000000000000000000000000000000000000000000000000000000000815260040161218090614e01565b60405180910390fd5b612192816127af565b50565b61012f60009054906101000a900473ffffffffffffffffffffffffffffffffffffffff1681565b3373ffffffffffffffffffffffffffffffffffffffff1661012e600085815260200190815260200160002060020160009054906101000a900473ffffffffffffffffffffffffffffffffffffffff1673ffffffffffffffffffffffffffffffffffffffff1614612261576040517f08c379a000000000000000000000000000000000000000000000000000000000815260040161225890614e93565b60405180910390fd5b80600181111561227457612273613be2565b5b61012e600085815260200190815260200160002060050160009054906101000a900460ff1660018111156122ab576122aa613be2565b5b036122eb576040517f08c379a00000000000000000000000000000000000000000000000000000000081526004016122e290614f25565b60405180910390fd5b600060018111156122ff576122fe613be2565b5b81600181111561231257612311613be2565b5b03612418576000821161235a576040517f08c379a000000000000000000000000000000000000000000000000000000000815260040161235190614f91565b60405180910390fd5b8161012e6000858152602001908152602001600020600401819055503061012e600085815260200190815260200160002060030160006101000a81548173ffffffffffffffffffffffffffffffffffffffff021916908373ffffffffffffffffffffffffffffffffffffffff1602179055503073ffffffffffffffffffffffffffffffffffffffff166123ec84611d49565b73ffffffffffffffffffffffffffffffffffffffff161461241357612412333085612baf565b5b6124c2565b600061012e60008581526020019081526020016000206004018190555061012e600084815260200190815260200160002060050160019054906101000a900460ff16156124c15761246a303385612baf565b3361012e600085815260200190815260200160002060030160006101000a81548173ffffffffffffffffffffffffffffffffffffffff021916908373ffffffffffffffffffffffffffffffffffffffff1602179055505b5b8061012e600085815260200190815260200160002060050160006101000a81548160ff021916908360018111156124fc576124fb613be2565b5b0217905550505050565b60007f80ac58cd000000000000000000000000000000000000000000000000000000007bffffffffffffffffffffffffffffffffffffffffffffffffffffffff1916827bffffffffffffffffffffffffffffffffffffffffffffffffffffffff191614806125d157507f5b5e139f000000000000000000000000000000000000000000000000000000007bffffffffffffffffffffffffffffffffffffffffffffffffffffffff1916827bffffffffffffffffffffffffffffffffffffffffffffffffffffffff1916145b806125e157506125e082613184565b5b9050919050565b6125f1816131ee565b612630576040517f08c379a000000000000000000000000000000000000000000000000000000000815260040161262790614836565b60405180910390fd5b50565b600033905090565b8160cd600083815260200190815260200160002060006101000a81548173ffffffffffffffffffffffffffffffffffffffff021916908373ffffffffffffffffffffffffffffffffffffffff160217905550808273ffffffffffffffffffffffffffffffffffffffff166126ae836110aa565b73ffffffffffffffffffffffffffffffffffffffff167f8c5be1e5ebec7d5bd14f71427d1e84f3dd0314c0f7b2291e5b200ac8c7c3b92560405160405180910390a45050565b6126fc612633565b73ffffffffffffffffffffffffffffffffffffffff1661271a611c8d565b73ffffffffffffffffffffffffffffffffffffffff1614612770576040517f08c379a000000000000000000000000000000000000000000000000000000000815260040161276790614ffd565b60405180910390fd5b565b600060cb600083815260200190815260200160002060009054906101000a900473ffffffffffffffffffffffffffffffffffffffff169050919050565b6000603360009054906101000a900473ffffffffffffffffffffffffffffffffffffffff16905081603360006101000a81548173ffffffffffffffffffffffffffffffffffffffff021916908373ffffffffffffffffffffffffffffffffffffffff1602179055508173ffffffffffffffffffffffffffffffffffffffff168173ffffffffffffffffffffffffffffffffffffffff167f8be0079c531659141344cd1fd0a4f28419497f9722a3daafe3b4186f6b6457e060405160405180910390a35050565b61288f82826040518060200160405280600081525061322f565b5050565b61289c826131ee565b6128db576040517f08c379a00000000000000000000000000000000000000000000000000000000081526004016128d29061508f565b60405180910390fd5b8060fb600084815260200190815260200160002090816128fb9190615251565b507ff8e1a15aba9398e019f0b49df1a4fde98ee17ae345cb5f6b5e2c27f5033e8ce78260405161292b919061400b565b60405180910390a15050565b6040518060e001604052808481526020018281526020013373ffffffffffffffffffffffffffffffffffffffff1681526020013073ffffffffffffffffffffffffffffffffffffffff16815260200183815260200160018081111561299f5761299e613be2565b5b81526020016000151581525061012e60008581526020019081526020016000206000820151816000015560208201518160010190816129de9190615251565b5060408201518160020160006101000a81548173ffffffffffffffffffffffffffffffffffffffff021916908373ffffffffffffffffffffffffffffffffffffffff16021790555060608201518160030160006101000a81548173ffffffffffffffffffffffffffffffffffffffff021916908373ffffffffffffffffffffffffffffffffffffffff1602179055506080820151816004015560a08201518160050160006101000a81548160ff02191690836001811115612aa257612aa1613be2565b5b021790555060c08201518160050160016101000a81548160ff021916908315150217905550905050612ad5333085612baf565b505050565b6000808273ffffffffffffffffffffffffffffffffffffffff163b119050919050565b600060019054906101000a900460ff16612b4c576040517f08c379a0000000000000000000000000000000000000000000000000000000008152600401612b4390615395565b60405180910390fd5b612b5461328a565b565b600060019054906101000a900460ff16612ba5576040517f08c379a0000000000000000000000000000000000000000000000000000000008152600401612b9c90615395565b60405180910390fd5b612bad6132eb565b565b8273ffffffffffffffffffffffffffffffffffffffff16612bcf826110aa565b73ffffffffffffffffffffffffffffffffffffffff1614612c25576040517f08c379a0000000000000000000000000000000000000000000000000000000008152600401612c1c90615427565b60405180910390fd5b600073ffffffffffffffffffffffffffffffffffffffff168273ffffffffffffffffffffffffffffffffffffffff1603612c94576040517f08c379a0000000000000000000000000000000000000000000000000000000008152600401612c8b906154b9565b60405180910390fd5b612ca18383836001613344565b8273ffffffffffffffffffffffffffffffffffffffff16612cc1826110aa565b73ffffffffffffffffffffffffffffffffffffffff1614612d17576040517f08c379a0000000000000000000000000000000000000000000000000000000008152600401612d0e90615427565b60405180910390fd5b60cd600082815260200190815260200160002060006101000a81549073ffffffffffffffffffffffffffffffffffffffff0219169055600160cc60008573ffffffffffffffffffffffffffffffffffffffff1673ffffffffffffffffffffffffffffffffffffffff16815260200190815260200160002060008282540392505081905550600160cc60008473ffffffffffffffffffffffffffffffffffffffff1673ffffffffffffffffffffffffffffffffffffffff168152602001908152602001600020600082825401925050819055508160cb600083815260200190815260200160002060006101000a81548173ffffffffffffffffffffffffffffffffffffffff021916908373ffffffffffffffffffffffffffffffffffffffff160217905550808273ffffffffffffffffffffffffffffffffffffffff168473ffffffffffffffffffffffffffffffffffffffff167fddf252ad1be2c89b69c2b068fc378daa952ba7f163c4a11628f55a4df523b3ef60405160405180910390a4612ea3838383600161334a565b505050565b8173ffffffffffffffffffffffffffffffffffffffff168373ffffffffffffffffffffffffffffffffffffffff1603612f16576040517f08c379a0000000000000000000000000000000000000000000000000000000008152600401612f0d90615525565b60405180910390fd5b8060ce60008573ffffffffffffffffffffffffffffffffffffffff1673ffffffffffffffffffffffffffffffffffffffff16815260200190815260200160002060008473ffffffffffffffffffffffffffffffffffffffff1673ffffffffffffffffffffffffffffffffffffffff16815260200190815260200160002060006101000a81548160ff0219169083151502179055508173ffffffffffffffffffffffffffffffffffffffff168373ffffffffffffffffffffffffffffffffffffffff167f17307eab39ab6107e8899845ad3d59bd9653f200f220920489ca2b5937696c31836040516130079190613a46565b60405180910390a3505050565b600080613020836110aa565b90508073ffffffffffffffffffffffffffffffffffffffff168473ffffffffffffffffffffffffffffffffffffffff1614806130625750613061818561207e565b5b806130a057508373ffffffffffffffffffffffffffffffffffffffff1661308884610b5c565b73ffffffffffffffffffffffffffffffffffffffff16145b91505092915050565b6130b4848484612baf565b6130c084848484613350565b6130ff576040517f08c379a00000000000000000000000000000000000000000000000000000000081526004016130f6906155b7565b60405180910390fd5b50505050565b606060405180602001604052806000815250905090565b6060613127826125e8565b6000613131613105565b90506000815111613151576040518060200160405280600081525061317c565b8061315b846134d7565b60405160200161316c929190614d41565b6040516020818303038152906040525b915050919050565b60007f01ffc9a7000000000000000000000000000000000000000000000000000000007bffffffffffffffffffffffffffffffffffffffffffffffffffffffff1916827bffffffffffffffffffffffffffffffffffffffffffffffffffffffff1916149050919050565b60008073ffffffffffffffffffffffffffffffffffffffff1661321083612772565b73ffffffffffffffffffffffffffffffffffffffff1614159050919050565b61323983836135a5565b6132466000848484613350565b613285576040517f08c379a000000000000000000000000000000000000000000000000000000000815260040161327c906155b7565b60405180910390fd5b505050565b600060019054906101000a900460ff166132d9576040517f08c379a00000000000000000000000000000000000000000000000000000000081526004016132d090615395565b60405180910390fd5b6132e96132e4612633565b6127af565b565b600060019054906101000a900460ff1661333a576040517f08c379a000000000000000000000000000000000000000000000000000000000815260040161333190615395565b60405180910390fd5b6001606581905550565b50505050565b50505050565b60006133718473ffffffffffffffffffffffffffffffffffffffff16612ada565b156134ca578373ffffffffffffffffffffffffffffffffffffffff1663150b7a0261339a612633565b8786866040518563ffffffff1660e01b81526004016133bc949392919061562c565b6020604051808303816000875af19250505080156133f857506040513d601f19601f820116820180604052508101906133f5919061568d565b60015b61347a573d8060008114613428576040519150601f19603f3d011682016040523d82523d6000602084013e61342d565b606091505b506000815103613472576040517f08c379a0000000000000000000000000000000000000000000000000000000008152600401613469906155b7565b60405180910390fd5b805181602001fd5b63150b7a0260e01b7bffffffffffffffffffffffffffffffffffffffffffffffffffffffff1916817bffffffffffffffffffffffffffffffffffffffffffffffffffffffff1916149150506134cf565b600190505b949350505050565b6060600060016134e6846137c2565b01905060008167ffffffffffffffff81111561350557613504614030565b5b6040519080825280601f01601f1916602001820160405280156135375781602001600182028036833780820191505090505b509050600082602001820190505b60011561359a578080600190039150507f3031323334353637383961626364656600000000000000000000000000000000600a86061a8153600a858161358e5761358d614bdf565b5b04945060008503613545575b819350505050919050565b600073ffffffffffffffffffffffffffffffffffffffff168273ffffffffffffffffffffffffffffffffffffffff1603613614576040517f08c379a000000000000000000000000000000000000000000000000000000000815260040161360b90615706565b60405180910390fd5b61361d816131ee565b1561365d576040517f08c379a000000000000000000000000000000000000000000000000000000000815260040161365490615772565b60405180910390fd5b61366b600083836001613344565b613674816131ee565b156136b4576040517f08c379a00000000000000000000000000000000000000000000000000000000081526004016136ab90615772565b60405180910390fd5b600160cc60008473ffffffffffffffffffffffffffffffffffffffff1673ffffffffffffffffffffffffffffffffffffffff168152602001908152602001600020600082825401925050819055508160cb600083815260200190815260200160002060006101000a81548173ffffffffffffffffffffffffffffffffffffffff021916908373ffffffffffffffffffffffffffffffffffffffff160217905550808273ffffffffffffffffffffffffffffffffffffffff16600073ffffffffffffffffffffffffffffffffffffffff167fddf252ad1be2c89b69c2b068fc378daa952ba7f163c4a11628f55a4df523b3ef60405160405180910390a46137be60008383600161334a565b5050565b600080600090507a184f03e93ff9f4daa797ed6e38ed64bf6a1f0100000000000000008310613820577a184f03e93ff9f4daa797ed6e38ed64bf6a1f010000000000000000838161381657613815614bdf565b5b0492506040810190505b6d04ee2d6d415b85acef8100000000831061385d576d04ee2d6d415b85acef8100000000838161385357613852614bdf565b5b0492506020810190505b662386f26fc10000831061388c57662386f26fc10000838161388257613881614bdf565b5b0492506010810190505b6305f5e10083106138b5576305f5e10083816138ab576138aa614bdf565b5b0492506008810190505b61271083106138da5761271083816138d0576138cf614bdf565b5b0492506004810190505b606483106138fd57606483816138f3576138f2614bdf565b5b0492506002810190505b600a831061390c576001810190505b80915050919050565b6040518060e001604052806000815260200160608152602001600073ffffffffffffffffffffffffffffffffffffffff168152602001600073ffffffffffffffffffffffffffffffffffffffff168152602001600081526020016000600181111561398357613982613be2565b5b81526020016000151581525090565b6000604051905090565b600080fd5b600080fd5b60007fffffffff0000000000000000000000000000000000000000000000000000000082169050919050565b6139db816139a6565b81146139e657600080fd5b50565b6000813590506139f8816139d2565b92915050565b600060208284031215613a1457613a1361399c565b5b6000613a22848285016139e9565b91505092915050565b60008115159050919050565b613a4081613a2b565b82525050565b6000602082019050613a5b6000830184613a37565b92915050565b600073ffffffffffffffffffffffffffffffffffffffff82169050919050565b6000613a8c82613a61565b9050919050565b613a9c81613a81565b8114613aa757600080fd5b50565b600081359050613ab981613a93565b92915050565b600060208284031215613ad557613ad461399c565b5b6000613ae384828501613aaa565b91505092915050565b600081519050919050565b600082825260208201905092915050565b6000819050602082019050919050565b6000819050919050565b613b2b81613b18565b82525050565b600081519050919050565b600082825260208201905092915050565b60005b83811015613b6b578082015181840152602081019050613b50565b60008484015250505050565b6000601f19601f8301169050919050565b6000613b9382613b31565b613b9d8185613b3c565b9350613bad818560208601613b4d565b613bb681613b77565b840191505092915050565b6000613bcc82613a61565b9050919050565b613bdc81613bc1565b82525050565b7f4e487b7100000000000000000000000000000000000000000000000000000000600052602160045260246000fd5b60028110613c2257613c21613be2565b5b50565b6000819050613c3382613c11565b919050565b6000613c4382613c25565b9050919050565b613c5381613c38565b82525050565b613c6281613a2b565b82525050565b600060e083016000830151613c806000860182613b22565b5060208301518482036020860152613c988282613b88565b9150506040830151613cad6040860182613bd3565b506060830151613cc06060860182613bd3565b506080830151613cd36080860182613b22565b5060a0830151613ce660a0860182613c4a565b5060c0830151613cf960c0860182613c59565b508091505092915050565b6000613d108383613c68565b905092915050565b6000602082019050919050565b6000613d3082613aec565b613d3a8185613af7565b935083602082028501613d4c85613b08565b8060005b85811015613d885784840389528151613d698582613d04565b9450613d7483613d18565b925060208a01995050600181019050613d50565b50829750879550505050505092915050565b60006020820190508181036000830152613db48184613d25565b905092915050565b600082825260208201905092915050565b6000613dd882613b31565b613de28185613dbc565b9350613df2818560208601613b4d565b613dfb81613b77565b840191505092915050565b60006020820190508181036000830152613e208184613dcd565b905092915050565b613e3181613b18565b8114613e3c57600080fd5b50565b600081359050613e4e81613e28565b92915050565b600060208284031215613e6a57613e6961399c565b5b6000613e7884828501613e3f565b91505092915050565b613e8a81613a81565b82525050565b6000602082019050613ea56000830184613e81565b92915050565b60008060408385031215613ec257613ec161399c565b5b6000613ed085828601613aaa565b9250506020613ee185828601613e3f565b9150509250929050565b600080600060608486031215613f0457613f0361399c565b5b6000613f1286828701613aaa565b9350506020613f2386828701613aaa565b9250506040613f3486828701613e3f565b9150509250925092565b600060e083016000830151613f566000860182613b22565b5060208301518482036020860152613f6e8282613b88565b9150506040830151613f836040860182613bd3565b506060830151613f966060860182613bd3565b506080830151613fa96080860182613b22565b5060a0830151613fbc60a0860182613c4a565b5060c0830151613fcf60c0860182613c59565b508091505092915050565b60006020820190508181036000830152613ff48184613f3e565b905092915050565b61400581613b18565b82525050565b60006020820190506140206000830184613ffc565b92915050565b600080fd5b600080fd5b7f4e487b7100000000000000000000000000000000000000000000000000000000600052604160045260246000fd5b61406882613b77565b810181811067ffffffffffffffff8211171561408757614086614030565b5b80604052505050565b600061409a613992565b90506140a6828261405f565b919050565b600067ffffffffffffffff8211156140c6576140c5614030565b5b6140cf82613b77565b9050602081019050919050565b82818337600083830152505050565b60006140fe6140f9846140ab565b614090565b90508281526020810184848401111561411a5761411961402b565b5b6141258482856140dc565b509392505050565b600082601f83011261414257614141614026565b5b81356141528482602086016140eb565b91505092915050565b600080604083850312156141725761417161399c565b5b600083013567ffffffffffffffff8111156141905761418f6139a1565b5b61419c8582860161412d565b92505060206141ad85828601613e3f565b9150509250929050565b6141c081613a2b565b81146141cb57600080fd5b50565b6000813590506141dd816141b7565b92915050565b600080604083850312156141fa576141f961399c565b5b600061420885828601613aaa565b9250506020614219858286016141ce565b9150509250929050565b61422c81613bc1565b811461423757600080fd5b50565b60008135905061424981614223565b92915050565b6000602082840312156142655761426461399c565b5b60006142738482850161423a565b91505092915050565b600067ffffffffffffffff82111561429757614296614030565b5b6142a082613b77565b9050602081019050919050565b60006142c06142bb8461427c565b614090565b9050828152602081018484840111156142dc576142db61402b565b5b6142e78482856140dc565b509392505050565b600082601f83011261430457614303614026565b5b81356143148482602086016142ad565b91505092915050565b600080600080608085870312156143375761433661399c565b5b600061434587828801613aaa565b945050602061435687828801613aaa565b935050604061436787828801613e3f565b925050606085013567ffffffffffffffff811115614388576143876139a1565b5b614394878288016142ef565b91505092959194509250565b600080604083850312156143b7576143b661399c565b5b60006143c58582860161423a565b92505060206143d685828601613e3f565b9150509250929050565b600080604083850312156143f7576143f661399c565b5b600061440585828601613aaa565b925050602061441685828601613aaa565b9150509250929050565b61442981613bc1565b82525050565b60006020820190506144446000830184614420565b92915050565b6002811061445757600080fd5b50565b6000813590506144698161444a565b92915050565b6000806000606084860312156144885761448761399c565b5b600061449686828701613e3f565b93505060206144a786828701613e3f565b92505060406144b88682870161445a565b9150509250925092565b7f4e487b7100000000000000000000000000000000000000000000000000000000600052601160045260246000fd5b60006144fc82613b18565b91507fffffffffffffffffffffffffffffffffffffffffffffffffffffffffffffffff820361452e5761452d6144c2565b5b600182019050919050565b7f4e487b7100000000000000000000000000000000000000000000000000000000600052602260045260246000fd5b6000600282049050600182168061458057607f821691505b60208210810361459357614592614539565b5b50919050565b7f4e487b7100000000000000000000000000000000000000000000000000000000600052603260045260246000fd5b7f4552433732313a20617070726f76616c20746f2063757272656e74206f776e6560008201527f7200000000000000000000000000000000000000000000000000000000000000602082015250565b6000614624602183613dbc565b915061462f826145c8565b604082019050919050565b6000602082019050818103600083015261465381614617565b9050919050565b7f4552433732313a20617070726f76652063616c6c6572206973206e6f7420746f60008201527f6b656e206f776e6572206f7220617070726f76656420666f7220616c6c000000602082015250565b60006146b6603d83613dbc565b91506146c18261465a565b604082019050919050565b600060208201905081810360008301526146e5816146a9565b9050919050565b7f436f6d6d697373696f6e2070657263656e746167652063616e6e6f742062652060008201527f6d6f7265207468616e2031303000000000000000000000000000000000000000602082015250565b6000614748602d83613dbc565b9150614753826146ec565b604082019050919050565b600060208201905081810360008301526147778161473b565b9050919050565b7f54686973206974656d206973206e6f7420666f722073616c6500000000000000600082015250565b60006147b4601983613dbc565b91506147bf8261477e565b602082019050919050565b600060208201905081810360008301526147e3816147a7565b9050919050565b7f4552433732313a20696e76616c696420746f6b656e2049440000000000000000600082015250565b6000614820601883613dbc565b915061482b826147ea565b602082019050919050565b6000602082019050818103600083015261484f81614813565b9050919050565b7f4552433732313a2061646472657373207a65726f206973206e6f74206120766160008201527f6c6964206f776e65720000000000000000000000000000000000000000000000602082015250565b60006148b2602983613dbc565b91506148bd82614856565b604082019050919050565b600060208201905081810360008301526148e1816148a5565b9050919050565b7f496e697469616c697a61626c653a20636f6e747261637420697320616c72656160008201527f647920696e697469616c697a6564000000000000000000000000000000000000602082015250565b6000614944602e83613dbc565b915061494f826148e8565b604082019050919050565b6000602082019050818103600083015261497381614937565b9050919050565b6000819050919050565b600060ff82169050919050565b6000819050919050565b60006149b66149b16149ac8461497a565b614991565b614984565b9050919050565b6149c68161499b565b82525050565b60006020820190506149e160008301846149bd565b92915050565b7f506c65617365207375626d6974207468652061736b696e67207072696365206960008201527f6e206f7264657220746f20636f6d706c65746520746865207075726368617365602082015250565b6000614a43604083613dbc565b9150614a4e826149e7565b604082019050919050565b60006020820190508181036000830152614a7281614a36565b9050919050565b7f596f752061726520746865206f776e6572206f662074686973206974656d206160008201527f6c72656164790000000000000000000000000000000000000000000000000000602082015250565b6000614ad5602683613dbc565b9150614ae082614a79565b604082019050919050565b60006020820190508181036000830152614b0481614ac8565b9050919050565b7f596f7520617265207468652073656c6c6572206f662074686973206974656d2060008201527f616c726561647900000000000000000000000000000000000000000000000000602082015250565b6000614b67602783613dbc565b9150614b7282614b0b565b604082019050919050565b60006020820190508181036000830152614b9681614b5a565b9050919050565b6000614ba882613b18565b9150614bb383613b18565b9250828202614bc181613b18565b91508282048414831517614bd857614bd76144c2565b5b5092915050565b7f4e487b7100000000000000000000000000000000000000000000000000000000600052601260045260246000fd5b6000614c1982613b18565b9150614c2483613b18565b925082614c3457614c33614bdf565b5b828204905092915050565b6000614c4a82613b18565b9150614c5583613b18565b9250828203905081811115614c6d57614c6c6144c2565b5b92915050565b7f4552433732313a2063616c6c6572206973206e6f7420746f6b656e206f776e6560008201527f72206f7220617070726f76656400000000000000000000000000000000000000602082015250565b6000614ccf602d83613dbc565b9150614cda82614c73565b604082019050919050565b60006020820190508181036000830152614cfe81614cc2565b9050919050565b600081905092915050565b6000614d1b82613b31565b614d258185614d05565b9350614d35818560208601613b4d565b80840191505092915050565b6000614d4d8285614d10565b9150614d598284614d10565b91508190509392505050565b614d6e81614984565b82525050565b6000602082019050614d896000830184614d65565b92915050565b7f4f776e61626c653a206e6577206f776e657220697320746865207a65726f206160008201527f6464726573730000000000000000000000000000000000000000000000000000602082015250565b6000614deb602683613dbc565b9150614df682614d8f565b604082019050919050565b60006020820190508181036000830152614e1a81614dde565b9050919050565b7f43616c6c6572206973206e6f74207468652073656c6c6572206f66207468652060008201527f6974656d00000000000000000000000000000000000000000000000000000000602082015250565b6000614e7d602483613dbc565b9150614e8882614e21565b604082019050919050565b60006020820190508181036000830152614eac81614e70565b9050919050565b7f4974656d20697320616c72656164792073657420746f2074686973207374617460008201527f6500000000000000000000000000000000000000000000000000000000000000602082015250565b6000614f0f602183613dbc565b9150614f1a82614eb3565b604082019050919050565b60006020820190508181036000830152614f3e81614f02565b9050919050565b7f5072696365206d757374206265206174206c6561737420312077656900000000600082015250565b6000614f7b601c83613dbc565b9150614f8682614f45565b602082019050919050565b60006020820190508181036000830152614faa81614f6e565b9050919050565b7f4f776e61626c653a2063616c6c6572206973206e6f7420746865206f776e6572600082015250565b6000614fe7602083613dbc565b9150614ff282614fb1565b602082019050919050565b6000602082019050818103600083015261501681614fda565b9050919050565b7f45524337323155524953746f726167653a2055524920736574206f66206e6f6e60008201527f6578697374656e7420746f6b656e000000000000000000000000000000000000602082015250565b6000615079602e83613dbc565b91506150848261501d565b604082019050919050565b600060208201905081810360008301526150a88161506c565b9050919050565b60008190508160005260206000209050919050565b60006020601f8301049050919050565b600082821b905092915050565b6000600883026151117fffffffffffffffffffffffffffffffffffffffffffffffffffffffffffffffff826150d4565b61511b86836150d4565b95508019841693508086168417925050509392505050565b600061514e61514961514484613b18565b614991565b613b18565b9050919050565b6000819050919050565b61516883615133565b61517c61517482615155565b8484546150e1565b825550505050565b600090565b615191615184565b61519c81848461515f565b505050565b5b818110156151c0576151b5600082615189565b6001810190506151a2565b5050565b601f821115615205576151d6816150af565b6151df846150c4565b810160208510156151ee578190505b6152026151fa856150c4565b8301826151a1565b50505b505050565b600082821c905092915050565b60006152286000198460080261520a565b1980831691505092915050565b60006152418383615217565b9150826002028217905092915050565b61525a82613b31565b67ffffffffffffffff81111561527357615272614030565b5b61527d8254614568565b6152888282856151c4565b600060209050601f8311600181146152bb57600084156152a9578287015190505b6152b38582615235565b86555061531b565b601f1984166152c9866150af565b60005b828110156152f1578489015182556001820191506020850194506020810190506152cc565b8683101561530e578489015161530a601f891682615217565b8355505b6001600288020188555050505b505050505050565b7f496e697469616c697a61626c653a20636f6e7472616374206973206e6f74206960008201527f6e697469616c697a696e67000000000000000000000000000000000000000000602082015250565b600061537f602b83613dbc565b915061538a82615323565b604082019050919050565b600060208201905081810360008301526153ae81615372565b9050919050565b7f4552433732313a207472616e736665722066726f6d20696e636f72726563742060008201527f6f776e6572000000000000000000000000000000000000000000000000000000602082015250565b6000615411602583613dbc565b915061541c826153b5565b604082019050919050565b6000602082019050818103600083015261544081615404565b9050919050565b7f4552433732313a207472616e7366657220746f20746865207a65726f2061646460008201527f7265737300000000000000000000000000000000000000000000000000000000602082015250565b60006154a3602483613dbc565b91506154ae82615447565b604082019050919050565b600060208201905081810360008301526154d281615496565b9050919050565b7f4552433732313a20617070726f766520746f2063616c6c657200000000000000600082015250565b600061550f601983613dbc565b915061551a826154d9565b602082019050919050565b6000602082019050818103600083015261553e81615502565b9050919050565b7f4552433732313a207472616e7366657220746f206e6f6e20455243373231526560008201527f63656976657220696d706c656d656e7465720000000000000000000000000000602082015250565b60006155a1603283613dbc565b91506155ac82615545565b604082019050919050565b600060208201905081810360008301526155d081615594565b9050919050565b600081519050919050565b600082825260208201905092915050565b60006155fe826155d7565b61560881856155e2565b9350615618818560208601613b4d565b61562181613b77565b840191505092915050565b60006080820190506156416000830187613e81565b61564e6020830186613e81565b61565b6040830185613ffc565b818103606083015261566d81846155f3565b905095945050505050565b600081519050615687816139d2565b92915050565b6000602082840312156156a3576156a261399c565b5b60006156b184828501615678565b91505092915050565b7f4552433732313a206d696e7420746f20746865207a65726f2061646472657373600082015250565b60006156f0602083613dbc565b91506156fb826156ba565b602082019050919050565b6000602082019050818103600083015261571f816156e3565b9050919050565b7f4552433732313a20746f6b656e20616c7265616479206d696e74656400000000600082015250565b600061575c601c83613dbc565b915061576782615726565b602082019050919050565b6000602082019050818103600083015261578b8161574f565b905091905056fea2646970667358221220a6e705b05fc0ee0822d5891676fbff6a0ba626c24fa1158f520f929bfed5d7cc64736f6c63430008120033",
  "linkReferences": {},
  "deployedLinkReferences": {}
}